
prueba_selector.elf:     file format elf32-littlearm

Sections:
Idx Name          Size      VMA       LMA       File off  Algn
  0 .isr_vector   00000194  08000000  08000000  00010000  2**0
                  CONTENTS, ALLOC, LOAD, READONLY, DATA
  1 .text         000015d4  08000194  08000194  00010194  2**2
                  CONTENTS, ALLOC, LOAD, READONLY, CODE
  2 .rodata       00000010  08001768  08001768  00011768  2**2
                  CONTENTS, ALLOC, LOAD, READONLY, DATA
  3 .ARM.extab    00000000  08001778  08001778  0002000c  2**0
                  CONTENTS
  4 .ARM          00000008  08001778  08001778  00011778  2**2
                  CONTENTS, ALLOC, LOAD, READONLY, DATA
  5 .preinit_array 00000000  08001780  08001780  0002000c  2**0
                  CONTENTS, ALLOC, LOAD, DATA
  6 .init_array   00000004  08001780  08001780  00011780  2**2
                  CONTENTS, ALLOC, LOAD, DATA
  7 .fini_array   00000004  08001784  08001784  00011784  2**2
                  CONTENTS, ALLOC, LOAD, DATA
  8 .data         0000000c  20000000  08001788  00020000  2**2
                  CONTENTS, ALLOC, LOAD, DATA
  9 .bss          00000020  2000000c  08001794  0002000c  2**2
                  ALLOC
 10 ._user_heap_stack 00000604  2000002c  08001794  0002002c  2**0
                  ALLOC
 11 .ARM.attributes 00000030  00000000  00000000  0002000c  2**0
                  CONTENTS, READONLY
 12 .debug_info   00003883  00000000  00000000  0002003c  2**0
                  CONTENTS, READONLY, DEBUGGING, OCTETS
 13 .debug_abbrev 00000e4d  00000000  00000000  000238bf  2**0
                  CONTENTS, READONLY, DEBUGGING, OCTETS
 14 .debug_aranges 000003f0  00000000  00000000  00024710  2**3
                  CONTENTS, READONLY, DEBUGGING, OCTETS
 15 .debug_ranges 00000368  00000000  00000000  00024b00  2**3
                  CONTENTS, READONLY, DEBUGGING, OCTETS
 16 .debug_macro  00014208  00000000  00000000  00024e68  2**0
                  CONTENTS, READONLY, DEBUGGING, OCTETS
 17 .debug_line   00004902  00000000  00000000  00039070  2**0
                  CONTENTS, READONLY, DEBUGGING, OCTETS
 18 .debug_str    0007e3e7  00000000  00000000  0003d972  2**0
                  CONTENTS, READONLY, DEBUGGING, OCTETS
 19 .comment      00000050  00000000  00000000  000bbd59  2**0
                  CONTENTS, READONLY
 20 .debug_frame  00000e14  00000000  00000000  000bbdac  2**2
                  CONTENTS, READONLY, DEBUGGING, OCTETS

Disassembly of section .text:

08000194 <__do_global_dtors_aux>:
 8000194:	b510      	push	{r4, lr}
 8000196:	4c05      	ldr	r4, [pc, #20]	; (80001ac <__do_global_dtors_aux+0x18>)
 8000198:	7823      	ldrb	r3, [r4, #0]
 800019a:	b933      	cbnz	r3, 80001aa <__do_global_dtors_aux+0x16>
 800019c:	4b04      	ldr	r3, [pc, #16]	; (80001b0 <__do_global_dtors_aux+0x1c>)
 800019e:	b113      	cbz	r3, 80001a6 <__do_global_dtors_aux+0x12>
 80001a0:	4804      	ldr	r0, [pc, #16]	; (80001b4 <__do_global_dtors_aux+0x20>)
 80001a2:	f3af 8000 	nop.w
 80001a6:	2301      	movs	r3, #1
 80001a8:	7023      	strb	r3, [r4, #0]
 80001aa:	bd10      	pop	{r4, pc}
 80001ac:	2000000c 	.word	0x2000000c
 80001b0:	00000000 	.word	0x00000000
 80001b4:	08001750 	.word	0x08001750

080001b8 <frame_dummy>:
 80001b8:	b508      	push	{r3, lr}
 80001ba:	4b03      	ldr	r3, [pc, #12]	; (80001c8 <frame_dummy+0x10>)
 80001bc:	b11b      	cbz	r3, 80001c6 <frame_dummy+0xe>
 80001be:	4903      	ldr	r1, [pc, #12]	; (80001cc <frame_dummy+0x14>)
 80001c0:	4803      	ldr	r0, [pc, #12]	; (80001d0 <frame_dummy+0x18>)
 80001c2:	f3af 8000 	nop.w
 80001c6:	bd08      	pop	{r3, pc}
 80001c8:	00000000 	.word	0x00000000
 80001cc:	20000010 	.word	0x20000010
 80001d0:	08001750 	.word	0x08001750

080001d4 <__aeabi_uldivmod>:
 80001d4:	b953      	cbnz	r3, 80001ec <__aeabi_uldivmod+0x18>
 80001d6:	b94a      	cbnz	r2, 80001ec <__aeabi_uldivmod+0x18>
 80001d8:	2900      	cmp	r1, #0
 80001da:	bf08      	it	eq
 80001dc:	2800      	cmpeq	r0, #0
 80001de:	bf1c      	itt	ne
 80001e0:	f04f 31ff 	movne.w	r1, #4294967295
 80001e4:	f04f 30ff 	movne.w	r0, #4294967295
 80001e8:	f000 b974 	b.w	80004d4 <__aeabi_idiv0>
 80001ec:	f1ad 0c08 	sub.w	ip, sp, #8
 80001f0:	e96d ce04 	strd	ip, lr, [sp, #-16]!
 80001f4:	f000 f806 	bl	8000204 <__udivmoddi4>
 80001f8:	f8dd e004 	ldr.w	lr, [sp, #4]
 80001fc:	e9dd 2302 	ldrd	r2, r3, [sp, #8]
 8000200:	b004      	add	sp, #16
 8000202:	4770      	bx	lr

08000204 <__udivmoddi4>:
 8000204:	e92d 47f0 	stmdb	sp!, {r4, r5, r6, r7, r8, r9, sl, lr}
 8000208:	9d08      	ldr	r5, [sp, #32]
 800020a:	4604      	mov	r4, r0
 800020c:	468e      	mov	lr, r1
 800020e:	2b00      	cmp	r3, #0
 8000210:	d14d      	bne.n	80002ae <__udivmoddi4+0xaa>
 8000212:	428a      	cmp	r2, r1
 8000214:	4694      	mov	ip, r2
 8000216:	d969      	bls.n	80002ec <__udivmoddi4+0xe8>
 8000218:	fab2 f282 	clz	r2, r2
 800021c:	b152      	cbz	r2, 8000234 <__udivmoddi4+0x30>
 800021e:	fa01 f302 	lsl.w	r3, r1, r2
 8000222:	f1c2 0120 	rsb	r1, r2, #32
 8000226:	fa20 f101 	lsr.w	r1, r0, r1
 800022a:	fa0c fc02 	lsl.w	ip, ip, r2
 800022e:	ea41 0e03 	orr.w	lr, r1, r3
 8000232:	4094      	lsls	r4, r2
 8000234:	ea4f 481c 	mov.w	r8, ip, lsr #16
 8000238:	0c21      	lsrs	r1, r4, #16
 800023a:	fbbe f6f8 	udiv	r6, lr, r8
 800023e:	fa1f f78c 	uxth.w	r7, ip
 8000242:	fb08 e316 	mls	r3, r8, r6, lr
 8000246:	ea41 4303 	orr.w	r3, r1, r3, lsl #16
 800024a:	fb06 f107 	mul.w	r1, r6, r7
 800024e:	4299      	cmp	r1, r3
 8000250:	d90a      	bls.n	8000268 <__udivmoddi4+0x64>
 8000252:	eb1c 0303 	adds.w	r3, ip, r3
 8000256:	f106 30ff 	add.w	r0, r6, #4294967295
 800025a:	f080 811f 	bcs.w	800049c <__udivmoddi4+0x298>
 800025e:	4299      	cmp	r1, r3
 8000260:	f240 811c 	bls.w	800049c <__udivmoddi4+0x298>
 8000264:	3e02      	subs	r6, #2
 8000266:	4463      	add	r3, ip
 8000268:	1a5b      	subs	r3, r3, r1
 800026a:	b2a4      	uxth	r4, r4
 800026c:	fbb3 f0f8 	udiv	r0, r3, r8
 8000270:	fb08 3310 	mls	r3, r8, r0, r3
 8000274:	ea44 4403 	orr.w	r4, r4, r3, lsl #16
 8000278:	fb00 f707 	mul.w	r7, r0, r7
 800027c:	42a7      	cmp	r7, r4
 800027e:	d90a      	bls.n	8000296 <__udivmoddi4+0x92>
 8000280:	eb1c 0404 	adds.w	r4, ip, r4
 8000284:	f100 33ff 	add.w	r3, r0, #4294967295
 8000288:	f080 810a 	bcs.w	80004a0 <__udivmoddi4+0x29c>
 800028c:	42a7      	cmp	r7, r4
 800028e:	f240 8107 	bls.w	80004a0 <__udivmoddi4+0x29c>
 8000292:	4464      	add	r4, ip
 8000294:	3802      	subs	r0, #2
 8000296:	ea40 4006 	orr.w	r0, r0, r6, lsl #16
 800029a:	1be4      	subs	r4, r4, r7
 800029c:	2600      	movs	r6, #0
 800029e:	b11d      	cbz	r5, 80002a8 <__udivmoddi4+0xa4>
 80002a0:	40d4      	lsrs	r4, r2
 80002a2:	2300      	movs	r3, #0
 80002a4:	e9c5 4300 	strd	r4, r3, [r5]
 80002a8:	4631      	mov	r1, r6
 80002aa:	e8bd 87f0 	ldmia.w	sp!, {r4, r5, r6, r7, r8, r9, sl, pc}
 80002ae:	428b      	cmp	r3, r1
 80002b0:	d909      	bls.n	80002c6 <__udivmoddi4+0xc2>
 80002b2:	2d00      	cmp	r5, #0
 80002b4:	f000 80ef 	beq.w	8000496 <__udivmoddi4+0x292>
 80002b8:	2600      	movs	r6, #0
 80002ba:	e9c5 0100 	strd	r0, r1, [r5]
 80002be:	4630      	mov	r0, r6
 80002c0:	4631      	mov	r1, r6
 80002c2:	e8bd 87f0 	ldmia.w	sp!, {r4, r5, r6, r7, r8, r9, sl, pc}
 80002c6:	fab3 f683 	clz	r6, r3
 80002ca:	2e00      	cmp	r6, #0
 80002cc:	d14a      	bne.n	8000364 <__udivmoddi4+0x160>
 80002ce:	428b      	cmp	r3, r1
 80002d0:	d302      	bcc.n	80002d8 <__udivmoddi4+0xd4>
 80002d2:	4282      	cmp	r2, r0
 80002d4:	f200 80f9 	bhi.w	80004ca <__udivmoddi4+0x2c6>
 80002d8:	1a84      	subs	r4, r0, r2
 80002da:	eb61 0303 	sbc.w	r3, r1, r3
 80002de:	2001      	movs	r0, #1
 80002e0:	469e      	mov	lr, r3
 80002e2:	2d00      	cmp	r5, #0
 80002e4:	d0e0      	beq.n	80002a8 <__udivmoddi4+0xa4>
 80002e6:	e9c5 4e00 	strd	r4, lr, [r5]
 80002ea:	e7dd      	b.n	80002a8 <__udivmoddi4+0xa4>
 80002ec:	b902      	cbnz	r2, 80002f0 <__udivmoddi4+0xec>
 80002ee:	deff      	udf	#255	; 0xff
 80002f0:	fab2 f282 	clz	r2, r2
 80002f4:	2a00      	cmp	r2, #0
 80002f6:	f040 8092 	bne.w	800041e <__udivmoddi4+0x21a>
 80002fa:	eba1 010c 	sub.w	r1, r1, ip
 80002fe:	ea4f 471c 	mov.w	r7, ip, lsr #16
 8000302:	fa1f fe8c 	uxth.w	lr, ip
 8000306:	2601      	movs	r6, #1
 8000308:	0c20      	lsrs	r0, r4, #16
 800030a:	fbb1 f3f7 	udiv	r3, r1, r7
 800030e:	fb07 1113 	mls	r1, r7, r3, r1
 8000312:	ea40 4101 	orr.w	r1, r0, r1, lsl #16
 8000316:	fb0e f003 	mul.w	r0, lr, r3
 800031a:	4288      	cmp	r0, r1
 800031c:	d908      	bls.n	8000330 <__udivmoddi4+0x12c>
 800031e:	eb1c 0101 	adds.w	r1, ip, r1
 8000322:	f103 38ff 	add.w	r8, r3, #4294967295
 8000326:	d202      	bcs.n	800032e <__udivmoddi4+0x12a>
 8000328:	4288      	cmp	r0, r1
 800032a:	f200 80cb 	bhi.w	80004c4 <__udivmoddi4+0x2c0>
 800032e:	4643      	mov	r3, r8
 8000330:	1a09      	subs	r1, r1, r0
 8000332:	b2a4      	uxth	r4, r4
 8000334:	fbb1 f0f7 	udiv	r0, r1, r7
 8000338:	fb07 1110 	mls	r1, r7, r0, r1
 800033c:	ea44 4401 	orr.w	r4, r4, r1, lsl #16
 8000340:	fb0e fe00 	mul.w	lr, lr, r0
 8000344:	45a6      	cmp	lr, r4
 8000346:	d908      	bls.n	800035a <__udivmoddi4+0x156>
 8000348:	eb1c 0404 	adds.w	r4, ip, r4
 800034c:	f100 31ff 	add.w	r1, r0, #4294967295
 8000350:	d202      	bcs.n	8000358 <__udivmoddi4+0x154>
 8000352:	45a6      	cmp	lr, r4
 8000354:	f200 80bb 	bhi.w	80004ce <__udivmoddi4+0x2ca>
 8000358:	4608      	mov	r0, r1
 800035a:	eba4 040e 	sub.w	r4, r4, lr
 800035e:	ea40 4003 	orr.w	r0, r0, r3, lsl #16
 8000362:	e79c      	b.n	800029e <__udivmoddi4+0x9a>
 8000364:	f1c6 0720 	rsb	r7, r6, #32
 8000368:	40b3      	lsls	r3, r6
 800036a:	fa22 fc07 	lsr.w	ip, r2, r7
 800036e:	ea4c 0c03 	orr.w	ip, ip, r3
 8000372:	fa20 f407 	lsr.w	r4, r0, r7
 8000376:	fa01 f306 	lsl.w	r3, r1, r6
 800037a:	431c      	orrs	r4, r3
 800037c:	40f9      	lsrs	r1, r7
 800037e:	ea4f 491c 	mov.w	r9, ip, lsr #16
 8000382:	fa00 f306 	lsl.w	r3, r0, r6
 8000386:	fbb1 f8f9 	udiv	r8, r1, r9
 800038a:	0c20      	lsrs	r0, r4, #16
 800038c:	fa1f fe8c 	uxth.w	lr, ip
 8000390:	fb09 1118 	mls	r1, r9, r8, r1
 8000394:	ea40 4101 	orr.w	r1, r0, r1, lsl #16
 8000398:	fb08 f00e 	mul.w	r0, r8, lr
 800039c:	4288      	cmp	r0, r1
 800039e:	fa02 f206 	lsl.w	r2, r2, r6
 80003a2:	d90b      	bls.n	80003bc <__udivmoddi4+0x1b8>
 80003a4:	eb1c 0101 	adds.w	r1, ip, r1
 80003a8:	f108 3aff 	add.w	sl, r8, #4294967295
 80003ac:	f080 8088 	bcs.w	80004c0 <__udivmoddi4+0x2bc>
 80003b0:	4288      	cmp	r0, r1
 80003b2:	f240 8085 	bls.w	80004c0 <__udivmoddi4+0x2bc>
 80003b6:	f1a8 0802 	sub.w	r8, r8, #2
 80003ba:	4461      	add	r1, ip
 80003bc:	1a09      	subs	r1, r1, r0
 80003be:	b2a4      	uxth	r4, r4
 80003c0:	fbb1 f0f9 	udiv	r0, r1, r9
 80003c4:	fb09 1110 	mls	r1, r9, r0, r1
 80003c8:	ea44 4101 	orr.w	r1, r4, r1, lsl #16
 80003cc:	fb00 fe0e 	mul.w	lr, r0, lr
 80003d0:	458e      	cmp	lr, r1
 80003d2:	d908      	bls.n	80003e6 <__udivmoddi4+0x1e2>
 80003d4:	eb1c 0101 	adds.w	r1, ip, r1
 80003d8:	f100 34ff 	add.w	r4, r0, #4294967295
 80003dc:	d26c      	bcs.n	80004b8 <__udivmoddi4+0x2b4>
 80003de:	458e      	cmp	lr, r1
 80003e0:	d96a      	bls.n	80004b8 <__udivmoddi4+0x2b4>
 80003e2:	3802      	subs	r0, #2
 80003e4:	4461      	add	r1, ip
 80003e6:	ea40 4008 	orr.w	r0, r0, r8, lsl #16
 80003ea:	fba0 9402 	umull	r9, r4, r0, r2
 80003ee:	eba1 010e 	sub.w	r1, r1, lr
 80003f2:	42a1      	cmp	r1, r4
 80003f4:	46c8      	mov	r8, r9
 80003f6:	46a6      	mov	lr, r4
 80003f8:	d356      	bcc.n	80004a8 <__udivmoddi4+0x2a4>
 80003fa:	d053      	beq.n	80004a4 <__udivmoddi4+0x2a0>
 80003fc:	b15d      	cbz	r5, 8000416 <__udivmoddi4+0x212>
 80003fe:	ebb3 0208 	subs.w	r2, r3, r8
 8000402:	eb61 010e 	sbc.w	r1, r1, lr
 8000406:	fa01 f707 	lsl.w	r7, r1, r7
 800040a:	fa22 f306 	lsr.w	r3, r2, r6
 800040e:	40f1      	lsrs	r1, r6
 8000410:	431f      	orrs	r7, r3
 8000412:	e9c5 7100 	strd	r7, r1, [r5]
 8000416:	2600      	movs	r6, #0
 8000418:	4631      	mov	r1, r6
 800041a:	e8bd 87f0 	ldmia.w	sp!, {r4, r5, r6, r7, r8, r9, sl, pc}
 800041e:	f1c2 0320 	rsb	r3, r2, #32
 8000422:	40d8      	lsrs	r0, r3
 8000424:	fa0c fc02 	lsl.w	ip, ip, r2
 8000428:	fa21 f303 	lsr.w	r3, r1, r3
 800042c:	4091      	lsls	r1, r2
 800042e:	4301      	orrs	r1, r0
 8000430:	ea4f 471c 	mov.w	r7, ip, lsr #16
 8000434:	fa1f fe8c 	uxth.w	lr, ip
 8000438:	fbb3 f0f7 	udiv	r0, r3, r7
 800043c:	fb07 3610 	mls	r6, r7, r0, r3
 8000440:	0c0b      	lsrs	r3, r1, #16
 8000442:	ea43 4306 	orr.w	r3, r3, r6, lsl #16
 8000446:	fb00 f60e 	mul.w	r6, r0, lr
 800044a:	429e      	cmp	r6, r3
 800044c:	fa04 f402 	lsl.w	r4, r4, r2
 8000450:	d908      	bls.n	8000464 <__udivmoddi4+0x260>
 8000452:	eb1c 0303 	adds.w	r3, ip, r3
 8000456:	f100 38ff 	add.w	r8, r0, #4294967295
 800045a:	d22f      	bcs.n	80004bc <__udivmoddi4+0x2b8>
 800045c:	429e      	cmp	r6, r3
 800045e:	d92d      	bls.n	80004bc <__udivmoddi4+0x2b8>
 8000460:	3802      	subs	r0, #2
 8000462:	4463      	add	r3, ip
 8000464:	1b9b      	subs	r3, r3, r6
 8000466:	b289      	uxth	r1, r1
 8000468:	fbb3 f6f7 	udiv	r6, r3, r7
 800046c:	fb07 3316 	mls	r3, r7, r6, r3
 8000470:	ea41 4103 	orr.w	r1, r1, r3, lsl #16
 8000474:	fb06 f30e 	mul.w	r3, r6, lr
 8000478:	428b      	cmp	r3, r1
 800047a:	d908      	bls.n	800048e <__udivmoddi4+0x28a>
 800047c:	eb1c 0101 	adds.w	r1, ip, r1
 8000480:	f106 38ff 	add.w	r8, r6, #4294967295
 8000484:	d216      	bcs.n	80004b4 <__udivmoddi4+0x2b0>
 8000486:	428b      	cmp	r3, r1
 8000488:	d914      	bls.n	80004b4 <__udivmoddi4+0x2b0>
 800048a:	3e02      	subs	r6, #2
 800048c:	4461      	add	r1, ip
 800048e:	1ac9      	subs	r1, r1, r3
 8000490:	ea46 4600 	orr.w	r6, r6, r0, lsl #16
 8000494:	e738      	b.n	8000308 <__udivmoddi4+0x104>
 8000496:	462e      	mov	r6, r5
 8000498:	4628      	mov	r0, r5
 800049a:	e705      	b.n	80002a8 <__udivmoddi4+0xa4>
 800049c:	4606      	mov	r6, r0
 800049e:	e6e3      	b.n	8000268 <__udivmoddi4+0x64>
 80004a0:	4618      	mov	r0, r3
 80004a2:	e6f8      	b.n	8000296 <__udivmoddi4+0x92>
 80004a4:	454b      	cmp	r3, r9
 80004a6:	d2a9      	bcs.n	80003fc <__udivmoddi4+0x1f8>
 80004a8:	ebb9 0802 	subs.w	r8, r9, r2
 80004ac:	eb64 0e0c 	sbc.w	lr, r4, ip
 80004b0:	3801      	subs	r0, #1
 80004b2:	e7a3      	b.n	80003fc <__udivmoddi4+0x1f8>
 80004b4:	4646      	mov	r6, r8
 80004b6:	e7ea      	b.n	800048e <__udivmoddi4+0x28a>
 80004b8:	4620      	mov	r0, r4
 80004ba:	e794      	b.n	80003e6 <__udivmoddi4+0x1e2>
 80004bc:	4640      	mov	r0, r8
 80004be:	e7d1      	b.n	8000464 <__udivmoddi4+0x260>
 80004c0:	46d0      	mov	r8, sl
 80004c2:	e77b      	b.n	80003bc <__udivmoddi4+0x1b8>
 80004c4:	3b02      	subs	r3, #2
 80004c6:	4461      	add	r1, ip
 80004c8:	e732      	b.n	8000330 <__udivmoddi4+0x12c>
 80004ca:	4630      	mov	r0, r6
 80004cc:	e709      	b.n	80002e2 <__udivmoddi4+0xde>
 80004ce:	4464      	add	r4, ip
 80004d0:	3802      	subs	r0, #2
 80004d2:	e742      	b.n	800035a <__udivmoddi4+0x156>

080004d4 <__aeabi_idiv0>:
 80004d4:	4770      	bx	lr
 80004d6:	bf00      	nop

080004d8 <main>:
/**
  * @brief  The application entry point.
  * @retval int
  */
int main(void)
{
 80004d8:	b580      	push	{r7, lr}
 80004da:	af00      	add	r7, sp, #0
  /* USER CODE END 1 */

  /* MCU Configuration--------------------------------------------------------*/

  /* Reset of all peripherals, Initializes the Flash interface and the Systick. */
  HAL_Init();
 80004dc:	f000 f99a 	bl	8000814 <HAL_Init>
  /* USER CODE BEGIN Init */

  /* USER CODE END Init */

  /* Configure the system clock */
  SystemClock_Config();
 80004e0:	f000 f81e 	bl	8000520 <SystemClock_Config>
  /* USER CODE BEGIN SysInit */

  /* USER CODE END SysInit */

  /* Initialize all configured peripherals */
  MX_GPIO_Init();
 80004e4:	f000 f888 	bl	80005f8 <MX_GPIO_Init>
  {
    /* USER CODE END WHILE */

    /* USER CODE BEGIN 3 */

	  if(HAL_GPIO_ReadPin(GPIOA, GPIO_PIN_1)){
 80004e8:	2102      	movs	r1, #2
 80004ea:	480c      	ldr	r0, [pc, #48]	; (800051c <main+0x44>)
 80004ec:	f000 fc6e 	bl	8000dcc <HAL_GPIO_ReadPin>
 80004f0:	4603      	mov	r3, r0
 80004f2:	2b00      	cmp	r3, #0
 80004f4:	d005      	beq.n	8000502 <main+0x2a>
		  HAL_GPIO_WritePin(GPIOA, GPIO_PIN_5, GPIO_PIN_SET);
 80004f6:	2201      	movs	r2, #1
 80004f8:	2120      	movs	r1, #32
 80004fa:	4808      	ldr	r0, [pc, #32]	; (800051c <main+0x44>)
 80004fc:	f000 fc7e 	bl	8000dfc <HAL_GPIO_WritePin>
 8000500:	e7f2      	b.n	80004e8 <main+0x10>
		  //HAL_GPIO_TogglePin(GPIOA, GPIO_PIN_5);
	  }
	  else if(HAL_GPIO_ReadPin(GPIOA, GPIO_PIN_4)){
 8000502:	2110      	movs	r1, #16
 8000504:	4805      	ldr	r0, [pc, #20]	; (800051c <main+0x44>)
 8000506:	f000 fc61 	bl	8000dcc <HAL_GPIO_ReadPin>
 800050a:	4603      	mov	r3, r0
 800050c:	2b00      	cmp	r3, #0
 800050e:	d0eb      	beq.n	80004e8 <main+0x10>
		HAL_GPIO_WritePin(GPIOA, GPIO_PIN_5, GPIO_PIN_RESET);
 8000510:	2200      	movs	r2, #0
 8000512:	2120      	movs	r1, #32
 8000514:	4801      	ldr	r0, [pc, #4]	; (800051c <main+0x44>)
 8000516:	f000 fc71 	bl	8000dfc <HAL_GPIO_WritePin>
	  if(HAL_GPIO_ReadPin(GPIOA, GPIO_PIN_1)){
 800051a:	e7e5      	b.n	80004e8 <main+0x10>
 800051c:	40020000 	.word	0x40020000

08000520 <SystemClock_Config>:
/**
  * @brief System Clock Configuration
  * @retval None
  */
void SystemClock_Config(void)
{
 8000520:	b580      	push	{r7, lr}
 8000522:	b094      	sub	sp, #80	; 0x50
 8000524:	af00      	add	r7, sp, #0
  RCC_OscInitTypeDef RCC_OscInitStruct = {0};
 8000526:	f107 0320 	add.w	r3, r7, #32
 800052a:	2230      	movs	r2, #48	; 0x30
 800052c:	2100      	movs	r1, #0
 800052e:	4618      	mov	r0, r3
 8000530:	f001 f906 	bl	8001740 <memset>
  RCC_ClkInitTypeDef RCC_ClkInitStruct = {0};
 8000534:	f107 030c 	add.w	r3, r7, #12
 8000538:	2200      	movs	r2, #0
 800053a:	601a      	str	r2, [r3, #0]
 800053c:	605a      	str	r2, [r3, #4]
 800053e:	609a      	str	r2, [r3, #8]
 8000540:	60da      	str	r2, [r3, #12]
 8000542:	611a      	str	r2, [r3, #16]

  /** Configure the main internal regulator output voltage
  */
  __HAL_RCC_PWR_CLK_ENABLE();
 8000544:	2300      	movs	r3, #0
 8000546:	60bb      	str	r3, [r7, #8]
 8000548:	4b29      	ldr	r3, [pc, #164]	; (80005f0 <SystemClock_Config+0xd0>)
 800054a:	6c1b      	ldr	r3, [r3, #64]	; 0x40
 800054c:	4a28      	ldr	r2, [pc, #160]	; (80005f0 <SystemClock_Config+0xd0>)
 800054e:	f043 5380 	orr.w	r3, r3, #268435456	; 0x10000000
 8000552:	6413      	str	r3, [r2, #64]	; 0x40
 8000554:	4b26      	ldr	r3, [pc, #152]	; (80005f0 <SystemClock_Config+0xd0>)
 8000556:	6c1b      	ldr	r3, [r3, #64]	; 0x40
 8000558:	f003 5380 	and.w	r3, r3, #268435456	; 0x10000000
 800055c:	60bb      	str	r3, [r7, #8]
 800055e:	68bb      	ldr	r3, [r7, #8]
  __HAL_PWR_VOLTAGESCALING_CONFIG(PWR_REGULATOR_VOLTAGE_SCALE2);
 8000560:	2300      	movs	r3, #0
 8000562:	607b      	str	r3, [r7, #4]
 8000564:	4b23      	ldr	r3, [pc, #140]	; (80005f4 <SystemClock_Config+0xd4>)
 8000566:	681b      	ldr	r3, [r3, #0]
 8000568:	f423 4340 	bic.w	r3, r3, #49152	; 0xc000
 800056c:	4a21      	ldr	r2, [pc, #132]	; (80005f4 <SystemClock_Config+0xd4>)
 800056e:	f443 4300 	orr.w	r3, r3, #32768	; 0x8000
 8000572:	6013      	str	r3, [r2, #0]
 8000574:	4b1f      	ldr	r3, [pc, #124]	; (80005f4 <SystemClock_Config+0xd4>)
 8000576:	681b      	ldr	r3, [r3, #0]
 8000578:	f403 4340 	and.w	r3, r3, #49152	; 0xc000
 800057c:	607b      	str	r3, [r7, #4]
 800057e:	687b      	ldr	r3, [r7, #4]

  /** Initializes the RCC Oscillators according to the specified parameters
  * in the RCC_OscInitTypeDef structure.
  */
  RCC_OscInitStruct.OscillatorType = RCC_OSCILLATORTYPE_HSI;
 8000580:	2302      	movs	r3, #2
 8000582:	623b      	str	r3, [r7, #32]
  RCC_OscInitStruct.HSIState = RCC_HSI_ON;
 8000584:	2301      	movs	r3, #1
 8000586:	62fb      	str	r3, [r7, #44]	; 0x2c
  RCC_OscInitStruct.HSICalibrationValue = RCC_HSICALIBRATION_DEFAULT;
 8000588:	2310      	movs	r3, #16
 800058a:	633b      	str	r3, [r7, #48]	; 0x30
  RCC_OscInitStruct.PLL.PLLState = RCC_PLL_ON;
 800058c:	2302      	movs	r3, #2
 800058e:	63bb      	str	r3, [r7, #56]	; 0x38
  RCC_OscInitStruct.PLL.PLLSource = RCC_PLLSOURCE_HSI;
 8000590:	2300      	movs	r3, #0
 8000592:	63fb      	str	r3, [r7, #60]	; 0x3c
  RCC_OscInitStruct.PLL.PLLM = 16;
 8000594:	2310      	movs	r3, #16
 8000596:	643b      	str	r3, [r7, #64]	; 0x40
  RCC_OscInitStruct.PLL.PLLN = 336;
 8000598:	f44f 73a8 	mov.w	r3, #336	; 0x150
 800059c:	647b      	str	r3, [r7, #68]	; 0x44
  RCC_OscInitStruct.PLL.PLLP = RCC_PLLP_DIV4;
 800059e:	2304      	movs	r3, #4
 80005a0:	64bb      	str	r3, [r7, #72]	; 0x48
  RCC_OscInitStruct.PLL.PLLQ = 7;
 80005a2:	2307      	movs	r3, #7
 80005a4:	64fb      	str	r3, [r7, #76]	; 0x4c
  if (HAL_RCC_OscConfig(&RCC_OscInitStruct) != HAL_OK)
 80005a6:	f107 0320 	add.w	r3, r7, #32
 80005aa:	4618      	mov	r0, r3
 80005ac:	f000 fc40 	bl	8000e30 <HAL_RCC_OscConfig>
 80005b0:	4603      	mov	r3, r0
 80005b2:	2b00      	cmp	r3, #0
 80005b4:	d001      	beq.n	80005ba <SystemClock_Config+0x9a>
  {
    Error_Handler();
 80005b6:	f000 f899 	bl	80006ec <Error_Handler>
  }

  /** Initializes the CPU, AHB and APB buses clocks
  */
  RCC_ClkInitStruct.ClockType = RCC_CLOCKTYPE_HCLK|RCC_CLOCKTYPE_SYSCLK
 80005ba:	230f      	movs	r3, #15
 80005bc:	60fb      	str	r3, [r7, #12]
                              |RCC_CLOCKTYPE_PCLK1|RCC_CLOCKTYPE_PCLK2;
  RCC_ClkInitStruct.SYSCLKSource = RCC_SYSCLKSOURCE_PLLCLK;
 80005be:	2302      	movs	r3, #2
 80005c0:	613b      	str	r3, [r7, #16]
  RCC_ClkInitStruct.AHBCLKDivider = RCC_SYSCLK_DIV1;
 80005c2:	2300      	movs	r3, #0
 80005c4:	617b      	str	r3, [r7, #20]
  RCC_ClkInitStruct.APB1CLKDivider = RCC_HCLK_DIV2;
 80005c6:	f44f 5380 	mov.w	r3, #4096	; 0x1000
 80005ca:	61bb      	str	r3, [r7, #24]
  RCC_ClkInitStruct.APB2CLKDivider = RCC_HCLK_DIV1;
 80005cc:	2300      	movs	r3, #0
 80005ce:	61fb      	str	r3, [r7, #28]

  if (HAL_RCC_ClockConfig(&RCC_ClkInitStruct, FLASH_LATENCY_2) != HAL_OK)
 80005d0:	f107 030c 	add.w	r3, r7, #12
 80005d4:	2102      	movs	r1, #2
 80005d6:	4618      	mov	r0, r3
 80005d8:	f000 fea2 	bl	8001320 <HAL_RCC_ClockConfig>
 80005dc:	4603      	mov	r3, r0
 80005de:	2b00      	cmp	r3, #0
 80005e0:	d001      	beq.n	80005e6 <SystemClock_Config+0xc6>
  {
    Error_Handler();
 80005e2:	f000 f883 	bl	80006ec <Error_Handler>
  }
}
 80005e6:	bf00      	nop
 80005e8:	3750      	adds	r7, #80	; 0x50
 80005ea:	46bd      	mov	sp, r7
 80005ec:	bd80      	pop	{r7, pc}
 80005ee:	bf00      	nop
 80005f0:	40023800 	.word	0x40023800
 80005f4:	40007000 	.word	0x40007000

080005f8 <MX_GPIO_Init>:
  * @brief GPIO Initialization Function
  * @param None
  * @retval None
  */
static void MX_GPIO_Init(void)
{
 80005f8:	b580      	push	{r7, lr}
 80005fa:	b08a      	sub	sp, #40	; 0x28
 80005fc:	af00      	add	r7, sp, #0
  GPIO_InitTypeDef GPIO_InitStruct = {0};
 80005fe:	f107 0314 	add.w	r3, r7, #20
 8000602:	2200      	movs	r2, #0
 8000604:	601a      	str	r2, [r3, #0]
 8000606:	605a      	str	r2, [r3, #4]
 8000608:	609a      	str	r2, [r3, #8]
 800060a:	60da      	str	r2, [r3, #12]
 800060c:	611a      	str	r2, [r3, #16]

  /* GPIO Ports Clock Enable */
  __HAL_RCC_GPIOC_CLK_ENABLE();
 800060e:	2300      	movs	r3, #0
 8000610:	613b      	str	r3, [r7, #16]
 8000612:	4b33      	ldr	r3, [pc, #204]	; (80006e0 <MX_GPIO_Init+0xe8>)
 8000614:	6b1b      	ldr	r3, [r3, #48]	; 0x30
 8000616:	4a32      	ldr	r2, [pc, #200]	; (80006e0 <MX_GPIO_Init+0xe8>)
 8000618:	f043 0304 	orr.w	r3, r3, #4
 800061c:	6313      	str	r3, [r2, #48]	; 0x30
 800061e:	4b30      	ldr	r3, [pc, #192]	; (80006e0 <MX_GPIO_Init+0xe8>)
 8000620:	6b1b      	ldr	r3, [r3, #48]	; 0x30
 8000622:	f003 0304 	and.w	r3, r3, #4
 8000626:	613b      	str	r3, [r7, #16]
 8000628:	693b      	ldr	r3, [r7, #16]
  __HAL_RCC_GPIOH_CLK_ENABLE();
 800062a:	2300      	movs	r3, #0
 800062c:	60fb      	str	r3, [r7, #12]
 800062e:	4b2c      	ldr	r3, [pc, #176]	; (80006e0 <MX_GPIO_Init+0xe8>)
 8000630:	6b1b      	ldr	r3, [r3, #48]	; 0x30
 8000632:	4a2b      	ldr	r2, [pc, #172]	; (80006e0 <MX_GPIO_Init+0xe8>)
 8000634:	f043 0380 	orr.w	r3, r3, #128	; 0x80
 8000638:	6313      	str	r3, [r2, #48]	; 0x30
 800063a:	4b29      	ldr	r3, [pc, #164]	; (80006e0 <MX_GPIO_Init+0xe8>)
 800063c:	6b1b      	ldr	r3, [r3, #48]	; 0x30
 800063e:	f003 0380 	and.w	r3, r3, #128	; 0x80
 8000642:	60fb      	str	r3, [r7, #12]
 8000644:	68fb      	ldr	r3, [r7, #12]
  __HAL_RCC_GPIOA_CLK_ENABLE();
 8000646:	2300      	movs	r3, #0
 8000648:	60bb      	str	r3, [r7, #8]
 800064a:	4b25      	ldr	r3, [pc, #148]	; (80006e0 <MX_GPIO_Init+0xe8>)
 800064c:	6b1b      	ldr	r3, [r3, #48]	; 0x30
 800064e:	4a24      	ldr	r2, [pc, #144]	; (80006e0 <MX_GPIO_Init+0xe8>)
 8000650:	f043 0301 	orr.w	r3, r3, #1
 8000654:	6313      	str	r3, [r2, #48]	; 0x30
 8000656:	4b22      	ldr	r3, [pc, #136]	; (80006e0 <MX_GPIO_Init+0xe8>)
 8000658:	6b1b      	ldr	r3, [r3, #48]	; 0x30
 800065a:	f003 0301 	and.w	r3, r3, #1
 800065e:	60bb      	str	r3, [r7, #8]
 8000660:	68bb      	ldr	r3, [r7, #8]
  __HAL_RCC_GPIOB_CLK_ENABLE();
 8000662:	2300      	movs	r3, #0
 8000664:	607b      	str	r3, [r7, #4]
 8000666:	4b1e      	ldr	r3, [pc, #120]	; (80006e0 <MX_GPIO_Init+0xe8>)
 8000668:	6b1b      	ldr	r3, [r3, #48]	; 0x30
 800066a:	4a1d      	ldr	r2, [pc, #116]	; (80006e0 <MX_GPIO_Init+0xe8>)
 800066c:	f043 0302 	orr.w	r3, r3, #2
 8000670:	6313      	str	r3, [r2, #48]	; 0x30
 8000672:	4b1b      	ldr	r3, [pc, #108]	; (80006e0 <MX_GPIO_Init+0xe8>)
 8000674:	6b1b      	ldr	r3, [r3, #48]	; 0x30
 8000676:	f003 0302 	and.w	r3, r3, #2
 800067a:	607b      	str	r3, [r7, #4]
 800067c:	687b      	ldr	r3, [r7, #4]

  /*Configure GPIO pin Output Level */
  HAL_GPIO_WritePin(LD2_GPIO_Port, LD2_Pin, GPIO_PIN_RESET);
 800067e:	2200      	movs	r2, #0
 8000680:	2120      	movs	r1, #32
 8000682:	4818      	ldr	r0, [pc, #96]	; (80006e4 <MX_GPIO_Init+0xec>)
 8000684:	f000 fbba 	bl	8000dfc <HAL_GPIO_WritePin>

  /*Configure GPIO pin : B1_Pin */
  GPIO_InitStruct.Pin = B1_Pin;
 8000688:	f44f 5300 	mov.w	r3, #8192	; 0x2000
 800068c:	617b      	str	r3, [r7, #20]
  GPIO_InitStruct.Mode = GPIO_MODE_IT_FALLING;
 800068e:	f44f 1304 	mov.w	r3, #2162688	; 0x210000
 8000692:	61bb      	str	r3, [r7, #24]
  GPIO_InitStruct.Pull = GPIO_NOPULL;
 8000694:	2300      	movs	r3, #0
 8000696:	61fb      	str	r3, [r7, #28]
  HAL_GPIO_Init(B1_GPIO_Port, &GPIO_InitStruct);
 8000698:	f107 0314 	add.w	r3, r7, #20
 800069c:	4619      	mov	r1, r3
 800069e:	4812      	ldr	r0, [pc, #72]	; (80006e8 <MX_GPIO_Init+0xf0>)
 80006a0:	f000 fa10 	bl	8000ac4 <HAL_GPIO_Init>

  /*Configure GPIO pins : PA1 PA4 */
  GPIO_InitStruct.Pin = GPIO_PIN_1|GPIO_PIN_4;
 80006a4:	2312      	movs	r3, #18
 80006a6:	617b      	str	r3, [r7, #20]
  GPIO_InitStruct.Mode = GPIO_MODE_INPUT;
 80006a8:	2300      	movs	r3, #0
 80006aa:	61bb      	str	r3, [r7, #24]
  GPIO_InitStruct.Pull = GPIO_PULLDOWN;
 80006ac:	2302      	movs	r3, #2
 80006ae:	61fb      	str	r3, [r7, #28]
  HAL_GPIO_Init(GPIOA, &GPIO_InitStruct);
 80006b0:	f107 0314 	add.w	r3, r7, #20
 80006b4:	4619      	mov	r1, r3
 80006b6:	480b      	ldr	r0, [pc, #44]	; (80006e4 <MX_GPIO_Init+0xec>)
 80006b8:	f000 fa04 	bl	8000ac4 <HAL_GPIO_Init>

  /*Configure GPIO pin : LD2_Pin */
  GPIO_InitStruct.Pin = LD2_Pin;
 80006bc:	2320      	movs	r3, #32
 80006be:	617b      	str	r3, [r7, #20]
  GPIO_InitStruct.Mode = GPIO_MODE_OUTPUT_PP;
 80006c0:	2301      	movs	r3, #1
 80006c2:	61bb      	str	r3, [r7, #24]
  GPIO_InitStruct.Pull = GPIO_NOPULL;
 80006c4:	2300      	movs	r3, #0
 80006c6:	61fb      	str	r3, [r7, #28]
  GPIO_InitStruct.Speed = GPIO_SPEED_FREQ_LOW;
 80006c8:	2300      	movs	r3, #0
 80006ca:	623b      	str	r3, [r7, #32]
  HAL_GPIO_Init(LD2_GPIO_Port, &GPIO_InitStruct);
 80006cc:	f107 0314 	add.w	r3, r7, #20
 80006d0:	4619      	mov	r1, r3
 80006d2:	4804      	ldr	r0, [pc, #16]	; (80006e4 <MX_GPIO_Init+0xec>)
 80006d4:	f000 f9f6 	bl	8000ac4 <HAL_GPIO_Init>

}
 80006d8:	bf00      	nop
 80006da:	3728      	adds	r7, #40	; 0x28
 80006dc:	46bd      	mov	sp, r7
 80006de:	bd80      	pop	{r7, pc}
 80006e0:	40023800 	.word	0x40023800
 80006e4:	40020000 	.word	0x40020000
 80006e8:	40020800 	.word	0x40020800

080006ec <Error_Handler>:
/**
  * @brief  This function is executed in case of error occurrence.
  * @retval None
  */
void Error_Handler(void)
{
 80006ec:	b480      	push	{r7}
 80006ee:	af00      	add	r7, sp, #0
  \details Disables IRQ interrupts by setting the I-bit in the CPSR.
           Can only be executed in Privileged modes.
 */
__STATIC_FORCEINLINE void __disable_irq(void)
{
  __ASM volatile ("cpsid i" : : : "memory");
 80006f0:	b672      	cpsid	i
}
 80006f2:	bf00      	nop
  /* USER CODE BEGIN Error_Handler_Debug */
  /* User can add his own implementation to report the HAL error return state */
  __disable_irq();
  while (1)
 80006f4:	e7fe      	b.n	80006f4 <Error_Handler+0x8>
	...

080006f8 <HAL_MspInit>:
/* USER CODE END 0 */
/**
  * Initializes the Global MSP.
  */
void HAL_MspInit(void)
{
 80006f8:	b580      	push	{r7, lr}
 80006fa:	b082      	sub	sp, #8
 80006fc:	af00      	add	r7, sp, #0
  /* USER CODE BEGIN MspInit 0 */

  /* USER CODE END MspInit 0 */

  __HAL_RCC_SYSCFG_CLK_ENABLE();
 80006fe:	2300      	movs	r3, #0
 8000700:	607b      	str	r3, [r7, #4]
 8000702:	4b10      	ldr	r3, [pc, #64]	; (8000744 <HAL_MspInit+0x4c>)
 8000704:	6c5b      	ldr	r3, [r3, #68]	; 0x44
 8000706:	4a0f      	ldr	r2, [pc, #60]	; (8000744 <HAL_MspInit+0x4c>)
 8000708:	f443 4380 	orr.w	r3, r3, #16384	; 0x4000
 800070c:	6453      	str	r3, [r2, #68]	; 0x44
 800070e:	4b0d      	ldr	r3, [pc, #52]	; (8000744 <HAL_MspInit+0x4c>)
 8000710:	6c5b      	ldr	r3, [r3, #68]	; 0x44
 8000712:	f403 4380 	and.w	r3, r3, #16384	; 0x4000
 8000716:	607b      	str	r3, [r7, #4]
 8000718:	687b      	ldr	r3, [r7, #4]
  __HAL_RCC_PWR_CLK_ENABLE();
 800071a:	2300      	movs	r3, #0
 800071c:	603b      	str	r3, [r7, #0]
 800071e:	4b09      	ldr	r3, [pc, #36]	; (8000744 <HAL_MspInit+0x4c>)
 8000720:	6c1b      	ldr	r3, [r3, #64]	; 0x40
 8000722:	4a08      	ldr	r2, [pc, #32]	; (8000744 <HAL_MspInit+0x4c>)
 8000724:	f043 5380 	orr.w	r3, r3, #268435456	; 0x10000000
 8000728:	6413      	str	r3, [r2, #64]	; 0x40
 800072a:	4b06      	ldr	r3, [pc, #24]	; (8000744 <HAL_MspInit+0x4c>)
 800072c:	6c1b      	ldr	r3, [r3, #64]	; 0x40
 800072e:	f003 5380 	and.w	r3, r3, #268435456	; 0x10000000
 8000732:	603b      	str	r3, [r7, #0]
 8000734:	683b      	ldr	r3, [r7, #0]

  HAL_NVIC_SetPriorityGrouping(NVIC_PRIORITYGROUP_0);
 8000736:	2007      	movs	r0, #7
 8000738:	f000 f990 	bl	8000a5c <HAL_NVIC_SetPriorityGrouping>
  /* System interrupt init*/

  /* USER CODE BEGIN MspInit 1 */

  /* USER CODE END MspInit 1 */
}
 800073c:	bf00      	nop
 800073e:	3708      	adds	r7, #8
 8000740:	46bd      	mov	sp, r7
 8000742:	bd80      	pop	{r7, pc}
 8000744:	40023800 	.word	0x40023800

08000748 <NMI_Handler>:
/******************************************************************************/
/**
  * @brief This function handles Non maskable interrupt.
  */
void NMI_Handler(void)
{
 8000748:	b480      	push	{r7}
 800074a:	af00      	add	r7, sp, #0
  /* USER CODE BEGIN NonMaskableInt_IRQn 0 */

  /* USER CODE END NonMaskableInt_IRQn 0 */
  /* USER CODE BEGIN NonMaskableInt_IRQn 1 */
  while (1)
 800074c:	e7fe      	b.n	800074c <NMI_Handler+0x4>

0800074e <HardFault_Handler>:

/**
  * @brief This function handles Hard fault interrupt.
  */
void HardFault_Handler(void)
{
 800074e:	b480      	push	{r7}
 8000750:	af00      	add	r7, sp, #0
  /* USER CODE BEGIN HardFault_IRQn 0 */

  /* USER CODE END HardFault_IRQn 0 */
  while (1)
 8000752:	e7fe      	b.n	8000752 <HardFault_Handler+0x4>

08000754 <MemManage_Handler>:

/**
  * @brief This function handles Memory management fault.
  */
void MemManage_Handler(void)
{
 8000754:	b480      	push	{r7}
 8000756:	af00      	add	r7, sp, #0
  /* USER CODE BEGIN MemoryManagement_IRQn 0 */

  /* USER CODE END MemoryManagement_IRQn 0 */
  while (1)
 8000758:	e7fe      	b.n	8000758 <MemManage_Handler+0x4>

0800075a <BusFault_Handler>:

/**
  * @brief This function handles Pre-fetch fault, memory access fault.
  */
void BusFault_Handler(void)
{
 800075a:	b480      	push	{r7}
 800075c:	af00      	add	r7, sp, #0
  /* USER CODE BEGIN BusFault_IRQn 0 */

  /* USER CODE END BusFault_IRQn 0 */
  while (1)
 800075e:	e7fe      	b.n	800075e <BusFault_Handler+0x4>

08000760 <UsageFault_Handler>:

/**
  * @brief This function handles Undefined instruction or illegal state.
  */
void UsageFault_Handler(void)
{
 8000760:	b480      	push	{r7}
 8000762:	af00      	add	r7, sp, #0
  /* USER CODE BEGIN UsageFault_IRQn 0 */

  /* USER CODE END UsageFault_IRQn 0 */
  while (1)
 8000764:	e7fe      	b.n	8000764 <UsageFault_Handler+0x4>

08000766 <SVC_Handler>:

/**
  * @brief This function handles System service call via SWI instruction.
  */
void SVC_Handler(void)
{
 8000766:	b480      	push	{r7}
 8000768:	af00      	add	r7, sp, #0

  /* USER CODE END SVCall_IRQn 0 */
  /* USER CODE BEGIN SVCall_IRQn 1 */

  /* USER CODE END SVCall_IRQn 1 */
}
 800076a:	bf00      	nop
 800076c:	46bd      	mov	sp, r7
 800076e:	f85d 7b04 	ldr.w	r7, [sp], #4
 8000772:	4770      	bx	lr

08000774 <DebugMon_Handler>:

/**
  * @brief This function handles Debug monitor.
  */
void DebugMon_Handler(void)
{
 8000774:	b480      	push	{r7}
 8000776:	af00      	add	r7, sp, #0

  /* USER CODE END DebugMonitor_IRQn 0 */
  /* USER CODE BEGIN DebugMonitor_IRQn 1 */

  /* USER CODE END DebugMonitor_IRQn 1 */
}
 8000778:	bf00      	nop
 800077a:	46bd      	mov	sp, r7
 800077c:	f85d 7b04 	ldr.w	r7, [sp], #4
 8000780:	4770      	bx	lr

08000782 <PendSV_Handler>:

/**
  * @brief This function handles Pendable request for system service.
  */
void PendSV_Handler(void)
{
 8000782:	b480      	push	{r7}
 8000784:	af00      	add	r7, sp, #0

  /* USER CODE END PendSV_IRQn 0 */
  /* USER CODE BEGIN PendSV_IRQn 1 */

  /* USER CODE END PendSV_IRQn 1 */
}
 8000786:	bf00      	nop
 8000788:	46bd      	mov	sp, r7
 800078a:	f85d 7b04 	ldr.w	r7, [sp], #4
 800078e:	4770      	bx	lr

08000790 <SysTick_Handler>:

/**
  * @brief This function handles System tick timer.
  */
void SysTick_Handler(void)
{
 8000790:	b580      	push	{r7, lr}
 8000792:	af00      	add	r7, sp, #0
  /* USER CODE BEGIN SysTick_IRQn 0 */

  /* USER CODE END SysTick_IRQn 0 */
  HAL_IncTick();
 8000794:	f000 f890 	bl	80008b8 <HAL_IncTick>
  /* USER CODE BEGIN SysTick_IRQn 1 */

  /* USER CODE END SysTick_IRQn 1 */
}
 8000798:	bf00      	nop
 800079a:	bd80      	pop	{r7, pc}

0800079c <SystemInit>:
  *         configuration.
  * @param  None
  * @retval None
  */
void SystemInit(void)
{
 800079c:	b480      	push	{r7}
 800079e:	af00      	add	r7, sp, #0
  /* FPU settings ------------------------------------------------------------*/
  #if (__FPU_PRESENT == 1) && (__FPU_USED == 1)
    SCB->CPACR |= ((3UL << 10*2)|(3UL << 11*2));  /* set CP10 and CP11 Full Access */
 80007a0:	4b06      	ldr	r3, [pc, #24]	; (80007bc <SystemInit+0x20>)
 80007a2:	f8d3 3088 	ldr.w	r3, [r3, #136]	; 0x88
 80007a6:	4a05      	ldr	r2, [pc, #20]	; (80007bc <SystemInit+0x20>)
 80007a8:	f443 0370 	orr.w	r3, r3, #15728640	; 0xf00000
 80007ac:	f8c2 3088 	str.w	r3, [r2, #136]	; 0x88

  /* Configure the Vector Table location -------------------------------------*/
#if defined(USER_VECT_TAB_ADDRESS)
  SCB->VTOR = VECT_TAB_BASE_ADDRESS | VECT_TAB_OFFSET; /* Vector Table Relocation in Internal SRAM */
#endif /* USER_VECT_TAB_ADDRESS */
}
 80007b0:	bf00      	nop
 80007b2:	46bd      	mov	sp, r7
 80007b4:	f85d 7b04 	ldr.w	r7, [sp], #4
 80007b8:	4770      	bx	lr
 80007ba:	bf00      	nop
 80007bc:	e000ed00 	.word	0xe000ed00

080007c0 <Reset_Handler>:

    .section  .text.Reset_Handler
  .weak  Reset_Handler
  .type  Reset_Handler, %function
Reset_Handler:  
  ldr   sp, =_estack    		 /* set stack pointer */
 80007c0:	f8df d034 	ldr.w	sp, [pc, #52]	; 80007f8 <LoopFillZerobss+0x12>

/* Copy the data segment initializers from flash to SRAM */  
  ldr r0, =_sdata
 80007c4:	480d      	ldr	r0, [pc, #52]	; (80007fc <LoopFillZerobss+0x16>)
  ldr r1, =_edata
 80007c6:	490e      	ldr	r1, [pc, #56]	; (8000800 <LoopFillZerobss+0x1a>)
  ldr r2, =_sidata
 80007c8:	4a0e      	ldr	r2, [pc, #56]	; (8000804 <LoopFillZerobss+0x1e>)
  movs r3, #0
 80007ca:	2300      	movs	r3, #0
  b LoopCopyDataInit
 80007cc:	e002      	b.n	80007d4 <LoopCopyDataInit>

080007ce <CopyDataInit>:

CopyDataInit:
  ldr r4, [r2, r3]
 80007ce:	58d4      	ldr	r4, [r2, r3]
  str r4, [r0, r3]
 80007d0:	50c4      	str	r4, [r0, r3]
  adds r3, r3, #4
 80007d2:	3304      	adds	r3, #4

080007d4 <LoopCopyDataInit>:

LoopCopyDataInit:
  adds r4, r0, r3
 80007d4:	18c4      	adds	r4, r0, r3
  cmp r4, r1
 80007d6:	428c      	cmp	r4, r1
  bcc CopyDataInit
 80007d8:	d3f9      	bcc.n	80007ce <CopyDataInit>
  
/* Zero fill the bss segment. */
  ldr r2, =_sbss
 80007da:	4a0b      	ldr	r2, [pc, #44]	; (8000808 <LoopFillZerobss+0x22>)
  ldr r4, =_ebss
 80007dc:	4c0b      	ldr	r4, [pc, #44]	; (800080c <LoopFillZerobss+0x26>)
  movs r3, #0
 80007de:	2300      	movs	r3, #0
  b LoopFillZerobss
 80007e0:	e001      	b.n	80007e6 <LoopFillZerobss>

080007e2 <FillZerobss>:

FillZerobss:
  str  r3, [r2]
 80007e2:	6013      	str	r3, [r2, #0]
  adds r2, r2, #4
 80007e4:	3204      	adds	r2, #4

080007e6 <LoopFillZerobss>:

LoopFillZerobss:
  cmp r2, r4
 80007e6:	42a2      	cmp	r2, r4
  bcc FillZerobss
 80007e8:	d3fb      	bcc.n	80007e2 <FillZerobss>

/* Call the clock system initialization function.*/
  bl  SystemInit   
 80007ea:	f7ff ffd7 	bl	800079c <SystemInit>
/* Call static constructors */
    bl __libc_init_array
 80007ee:	f000 ff83 	bl	80016f8 <__libc_init_array>
/* Call the application's entry point.*/
  bl  main
 80007f2:	f7ff fe71 	bl	80004d8 <main>
  bx  lr    
 80007f6:	4770      	bx	lr
  ldr   sp, =_estack    		 /* set stack pointer */
 80007f8:	20018000 	.word	0x20018000
  ldr r0, =_sdata
 80007fc:	20000000 	.word	0x20000000
  ldr r1, =_edata
 8000800:	2000000c 	.word	0x2000000c
  ldr r2, =_sidata
 8000804:	08001788 	.word	0x08001788
  ldr r2, =_sbss
 8000808:	2000000c 	.word	0x2000000c
  ldr r4, =_ebss
 800080c:	2000002c 	.word	0x2000002c

08000810 <ADC_IRQHandler>:
 * @retval None       
*/
    .section  .text.Default_Handler,"ax",%progbits
Default_Handler:
Infinite_Loop:
  b  Infinite_Loop
 8000810:	e7fe      	b.n	8000810 <ADC_IRQHandler>
	...

08000814 <HAL_Init>:
  *         need to ensure that the SysTick time base is always set to 1 millisecond
  *         to have correct HAL operation.
  * @retval HAL status
  */
HAL_StatusTypeDef HAL_Init(void)
{
 8000814:	b580      	push	{r7, lr}
 8000816:	af00      	add	r7, sp, #0
  /* Configure Flash prefetch, Instruction cache, Data cache */ 
#if (INSTRUCTION_CACHE_ENABLE != 0U)
  __HAL_FLASH_INSTRUCTION_CACHE_ENABLE();
 8000818:	4b0e      	ldr	r3, [pc, #56]	; (8000854 <HAL_Init+0x40>)
 800081a:	681b      	ldr	r3, [r3, #0]
 800081c:	4a0d      	ldr	r2, [pc, #52]	; (8000854 <HAL_Init+0x40>)
 800081e:	f443 7300 	orr.w	r3, r3, #512	; 0x200
 8000822:	6013      	str	r3, [r2, #0]
#endif /* INSTRUCTION_CACHE_ENABLE */

#if (DATA_CACHE_ENABLE != 0U)
  __HAL_FLASH_DATA_CACHE_ENABLE();
 8000824:	4b0b      	ldr	r3, [pc, #44]	; (8000854 <HAL_Init+0x40>)
 8000826:	681b      	ldr	r3, [r3, #0]
 8000828:	4a0a      	ldr	r2, [pc, #40]	; (8000854 <HAL_Init+0x40>)
 800082a:	f443 6380 	orr.w	r3, r3, #1024	; 0x400
 800082e:	6013      	str	r3, [r2, #0]
#endif /* DATA_CACHE_ENABLE */

#if (PREFETCH_ENABLE != 0U)
  __HAL_FLASH_PREFETCH_BUFFER_ENABLE();
 8000830:	4b08      	ldr	r3, [pc, #32]	; (8000854 <HAL_Init+0x40>)
 8000832:	681b      	ldr	r3, [r3, #0]
 8000834:	4a07      	ldr	r2, [pc, #28]	; (8000854 <HAL_Init+0x40>)
 8000836:	f443 7380 	orr.w	r3, r3, #256	; 0x100
 800083a:	6013      	str	r3, [r2, #0]
#endif /* PREFETCH_ENABLE */

  /* Set Interrupt Group Priority */
  HAL_NVIC_SetPriorityGrouping(NVIC_PRIORITYGROUP_4);
 800083c:	2003      	movs	r0, #3
 800083e:	f000 f90d 	bl	8000a5c <HAL_NVIC_SetPriorityGrouping>

  /* Use systick as time base source and configure 1ms tick (default clock after Reset is HSI) */
  HAL_InitTick(TICK_INT_PRIORITY);
 8000842:	2000      	movs	r0, #0
 8000844:	f000 f808 	bl	8000858 <HAL_InitTick>

  /* Init the low level hardware */
  HAL_MspInit();
 8000848:	f7ff ff56 	bl	80006f8 <HAL_MspInit>

  /* Return function status */
  return HAL_OK;
 800084c:	2300      	movs	r3, #0
}
 800084e:	4618      	mov	r0, r3
 8000850:	bd80      	pop	{r7, pc}
 8000852:	bf00      	nop
 8000854:	40023c00 	.word	0x40023c00

08000858 <HAL_InitTick>:
  *       implementation  in user file.
  * @param TickPriority Tick interrupt priority.
  * @retval HAL status
  */
__weak HAL_StatusTypeDef HAL_InitTick(uint32_t TickPriority)
{
 8000858:	b580      	push	{r7, lr}
 800085a:	b082      	sub	sp, #8
 800085c:	af00      	add	r7, sp, #0
 800085e:	6078      	str	r0, [r7, #4]
  /* Configure the SysTick to have interrupt in 1ms time basis*/
  if (HAL_SYSTICK_Config(SystemCoreClock / (1000U / uwTickFreq)) > 0U)
 8000860:	4b12      	ldr	r3, [pc, #72]	; (80008ac <HAL_InitTick+0x54>)
 8000862:	681a      	ldr	r2, [r3, #0]
 8000864:	4b12      	ldr	r3, [pc, #72]	; (80008b0 <HAL_InitTick+0x58>)
 8000866:	781b      	ldrb	r3, [r3, #0]
 8000868:	4619      	mov	r1, r3
 800086a:	f44f 737a 	mov.w	r3, #1000	; 0x3e8
 800086e:	fbb3 f3f1 	udiv	r3, r3, r1
 8000872:	fbb2 f3f3 	udiv	r3, r2, r3
 8000876:	4618      	mov	r0, r3
 8000878:	f000 f917 	bl	8000aaa <HAL_SYSTICK_Config>
 800087c:	4603      	mov	r3, r0
 800087e:	2b00      	cmp	r3, #0
 8000880:	d001      	beq.n	8000886 <HAL_InitTick+0x2e>
  {
    return HAL_ERROR;
 8000882:	2301      	movs	r3, #1
 8000884:	e00e      	b.n	80008a4 <HAL_InitTick+0x4c>
  }

  /* Configure the SysTick IRQ priority */
  if (TickPriority < (1UL << __NVIC_PRIO_BITS))
 8000886:	687b      	ldr	r3, [r7, #4]
 8000888:	2b0f      	cmp	r3, #15
 800088a:	d80a      	bhi.n	80008a2 <HAL_InitTick+0x4a>
  {
    HAL_NVIC_SetPriority(SysTick_IRQn, TickPriority, 0U);
 800088c:	2200      	movs	r2, #0
 800088e:	6879      	ldr	r1, [r7, #4]
 8000890:	f04f 30ff 	mov.w	r0, #4294967295
 8000894:	f000 f8ed 	bl	8000a72 <HAL_NVIC_SetPriority>
    uwTickPrio = TickPriority;
 8000898:	4a06      	ldr	r2, [pc, #24]	; (80008b4 <HAL_InitTick+0x5c>)
 800089a:	687b      	ldr	r3, [r7, #4]
 800089c:	6013      	str	r3, [r2, #0]
  {
    return HAL_ERROR;
  }

  /* Return function status */
  return HAL_OK;
 800089e:	2300      	movs	r3, #0
 80008a0:	e000      	b.n	80008a4 <HAL_InitTick+0x4c>
    return HAL_ERROR;
 80008a2:	2301      	movs	r3, #1
}
 80008a4:	4618      	mov	r0, r3
 80008a6:	3708      	adds	r7, #8
 80008a8:	46bd      	mov	sp, r7
 80008aa:	bd80      	pop	{r7, pc}
 80008ac:	20000000 	.word	0x20000000
 80008b0:	20000008 	.word	0x20000008
 80008b4:	20000004 	.word	0x20000004

080008b8 <HAL_IncTick>:
 * @note This function is declared as __weak to be overwritten in case of other 
  *      implementations in user file.
  * @retval None
  */
__weak void HAL_IncTick(void)
{
 80008b8:	b480      	push	{r7}
 80008ba:	af00      	add	r7, sp, #0
  uwTick += uwTickFreq;
 80008bc:	4b06      	ldr	r3, [pc, #24]	; (80008d8 <HAL_IncTick+0x20>)
 80008be:	781b      	ldrb	r3, [r3, #0]
 80008c0:	461a      	mov	r2, r3
 80008c2:	4b06      	ldr	r3, [pc, #24]	; (80008dc <HAL_IncTick+0x24>)
 80008c4:	681b      	ldr	r3, [r3, #0]
 80008c6:	4413      	add	r3, r2
 80008c8:	4a04      	ldr	r2, [pc, #16]	; (80008dc <HAL_IncTick+0x24>)
 80008ca:	6013      	str	r3, [r2, #0]
}
 80008cc:	bf00      	nop
 80008ce:	46bd      	mov	sp, r7
 80008d0:	f85d 7b04 	ldr.w	r7, [sp], #4
 80008d4:	4770      	bx	lr
 80008d6:	bf00      	nop
 80008d8:	20000008 	.word	0x20000008
 80008dc:	20000028 	.word	0x20000028

080008e0 <HAL_GetTick>:
  * @note This function is declared as __weak to be overwritten in case of other 
  *       implementations in user file.
  * @retval tick value
  */
__weak uint32_t HAL_GetTick(void)
{
 80008e0:	b480      	push	{r7}
 80008e2:	af00      	add	r7, sp, #0
  return uwTick;
 80008e4:	4b03      	ldr	r3, [pc, #12]	; (80008f4 <HAL_GetTick+0x14>)
 80008e6:	681b      	ldr	r3, [r3, #0]
}
 80008e8:	4618      	mov	r0, r3
 80008ea:	46bd      	mov	sp, r7
 80008ec:	f85d 7b04 	ldr.w	r7, [sp], #4
 80008f0:	4770      	bx	lr
 80008f2:	bf00      	nop
 80008f4:	20000028 	.word	0x20000028

080008f8 <__NVIC_SetPriorityGrouping>:
           In case of a conflict between priority grouping and available
           priority bits (__NVIC_PRIO_BITS), the smallest possible priority group is set.
  \param [in]      PriorityGroup  Priority grouping field.
 */
__STATIC_INLINE void __NVIC_SetPriorityGrouping(uint32_t PriorityGroup)
{
 80008f8:	b480      	push	{r7}
 80008fa:	b085      	sub	sp, #20
 80008fc:	af00      	add	r7, sp, #0
 80008fe:	6078      	str	r0, [r7, #4]
  uint32_t reg_value;
  uint32_t PriorityGroupTmp = (PriorityGroup & (uint32_t)0x07UL);             /* only values 0..7 are used          */
 8000900:	687b      	ldr	r3, [r7, #4]
 8000902:	f003 0307 	and.w	r3, r3, #7
 8000906:	60fb      	str	r3, [r7, #12]

  reg_value  =  SCB->AIRCR;                                                   /* read old register configuration    */
 8000908:	4b0c      	ldr	r3, [pc, #48]	; (800093c <__NVIC_SetPriorityGrouping+0x44>)
 800090a:	68db      	ldr	r3, [r3, #12]
 800090c:	60bb      	str	r3, [r7, #8]
  reg_value &= ~((uint32_t)(SCB_AIRCR_VECTKEY_Msk | SCB_AIRCR_PRIGROUP_Msk)); /* clear bits to change               */
 800090e:	68ba      	ldr	r2, [r7, #8]
 8000910:	f64f 03ff 	movw	r3, #63743	; 0xf8ff
 8000914:	4013      	ands	r3, r2
 8000916:	60bb      	str	r3, [r7, #8]
  reg_value  =  (reg_value                                   |
                ((uint32_t)0x5FAUL << SCB_AIRCR_VECTKEY_Pos) |
                (PriorityGroupTmp << SCB_AIRCR_PRIGROUP_Pos)  );              /* Insert write key and priority group */
 8000918:	68fb      	ldr	r3, [r7, #12]
 800091a:	021a      	lsls	r2, r3, #8
                ((uint32_t)0x5FAUL << SCB_AIRCR_VECTKEY_Pos) |
 800091c:	68bb      	ldr	r3, [r7, #8]
 800091e:	4313      	orrs	r3, r2
  reg_value  =  (reg_value                                   |
 8000920:	f043 63bf 	orr.w	r3, r3, #100139008	; 0x5f80000
 8000924:	f443 3300 	orr.w	r3, r3, #131072	; 0x20000
 8000928:	60bb      	str	r3, [r7, #8]
  SCB->AIRCR =  reg_value;
 800092a:	4a04      	ldr	r2, [pc, #16]	; (800093c <__NVIC_SetPriorityGrouping+0x44>)
 800092c:	68bb      	ldr	r3, [r7, #8]
 800092e:	60d3      	str	r3, [r2, #12]
}
 8000930:	bf00      	nop
 8000932:	3714      	adds	r7, #20
 8000934:	46bd      	mov	sp, r7
 8000936:	f85d 7b04 	ldr.w	r7, [sp], #4
 800093a:	4770      	bx	lr
 800093c:	e000ed00 	.word	0xe000ed00

08000940 <__NVIC_GetPriorityGrouping>:
  \brief   Get Priority Grouping
  \details Reads the priority grouping field from the NVIC Interrupt Controller.
  \return                Priority grouping field (SCB->AIRCR [10:8] PRIGROUP field).
 */
__STATIC_INLINE uint32_t __NVIC_GetPriorityGrouping(void)
{
 8000940:	b480      	push	{r7}
 8000942:	af00      	add	r7, sp, #0
  return ((uint32_t)((SCB->AIRCR & SCB_AIRCR_PRIGROUP_Msk) >> SCB_AIRCR_PRIGROUP_Pos));
 8000944:	4b04      	ldr	r3, [pc, #16]	; (8000958 <__NVIC_GetPriorityGrouping+0x18>)
 8000946:	68db      	ldr	r3, [r3, #12]
 8000948:	0a1b      	lsrs	r3, r3, #8
 800094a:	f003 0307 	and.w	r3, r3, #7
}
 800094e:	4618      	mov	r0, r3
 8000950:	46bd      	mov	sp, r7
 8000952:	f85d 7b04 	ldr.w	r7, [sp], #4
 8000956:	4770      	bx	lr
 8000958:	e000ed00 	.word	0xe000ed00

0800095c <__NVIC_SetPriority>:
  \param [in]      IRQn  Interrupt number.
  \param [in]  priority  Priority to set.
  \note    The priority cannot be set for every processor exception.
 */
__STATIC_INLINE void __NVIC_SetPriority(IRQn_Type IRQn, uint32_t priority)
{
 800095c:	b480      	push	{r7}
 800095e:	b083      	sub	sp, #12
 8000960:	af00      	add	r7, sp, #0
 8000962:	4603      	mov	r3, r0
 8000964:	6039      	str	r1, [r7, #0]
 8000966:	71fb      	strb	r3, [r7, #7]
  if ((int32_t)(IRQn) >= 0)
 8000968:	f997 3007 	ldrsb.w	r3, [r7, #7]
 800096c:	2b00      	cmp	r3, #0
 800096e:	db0a      	blt.n	8000986 <__NVIC_SetPriority+0x2a>
  {
    NVIC->IP[((uint32_t)IRQn)]               = (uint8_t)((priority << (8U - __NVIC_PRIO_BITS)) & (uint32_t)0xFFUL);
 8000970:	683b      	ldr	r3, [r7, #0]
 8000972:	b2da      	uxtb	r2, r3
 8000974:	490c      	ldr	r1, [pc, #48]	; (80009a8 <__NVIC_SetPriority+0x4c>)
 8000976:	f997 3007 	ldrsb.w	r3, [r7, #7]
 800097a:	0112      	lsls	r2, r2, #4
 800097c:	b2d2      	uxtb	r2, r2
 800097e:	440b      	add	r3, r1
 8000980:	f883 2300 	strb.w	r2, [r3, #768]	; 0x300
  }
  else
  {
    SCB->SHP[(((uint32_t)IRQn) & 0xFUL)-4UL] = (uint8_t)((priority << (8U - __NVIC_PRIO_BITS)) & (uint32_t)0xFFUL);
  }
}
 8000984:	e00a      	b.n	800099c <__NVIC_SetPriority+0x40>
    SCB->SHP[(((uint32_t)IRQn) & 0xFUL)-4UL] = (uint8_t)((priority << (8U - __NVIC_PRIO_BITS)) & (uint32_t)0xFFUL);
 8000986:	683b      	ldr	r3, [r7, #0]
 8000988:	b2da      	uxtb	r2, r3
 800098a:	4908      	ldr	r1, [pc, #32]	; (80009ac <__NVIC_SetPriority+0x50>)
 800098c:	79fb      	ldrb	r3, [r7, #7]
 800098e:	f003 030f 	and.w	r3, r3, #15
 8000992:	3b04      	subs	r3, #4
 8000994:	0112      	lsls	r2, r2, #4
 8000996:	b2d2      	uxtb	r2, r2
 8000998:	440b      	add	r3, r1
 800099a:	761a      	strb	r2, [r3, #24]
}
 800099c:	bf00      	nop
 800099e:	370c      	adds	r7, #12
 80009a0:	46bd      	mov	sp, r7
 80009a2:	f85d 7b04 	ldr.w	r7, [sp], #4
 80009a6:	4770      	bx	lr
 80009a8:	e000e100 	.word	0xe000e100
 80009ac:	e000ed00 	.word	0xe000ed00

080009b0 <NVIC_EncodePriority>:
  \param [in]   PreemptPriority  Preemptive priority value (starting from 0).
  \param [in]       SubPriority  Subpriority value (starting from 0).
  \return                        Encoded priority. Value can be used in the function \ref NVIC_SetPriority().
 */
__STATIC_INLINE uint32_t NVIC_EncodePriority (uint32_t PriorityGroup, uint32_t PreemptPriority, uint32_t SubPriority)
{
 80009b0:	b480      	push	{r7}
 80009b2:	b089      	sub	sp, #36	; 0x24
 80009b4:	af00      	add	r7, sp, #0
 80009b6:	60f8      	str	r0, [r7, #12]
 80009b8:	60b9      	str	r1, [r7, #8]
 80009ba:	607a      	str	r2, [r7, #4]
  uint32_t PriorityGroupTmp = (PriorityGroup & (uint32_t)0x07UL);   /* only values 0..7 are used          */
 80009bc:	68fb      	ldr	r3, [r7, #12]
 80009be:	f003 0307 	and.w	r3, r3, #7
 80009c2:	61fb      	str	r3, [r7, #28]
  uint32_t PreemptPriorityBits;
  uint32_t SubPriorityBits;

  PreemptPriorityBits = ((7UL - PriorityGroupTmp) > (uint32_t)(__NVIC_PRIO_BITS)) ? (uint32_t)(__NVIC_PRIO_BITS) : (uint32_t)(7UL - PriorityGroupTmp);
 80009c4:	69fb      	ldr	r3, [r7, #28]
 80009c6:	f1c3 0307 	rsb	r3, r3, #7
 80009ca:	2b04      	cmp	r3, #4
 80009cc:	bf28      	it	cs
 80009ce:	2304      	movcs	r3, #4
 80009d0:	61bb      	str	r3, [r7, #24]
  SubPriorityBits     = ((PriorityGroupTmp + (uint32_t)(__NVIC_PRIO_BITS)) < (uint32_t)7UL) ? (uint32_t)0UL : (uint32_t)((PriorityGroupTmp - 7UL) + (uint32_t)(__NVIC_PRIO_BITS));
 80009d2:	69fb      	ldr	r3, [r7, #28]
 80009d4:	3304      	adds	r3, #4
 80009d6:	2b06      	cmp	r3, #6
 80009d8:	d902      	bls.n	80009e0 <NVIC_EncodePriority+0x30>
 80009da:	69fb      	ldr	r3, [r7, #28]
 80009dc:	3b03      	subs	r3, #3
 80009de:	e000      	b.n	80009e2 <NVIC_EncodePriority+0x32>
 80009e0:	2300      	movs	r3, #0
 80009e2:	617b      	str	r3, [r7, #20]

  return (
           ((PreemptPriority & (uint32_t)((1UL << (PreemptPriorityBits)) - 1UL)) << SubPriorityBits) |
 80009e4:	f04f 32ff 	mov.w	r2, #4294967295
 80009e8:	69bb      	ldr	r3, [r7, #24]
 80009ea:	fa02 f303 	lsl.w	r3, r2, r3
 80009ee:	43da      	mvns	r2, r3
 80009f0:	68bb      	ldr	r3, [r7, #8]
 80009f2:	401a      	ands	r2, r3
 80009f4:	697b      	ldr	r3, [r7, #20]
 80009f6:	409a      	lsls	r2, r3
           ((SubPriority     & (uint32_t)((1UL << (SubPriorityBits    )) - 1UL)))
 80009f8:	f04f 31ff 	mov.w	r1, #4294967295
 80009fc:	697b      	ldr	r3, [r7, #20]
 80009fe:	fa01 f303 	lsl.w	r3, r1, r3
 8000a02:	43d9      	mvns	r1, r3
 8000a04:	687b      	ldr	r3, [r7, #4]
 8000a06:	400b      	ands	r3, r1
           ((PreemptPriority & (uint32_t)((1UL << (PreemptPriorityBits)) - 1UL)) << SubPriorityBits) |
 8000a08:	4313      	orrs	r3, r2
         );
}
 8000a0a:	4618      	mov	r0, r3
 8000a0c:	3724      	adds	r7, #36	; 0x24
 8000a0e:	46bd      	mov	sp, r7
 8000a10:	f85d 7b04 	ldr.w	r7, [sp], #4
 8000a14:	4770      	bx	lr
	...

08000a18 <SysTick_Config>:
  \note    When the variable <b>__Vendor_SysTickConfig</b> is set to 1, then the
           function <b>SysTick_Config</b> is not included. In this case, the file <b><i>device</i>.h</b>
           must contain a vendor-specific implementation of this function.
 */
__STATIC_INLINE uint32_t SysTick_Config(uint32_t ticks)
{
 8000a18:	b580      	push	{r7, lr}
 8000a1a:	b082      	sub	sp, #8
 8000a1c:	af00      	add	r7, sp, #0
 8000a1e:	6078      	str	r0, [r7, #4]
  if ((ticks - 1UL) > SysTick_LOAD_RELOAD_Msk)
 8000a20:	687b      	ldr	r3, [r7, #4]
 8000a22:	3b01      	subs	r3, #1
 8000a24:	f1b3 7f80 	cmp.w	r3, #16777216	; 0x1000000
 8000a28:	d301      	bcc.n	8000a2e <SysTick_Config+0x16>
  {
    return (1UL);                                                   /* Reload value impossible */
 8000a2a:	2301      	movs	r3, #1
 8000a2c:	e00f      	b.n	8000a4e <SysTick_Config+0x36>
  }

  SysTick->LOAD  = (uint32_t)(ticks - 1UL);                         /* set reload register */
 8000a2e:	4a0a      	ldr	r2, [pc, #40]	; (8000a58 <SysTick_Config+0x40>)
 8000a30:	687b      	ldr	r3, [r7, #4]
 8000a32:	3b01      	subs	r3, #1
 8000a34:	6053      	str	r3, [r2, #4]
  NVIC_SetPriority (SysTick_IRQn, (1UL << __NVIC_PRIO_BITS) - 1UL); /* set Priority for Systick Interrupt */
 8000a36:	210f      	movs	r1, #15
 8000a38:	f04f 30ff 	mov.w	r0, #4294967295
 8000a3c:	f7ff ff8e 	bl	800095c <__NVIC_SetPriority>
  SysTick->VAL   = 0UL;                                             /* Load the SysTick Counter Value */
 8000a40:	4b05      	ldr	r3, [pc, #20]	; (8000a58 <SysTick_Config+0x40>)
 8000a42:	2200      	movs	r2, #0
 8000a44:	609a      	str	r2, [r3, #8]
  SysTick->CTRL  = SysTick_CTRL_CLKSOURCE_Msk |
 8000a46:	4b04      	ldr	r3, [pc, #16]	; (8000a58 <SysTick_Config+0x40>)
 8000a48:	2207      	movs	r2, #7
 8000a4a:	601a      	str	r2, [r3, #0]
                   SysTick_CTRL_TICKINT_Msk   |
                   SysTick_CTRL_ENABLE_Msk;                         /* Enable SysTick IRQ and SysTick Timer */
  return (0UL);                                                     /* Function successful */
 8000a4c:	2300      	movs	r3, #0
}
 8000a4e:	4618      	mov	r0, r3
 8000a50:	3708      	adds	r7, #8
 8000a52:	46bd      	mov	sp, r7
 8000a54:	bd80      	pop	{r7, pc}
 8000a56:	bf00      	nop
 8000a58:	e000e010 	.word	0xe000e010

08000a5c <HAL_NVIC_SetPriorityGrouping>:
  * @note   When the NVIC_PriorityGroup_0 is selected, IRQ preemption is no more possible. 
  *         The pending IRQ priority will be managed only by the subpriority. 
  * @retval None
  */
void HAL_NVIC_SetPriorityGrouping(uint32_t PriorityGroup)
{
 8000a5c:	b580      	push	{r7, lr}
 8000a5e:	b082      	sub	sp, #8
 8000a60:	af00      	add	r7, sp, #0
 8000a62:	6078      	str	r0, [r7, #4]
  /* Check the parameters */
  assert_param(IS_NVIC_PRIORITY_GROUP(PriorityGroup));
  
  /* Set the PRIGROUP[10:8] bits according to the PriorityGroup parameter value */
  NVIC_SetPriorityGrouping(PriorityGroup);
 8000a64:	6878      	ldr	r0, [r7, #4]
 8000a66:	f7ff ff47 	bl	80008f8 <__NVIC_SetPriorityGrouping>
}
 8000a6a:	bf00      	nop
 8000a6c:	3708      	adds	r7, #8
 8000a6e:	46bd      	mov	sp, r7
 8000a70:	bd80      	pop	{r7, pc}

08000a72 <HAL_NVIC_SetPriority>:
  *         This parameter can be a value between 0 and 15
  *         A lower priority value indicates a higher priority.          
  * @retval None
  */
void HAL_NVIC_SetPriority(IRQn_Type IRQn, uint32_t PreemptPriority, uint32_t SubPriority)
{ 
 8000a72:	b580      	push	{r7, lr}
 8000a74:	b086      	sub	sp, #24
 8000a76:	af00      	add	r7, sp, #0
 8000a78:	4603      	mov	r3, r0
 8000a7a:	60b9      	str	r1, [r7, #8]
 8000a7c:	607a      	str	r2, [r7, #4]
 8000a7e:	73fb      	strb	r3, [r7, #15]
  uint32_t prioritygroup = 0x00U;
 8000a80:	2300      	movs	r3, #0
 8000a82:	617b      	str	r3, [r7, #20]
  
  /* Check the parameters */
  assert_param(IS_NVIC_SUB_PRIORITY(SubPriority));
  assert_param(IS_NVIC_PREEMPTION_PRIORITY(PreemptPriority));
  
  prioritygroup = NVIC_GetPriorityGrouping();
 8000a84:	f7ff ff5c 	bl	8000940 <__NVIC_GetPriorityGrouping>
 8000a88:	6178      	str	r0, [r7, #20]
  
  NVIC_SetPriority(IRQn, NVIC_EncodePriority(prioritygroup, PreemptPriority, SubPriority));
 8000a8a:	687a      	ldr	r2, [r7, #4]
 8000a8c:	68b9      	ldr	r1, [r7, #8]
 8000a8e:	6978      	ldr	r0, [r7, #20]
 8000a90:	f7ff ff8e 	bl	80009b0 <NVIC_EncodePriority>
 8000a94:	4602      	mov	r2, r0
 8000a96:	f997 300f 	ldrsb.w	r3, [r7, #15]
 8000a9a:	4611      	mov	r1, r2
 8000a9c:	4618      	mov	r0, r3
 8000a9e:	f7ff ff5d 	bl	800095c <__NVIC_SetPriority>
}
 8000aa2:	bf00      	nop
 8000aa4:	3718      	adds	r7, #24
 8000aa6:	46bd      	mov	sp, r7
 8000aa8:	bd80      	pop	{r7, pc}

08000aaa <HAL_SYSTICK_Config>:
  * @param  TicksNumb Specifies the ticks Number of ticks between two interrupts.
  * @retval status:  - 0  Function succeeded.
  *                  - 1  Function failed.
  */
uint32_t HAL_SYSTICK_Config(uint32_t TicksNumb)
{
 8000aaa:	b580      	push	{r7, lr}
 8000aac:	b082      	sub	sp, #8
 8000aae:	af00      	add	r7, sp, #0
 8000ab0:	6078      	str	r0, [r7, #4]
   return SysTick_Config(TicksNumb);
 8000ab2:	6878      	ldr	r0, [r7, #4]
 8000ab4:	f7ff ffb0 	bl	8000a18 <SysTick_Config>
 8000ab8:	4603      	mov	r3, r0
}
 8000aba:	4618      	mov	r0, r3
 8000abc:	3708      	adds	r7, #8
 8000abe:	46bd      	mov	sp, r7
 8000ac0:	bd80      	pop	{r7, pc}
	...

08000ac4 <HAL_GPIO_Init>:
  * @param  GPIO_Init pointer to a GPIO_InitTypeDef structure that contains
  *         the configuration information for the specified GPIO peripheral.
  * @retval None
  */
void HAL_GPIO_Init(GPIO_TypeDef  *GPIOx, GPIO_InitTypeDef *GPIO_Init)
{
 8000ac4:	b480      	push	{r7}
 8000ac6:	b089      	sub	sp, #36	; 0x24
 8000ac8:	af00      	add	r7, sp, #0
 8000aca:	6078      	str	r0, [r7, #4]
 8000acc:	6039      	str	r1, [r7, #0]
  uint32_t position;
  uint32_t ioposition = 0x00U;
 8000ace:	2300      	movs	r3, #0
 8000ad0:	617b      	str	r3, [r7, #20]
  uint32_t iocurrent = 0x00U;
 8000ad2:	2300      	movs	r3, #0
 8000ad4:	613b      	str	r3, [r7, #16]
  uint32_t temp = 0x00U;
 8000ad6:	2300      	movs	r3, #0
 8000ad8:	61bb      	str	r3, [r7, #24]
  assert_param(IS_GPIO_ALL_INSTANCE(GPIOx));
  assert_param(IS_GPIO_PIN(GPIO_Init->Pin));
  assert_param(IS_GPIO_MODE(GPIO_Init->Mode));

  /* Configure the port pins */
  for(position = 0U; position < GPIO_NUMBER; position++)
 8000ada:	2300      	movs	r3, #0
 8000adc:	61fb      	str	r3, [r7, #28]
 8000ade:	e159      	b.n	8000d94 <HAL_GPIO_Init+0x2d0>
  {
    /* Get the IO position */
    ioposition = 0x01U << position;
 8000ae0:	2201      	movs	r2, #1
 8000ae2:	69fb      	ldr	r3, [r7, #28]
 8000ae4:	fa02 f303 	lsl.w	r3, r2, r3
 8000ae8:	617b      	str	r3, [r7, #20]
    /* Get the current IO position */
    iocurrent = (uint32_t)(GPIO_Init->Pin) & ioposition;
 8000aea:	683b      	ldr	r3, [r7, #0]
 8000aec:	681b      	ldr	r3, [r3, #0]
 8000aee:	697a      	ldr	r2, [r7, #20]
 8000af0:	4013      	ands	r3, r2
 8000af2:	613b      	str	r3, [r7, #16]

    if(iocurrent == ioposition)
 8000af4:	693a      	ldr	r2, [r7, #16]
 8000af6:	697b      	ldr	r3, [r7, #20]
 8000af8:	429a      	cmp	r2, r3
 8000afa:	f040 8148 	bne.w	8000d8e <HAL_GPIO_Init+0x2ca>
    {
      /*--------------------- GPIO Mode Configuration ------------------------*/
      /* In case of Output or Alternate function mode selection */
      if(((GPIO_Init->Mode & GPIO_MODE) == MODE_OUTPUT) || \
 8000afe:	683b      	ldr	r3, [r7, #0]
 8000b00:	685b      	ldr	r3, [r3, #4]
 8000b02:	f003 0303 	and.w	r3, r3, #3
 8000b06:	2b01      	cmp	r3, #1
 8000b08:	d005      	beq.n	8000b16 <HAL_GPIO_Init+0x52>
          (GPIO_Init->Mode & GPIO_MODE) == MODE_AF)
 8000b0a:	683b      	ldr	r3, [r7, #0]
 8000b0c:	685b      	ldr	r3, [r3, #4]
 8000b0e:	f003 0303 	and.w	r3, r3, #3
      if(((GPIO_Init->Mode & GPIO_MODE) == MODE_OUTPUT) || \
 8000b12:	2b02      	cmp	r3, #2
 8000b14:	d130      	bne.n	8000b78 <HAL_GPIO_Init+0xb4>
      {
        /* Check the Speed parameter */
        assert_param(IS_GPIO_SPEED(GPIO_Init->Speed));
        /* Configure the IO Speed */
        temp = GPIOx->OSPEEDR; 
 8000b16:	687b      	ldr	r3, [r7, #4]
 8000b18:	689b      	ldr	r3, [r3, #8]
 8000b1a:	61bb      	str	r3, [r7, #24]
        temp &= ~(GPIO_OSPEEDER_OSPEEDR0 << (position * 2U));
 8000b1c:	69fb      	ldr	r3, [r7, #28]
 8000b1e:	005b      	lsls	r3, r3, #1
 8000b20:	2203      	movs	r2, #3
 8000b22:	fa02 f303 	lsl.w	r3, r2, r3
 8000b26:	43db      	mvns	r3, r3
 8000b28:	69ba      	ldr	r2, [r7, #24]
 8000b2a:	4013      	ands	r3, r2
 8000b2c:	61bb      	str	r3, [r7, #24]
        temp |= (GPIO_Init->Speed << (position * 2U));
 8000b2e:	683b      	ldr	r3, [r7, #0]
 8000b30:	68da      	ldr	r2, [r3, #12]
 8000b32:	69fb      	ldr	r3, [r7, #28]
 8000b34:	005b      	lsls	r3, r3, #1
 8000b36:	fa02 f303 	lsl.w	r3, r2, r3
 8000b3a:	69ba      	ldr	r2, [r7, #24]
 8000b3c:	4313      	orrs	r3, r2
 8000b3e:	61bb      	str	r3, [r7, #24]
        GPIOx->OSPEEDR = temp;
 8000b40:	687b      	ldr	r3, [r7, #4]
 8000b42:	69ba      	ldr	r2, [r7, #24]
 8000b44:	609a      	str	r2, [r3, #8]

        /* Configure the IO Output Type */
        temp = GPIOx->OTYPER;
 8000b46:	687b      	ldr	r3, [r7, #4]
 8000b48:	685b      	ldr	r3, [r3, #4]
 8000b4a:	61bb      	str	r3, [r7, #24]
        temp &= ~(GPIO_OTYPER_OT_0 << position) ;
 8000b4c:	2201      	movs	r2, #1
 8000b4e:	69fb      	ldr	r3, [r7, #28]
 8000b50:	fa02 f303 	lsl.w	r3, r2, r3
 8000b54:	43db      	mvns	r3, r3
 8000b56:	69ba      	ldr	r2, [r7, #24]
 8000b58:	4013      	ands	r3, r2
 8000b5a:	61bb      	str	r3, [r7, #24]
        temp |= (((GPIO_Init->Mode & OUTPUT_TYPE) >> OUTPUT_TYPE_Pos) << position);
 8000b5c:	683b      	ldr	r3, [r7, #0]
 8000b5e:	685b      	ldr	r3, [r3, #4]
 8000b60:	091b      	lsrs	r3, r3, #4
 8000b62:	f003 0201 	and.w	r2, r3, #1
 8000b66:	69fb      	ldr	r3, [r7, #28]
 8000b68:	fa02 f303 	lsl.w	r3, r2, r3
 8000b6c:	69ba      	ldr	r2, [r7, #24]
 8000b6e:	4313      	orrs	r3, r2
 8000b70:	61bb      	str	r3, [r7, #24]
        GPIOx->OTYPER = temp;
 8000b72:	687b      	ldr	r3, [r7, #4]
 8000b74:	69ba      	ldr	r2, [r7, #24]
 8000b76:	605a      	str	r2, [r3, #4]
       }

      if((GPIO_Init->Mode & GPIO_MODE) != MODE_ANALOG)
 8000b78:	683b      	ldr	r3, [r7, #0]
 8000b7a:	685b      	ldr	r3, [r3, #4]
 8000b7c:	f003 0303 	and.w	r3, r3, #3
 8000b80:	2b03      	cmp	r3, #3
 8000b82:	d017      	beq.n	8000bb4 <HAL_GPIO_Init+0xf0>
      {
        /* Check the parameters */
        assert_param(IS_GPIO_PULL(GPIO_Init->Pull));
        
        /* Activate the Pull-up or Pull down resistor for the current IO */
        temp = GPIOx->PUPDR;
 8000b84:	687b      	ldr	r3, [r7, #4]
 8000b86:	68db      	ldr	r3, [r3, #12]
 8000b88:	61bb      	str	r3, [r7, #24]
        temp &= ~(GPIO_PUPDR_PUPDR0 << (position * 2U));
 8000b8a:	69fb      	ldr	r3, [r7, #28]
 8000b8c:	005b      	lsls	r3, r3, #1
 8000b8e:	2203      	movs	r2, #3
 8000b90:	fa02 f303 	lsl.w	r3, r2, r3
 8000b94:	43db      	mvns	r3, r3
 8000b96:	69ba      	ldr	r2, [r7, #24]
 8000b98:	4013      	ands	r3, r2
 8000b9a:	61bb      	str	r3, [r7, #24]
        temp |= ((GPIO_Init->Pull) << (position * 2U));
 8000b9c:	683b      	ldr	r3, [r7, #0]
 8000b9e:	689a      	ldr	r2, [r3, #8]
 8000ba0:	69fb      	ldr	r3, [r7, #28]
 8000ba2:	005b      	lsls	r3, r3, #1
 8000ba4:	fa02 f303 	lsl.w	r3, r2, r3
 8000ba8:	69ba      	ldr	r2, [r7, #24]
 8000baa:	4313      	orrs	r3, r2
 8000bac:	61bb      	str	r3, [r7, #24]
        GPIOx->PUPDR = temp;
 8000bae:	687b      	ldr	r3, [r7, #4]
 8000bb0:	69ba      	ldr	r2, [r7, #24]
 8000bb2:	60da      	str	r2, [r3, #12]
      }

      /* In case of Alternate function mode selection */
      if((GPIO_Init->Mode & GPIO_MODE) == MODE_AF)
 8000bb4:	683b      	ldr	r3, [r7, #0]
 8000bb6:	685b      	ldr	r3, [r3, #4]
 8000bb8:	f003 0303 	and.w	r3, r3, #3
 8000bbc:	2b02      	cmp	r3, #2
 8000bbe:	d123      	bne.n	8000c08 <HAL_GPIO_Init+0x144>
      {
        /* Check the Alternate function parameter */
        assert_param(IS_GPIO_AF(GPIO_Init->Alternate));
        /* Configure Alternate function mapped with the current IO */
        temp = GPIOx->AFR[position >> 3U];
 8000bc0:	69fb      	ldr	r3, [r7, #28]
 8000bc2:	08da      	lsrs	r2, r3, #3
 8000bc4:	687b      	ldr	r3, [r7, #4]
 8000bc6:	3208      	adds	r2, #8
 8000bc8:	f853 3022 	ldr.w	r3, [r3, r2, lsl #2]
 8000bcc:	61bb      	str	r3, [r7, #24]
        temp &= ~(0xFU << ((uint32_t)(position & 0x07U) * 4U)) ;
 8000bce:	69fb      	ldr	r3, [r7, #28]
 8000bd0:	f003 0307 	and.w	r3, r3, #7
 8000bd4:	009b      	lsls	r3, r3, #2
 8000bd6:	220f      	movs	r2, #15
 8000bd8:	fa02 f303 	lsl.w	r3, r2, r3
 8000bdc:	43db      	mvns	r3, r3
 8000bde:	69ba      	ldr	r2, [r7, #24]
 8000be0:	4013      	ands	r3, r2
 8000be2:	61bb      	str	r3, [r7, #24]
        temp |= ((uint32_t)(GPIO_Init->Alternate) << (((uint32_t)position & 0x07U) * 4U));
 8000be4:	683b      	ldr	r3, [r7, #0]
 8000be6:	691a      	ldr	r2, [r3, #16]
 8000be8:	69fb      	ldr	r3, [r7, #28]
 8000bea:	f003 0307 	and.w	r3, r3, #7
 8000bee:	009b      	lsls	r3, r3, #2
 8000bf0:	fa02 f303 	lsl.w	r3, r2, r3
 8000bf4:	69ba      	ldr	r2, [r7, #24]
 8000bf6:	4313      	orrs	r3, r2
 8000bf8:	61bb      	str	r3, [r7, #24]
        GPIOx->AFR[position >> 3U] = temp;
 8000bfa:	69fb      	ldr	r3, [r7, #28]
 8000bfc:	08da      	lsrs	r2, r3, #3
 8000bfe:	687b      	ldr	r3, [r7, #4]
 8000c00:	3208      	adds	r2, #8
 8000c02:	69b9      	ldr	r1, [r7, #24]
 8000c04:	f843 1022 	str.w	r1, [r3, r2, lsl #2]
      }

      /* Configure IO Direction mode (Input, Output, Alternate or Analog) */
      temp = GPIOx->MODER;
 8000c08:	687b      	ldr	r3, [r7, #4]
 8000c0a:	681b      	ldr	r3, [r3, #0]
 8000c0c:	61bb      	str	r3, [r7, #24]
      temp &= ~(GPIO_MODER_MODER0 << (position * 2U));
 8000c0e:	69fb      	ldr	r3, [r7, #28]
 8000c10:	005b      	lsls	r3, r3, #1
 8000c12:	2203      	movs	r2, #3
 8000c14:	fa02 f303 	lsl.w	r3, r2, r3
 8000c18:	43db      	mvns	r3, r3
 8000c1a:	69ba      	ldr	r2, [r7, #24]
 8000c1c:	4013      	ands	r3, r2
 8000c1e:	61bb      	str	r3, [r7, #24]
      temp |= ((GPIO_Init->Mode & GPIO_MODE) << (position * 2U));
 8000c20:	683b      	ldr	r3, [r7, #0]
 8000c22:	685b      	ldr	r3, [r3, #4]
 8000c24:	f003 0203 	and.w	r2, r3, #3
 8000c28:	69fb      	ldr	r3, [r7, #28]
 8000c2a:	005b      	lsls	r3, r3, #1
 8000c2c:	fa02 f303 	lsl.w	r3, r2, r3
 8000c30:	69ba      	ldr	r2, [r7, #24]
 8000c32:	4313      	orrs	r3, r2
 8000c34:	61bb      	str	r3, [r7, #24]
      GPIOx->MODER = temp;
 8000c36:	687b      	ldr	r3, [r7, #4]
 8000c38:	69ba      	ldr	r2, [r7, #24]
 8000c3a:	601a      	str	r2, [r3, #0]

      /*--------------------- EXTI Mode Configuration ------------------------*/
      /* Configure the External Interrupt or event for the current IO */
      if((GPIO_Init->Mode & EXTI_MODE) != 0x00U)
 8000c3c:	683b      	ldr	r3, [r7, #0]
 8000c3e:	685b      	ldr	r3, [r3, #4]
 8000c40:	f403 3340 	and.w	r3, r3, #196608	; 0x30000
 8000c44:	2b00      	cmp	r3, #0
 8000c46:	f000 80a2 	beq.w	8000d8e <HAL_GPIO_Init+0x2ca>
      {
        /* Enable SYSCFG Clock */
        __HAL_RCC_SYSCFG_CLK_ENABLE();
 8000c4a:	2300      	movs	r3, #0
 8000c4c:	60fb      	str	r3, [r7, #12]
 8000c4e:	4b57      	ldr	r3, [pc, #348]	; (8000dac <HAL_GPIO_Init+0x2e8>)
 8000c50:	6c5b      	ldr	r3, [r3, #68]	; 0x44
 8000c52:	4a56      	ldr	r2, [pc, #344]	; (8000dac <HAL_GPIO_Init+0x2e8>)
 8000c54:	f443 4380 	orr.w	r3, r3, #16384	; 0x4000
 8000c58:	6453      	str	r3, [r2, #68]	; 0x44
 8000c5a:	4b54      	ldr	r3, [pc, #336]	; (8000dac <HAL_GPIO_Init+0x2e8>)
 8000c5c:	6c5b      	ldr	r3, [r3, #68]	; 0x44
 8000c5e:	f403 4380 	and.w	r3, r3, #16384	; 0x4000
 8000c62:	60fb      	str	r3, [r7, #12]
 8000c64:	68fb      	ldr	r3, [r7, #12]

        temp = SYSCFG->EXTICR[position >> 2U];
 8000c66:	4a52      	ldr	r2, [pc, #328]	; (8000db0 <HAL_GPIO_Init+0x2ec>)
 8000c68:	69fb      	ldr	r3, [r7, #28]
 8000c6a:	089b      	lsrs	r3, r3, #2
 8000c6c:	3302      	adds	r3, #2
 8000c6e:	f852 3023 	ldr.w	r3, [r2, r3, lsl #2]
 8000c72:	61bb      	str	r3, [r7, #24]
        temp &= ~(0x0FU << (4U * (position & 0x03U)));
 8000c74:	69fb      	ldr	r3, [r7, #28]
 8000c76:	f003 0303 	and.w	r3, r3, #3
 8000c7a:	009b      	lsls	r3, r3, #2
 8000c7c:	220f      	movs	r2, #15
 8000c7e:	fa02 f303 	lsl.w	r3, r2, r3
 8000c82:	43db      	mvns	r3, r3
 8000c84:	69ba      	ldr	r2, [r7, #24]
 8000c86:	4013      	ands	r3, r2
 8000c88:	61bb      	str	r3, [r7, #24]
        temp |= ((uint32_t)(GPIO_GET_INDEX(GPIOx)) << (4U * (position & 0x03U)));
 8000c8a:	687b      	ldr	r3, [r7, #4]
 8000c8c:	4a49      	ldr	r2, [pc, #292]	; (8000db4 <HAL_GPIO_Init+0x2f0>)
 8000c8e:	4293      	cmp	r3, r2
 8000c90:	d019      	beq.n	8000cc6 <HAL_GPIO_Init+0x202>
 8000c92:	687b      	ldr	r3, [r7, #4]
 8000c94:	4a48      	ldr	r2, [pc, #288]	; (8000db8 <HAL_GPIO_Init+0x2f4>)
 8000c96:	4293      	cmp	r3, r2
 8000c98:	d013      	beq.n	8000cc2 <HAL_GPIO_Init+0x1fe>
 8000c9a:	687b      	ldr	r3, [r7, #4]
 8000c9c:	4a47      	ldr	r2, [pc, #284]	; (8000dbc <HAL_GPIO_Init+0x2f8>)
 8000c9e:	4293      	cmp	r3, r2
 8000ca0:	d00d      	beq.n	8000cbe <HAL_GPIO_Init+0x1fa>
 8000ca2:	687b      	ldr	r3, [r7, #4]
 8000ca4:	4a46      	ldr	r2, [pc, #280]	; (8000dc0 <HAL_GPIO_Init+0x2fc>)
 8000ca6:	4293      	cmp	r3, r2
 8000ca8:	d007      	beq.n	8000cba <HAL_GPIO_Init+0x1f6>
 8000caa:	687b      	ldr	r3, [r7, #4]
 8000cac:	4a45      	ldr	r2, [pc, #276]	; (8000dc4 <HAL_GPIO_Init+0x300>)
 8000cae:	4293      	cmp	r3, r2
 8000cb0:	d101      	bne.n	8000cb6 <HAL_GPIO_Init+0x1f2>
 8000cb2:	2304      	movs	r3, #4
 8000cb4:	e008      	b.n	8000cc8 <HAL_GPIO_Init+0x204>
 8000cb6:	2307      	movs	r3, #7
 8000cb8:	e006      	b.n	8000cc8 <HAL_GPIO_Init+0x204>
 8000cba:	2303      	movs	r3, #3
 8000cbc:	e004      	b.n	8000cc8 <HAL_GPIO_Init+0x204>
 8000cbe:	2302      	movs	r3, #2
 8000cc0:	e002      	b.n	8000cc8 <HAL_GPIO_Init+0x204>
 8000cc2:	2301      	movs	r3, #1
 8000cc4:	e000      	b.n	8000cc8 <HAL_GPIO_Init+0x204>
 8000cc6:	2300      	movs	r3, #0
 8000cc8:	69fa      	ldr	r2, [r7, #28]
 8000cca:	f002 0203 	and.w	r2, r2, #3
 8000cce:	0092      	lsls	r2, r2, #2
 8000cd0:	4093      	lsls	r3, r2
 8000cd2:	69ba      	ldr	r2, [r7, #24]
 8000cd4:	4313      	orrs	r3, r2
 8000cd6:	61bb      	str	r3, [r7, #24]
        SYSCFG->EXTICR[position >> 2U] = temp;
 8000cd8:	4935      	ldr	r1, [pc, #212]	; (8000db0 <HAL_GPIO_Init+0x2ec>)
 8000cda:	69fb      	ldr	r3, [r7, #28]
 8000cdc:	089b      	lsrs	r3, r3, #2
 8000cde:	3302      	adds	r3, #2
 8000ce0:	69ba      	ldr	r2, [r7, #24]
 8000ce2:	f841 2023 	str.w	r2, [r1, r3, lsl #2]

        /* Clear Rising Falling edge configuration */
        temp = EXTI->RTSR;
 8000ce6:	4b38      	ldr	r3, [pc, #224]	; (8000dc8 <HAL_GPIO_Init+0x304>)
 8000ce8:	689b      	ldr	r3, [r3, #8]
 8000cea:	61bb      	str	r3, [r7, #24]
        temp &= ~((uint32_t)iocurrent);
 8000cec:	693b      	ldr	r3, [r7, #16]
 8000cee:	43db      	mvns	r3, r3
 8000cf0:	69ba      	ldr	r2, [r7, #24]
 8000cf2:	4013      	ands	r3, r2
 8000cf4:	61bb      	str	r3, [r7, #24]
        if((GPIO_Init->Mode & TRIGGER_RISING) != 0x00U)
 8000cf6:	683b      	ldr	r3, [r7, #0]
 8000cf8:	685b      	ldr	r3, [r3, #4]
 8000cfa:	f403 1380 	and.w	r3, r3, #1048576	; 0x100000
 8000cfe:	2b00      	cmp	r3, #0
 8000d00:	d003      	beq.n	8000d0a <HAL_GPIO_Init+0x246>
        {
          temp |= iocurrent;
 8000d02:	69ba      	ldr	r2, [r7, #24]
 8000d04:	693b      	ldr	r3, [r7, #16]
 8000d06:	4313      	orrs	r3, r2
 8000d08:	61bb      	str	r3, [r7, #24]
        }
        EXTI->RTSR = temp;
 8000d0a:	4a2f      	ldr	r2, [pc, #188]	; (8000dc8 <HAL_GPIO_Init+0x304>)
 8000d0c:	69bb      	ldr	r3, [r7, #24]
 8000d0e:	6093      	str	r3, [r2, #8]

        temp = EXTI->FTSR;
 8000d10:	4b2d      	ldr	r3, [pc, #180]	; (8000dc8 <HAL_GPIO_Init+0x304>)
 8000d12:	68db      	ldr	r3, [r3, #12]
 8000d14:	61bb      	str	r3, [r7, #24]
        temp &= ~((uint32_t)iocurrent);
 8000d16:	693b      	ldr	r3, [r7, #16]
 8000d18:	43db      	mvns	r3, r3
 8000d1a:	69ba      	ldr	r2, [r7, #24]
 8000d1c:	4013      	ands	r3, r2
 8000d1e:	61bb      	str	r3, [r7, #24]
        if((GPIO_Init->Mode & TRIGGER_FALLING) != 0x00U)
 8000d20:	683b      	ldr	r3, [r7, #0]
 8000d22:	685b      	ldr	r3, [r3, #4]
 8000d24:	f403 1300 	and.w	r3, r3, #2097152	; 0x200000
 8000d28:	2b00      	cmp	r3, #0
 8000d2a:	d003      	beq.n	8000d34 <HAL_GPIO_Init+0x270>
        {
          temp |= iocurrent;
 8000d2c:	69ba      	ldr	r2, [r7, #24]
 8000d2e:	693b      	ldr	r3, [r7, #16]
 8000d30:	4313      	orrs	r3, r2
 8000d32:	61bb      	str	r3, [r7, #24]
        }
        EXTI->FTSR = temp;
 8000d34:	4a24      	ldr	r2, [pc, #144]	; (8000dc8 <HAL_GPIO_Init+0x304>)
 8000d36:	69bb      	ldr	r3, [r7, #24]
 8000d38:	60d3      	str	r3, [r2, #12]

        temp = EXTI->EMR;
 8000d3a:	4b23      	ldr	r3, [pc, #140]	; (8000dc8 <HAL_GPIO_Init+0x304>)
 8000d3c:	685b      	ldr	r3, [r3, #4]
 8000d3e:	61bb      	str	r3, [r7, #24]
        temp &= ~((uint32_t)iocurrent);
 8000d40:	693b      	ldr	r3, [r7, #16]
 8000d42:	43db      	mvns	r3, r3
 8000d44:	69ba      	ldr	r2, [r7, #24]
 8000d46:	4013      	ands	r3, r2
 8000d48:	61bb      	str	r3, [r7, #24]
        if((GPIO_Init->Mode & EXTI_EVT) != 0x00U)
 8000d4a:	683b      	ldr	r3, [r7, #0]
 8000d4c:	685b      	ldr	r3, [r3, #4]
 8000d4e:	f403 3300 	and.w	r3, r3, #131072	; 0x20000
 8000d52:	2b00      	cmp	r3, #0
 8000d54:	d003      	beq.n	8000d5e <HAL_GPIO_Init+0x29a>
        {
          temp |= iocurrent;
 8000d56:	69ba      	ldr	r2, [r7, #24]
 8000d58:	693b      	ldr	r3, [r7, #16]
 8000d5a:	4313      	orrs	r3, r2
 8000d5c:	61bb      	str	r3, [r7, #24]
        }
        EXTI->EMR = temp;
 8000d5e:	4a1a      	ldr	r2, [pc, #104]	; (8000dc8 <HAL_GPIO_Init+0x304>)
 8000d60:	69bb      	ldr	r3, [r7, #24]
 8000d62:	6053      	str	r3, [r2, #4]

        /* Clear EXTI line configuration */
        temp = EXTI->IMR;
 8000d64:	4b18      	ldr	r3, [pc, #96]	; (8000dc8 <HAL_GPIO_Init+0x304>)
 8000d66:	681b      	ldr	r3, [r3, #0]
 8000d68:	61bb      	str	r3, [r7, #24]
        temp &= ~((uint32_t)iocurrent);
 8000d6a:	693b      	ldr	r3, [r7, #16]
 8000d6c:	43db      	mvns	r3, r3
 8000d6e:	69ba      	ldr	r2, [r7, #24]
 8000d70:	4013      	ands	r3, r2
 8000d72:	61bb      	str	r3, [r7, #24]
        if((GPIO_Init->Mode & EXTI_IT) != 0x00U)
 8000d74:	683b      	ldr	r3, [r7, #0]
 8000d76:	685b      	ldr	r3, [r3, #4]
 8000d78:	f403 3380 	and.w	r3, r3, #65536	; 0x10000
 8000d7c:	2b00      	cmp	r3, #0
 8000d7e:	d003      	beq.n	8000d88 <HAL_GPIO_Init+0x2c4>
        {
          temp |= iocurrent;
 8000d80:	69ba      	ldr	r2, [r7, #24]
 8000d82:	693b      	ldr	r3, [r7, #16]
 8000d84:	4313      	orrs	r3, r2
 8000d86:	61bb      	str	r3, [r7, #24]
        }
        EXTI->IMR = temp;
 8000d88:	4a0f      	ldr	r2, [pc, #60]	; (8000dc8 <HAL_GPIO_Init+0x304>)
 8000d8a:	69bb      	ldr	r3, [r7, #24]
 8000d8c:	6013      	str	r3, [r2, #0]
  for(position = 0U; position < GPIO_NUMBER; position++)
 8000d8e:	69fb      	ldr	r3, [r7, #28]
 8000d90:	3301      	adds	r3, #1
 8000d92:	61fb      	str	r3, [r7, #28]
 8000d94:	69fb      	ldr	r3, [r7, #28]
 8000d96:	2b0f      	cmp	r3, #15
 8000d98:	f67f aea2 	bls.w	8000ae0 <HAL_GPIO_Init+0x1c>
      }
    }
  }
}
 8000d9c:	bf00      	nop
 8000d9e:	bf00      	nop
 8000da0:	3724      	adds	r7, #36	; 0x24
 8000da2:	46bd      	mov	sp, r7
 8000da4:	f85d 7b04 	ldr.w	r7, [sp], #4
 8000da8:	4770      	bx	lr
 8000daa:	bf00      	nop
 8000dac:	40023800 	.word	0x40023800
 8000db0:	40013800 	.word	0x40013800
 8000db4:	40020000 	.word	0x40020000
 8000db8:	40020400 	.word	0x40020400
 8000dbc:	40020800 	.word	0x40020800
 8000dc0:	40020c00 	.word	0x40020c00
 8000dc4:	40021000 	.word	0x40021000
 8000dc8:	40013c00 	.word	0x40013c00

08000dcc <HAL_GPIO_ReadPin>:
  * @param  GPIO_Pin specifies the port bit to read.
  *         This parameter can be GPIO_PIN_x where x can be (0..15).
  * @retval The input port pin value.
  */
GPIO_PinState HAL_GPIO_ReadPin(GPIO_TypeDef* GPIOx, uint16_t GPIO_Pin)
{
 8000dcc:	b480      	push	{r7}
 8000dce:	b085      	sub	sp, #20
 8000dd0:	af00      	add	r7, sp, #0
 8000dd2:	6078      	str	r0, [r7, #4]
 8000dd4:	460b      	mov	r3, r1
 8000dd6:	807b      	strh	r3, [r7, #2]
  GPIO_PinState bitstatus;

  /* Check the parameters */
  assert_param(IS_GPIO_PIN(GPIO_Pin));

  if((GPIOx->IDR & GPIO_Pin) != (uint32_t)GPIO_PIN_RESET)
 8000dd8:	687b      	ldr	r3, [r7, #4]
 8000dda:	691a      	ldr	r2, [r3, #16]
 8000ddc:	887b      	ldrh	r3, [r7, #2]
 8000dde:	4013      	ands	r3, r2
 8000de0:	2b00      	cmp	r3, #0
 8000de2:	d002      	beq.n	8000dea <HAL_GPIO_ReadPin+0x1e>
  {
    bitstatus = GPIO_PIN_SET;
 8000de4:	2301      	movs	r3, #1
 8000de6:	73fb      	strb	r3, [r7, #15]
 8000de8:	e001      	b.n	8000dee <HAL_GPIO_ReadPin+0x22>
  }
  else
  {
    bitstatus = GPIO_PIN_RESET;
 8000dea:	2300      	movs	r3, #0
 8000dec:	73fb      	strb	r3, [r7, #15]
  }
  return bitstatus;
 8000dee:	7bfb      	ldrb	r3, [r7, #15]
}
 8000df0:	4618      	mov	r0, r3
 8000df2:	3714      	adds	r7, #20
 8000df4:	46bd      	mov	sp, r7
 8000df6:	f85d 7b04 	ldr.w	r7, [sp], #4
 8000dfa:	4770      	bx	lr

08000dfc <HAL_GPIO_WritePin>:
  *            @arg GPIO_PIN_RESET: to clear the port pin
  *            @arg GPIO_PIN_SET: to set the port pin
  * @retval None
  */
void HAL_GPIO_WritePin(GPIO_TypeDef* GPIOx, uint16_t GPIO_Pin, GPIO_PinState PinState)
{
 8000dfc:	b480      	push	{r7}
 8000dfe:	b083      	sub	sp, #12
 8000e00:	af00      	add	r7, sp, #0
 8000e02:	6078      	str	r0, [r7, #4]
 8000e04:	460b      	mov	r3, r1
 8000e06:	807b      	strh	r3, [r7, #2]
 8000e08:	4613      	mov	r3, r2
 8000e0a:	707b      	strb	r3, [r7, #1]
  /* Check the parameters */
  assert_param(IS_GPIO_PIN(GPIO_Pin));
  assert_param(IS_GPIO_PIN_ACTION(PinState));

  if(PinState != GPIO_PIN_RESET)
 8000e0c:	787b      	ldrb	r3, [r7, #1]
 8000e0e:	2b00      	cmp	r3, #0
 8000e10:	d003      	beq.n	8000e1a <HAL_GPIO_WritePin+0x1e>
  {
    GPIOx->BSRR = GPIO_Pin;
 8000e12:	887a      	ldrh	r2, [r7, #2]
 8000e14:	687b      	ldr	r3, [r7, #4]
 8000e16:	619a      	str	r2, [r3, #24]
  }
  else
  {
    GPIOx->BSRR = (uint32_t)GPIO_Pin << 16U;
  }
}
 8000e18:	e003      	b.n	8000e22 <HAL_GPIO_WritePin+0x26>
    GPIOx->BSRR = (uint32_t)GPIO_Pin << 16U;
 8000e1a:	887b      	ldrh	r3, [r7, #2]
 8000e1c:	041a      	lsls	r2, r3, #16
 8000e1e:	687b      	ldr	r3, [r7, #4]
 8000e20:	619a      	str	r2, [r3, #24]
}
 8000e22:	bf00      	nop
 8000e24:	370c      	adds	r7, #12
 8000e26:	46bd      	mov	sp, r7
 8000e28:	f85d 7b04 	ldr.w	r7, [sp], #4
 8000e2c:	4770      	bx	lr
	...

08000e30 <HAL_RCC_OscConfig>:
  *         supported by this API. User should request a transition to HSE Off
  *         first and then HSE On or HSE Bypass.
  * @retval HAL status
  */
__weak HAL_StatusTypeDef HAL_RCC_OscConfig(RCC_OscInitTypeDef  *RCC_OscInitStruct)
{
 8000e30:	b580      	push	{r7, lr}
 8000e32:	b086      	sub	sp, #24
 8000e34:	af00      	add	r7, sp, #0
 8000e36:	6078      	str	r0, [r7, #4]
  uint32_t tickstart, pll_config;

  /* Check Null pointer */
  if(RCC_OscInitStruct == NULL)
 8000e38:	687b      	ldr	r3, [r7, #4]
 8000e3a:	2b00      	cmp	r3, #0
 8000e3c:	d101      	bne.n	8000e42 <HAL_RCC_OscConfig+0x12>
  {
    return HAL_ERROR;
 8000e3e:	2301      	movs	r3, #1
 8000e40:	e267      	b.n	8001312 <HAL_RCC_OscConfig+0x4e2>
  }

  /* Check the parameters */
  assert_param(IS_RCC_OSCILLATORTYPE(RCC_OscInitStruct->OscillatorType));
  /*------------------------------- HSE Configuration ------------------------*/
  if(((RCC_OscInitStruct->OscillatorType) & RCC_OSCILLATORTYPE_HSE) == RCC_OSCILLATORTYPE_HSE)
 8000e42:	687b      	ldr	r3, [r7, #4]
 8000e44:	681b      	ldr	r3, [r3, #0]
 8000e46:	f003 0301 	and.w	r3, r3, #1
 8000e4a:	2b00      	cmp	r3, #0
 8000e4c:	d075      	beq.n	8000f3a <HAL_RCC_OscConfig+0x10a>
  {
    /* Check the parameters */
    assert_param(IS_RCC_HSE(RCC_OscInitStruct->HSEState));
    /* When the HSE is used as system clock or clock source for PLL in these cases HSE will not disabled */
    if((__HAL_RCC_GET_SYSCLK_SOURCE() == RCC_CFGR_SWS_HSE) ||\
 8000e4e:	4b88      	ldr	r3, [pc, #544]	; (8001070 <HAL_RCC_OscConfig+0x240>)
 8000e50:	689b      	ldr	r3, [r3, #8]
 8000e52:	f003 030c 	and.w	r3, r3, #12
 8000e56:	2b04      	cmp	r3, #4
 8000e58:	d00c      	beq.n	8000e74 <HAL_RCC_OscConfig+0x44>
      ((__HAL_RCC_GET_SYSCLK_SOURCE() == RCC_CFGR_SWS_PLL) && ((RCC->PLLCFGR & RCC_PLLCFGR_PLLSRC) == RCC_PLLCFGR_PLLSRC_HSE)))
 8000e5a:	4b85      	ldr	r3, [pc, #532]	; (8001070 <HAL_RCC_OscConfig+0x240>)
 8000e5c:	689b      	ldr	r3, [r3, #8]
 8000e5e:	f003 030c 	and.w	r3, r3, #12
    if((__HAL_RCC_GET_SYSCLK_SOURCE() == RCC_CFGR_SWS_HSE) ||\
 8000e62:	2b08      	cmp	r3, #8
 8000e64:	d112      	bne.n	8000e8c <HAL_RCC_OscConfig+0x5c>
      ((__HAL_RCC_GET_SYSCLK_SOURCE() == RCC_CFGR_SWS_PLL) && ((RCC->PLLCFGR & RCC_PLLCFGR_PLLSRC) == RCC_PLLCFGR_PLLSRC_HSE)))
 8000e66:	4b82      	ldr	r3, [pc, #520]	; (8001070 <HAL_RCC_OscConfig+0x240>)
 8000e68:	685b      	ldr	r3, [r3, #4]
 8000e6a:	f403 0380 	and.w	r3, r3, #4194304	; 0x400000
 8000e6e:	f5b3 0f80 	cmp.w	r3, #4194304	; 0x400000
 8000e72:	d10b      	bne.n	8000e8c <HAL_RCC_OscConfig+0x5c>
    {
      if((__HAL_RCC_GET_FLAG(RCC_FLAG_HSERDY) != RESET) && (RCC_OscInitStruct->HSEState == RCC_HSE_OFF))
 8000e74:	4b7e      	ldr	r3, [pc, #504]	; (8001070 <HAL_RCC_OscConfig+0x240>)
 8000e76:	681b      	ldr	r3, [r3, #0]
 8000e78:	f403 3300 	and.w	r3, r3, #131072	; 0x20000
 8000e7c:	2b00      	cmp	r3, #0
 8000e7e:	d05b      	beq.n	8000f38 <HAL_RCC_OscConfig+0x108>
 8000e80:	687b      	ldr	r3, [r7, #4]
 8000e82:	685b      	ldr	r3, [r3, #4]
 8000e84:	2b00      	cmp	r3, #0
 8000e86:	d157      	bne.n	8000f38 <HAL_RCC_OscConfig+0x108>
      {
        return HAL_ERROR;
 8000e88:	2301      	movs	r3, #1
 8000e8a:	e242      	b.n	8001312 <HAL_RCC_OscConfig+0x4e2>
      }
    }
    else
    {
      /* Set the new HSE configuration ---------------------------------------*/
      __HAL_RCC_HSE_CONFIG(RCC_OscInitStruct->HSEState);
 8000e8c:	687b      	ldr	r3, [r7, #4]
 8000e8e:	685b      	ldr	r3, [r3, #4]
 8000e90:	f5b3 3f80 	cmp.w	r3, #65536	; 0x10000
 8000e94:	d106      	bne.n	8000ea4 <HAL_RCC_OscConfig+0x74>
 8000e96:	4b76      	ldr	r3, [pc, #472]	; (8001070 <HAL_RCC_OscConfig+0x240>)
 8000e98:	681b      	ldr	r3, [r3, #0]
 8000e9a:	4a75      	ldr	r2, [pc, #468]	; (8001070 <HAL_RCC_OscConfig+0x240>)
 8000e9c:	f443 3380 	orr.w	r3, r3, #65536	; 0x10000
 8000ea0:	6013      	str	r3, [r2, #0]
 8000ea2:	e01d      	b.n	8000ee0 <HAL_RCC_OscConfig+0xb0>
 8000ea4:	687b      	ldr	r3, [r7, #4]
 8000ea6:	685b      	ldr	r3, [r3, #4]
 8000ea8:	f5b3 2fa0 	cmp.w	r3, #327680	; 0x50000
 8000eac:	d10c      	bne.n	8000ec8 <HAL_RCC_OscConfig+0x98>
 8000eae:	4b70      	ldr	r3, [pc, #448]	; (8001070 <HAL_RCC_OscConfig+0x240>)
 8000eb0:	681b      	ldr	r3, [r3, #0]
 8000eb2:	4a6f      	ldr	r2, [pc, #444]	; (8001070 <HAL_RCC_OscConfig+0x240>)
 8000eb4:	f443 2380 	orr.w	r3, r3, #262144	; 0x40000
 8000eb8:	6013      	str	r3, [r2, #0]
 8000eba:	4b6d      	ldr	r3, [pc, #436]	; (8001070 <HAL_RCC_OscConfig+0x240>)
 8000ebc:	681b      	ldr	r3, [r3, #0]
 8000ebe:	4a6c      	ldr	r2, [pc, #432]	; (8001070 <HAL_RCC_OscConfig+0x240>)
 8000ec0:	f443 3380 	orr.w	r3, r3, #65536	; 0x10000
 8000ec4:	6013      	str	r3, [r2, #0]
 8000ec6:	e00b      	b.n	8000ee0 <HAL_RCC_OscConfig+0xb0>
 8000ec8:	4b69      	ldr	r3, [pc, #420]	; (8001070 <HAL_RCC_OscConfig+0x240>)
 8000eca:	681b      	ldr	r3, [r3, #0]
 8000ecc:	4a68      	ldr	r2, [pc, #416]	; (8001070 <HAL_RCC_OscConfig+0x240>)
 8000ece:	f423 3380 	bic.w	r3, r3, #65536	; 0x10000
 8000ed2:	6013      	str	r3, [r2, #0]
 8000ed4:	4b66      	ldr	r3, [pc, #408]	; (8001070 <HAL_RCC_OscConfig+0x240>)
 8000ed6:	681b      	ldr	r3, [r3, #0]
 8000ed8:	4a65      	ldr	r2, [pc, #404]	; (8001070 <HAL_RCC_OscConfig+0x240>)
 8000eda:	f423 2380 	bic.w	r3, r3, #262144	; 0x40000
 8000ede:	6013      	str	r3, [r2, #0]

      /* Check the HSE State */
      if((RCC_OscInitStruct->HSEState) != RCC_HSE_OFF)
 8000ee0:	687b      	ldr	r3, [r7, #4]
 8000ee2:	685b      	ldr	r3, [r3, #4]
 8000ee4:	2b00      	cmp	r3, #0
 8000ee6:	d013      	beq.n	8000f10 <HAL_RCC_OscConfig+0xe0>
      {
        /* Get Start Tick */
        tickstart = HAL_GetTick();
 8000ee8:	f7ff fcfa 	bl	80008e0 <HAL_GetTick>
 8000eec:	6138      	str	r0, [r7, #16]

        /* Wait till HSE is ready */
        while(__HAL_RCC_GET_FLAG(RCC_FLAG_HSERDY) == RESET)
 8000eee:	e008      	b.n	8000f02 <HAL_RCC_OscConfig+0xd2>
        {
          if((HAL_GetTick() - tickstart ) > HSE_TIMEOUT_VALUE)
 8000ef0:	f7ff fcf6 	bl	80008e0 <HAL_GetTick>
 8000ef4:	4602      	mov	r2, r0
 8000ef6:	693b      	ldr	r3, [r7, #16]
 8000ef8:	1ad3      	subs	r3, r2, r3
 8000efa:	2b64      	cmp	r3, #100	; 0x64
 8000efc:	d901      	bls.n	8000f02 <HAL_RCC_OscConfig+0xd2>
          {
            return HAL_TIMEOUT;
 8000efe:	2303      	movs	r3, #3
 8000f00:	e207      	b.n	8001312 <HAL_RCC_OscConfig+0x4e2>
        while(__HAL_RCC_GET_FLAG(RCC_FLAG_HSERDY) == RESET)
 8000f02:	4b5b      	ldr	r3, [pc, #364]	; (8001070 <HAL_RCC_OscConfig+0x240>)
 8000f04:	681b      	ldr	r3, [r3, #0]
 8000f06:	f403 3300 	and.w	r3, r3, #131072	; 0x20000
 8000f0a:	2b00      	cmp	r3, #0
 8000f0c:	d0f0      	beq.n	8000ef0 <HAL_RCC_OscConfig+0xc0>
 8000f0e:	e014      	b.n	8000f3a <HAL_RCC_OscConfig+0x10a>
        }
      }
      else
      {
        /* Get Start Tick */
        tickstart = HAL_GetTick();
 8000f10:	f7ff fce6 	bl	80008e0 <HAL_GetTick>
 8000f14:	6138      	str	r0, [r7, #16]

        /* Wait till HSE is bypassed or disabled */
        while(__HAL_RCC_GET_FLAG(RCC_FLAG_HSERDY) != RESET)
 8000f16:	e008      	b.n	8000f2a <HAL_RCC_OscConfig+0xfa>
        {
          if((HAL_GetTick() - tickstart ) > HSE_TIMEOUT_VALUE)
 8000f18:	f7ff fce2 	bl	80008e0 <HAL_GetTick>
 8000f1c:	4602      	mov	r2, r0
 8000f1e:	693b      	ldr	r3, [r7, #16]
 8000f20:	1ad3      	subs	r3, r2, r3
 8000f22:	2b64      	cmp	r3, #100	; 0x64
 8000f24:	d901      	bls.n	8000f2a <HAL_RCC_OscConfig+0xfa>
          {
            return HAL_TIMEOUT;
 8000f26:	2303      	movs	r3, #3
 8000f28:	e1f3      	b.n	8001312 <HAL_RCC_OscConfig+0x4e2>
        while(__HAL_RCC_GET_FLAG(RCC_FLAG_HSERDY) != RESET)
 8000f2a:	4b51      	ldr	r3, [pc, #324]	; (8001070 <HAL_RCC_OscConfig+0x240>)
 8000f2c:	681b      	ldr	r3, [r3, #0]
 8000f2e:	f403 3300 	and.w	r3, r3, #131072	; 0x20000
 8000f32:	2b00      	cmp	r3, #0
 8000f34:	d1f0      	bne.n	8000f18 <HAL_RCC_OscConfig+0xe8>
 8000f36:	e000      	b.n	8000f3a <HAL_RCC_OscConfig+0x10a>
      if((__HAL_RCC_GET_FLAG(RCC_FLAG_HSERDY) != RESET) && (RCC_OscInitStruct->HSEState == RCC_HSE_OFF))
 8000f38:	bf00      	nop
        }
      }
    }
  }
  /*----------------------------- HSI Configuration --------------------------*/
  if(((RCC_OscInitStruct->OscillatorType) & RCC_OSCILLATORTYPE_HSI) == RCC_OSCILLATORTYPE_HSI)
 8000f3a:	687b      	ldr	r3, [r7, #4]
 8000f3c:	681b      	ldr	r3, [r3, #0]
 8000f3e:	f003 0302 	and.w	r3, r3, #2
 8000f42:	2b00      	cmp	r3, #0
 8000f44:	d063      	beq.n	800100e <HAL_RCC_OscConfig+0x1de>
    /* Check the parameters */
    assert_param(IS_RCC_HSI(RCC_OscInitStruct->HSIState));
    assert_param(IS_RCC_CALIBRATION_VALUE(RCC_OscInitStruct->HSICalibrationValue));

    /* Check if HSI is used as system clock or as PLL source when PLL is selected as system clock */
    if((__HAL_RCC_GET_SYSCLK_SOURCE() == RCC_CFGR_SWS_HSI) ||\
 8000f46:	4b4a      	ldr	r3, [pc, #296]	; (8001070 <HAL_RCC_OscConfig+0x240>)
 8000f48:	689b      	ldr	r3, [r3, #8]
 8000f4a:	f003 030c 	and.w	r3, r3, #12
 8000f4e:	2b00      	cmp	r3, #0
 8000f50:	d00b      	beq.n	8000f6a <HAL_RCC_OscConfig+0x13a>
      ((__HAL_RCC_GET_SYSCLK_SOURCE() == RCC_CFGR_SWS_PLL) && ((RCC->PLLCFGR & RCC_PLLCFGR_PLLSRC) == RCC_PLLCFGR_PLLSRC_HSI)))
 8000f52:	4b47      	ldr	r3, [pc, #284]	; (8001070 <HAL_RCC_OscConfig+0x240>)
 8000f54:	689b      	ldr	r3, [r3, #8]
 8000f56:	f003 030c 	and.w	r3, r3, #12
    if((__HAL_RCC_GET_SYSCLK_SOURCE() == RCC_CFGR_SWS_HSI) ||\
 8000f5a:	2b08      	cmp	r3, #8
 8000f5c:	d11c      	bne.n	8000f98 <HAL_RCC_OscConfig+0x168>
      ((__HAL_RCC_GET_SYSCLK_SOURCE() == RCC_CFGR_SWS_PLL) && ((RCC->PLLCFGR & RCC_PLLCFGR_PLLSRC) == RCC_PLLCFGR_PLLSRC_HSI)))
 8000f5e:	4b44      	ldr	r3, [pc, #272]	; (8001070 <HAL_RCC_OscConfig+0x240>)
 8000f60:	685b      	ldr	r3, [r3, #4]
 8000f62:	f403 0380 	and.w	r3, r3, #4194304	; 0x400000
 8000f66:	2b00      	cmp	r3, #0
 8000f68:	d116      	bne.n	8000f98 <HAL_RCC_OscConfig+0x168>
    {
      /* When HSI is used as system clock it will not disabled */
      if((__HAL_RCC_GET_FLAG(RCC_FLAG_HSIRDY) != RESET) && (RCC_OscInitStruct->HSIState != RCC_HSI_ON))
 8000f6a:	4b41      	ldr	r3, [pc, #260]	; (8001070 <HAL_RCC_OscConfig+0x240>)
 8000f6c:	681b      	ldr	r3, [r3, #0]
 8000f6e:	f003 0302 	and.w	r3, r3, #2
 8000f72:	2b00      	cmp	r3, #0
 8000f74:	d005      	beq.n	8000f82 <HAL_RCC_OscConfig+0x152>
 8000f76:	687b      	ldr	r3, [r7, #4]
 8000f78:	68db      	ldr	r3, [r3, #12]
 8000f7a:	2b01      	cmp	r3, #1
 8000f7c:	d001      	beq.n	8000f82 <HAL_RCC_OscConfig+0x152>
      {
        return HAL_ERROR;
 8000f7e:	2301      	movs	r3, #1
 8000f80:	e1c7      	b.n	8001312 <HAL_RCC_OscConfig+0x4e2>
      }
      /* Otherwise, just the calibration is allowed */
      else
      {
        /* Adjusts the Internal High Speed oscillator (HSI) calibration value.*/
        __HAL_RCC_HSI_CALIBRATIONVALUE_ADJUST(RCC_OscInitStruct->HSICalibrationValue);
 8000f82:	4b3b      	ldr	r3, [pc, #236]	; (8001070 <HAL_RCC_OscConfig+0x240>)
 8000f84:	681b      	ldr	r3, [r3, #0]
 8000f86:	f023 02f8 	bic.w	r2, r3, #248	; 0xf8
 8000f8a:	687b      	ldr	r3, [r7, #4]
 8000f8c:	691b      	ldr	r3, [r3, #16]
 8000f8e:	00db      	lsls	r3, r3, #3
 8000f90:	4937      	ldr	r1, [pc, #220]	; (8001070 <HAL_RCC_OscConfig+0x240>)
 8000f92:	4313      	orrs	r3, r2
 8000f94:	600b      	str	r3, [r1, #0]
      if((__HAL_RCC_GET_FLAG(RCC_FLAG_HSIRDY) != RESET) && (RCC_OscInitStruct->HSIState != RCC_HSI_ON))
 8000f96:	e03a      	b.n	800100e <HAL_RCC_OscConfig+0x1de>
      }
    }
    else
    {
      /* Check the HSI State */
      if((RCC_OscInitStruct->HSIState)!= RCC_HSI_OFF)
 8000f98:	687b      	ldr	r3, [r7, #4]
 8000f9a:	68db      	ldr	r3, [r3, #12]
 8000f9c:	2b00      	cmp	r3, #0
 8000f9e:	d020      	beq.n	8000fe2 <HAL_RCC_OscConfig+0x1b2>
      {
        /* Enable the Internal High Speed oscillator (HSI). */
        __HAL_RCC_HSI_ENABLE();
 8000fa0:	4b34      	ldr	r3, [pc, #208]	; (8001074 <HAL_RCC_OscConfig+0x244>)
 8000fa2:	2201      	movs	r2, #1
 8000fa4:	601a      	str	r2, [r3, #0]

        /* Get Start Tick*/
        tickstart = HAL_GetTick();
 8000fa6:	f7ff fc9b 	bl	80008e0 <HAL_GetTick>
 8000faa:	6138      	str	r0, [r7, #16]

        /* Wait till HSI is ready */
        while(__HAL_RCC_GET_FLAG(RCC_FLAG_HSIRDY) == RESET)
 8000fac:	e008      	b.n	8000fc0 <HAL_RCC_OscConfig+0x190>
        {
          if((HAL_GetTick() - tickstart ) > HSI_TIMEOUT_VALUE)
 8000fae:	f7ff fc97 	bl	80008e0 <HAL_GetTick>
 8000fb2:	4602      	mov	r2, r0
 8000fb4:	693b      	ldr	r3, [r7, #16]
 8000fb6:	1ad3      	subs	r3, r2, r3
 8000fb8:	2b02      	cmp	r3, #2
 8000fba:	d901      	bls.n	8000fc0 <HAL_RCC_OscConfig+0x190>
          {
            return HAL_TIMEOUT;
 8000fbc:	2303      	movs	r3, #3
 8000fbe:	e1a8      	b.n	8001312 <HAL_RCC_OscConfig+0x4e2>
        while(__HAL_RCC_GET_FLAG(RCC_FLAG_HSIRDY) == RESET)
 8000fc0:	4b2b      	ldr	r3, [pc, #172]	; (8001070 <HAL_RCC_OscConfig+0x240>)
 8000fc2:	681b      	ldr	r3, [r3, #0]
 8000fc4:	f003 0302 	and.w	r3, r3, #2
 8000fc8:	2b00      	cmp	r3, #0
 8000fca:	d0f0      	beq.n	8000fae <HAL_RCC_OscConfig+0x17e>
          }
        }

        /* Adjusts the Internal High Speed oscillator (HSI) calibration value. */
        __HAL_RCC_HSI_CALIBRATIONVALUE_ADJUST(RCC_OscInitStruct->HSICalibrationValue);
 8000fcc:	4b28      	ldr	r3, [pc, #160]	; (8001070 <HAL_RCC_OscConfig+0x240>)
 8000fce:	681b      	ldr	r3, [r3, #0]
 8000fd0:	f023 02f8 	bic.w	r2, r3, #248	; 0xf8
 8000fd4:	687b      	ldr	r3, [r7, #4]
 8000fd6:	691b      	ldr	r3, [r3, #16]
 8000fd8:	00db      	lsls	r3, r3, #3
 8000fda:	4925      	ldr	r1, [pc, #148]	; (8001070 <HAL_RCC_OscConfig+0x240>)
 8000fdc:	4313      	orrs	r3, r2
 8000fde:	600b      	str	r3, [r1, #0]
 8000fe0:	e015      	b.n	800100e <HAL_RCC_OscConfig+0x1de>
      }
      else
      {
        /* Disable the Internal High Speed oscillator (HSI). */
        __HAL_RCC_HSI_DISABLE();
 8000fe2:	4b24      	ldr	r3, [pc, #144]	; (8001074 <HAL_RCC_OscConfig+0x244>)
 8000fe4:	2200      	movs	r2, #0
 8000fe6:	601a      	str	r2, [r3, #0]

        /* Get Start Tick*/
        tickstart = HAL_GetTick();
 8000fe8:	f7ff fc7a 	bl	80008e0 <HAL_GetTick>
 8000fec:	6138      	str	r0, [r7, #16]

        /* Wait till HSI is ready */
        while(__HAL_RCC_GET_FLAG(RCC_FLAG_HSIRDY) != RESET)
 8000fee:	e008      	b.n	8001002 <HAL_RCC_OscConfig+0x1d2>
        {
          if((HAL_GetTick() - tickstart ) > HSI_TIMEOUT_VALUE)
 8000ff0:	f7ff fc76 	bl	80008e0 <HAL_GetTick>
 8000ff4:	4602      	mov	r2, r0
 8000ff6:	693b      	ldr	r3, [r7, #16]
 8000ff8:	1ad3      	subs	r3, r2, r3
 8000ffa:	2b02      	cmp	r3, #2
 8000ffc:	d901      	bls.n	8001002 <HAL_RCC_OscConfig+0x1d2>
          {
            return HAL_TIMEOUT;
 8000ffe:	2303      	movs	r3, #3
 8001000:	e187      	b.n	8001312 <HAL_RCC_OscConfig+0x4e2>
        while(__HAL_RCC_GET_FLAG(RCC_FLAG_HSIRDY) != RESET)
 8001002:	4b1b      	ldr	r3, [pc, #108]	; (8001070 <HAL_RCC_OscConfig+0x240>)
 8001004:	681b      	ldr	r3, [r3, #0]
 8001006:	f003 0302 	and.w	r3, r3, #2
 800100a:	2b00      	cmp	r3, #0
 800100c:	d1f0      	bne.n	8000ff0 <HAL_RCC_OscConfig+0x1c0>
        }
      }
    }
  }
  /*------------------------------ LSI Configuration -------------------------*/
  if(((RCC_OscInitStruct->OscillatorType) & RCC_OSCILLATORTYPE_LSI) == RCC_OSCILLATORTYPE_LSI)
 800100e:	687b      	ldr	r3, [r7, #4]
 8001010:	681b      	ldr	r3, [r3, #0]
 8001012:	f003 0308 	and.w	r3, r3, #8
 8001016:	2b00      	cmp	r3, #0
 8001018:	d036      	beq.n	8001088 <HAL_RCC_OscConfig+0x258>
  {
    /* Check the parameters */
    assert_param(IS_RCC_LSI(RCC_OscInitStruct->LSIState));

    /* Check the LSI State */
    if((RCC_OscInitStruct->LSIState)!= RCC_LSI_OFF)
 800101a:	687b      	ldr	r3, [r7, #4]
 800101c:	695b      	ldr	r3, [r3, #20]
 800101e:	2b00      	cmp	r3, #0
 8001020:	d016      	beq.n	8001050 <HAL_RCC_OscConfig+0x220>
    {
      /* Enable the Internal Low Speed oscillator (LSI). */
      __HAL_RCC_LSI_ENABLE();
 8001022:	4b15      	ldr	r3, [pc, #84]	; (8001078 <HAL_RCC_OscConfig+0x248>)
 8001024:	2201      	movs	r2, #1
 8001026:	601a      	str	r2, [r3, #0]

      /* Get Start Tick*/
      tickstart = HAL_GetTick();
 8001028:	f7ff fc5a 	bl	80008e0 <HAL_GetTick>
 800102c:	6138      	str	r0, [r7, #16]

      /* Wait till LSI is ready */
      while(__HAL_RCC_GET_FLAG(RCC_FLAG_LSIRDY) == RESET)
 800102e:	e008      	b.n	8001042 <HAL_RCC_OscConfig+0x212>
      {
        if((HAL_GetTick() - tickstart ) > LSI_TIMEOUT_VALUE)
 8001030:	f7ff fc56 	bl	80008e0 <HAL_GetTick>
 8001034:	4602      	mov	r2, r0
 8001036:	693b      	ldr	r3, [r7, #16]
 8001038:	1ad3      	subs	r3, r2, r3
 800103a:	2b02      	cmp	r3, #2
 800103c:	d901      	bls.n	8001042 <HAL_RCC_OscConfig+0x212>
        {
          return HAL_TIMEOUT;
 800103e:	2303      	movs	r3, #3
 8001040:	e167      	b.n	8001312 <HAL_RCC_OscConfig+0x4e2>
      while(__HAL_RCC_GET_FLAG(RCC_FLAG_LSIRDY) == RESET)
 8001042:	4b0b      	ldr	r3, [pc, #44]	; (8001070 <HAL_RCC_OscConfig+0x240>)
 8001044:	6f5b      	ldr	r3, [r3, #116]	; 0x74
 8001046:	f003 0302 	and.w	r3, r3, #2
 800104a:	2b00      	cmp	r3, #0
 800104c:	d0f0      	beq.n	8001030 <HAL_RCC_OscConfig+0x200>
 800104e:	e01b      	b.n	8001088 <HAL_RCC_OscConfig+0x258>
      }
    }
    else
    {
      /* Disable the Internal Low Speed oscillator (LSI). */
      __HAL_RCC_LSI_DISABLE();
 8001050:	4b09      	ldr	r3, [pc, #36]	; (8001078 <HAL_RCC_OscConfig+0x248>)
 8001052:	2200      	movs	r2, #0
 8001054:	601a      	str	r2, [r3, #0]

      /* Get Start Tick */
      tickstart = HAL_GetTick();
 8001056:	f7ff fc43 	bl	80008e0 <HAL_GetTick>
 800105a:	6138      	str	r0, [r7, #16]

      /* Wait till LSI is ready */
      while(__HAL_RCC_GET_FLAG(RCC_FLAG_LSIRDY) != RESET)
 800105c:	e00e      	b.n	800107c <HAL_RCC_OscConfig+0x24c>
      {
        if((HAL_GetTick() - tickstart ) > LSI_TIMEOUT_VALUE)
 800105e:	f7ff fc3f 	bl	80008e0 <HAL_GetTick>
 8001062:	4602      	mov	r2, r0
 8001064:	693b      	ldr	r3, [r7, #16]
 8001066:	1ad3      	subs	r3, r2, r3
 8001068:	2b02      	cmp	r3, #2
 800106a:	d907      	bls.n	800107c <HAL_RCC_OscConfig+0x24c>
        {
          return HAL_TIMEOUT;
 800106c:	2303      	movs	r3, #3
 800106e:	e150      	b.n	8001312 <HAL_RCC_OscConfig+0x4e2>
 8001070:	40023800 	.word	0x40023800
 8001074:	42470000 	.word	0x42470000
 8001078:	42470e80 	.word	0x42470e80
      while(__HAL_RCC_GET_FLAG(RCC_FLAG_LSIRDY) != RESET)
 800107c:	4b88      	ldr	r3, [pc, #544]	; (80012a0 <HAL_RCC_OscConfig+0x470>)
 800107e:	6f5b      	ldr	r3, [r3, #116]	; 0x74
 8001080:	f003 0302 	and.w	r3, r3, #2
 8001084:	2b00      	cmp	r3, #0
 8001086:	d1ea      	bne.n	800105e <HAL_RCC_OscConfig+0x22e>
        }
      }
    }
  }
  /*------------------------------ LSE Configuration -------------------------*/
  if(((RCC_OscInitStruct->OscillatorType) & RCC_OSCILLATORTYPE_LSE) == RCC_OSCILLATORTYPE_LSE)
 8001088:	687b      	ldr	r3, [r7, #4]
 800108a:	681b      	ldr	r3, [r3, #0]
 800108c:	f003 0304 	and.w	r3, r3, #4
 8001090:	2b00      	cmp	r3, #0
 8001092:	f000 8097 	beq.w	80011c4 <HAL_RCC_OscConfig+0x394>
  {
    FlagStatus       pwrclkchanged = RESET;
 8001096:	2300      	movs	r3, #0
 8001098:	75fb      	strb	r3, [r7, #23]
    /* Check the parameters */
    assert_param(IS_RCC_LSE(RCC_OscInitStruct->LSEState));

    /* Update LSE configuration in Backup Domain control register    */
    /* Requires to enable write access to Backup Domain of necessary */
    if(__HAL_RCC_PWR_IS_CLK_DISABLED())
 800109a:	4b81      	ldr	r3, [pc, #516]	; (80012a0 <HAL_RCC_OscConfig+0x470>)
 800109c:	6c1b      	ldr	r3, [r3, #64]	; 0x40
 800109e:	f003 5380 	and.w	r3, r3, #268435456	; 0x10000000
 80010a2:	2b00      	cmp	r3, #0
 80010a4:	d10f      	bne.n	80010c6 <HAL_RCC_OscConfig+0x296>
    {
      __HAL_RCC_PWR_CLK_ENABLE();
 80010a6:	2300      	movs	r3, #0
 80010a8:	60bb      	str	r3, [r7, #8]
 80010aa:	4b7d      	ldr	r3, [pc, #500]	; (80012a0 <HAL_RCC_OscConfig+0x470>)
 80010ac:	6c1b      	ldr	r3, [r3, #64]	; 0x40
 80010ae:	4a7c      	ldr	r2, [pc, #496]	; (80012a0 <HAL_RCC_OscConfig+0x470>)
 80010b0:	f043 5380 	orr.w	r3, r3, #268435456	; 0x10000000
 80010b4:	6413      	str	r3, [r2, #64]	; 0x40
 80010b6:	4b7a      	ldr	r3, [pc, #488]	; (80012a0 <HAL_RCC_OscConfig+0x470>)
 80010b8:	6c1b      	ldr	r3, [r3, #64]	; 0x40
 80010ba:	f003 5380 	and.w	r3, r3, #268435456	; 0x10000000
 80010be:	60bb      	str	r3, [r7, #8]
 80010c0:	68bb      	ldr	r3, [r7, #8]
      pwrclkchanged = SET;
 80010c2:	2301      	movs	r3, #1
 80010c4:	75fb      	strb	r3, [r7, #23]
    }

    if(HAL_IS_BIT_CLR(PWR->CR, PWR_CR_DBP))
 80010c6:	4b77      	ldr	r3, [pc, #476]	; (80012a4 <HAL_RCC_OscConfig+0x474>)
 80010c8:	681b      	ldr	r3, [r3, #0]
 80010ca:	f403 7380 	and.w	r3, r3, #256	; 0x100
 80010ce:	2b00      	cmp	r3, #0
 80010d0:	d118      	bne.n	8001104 <HAL_RCC_OscConfig+0x2d4>
    {
      /* Enable write access to Backup domain */
      SET_BIT(PWR->CR, PWR_CR_DBP);
 80010d2:	4b74      	ldr	r3, [pc, #464]	; (80012a4 <HAL_RCC_OscConfig+0x474>)
 80010d4:	681b      	ldr	r3, [r3, #0]
 80010d6:	4a73      	ldr	r2, [pc, #460]	; (80012a4 <HAL_RCC_OscConfig+0x474>)
 80010d8:	f443 7380 	orr.w	r3, r3, #256	; 0x100
 80010dc:	6013      	str	r3, [r2, #0]

      /* Wait for Backup domain Write protection disable */
      tickstart = HAL_GetTick();
 80010de:	f7ff fbff 	bl	80008e0 <HAL_GetTick>
 80010e2:	6138      	str	r0, [r7, #16]

      while(HAL_IS_BIT_CLR(PWR->CR, PWR_CR_DBP))
 80010e4:	e008      	b.n	80010f8 <HAL_RCC_OscConfig+0x2c8>
      {
        if((HAL_GetTick() - tickstart) > RCC_DBP_TIMEOUT_VALUE)
 80010e6:	f7ff fbfb 	bl	80008e0 <HAL_GetTick>
 80010ea:	4602      	mov	r2, r0
 80010ec:	693b      	ldr	r3, [r7, #16]
 80010ee:	1ad3      	subs	r3, r2, r3
 80010f0:	2b02      	cmp	r3, #2
 80010f2:	d901      	bls.n	80010f8 <HAL_RCC_OscConfig+0x2c8>
        {
          return HAL_TIMEOUT;
 80010f4:	2303      	movs	r3, #3
 80010f6:	e10c      	b.n	8001312 <HAL_RCC_OscConfig+0x4e2>
      while(HAL_IS_BIT_CLR(PWR->CR, PWR_CR_DBP))
 80010f8:	4b6a      	ldr	r3, [pc, #424]	; (80012a4 <HAL_RCC_OscConfig+0x474>)
 80010fa:	681b      	ldr	r3, [r3, #0]
 80010fc:	f403 7380 	and.w	r3, r3, #256	; 0x100
 8001100:	2b00      	cmp	r3, #0
 8001102:	d0f0      	beq.n	80010e6 <HAL_RCC_OscConfig+0x2b6>
        }
      }
    }

    /* Set the new LSE configuration -----------------------------------------*/
    __HAL_RCC_LSE_CONFIG(RCC_OscInitStruct->LSEState);
 8001104:	687b      	ldr	r3, [r7, #4]
 8001106:	689b      	ldr	r3, [r3, #8]
 8001108:	2b01      	cmp	r3, #1
 800110a:	d106      	bne.n	800111a <HAL_RCC_OscConfig+0x2ea>
 800110c:	4b64      	ldr	r3, [pc, #400]	; (80012a0 <HAL_RCC_OscConfig+0x470>)
 800110e:	6f1b      	ldr	r3, [r3, #112]	; 0x70
 8001110:	4a63      	ldr	r2, [pc, #396]	; (80012a0 <HAL_RCC_OscConfig+0x470>)
 8001112:	f043 0301 	orr.w	r3, r3, #1
 8001116:	6713      	str	r3, [r2, #112]	; 0x70
 8001118:	e01c      	b.n	8001154 <HAL_RCC_OscConfig+0x324>
 800111a:	687b      	ldr	r3, [r7, #4]
 800111c:	689b      	ldr	r3, [r3, #8]
 800111e:	2b05      	cmp	r3, #5
 8001120:	d10c      	bne.n	800113c <HAL_RCC_OscConfig+0x30c>
 8001122:	4b5f      	ldr	r3, [pc, #380]	; (80012a0 <HAL_RCC_OscConfig+0x470>)
 8001124:	6f1b      	ldr	r3, [r3, #112]	; 0x70
 8001126:	4a5e      	ldr	r2, [pc, #376]	; (80012a0 <HAL_RCC_OscConfig+0x470>)
 8001128:	f043 0304 	orr.w	r3, r3, #4
 800112c:	6713      	str	r3, [r2, #112]	; 0x70
 800112e:	4b5c      	ldr	r3, [pc, #368]	; (80012a0 <HAL_RCC_OscConfig+0x470>)
 8001130:	6f1b      	ldr	r3, [r3, #112]	; 0x70
 8001132:	4a5b      	ldr	r2, [pc, #364]	; (80012a0 <HAL_RCC_OscConfig+0x470>)
 8001134:	f043 0301 	orr.w	r3, r3, #1
 8001138:	6713      	str	r3, [r2, #112]	; 0x70
 800113a:	e00b      	b.n	8001154 <HAL_RCC_OscConfig+0x324>
 800113c:	4b58      	ldr	r3, [pc, #352]	; (80012a0 <HAL_RCC_OscConfig+0x470>)
 800113e:	6f1b      	ldr	r3, [r3, #112]	; 0x70
 8001140:	4a57      	ldr	r2, [pc, #348]	; (80012a0 <HAL_RCC_OscConfig+0x470>)
 8001142:	f023 0301 	bic.w	r3, r3, #1
 8001146:	6713      	str	r3, [r2, #112]	; 0x70
 8001148:	4b55      	ldr	r3, [pc, #340]	; (80012a0 <HAL_RCC_OscConfig+0x470>)
 800114a:	6f1b      	ldr	r3, [r3, #112]	; 0x70
 800114c:	4a54      	ldr	r2, [pc, #336]	; (80012a0 <HAL_RCC_OscConfig+0x470>)
 800114e:	f023 0304 	bic.w	r3, r3, #4
 8001152:	6713      	str	r3, [r2, #112]	; 0x70
    /* Check the LSE State */
    if((RCC_OscInitStruct->LSEState) != RCC_LSE_OFF)
 8001154:	687b      	ldr	r3, [r7, #4]
 8001156:	689b      	ldr	r3, [r3, #8]
 8001158:	2b00      	cmp	r3, #0
 800115a:	d015      	beq.n	8001188 <HAL_RCC_OscConfig+0x358>
    {
      /* Get Start Tick*/
      tickstart = HAL_GetTick();
 800115c:	f7ff fbc0 	bl	80008e0 <HAL_GetTick>
 8001160:	6138      	str	r0, [r7, #16]

      /* Wait till LSE is ready */
      while(__HAL_RCC_GET_FLAG(RCC_FLAG_LSERDY) == RESET)
 8001162:	e00a      	b.n	800117a <HAL_RCC_OscConfig+0x34a>
      {
        if((HAL_GetTick() - tickstart ) > RCC_LSE_TIMEOUT_VALUE)
 8001164:	f7ff fbbc 	bl	80008e0 <HAL_GetTick>
 8001168:	4602      	mov	r2, r0
 800116a:	693b      	ldr	r3, [r7, #16]
 800116c:	1ad3      	subs	r3, r2, r3
 800116e:	f241 3288 	movw	r2, #5000	; 0x1388
 8001172:	4293      	cmp	r3, r2
 8001174:	d901      	bls.n	800117a <HAL_RCC_OscConfig+0x34a>
        {
          return HAL_TIMEOUT;
 8001176:	2303      	movs	r3, #3
 8001178:	e0cb      	b.n	8001312 <HAL_RCC_OscConfig+0x4e2>
      while(__HAL_RCC_GET_FLAG(RCC_FLAG_LSERDY) == RESET)
 800117a:	4b49      	ldr	r3, [pc, #292]	; (80012a0 <HAL_RCC_OscConfig+0x470>)
 800117c:	6f1b      	ldr	r3, [r3, #112]	; 0x70
 800117e:	f003 0302 	and.w	r3, r3, #2
 8001182:	2b00      	cmp	r3, #0
 8001184:	d0ee      	beq.n	8001164 <HAL_RCC_OscConfig+0x334>
 8001186:	e014      	b.n	80011b2 <HAL_RCC_OscConfig+0x382>
      }
    }
    else
    {
      /* Get Start Tick */
      tickstart = HAL_GetTick();
 8001188:	f7ff fbaa 	bl	80008e0 <HAL_GetTick>
 800118c:	6138      	str	r0, [r7, #16]

      /* Wait till LSE is ready */
      while(__HAL_RCC_GET_FLAG(RCC_FLAG_LSERDY) != RESET)
 800118e:	e00a      	b.n	80011a6 <HAL_RCC_OscConfig+0x376>
      {
        if((HAL_GetTick() - tickstart ) > RCC_LSE_TIMEOUT_VALUE)
 8001190:	f7ff fba6 	bl	80008e0 <HAL_GetTick>
 8001194:	4602      	mov	r2, r0
 8001196:	693b      	ldr	r3, [r7, #16]
 8001198:	1ad3      	subs	r3, r2, r3
 800119a:	f241 3288 	movw	r2, #5000	; 0x1388
 800119e:	4293      	cmp	r3, r2
 80011a0:	d901      	bls.n	80011a6 <HAL_RCC_OscConfig+0x376>
        {
          return HAL_TIMEOUT;
 80011a2:	2303      	movs	r3, #3
 80011a4:	e0b5      	b.n	8001312 <HAL_RCC_OscConfig+0x4e2>
      while(__HAL_RCC_GET_FLAG(RCC_FLAG_LSERDY) != RESET)
 80011a6:	4b3e      	ldr	r3, [pc, #248]	; (80012a0 <HAL_RCC_OscConfig+0x470>)
 80011a8:	6f1b      	ldr	r3, [r3, #112]	; 0x70
 80011aa:	f003 0302 	and.w	r3, r3, #2
 80011ae:	2b00      	cmp	r3, #0
 80011b0:	d1ee      	bne.n	8001190 <HAL_RCC_OscConfig+0x360>
        }
      }
    }

    /* Restore clock configuration if changed */
    if(pwrclkchanged == SET)
 80011b2:	7dfb      	ldrb	r3, [r7, #23]
 80011b4:	2b01      	cmp	r3, #1
 80011b6:	d105      	bne.n	80011c4 <HAL_RCC_OscConfig+0x394>
    {
      __HAL_RCC_PWR_CLK_DISABLE();
 80011b8:	4b39      	ldr	r3, [pc, #228]	; (80012a0 <HAL_RCC_OscConfig+0x470>)
 80011ba:	6c1b      	ldr	r3, [r3, #64]	; 0x40
 80011bc:	4a38      	ldr	r2, [pc, #224]	; (80012a0 <HAL_RCC_OscConfig+0x470>)
 80011be:	f023 5380 	bic.w	r3, r3, #268435456	; 0x10000000
 80011c2:	6413      	str	r3, [r2, #64]	; 0x40
    }
  }
  /*-------------------------------- PLL Configuration -----------------------*/
  /* Check the parameters */
  assert_param(IS_RCC_PLL(RCC_OscInitStruct->PLL.PLLState));
  if ((RCC_OscInitStruct->PLL.PLLState) != RCC_PLL_NONE)
 80011c4:	687b      	ldr	r3, [r7, #4]
 80011c6:	699b      	ldr	r3, [r3, #24]
 80011c8:	2b00      	cmp	r3, #0
 80011ca:	f000 80a1 	beq.w	8001310 <HAL_RCC_OscConfig+0x4e0>
  {
    /* Check if the PLL is used as system clock or not */
    if(__HAL_RCC_GET_SYSCLK_SOURCE() != RCC_CFGR_SWS_PLL)
 80011ce:	4b34      	ldr	r3, [pc, #208]	; (80012a0 <HAL_RCC_OscConfig+0x470>)
 80011d0:	689b      	ldr	r3, [r3, #8]
 80011d2:	f003 030c 	and.w	r3, r3, #12
 80011d6:	2b08      	cmp	r3, #8
 80011d8:	d05c      	beq.n	8001294 <HAL_RCC_OscConfig+0x464>
    {
      if((RCC_OscInitStruct->PLL.PLLState) == RCC_PLL_ON)
 80011da:	687b      	ldr	r3, [r7, #4]
 80011dc:	699b      	ldr	r3, [r3, #24]
 80011de:	2b02      	cmp	r3, #2
 80011e0:	d141      	bne.n	8001266 <HAL_RCC_OscConfig+0x436>
        assert_param(IS_RCC_PLLN_VALUE(RCC_OscInitStruct->PLL.PLLN));
        assert_param(IS_RCC_PLLP_VALUE(RCC_OscInitStruct->PLL.PLLP));
        assert_param(IS_RCC_PLLQ_VALUE(RCC_OscInitStruct->PLL.PLLQ));

        /* Disable the main PLL. */
        __HAL_RCC_PLL_DISABLE();
 80011e2:	4b31      	ldr	r3, [pc, #196]	; (80012a8 <HAL_RCC_OscConfig+0x478>)
 80011e4:	2200      	movs	r2, #0
 80011e6:	601a      	str	r2, [r3, #0]

        /* Get Start Tick */
        tickstart = HAL_GetTick();
 80011e8:	f7ff fb7a 	bl	80008e0 <HAL_GetTick>
 80011ec:	6138      	str	r0, [r7, #16]

        /* Wait till PLL is ready */
        while(__HAL_RCC_GET_FLAG(RCC_FLAG_PLLRDY) != RESET)
 80011ee:	e008      	b.n	8001202 <HAL_RCC_OscConfig+0x3d2>
        {
          if((HAL_GetTick() - tickstart ) > PLL_TIMEOUT_VALUE)
 80011f0:	f7ff fb76 	bl	80008e0 <HAL_GetTick>
 80011f4:	4602      	mov	r2, r0
 80011f6:	693b      	ldr	r3, [r7, #16]
 80011f8:	1ad3      	subs	r3, r2, r3
 80011fa:	2b02      	cmp	r3, #2
 80011fc:	d901      	bls.n	8001202 <HAL_RCC_OscConfig+0x3d2>
          {
            return HAL_TIMEOUT;
 80011fe:	2303      	movs	r3, #3
 8001200:	e087      	b.n	8001312 <HAL_RCC_OscConfig+0x4e2>
        while(__HAL_RCC_GET_FLAG(RCC_FLAG_PLLRDY) != RESET)
 8001202:	4b27      	ldr	r3, [pc, #156]	; (80012a0 <HAL_RCC_OscConfig+0x470>)
 8001204:	681b      	ldr	r3, [r3, #0]
 8001206:	f003 7300 	and.w	r3, r3, #33554432	; 0x2000000
 800120a:	2b00      	cmp	r3, #0
 800120c:	d1f0      	bne.n	80011f0 <HAL_RCC_OscConfig+0x3c0>
          }
        }

        /* Configure the main PLL clock source, multiplication and division factors. */
        WRITE_REG(RCC->PLLCFGR, (RCC_OscInitStruct->PLL.PLLSource                                            | \
 800120e:	687b      	ldr	r3, [r7, #4]
 8001210:	69da      	ldr	r2, [r3, #28]
 8001212:	687b      	ldr	r3, [r7, #4]
 8001214:	6a1b      	ldr	r3, [r3, #32]
 8001216:	431a      	orrs	r2, r3
 8001218:	687b      	ldr	r3, [r7, #4]
 800121a:	6a5b      	ldr	r3, [r3, #36]	; 0x24
 800121c:	019b      	lsls	r3, r3, #6
 800121e:	431a      	orrs	r2, r3
 8001220:	687b      	ldr	r3, [r7, #4]
 8001222:	6a9b      	ldr	r3, [r3, #40]	; 0x28
 8001224:	085b      	lsrs	r3, r3, #1
 8001226:	3b01      	subs	r3, #1
 8001228:	041b      	lsls	r3, r3, #16
 800122a:	431a      	orrs	r2, r3
 800122c:	687b      	ldr	r3, [r7, #4]
 800122e:	6adb      	ldr	r3, [r3, #44]	; 0x2c
 8001230:	061b      	lsls	r3, r3, #24
 8001232:	491b      	ldr	r1, [pc, #108]	; (80012a0 <HAL_RCC_OscConfig+0x470>)
 8001234:	4313      	orrs	r3, r2
 8001236:	604b      	str	r3, [r1, #4]
                                 RCC_OscInitStruct->PLL.PLLM                                                 | \
                                 (RCC_OscInitStruct->PLL.PLLN << RCC_PLLCFGR_PLLN_Pos)             | \
                                 (((RCC_OscInitStruct->PLL.PLLP >> 1U) - 1U) << RCC_PLLCFGR_PLLP_Pos) | \
                                 (RCC_OscInitStruct->PLL.PLLQ << RCC_PLLCFGR_PLLQ_Pos)));
        /* Enable the main PLL. */
        __HAL_RCC_PLL_ENABLE();
 8001238:	4b1b      	ldr	r3, [pc, #108]	; (80012a8 <HAL_RCC_OscConfig+0x478>)
 800123a:	2201      	movs	r2, #1
 800123c:	601a      	str	r2, [r3, #0]

        /* Get Start Tick */
        tickstart = HAL_GetTick();
 800123e:	f7ff fb4f 	bl	80008e0 <HAL_GetTick>
 8001242:	6138      	str	r0, [r7, #16]

        /* Wait till PLL is ready */
        while(__HAL_RCC_GET_FLAG(RCC_FLAG_PLLRDY) == RESET)
 8001244:	e008      	b.n	8001258 <HAL_RCC_OscConfig+0x428>
        {
          if((HAL_GetTick() - tickstart ) > PLL_TIMEOUT_VALUE)
 8001246:	f7ff fb4b 	bl	80008e0 <HAL_GetTick>
 800124a:	4602      	mov	r2, r0
 800124c:	693b      	ldr	r3, [r7, #16]
 800124e:	1ad3      	subs	r3, r2, r3
 8001250:	2b02      	cmp	r3, #2
 8001252:	d901      	bls.n	8001258 <HAL_RCC_OscConfig+0x428>
          {
            return HAL_TIMEOUT;
 8001254:	2303      	movs	r3, #3
 8001256:	e05c      	b.n	8001312 <HAL_RCC_OscConfig+0x4e2>
        while(__HAL_RCC_GET_FLAG(RCC_FLAG_PLLRDY) == RESET)
 8001258:	4b11      	ldr	r3, [pc, #68]	; (80012a0 <HAL_RCC_OscConfig+0x470>)
 800125a:	681b      	ldr	r3, [r3, #0]
 800125c:	f003 7300 	and.w	r3, r3, #33554432	; 0x2000000
 8001260:	2b00      	cmp	r3, #0
 8001262:	d0f0      	beq.n	8001246 <HAL_RCC_OscConfig+0x416>
 8001264:	e054      	b.n	8001310 <HAL_RCC_OscConfig+0x4e0>
        }
      }
      else
      {
        /* Disable the main PLL. */
        __HAL_RCC_PLL_DISABLE();
 8001266:	4b10      	ldr	r3, [pc, #64]	; (80012a8 <HAL_RCC_OscConfig+0x478>)
 8001268:	2200      	movs	r2, #0
 800126a:	601a      	str	r2, [r3, #0]

        /* Get Start Tick */
        tickstart = HAL_GetTick();
 800126c:	f7ff fb38 	bl	80008e0 <HAL_GetTick>
 8001270:	6138      	str	r0, [r7, #16]

        /* Wait till PLL is ready */
        while(__HAL_RCC_GET_FLAG(RCC_FLAG_PLLRDY) != RESET)
 8001272:	e008      	b.n	8001286 <HAL_RCC_OscConfig+0x456>
        {
          if((HAL_GetTick() - tickstart ) > PLL_TIMEOUT_VALUE)
 8001274:	f7ff fb34 	bl	80008e0 <HAL_GetTick>
 8001278:	4602      	mov	r2, r0
 800127a:	693b      	ldr	r3, [r7, #16]
 800127c:	1ad3      	subs	r3, r2, r3
 800127e:	2b02      	cmp	r3, #2
 8001280:	d901      	bls.n	8001286 <HAL_RCC_OscConfig+0x456>
          {
            return HAL_TIMEOUT;
 8001282:	2303      	movs	r3, #3
 8001284:	e045      	b.n	8001312 <HAL_RCC_OscConfig+0x4e2>
        while(__HAL_RCC_GET_FLAG(RCC_FLAG_PLLRDY) != RESET)
 8001286:	4b06      	ldr	r3, [pc, #24]	; (80012a0 <HAL_RCC_OscConfig+0x470>)
 8001288:	681b      	ldr	r3, [r3, #0]
 800128a:	f003 7300 	and.w	r3, r3, #33554432	; 0x2000000
 800128e:	2b00      	cmp	r3, #0
 8001290:	d1f0      	bne.n	8001274 <HAL_RCC_OscConfig+0x444>
 8001292:	e03d      	b.n	8001310 <HAL_RCC_OscConfig+0x4e0>
      }
    }
    else
    {
      /* Check if there is a request to disable the PLL used as System clock source */
      if((RCC_OscInitStruct->PLL.PLLState) == RCC_PLL_OFF)
 8001294:	687b      	ldr	r3, [r7, #4]
 8001296:	699b      	ldr	r3, [r3, #24]
 8001298:	2b01      	cmp	r3, #1
 800129a:	d107      	bne.n	80012ac <HAL_RCC_OscConfig+0x47c>
      {
        return HAL_ERROR;
 800129c:	2301      	movs	r3, #1
 800129e:	e038      	b.n	8001312 <HAL_RCC_OscConfig+0x4e2>
 80012a0:	40023800 	.word	0x40023800
 80012a4:	40007000 	.word	0x40007000
 80012a8:	42470060 	.word	0x42470060
      }
      else
      {
        /* Do not return HAL_ERROR if request repeats the current configuration */
        pll_config = RCC->PLLCFGR;
 80012ac:	4b1b      	ldr	r3, [pc, #108]	; (800131c <HAL_RCC_OscConfig+0x4ec>)
 80012ae:	685b      	ldr	r3, [r3, #4]
 80012b0:	60fb      	str	r3, [r7, #12]
            (READ_BIT(pll_config, RCC_PLLCFGR_PLLN) != (RCC_OscInitStruct->PLL.PLLN) << RCC_PLLCFGR_PLLN_Pos) ||
            (READ_BIT(pll_config, RCC_PLLCFGR_PLLP) != (((RCC_OscInitStruct->PLL.PLLP >> 1U) - 1U)) << RCC_PLLCFGR_PLLP_Pos) ||
            (READ_BIT(pll_config, RCC_PLLCFGR_PLLQ) != (RCC_OscInitStruct->PLL.PLLQ << RCC_PLLCFGR_PLLQ_Pos)) ||
            (READ_BIT(pll_config, RCC_PLLCFGR_PLLR) != (RCC_OscInitStruct->PLL.PLLR << RCC_PLLCFGR_PLLR_Pos)))
#else
        if (((RCC_OscInitStruct->PLL.PLLState) == RCC_PLL_OFF) ||
 80012b2:	687b      	ldr	r3, [r7, #4]
 80012b4:	699b      	ldr	r3, [r3, #24]
 80012b6:	2b01      	cmp	r3, #1
 80012b8:	d028      	beq.n	800130c <HAL_RCC_OscConfig+0x4dc>
            (READ_BIT(pll_config, RCC_PLLCFGR_PLLSRC) != RCC_OscInitStruct->PLL.PLLSource) ||
 80012ba:	68fb      	ldr	r3, [r7, #12]
 80012bc:	f403 0280 	and.w	r2, r3, #4194304	; 0x400000
 80012c0:	687b      	ldr	r3, [r7, #4]
 80012c2:	69db      	ldr	r3, [r3, #28]
        if (((RCC_OscInitStruct->PLL.PLLState) == RCC_PLL_OFF) ||
 80012c4:	429a      	cmp	r2, r3
 80012c6:	d121      	bne.n	800130c <HAL_RCC_OscConfig+0x4dc>
            (READ_BIT(pll_config, RCC_PLLCFGR_PLLM) != (RCC_OscInitStruct->PLL.PLLM) << RCC_PLLCFGR_PLLM_Pos) ||
 80012c8:	68fb      	ldr	r3, [r7, #12]
 80012ca:	f003 023f 	and.w	r2, r3, #63	; 0x3f
 80012ce:	687b      	ldr	r3, [r7, #4]
 80012d0:	6a1b      	ldr	r3, [r3, #32]
            (READ_BIT(pll_config, RCC_PLLCFGR_PLLSRC) != RCC_OscInitStruct->PLL.PLLSource) ||
 80012d2:	429a      	cmp	r2, r3
 80012d4:	d11a      	bne.n	800130c <HAL_RCC_OscConfig+0x4dc>
            (READ_BIT(pll_config, RCC_PLLCFGR_PLLN) != (RCC_OscInitStruct->PLL.PLLN) << RCC_PLLCFGR_PLLN_Pos) ||
 80012d6:	68fa      	ldr	r2, [r7, #12]
 80012d8:	f647 73c0 	movw	r3, #32704	; 0x7fc0
 80012dc:	4013      	ands	r3, r2
 80012de:	687a      	ldr	r2, [r7, #4]
 80012e0:	6a52      	ldr	r2, [r2, #36]	; 0x24
 80012e2:	0192      	lsls	r2, r2, #6
            (READ_BIT(pll_config, RCC_PLLCFGR_PLLM) != (RCC_OscInitStruct->PLL.PLLM) << RCC_PLLCFGR_PLLM_Pos) ||
 80012e4:	4293      	cmp	r3, r2
 80012e6:	d111      	bne.n	800130c <HAL_RCC_OscConfig+0x4dc>
            (READ_BIT(pll_config, RCC_PLLCFGR_PLLP) != (((RCC_OscInitStruct->PLL.PLLP >> 1U) - 1U)) << RCC_PLLCFGR_PLLP_Pos) ||
 80012e8:	68fb      	ldr	r3, [r7, #12]
 80012ea:	f403 3240 	and.w	r2, r3, #196608	; 0x30000
 80012ee:	687b      	ldr	r3, [r7, #4]
 80012f0:	6a9b      	ldr	r3, [r3, #40]	; 0x28
 80012f2:	085b      	lsrs	r3, r3, #1
 80012f4:	3b01      	subs	r3, #1
 80012f6:	041b      	lsls	r3, r3, #16
            (READ_BIT(pll_config, RCC_PLLCFGR_PLLN) != (RCC_OscInitStruct->PLL.PLLN) << RCC_PLLCFGR_PLLN_Pos) ||
 80012f8:	429a      	cmp	r2, r3
 80012fa:	d107      	bne.n	800130c <HAL_RCC_OscConfig+0x4dc>
            (READ_BIT(pll_config, RCC_PLLCFGR_PLLQ) != (RCC_OscInitStruct->PLL.PLLQ << RCC_PLLCFGR_PLLQ_Pos)))
 80012fc:	68fb      	ldr	r3, [r7, #12]
 80012fe:	f003 6270 	and.w	r2, r3, #251658240	; 0xf000000
 8001302:	687b      	ldr	r3, [r7, #4]
 8001304:	6adb      	ldr	r3, [r3, #44]	; 0x2c
 8001306:	061b      	lsls	r3, r3, #24
            (READ_BIT(pll_config, RCC_PLLCFGR_PLLP) != (((RCC_OscInitStruct->PLL.PLLP >> 1U) - 1U)) << RCC_PLLCFGR_PLLP_Pos) ||
 8001308:	429a      	cmp	r2, r3
 800130a:	d001      	beq.n	8001310 <HAL_RCC_OscConfig+0x4e0>
#endif
        {
          return HAL_ERROR;
 800130c:	2301      	movs	r3, #1
 800130e:	e000      	b.n	8001312 <HAL_RCC_OscConfig+0x4e2>
        }
      }
    }
  }
  return HAL_OK;
 8001310:	2300      	movs	r3, #0
}
 8001312:	4618      	mov	r0, r3
 8001314:	3718      	adds	r7, #24
 8001316:	46bd      	mov	sp, r7
 8001318:	bd80      	pop	{r7, pc}
 800131a:	bf00      	nop
 800131c:	40023800 	.word	0x40023800

08001320 <HAL_RCC_ClockConfig>:
  *         HPRE[3:0] bits to ensure that HCLK not exceed the maximum allowed frequency
  *         (for more details refer to section above "Initialization/de-initialization functions")
  * @retval None
  */
HAL_StatusTypeDef HAL_RCC_ClockConfig(RCC_ClkInitTypeDef  *RCC_ClkInitStruct, uint32_t FLatency)
{
 8001320:	b580      	push	{r7, lr}
 8001322:	b084      	sub	sp, #16
 8001324:	af00      	add	r7, sp, #0
 8001326:	6078      	str	r0, [r7, #4]
 8001328:	6039      	str	r1, [r7, #0]
  uint32_t tickstart;

  /* Check Null pointer */
  if(RCC_ClkInitStruct == NULL)
 800132a:	687b      	ldr	r3, [r7, #4]
 800132c:	2b00      	cmp	r3, #0
 800132e:	d101      	bne.n	8001334 <HAL_RCC_ClockConfig+0x14>
  {
    return HAL_ERROR;
 8001330:	2301      	movs	r3, #1
 8001332:	e0cc      	b.n	80014ce <HAL_RCC_ClockConfig+0x1ae>
  /* To correctly read data from FLASH memory, the number of wait states (LATENCY)
    must be correctly programmed according to the frequency of the CPU clock
    (HCLK) and the supply voltage of the device. */

  /* Increasing the number of wait states because of higher CPU frequency */
  if(FLatency > __HAL_FLASH_GET_LATENCY())
 8001334:	4b68      	ldr	r3, [pc, #416]	; (80014d8 <HAL_RCC_ClockConfig+0x1b8>)
 8001336:	681b      	ldr	r3, [r3, #0]
 8001338:	f003 0307 	and.w	r3, r3, #7
 800133c:	683a      	ldr	r2, [r7, #0]
 800133e:	429a      	cmp	r2, r3
 8001340:	d90c      	bls.n	800135c <HAL_RCC_ClockConfig+0x3c>
  {
    /* Program the new number of wait states to the LATENCY bits in the FLASH_ACR register */
    __HAL_FLASH_SET_LATENCY(FLatency);
 8001342:	4b65      	ldr	r3, [pc, #404]	; (80014d8 <HAL_RCC_ClockConfig+0x1b8>)
 8001344:	683a      	ldr	r2, [r7, #0]
 8001346:	b2d2      	uxtb	r2, r2
 8001348:	701a      	strb	r2, [r3, #0]

    /* Check that the new number of wait states is taken into account to access the Flash
    memory by reading the FLASH_ACR register */
    if(__HAL_FLASH_GET_LATENCY() != FLatency)
 800134a:	4b63      	ldr	r3, [pc, #396]	; (80014d8 <HAL_RCC_ClockConfig+0x1b8>)
 800134c:	681b      	ldr	r3, [r3, #0]
 800134e:	f003 0307 	and.w	r3, r3, #7
 8001352:	683a      	ldr	r2, [r7, #0]
 8001354:	429a      	cmp	r2, r3
 8001356:	d001      	beq.n	800135c <HAL_RCC_ClockConfig+0x3c>
    {
      return HAL_ERROR;
 8001358:	2301      	movs	r3, #1
 800135a:	e0b8      	b.n	80014ce <HAL_RCC_ClockConfig+0x1ae>
    }
  }

  /*-------------------------- HCLK Configuration --------------------------*/
  if(((RCC_ClkInitStruct->ClockType) & RCC_CLOCKTYPE_HCLK) == RCC_CLOCKTYPE_HCLK)
 800135c:	687b      	ldr	r3, [r7, #4]
 800135e:	681b      	ldr	r3, [r3, #0]
 8001360:	f003 0302 	and.w	r3, r3, #2
 8001364:	2b00      	cmp	r3, #0
 8001366:	d020      	beq.n	80013aa <HAL_RCC_ClockConfig+0x8a>
  {
    /* Set the highest APBx dividers in order to ensure that we do not go through
       a non-spec phase whatever we decrease or increase HCLK. */
    if(((RCC_ClkInitStruct->ClockType) & RCC_CLOCKTYPE_PCLK1) == RCC_CLOCKTYPE_PCLK1)
 8001368:	687b      	ldr	r3, [r7, #4]
 800136a:	681b      	ldr	r3, [r3, #0]
 800136c:	f003 0304 	and.w	r3, r3, #4
 8001370:	2b00      	cmp	r3, #0
 8001372:	d005      	beq.n	8001380 <HAL_RCC_ClockConfig+0x60>
    {
      MODIFY_REG(RCC->CFGR, RCC_CFGR_PPRE1, RCC_HCLK_DIV16);
 8001374:	4b59      	ldr	r3, [pc, #356]	; (80014dc <HAL_RCC_ClockConfig+0x1bc>)
 8001376:	689b      	ldr	r3, [r3, #8]
 8001378:	4a58      	ldr	r2, [pc, #352]	; (80014dc <HAL_RCC_ClockConfig+0x1bc>)
 800137a:	f443 53e0 	orr.w	r3, r3, #7168	; 0x1c00
 800137e:	6093      	str	r3, [r2, #8]
    }

    if(((RCC_ClkInitStruct->ClockType) & RCC_CLOCKTYPE_PCLK2) == RCC_CLOCKTYPE_PCLK2)
 8001380:	687b      	ldr	r3, [r7, #4]
 8001382:	681b      	ldr	r3, [r3, #0]
 8001384:	f003 0308 	and.w	r3, r3, #8
 8001388:	2b00      	cmp	r3, #0
 800138a:	d005      	beq.n	8001398 <HAL_RCC_ClockConfig+0x78>
    {
      MODIFY_REG(RCC->CFGR, RCC_CFGR_PPRE2, (RCC_HCLK_DIV16 << 3));
 800138c:	4b53      	ldr	r3, [pc, #332]	; (80014dc <HAL_RCC_ClockConfig+0x1bc>)
 800138e:	689b      	ldr	r3, [r3, #8]
 8001390:	4a52      	ldr	r2, [pc, #328]	; (80014dc <HAL_RCC_ClockConfig+0x1bc>)
 8001392:	f443 4360 	orr.w	r3, r3, #57344	; 0xe000
 8001396:	6093      	str	r3, [r2, #8]
    }

    assert_param(IS_RCC_HCLK(RCC_ClkInitStruct->AHBCLKDivider));
    MODIFY_REG(RCC->CFGR, RCC_CFGR_HPRE, RCC_ClkInitStruct->AHBCLKDivider);
 8001398:	4b50      	ldr	r3, [pc, #320]	; (80014dc <HAL_RCC_ClockConfig+0x1bc>)
 800139a:	689b      	ldr	r3, [r3, #8]
 800139c:	f023 02f0 	bic.w	r2, r3, #240	; 0xf0
 80013a0:	687b      	ldr	r3, [r7, #4]
 80013a2:	689b      	ldr	r3, [r3, #8]
 80013a4:	494d      	ldr	r1, [pc, #308]	; (80014dc <HAL_RCC_ClockConfig+0x1bc>)
 80013a6:	4313      	orrs	r3, r2
 80013a8:	608b      	str	r3, [r1, #8]
  }

  /*------------------------- SYSCLK Configuration ---------------------------*/
  if(((RCC_ClkInitStruct->ClockType) & RCC_CLOCKTYPE_SYSCLK) == RCC_CLOCKTYPE_SYSCLK)
 80013aa:	687b      	ldr	r3, [r7, #4]
 80013ac:	681b      	ldr	r3, [r3, #0]
 80013ae:	f003 0301 	and.w	r3, r3, #1
 80013b2:	2b00      	cmp	r3, #0
 80013b4:	d044      	beq.n	8001440 <HAL_RCC_ClockConfig+0x120>
  {
    assert_param(IS_RCC_SYSCLKSOURCE(RCC_ClkInitStruct->SYSCLKSource));

    /* HSE is selected as System Clock Source */
    if(RCC_ClkInitStruct->SYSCLKSource == RCC_SYSCLKSOURCE_HSE)
 80013b6:	687b      	ldr	r3, [r7, #4]
 80013b8:	685b      	ldr	r3, [r3, #4]
 80013ba:	2b01      	cmp	r3, #1
 80013bc:	d107      	bne.n	80013ce <HAL_RCC_ClockConfig+0xae>
    {
      /* Check the HSE ready flag */
      if(__HAL_RCC_GET_FLAG(RCC_FLAG_HSERDY) == RESET)
 80013be:	4b47      	ldr	r3, [pc, #284]	; (80014dc <HAL_RCC_ClockConfig+0x1bc>)
 80013c0:	681b      	ldr	r3, [r3, #0]
 80013c2:	f403 3300 	and.w	r3, r3, #131072	; 0x20000
 80013c6:	2b00      	cmp	r3, #0
 80013c8:	d119      	bne.n	80013fe <HAL_RCC_ClockConfig+0xde>
      {
        return HAL_ERROR;
 80013ca:	2301      	movs	r3, #1
 80013cc:	e07f      	b.n	80014ce <HAL_RCC_ClockConfig+0x1ae>
      }
    }
    /* PLL is selected as System Clock Source */
    else if((RCC_ClkInitStruct->SYSCLKSource == RCC_SYSCLKSOURCE_PLLCLK)   ||
 80013ce:	687b      	ldr	r3, [r7, #4]
 80013d0:	685b      	ldr	r3, [r3, #4]
 80013d2:	2b02      	cmp	r3, #2
 80013d4:	d003      	beq.n	80013de <HAL_RCC_ClockConfig+0xbe>
            (RCC_ClkInitStruct->SYSCLKSource == RCC_SYSCLKSOURCE_PLLRCLK))
 80013d6:	687b      	ldr	r3, [r7, #4]
 80013d8:	685b      	ldr	r3, [r3, #4]
    else if((RCC_ClkInitStruct->SYSCLKSource == RCC_SYSCLKSOURCE_PLLCLK)   ||
 80013da:	2b03      	cmp	r3, #3
 80013dc:	d107      	bne.n	80013ee <HAL_RCC_ClockConfig+0xce>
    {
      /* Check the PLL ready flag */
      if(__HAL_RCC_GET_FLAG(RCC_FLAG_PLLRDY) == RESET)
 80013de:	4b3f      	ldr	r3, [pc, #252]	; (80014dc <HAL_RCC_ClockConfig+0x1bc>)
 80013e0:	681b      	ldr	r3, [r3, #0]
 80013e2:	f003 7300 	and.w	r3, r3, #33554432	; 0x2000000
 80013e6:	2b00      	cmp	r3, #0
 80013e8:	d109      	bne.n	80013fe <HAL_RCC_ClockConfig+0xde>
      {
        return HAL_ERROR;
 80013ea:	2301      	movs	r3, #1
 80013ec:	e06f      	b.n	80014ce <HAL_RCC_ClockConfig+0x1ae>
    }
    /* HSI is selected as System Clock Source */
    else
    {
      /* Check the HSI ready flag */
      if(__HAL_RCC_GET_FLAG(RCC_FLAG_HSIRDY) == RESET)
 80013ee:	4b3b      	ldr	r3, [pc, #236]	; (80014dc <HAL_RCC_ClockConfig+0x1bc>)
 80013f0:	681b      	ldr	r3, [r3, #0]
 80013f2:	f003 0302 	and.w	r3, r3, #2
 80013f6:	2b00      	cmp	r3, #0
 80013f8:	d101      	bne.n	80013fe <HAL_RCC_ClockConfig+0xde>
      {
        return HAL_ERROR;
 80013fa:	2301      	movs	r3, #1
 80013fc:	e067      	b.n	80014ce <HAL_RCC_ClockConfig+0x1ae>
      }
    }

    __HAL_RCC_SYSCLK_CONFIG(RCC_ClkInitStruct->SYSCLKSource);
 80013fe:	4b37      	ldr	r3, [pc, #220]	; (80014dc <HAL_RCC_ClockConfig+0x1bc>)
 8001400:	689b      	ldr	r3, [r3, #8]
 8001402:	f023 0203 	bic.w	r2, r3, #3
 8001406:	687b      	ldr	r3, [r7, #4]
 8001408:	685b      	ldr	r3, [r3, #4]
 800140a:	4934      	ldr	r1, [pc, #208]	; (80014dc <HAL_RCC_ClockConfig+0x1bc>)
 800140c:	4313      	orrs	r3, r2
 800140e:	608b      	str	r3, [r1, #8]

    /* Get Start Tick */
    tickstart = HAL_GetTick();
 8001410:	f7ff fa66 	bl	80008e0 <HAL_GetTick>
 8001414:	60f8      	str	r0, [r7, #12]

    while (__HAL_RCC_GET_SYSCLK_SOURCE() != (RCC_ClkInitStruct->SYSCLKSource << RCC_CFGR_SWS_Pos))
 8001416:	e00a      	b.n	800142e <HAL_RCC_ClockConfig+0x10e>
    {
      if ((HAL_GetTick() - tickstart) > CLOCKSWITCH_TIMEOUT_VALUE)
 8001418:	f7ff fa62 	bl	80008e0 <HAL_GetTick>
 800141c:	4602      	mov	r2, r0
 800141e:	68fb      	ldr	r3, [r7, #12]
 8001420:	1ad3      	subs	r3, r2, r3
 8001422:	f241 3288 	movw	r2, #5000	; 0x1388
 8001426:	4293      	cmp	r3, r2
 8001428:	d901      	bls.n	800142e <HAL_RCC_ClockConfig+0x10e>
      {
        return HAL_TIMEOUT;
 800142a:	2303      	movs	r3, #3
 800142c:	e04f      	b.n	80014ce <HAL_RCC_ClockConfig+0x1ae>
    while (__HAL_RCC_GET_SYSCLK_SOURCE() != (RCC_ClkInitStruct->SYSCLKSource << RCC_CFGR_SWS_Pos))
 800142e:	4b2b      	ldr	r3, [pc, #172]	; (80014dc <HAL_RCC_ClockConfig+0x1bc>)
 8001430:	689b      	ldr	r3, [r3, #8]
 8001432:	f003 020c 	and.w	r2, r3, #12
 8001436:	687b      	ldr	r3, [r7, #4]
 8001438:	685b      	ldr	r3, [r3, #4]
 800143a:	009b      	lsls	r3, r3, #2
 800143c:	429a      	cmp	r2, r3
 800143e:	d1eb      	bne.n	8001418 <HAL_RCC_ClockConfig+0xf8>
      }
    }
  }

  /* Decreasing the number of wait states because of lower CPU frequency */
  if(FLatency < __HAL_FLASH_GET_LATENCY())
 8001440:	4b25      	ldr	r3, [pc, #148]	; (80014d8 <HAL_RCC_ClockConfig+0x1b8>)
 8001442:	681b      	ldr	r3, [r3, #0]
 8001444:	f003 0307 	and.w	r3, r3, #7
 8001448:	683a      	ldr	r2, [r7, #0]
 800144a:	429a      	cmp	r2, r3
 800144c:	d20c      	bcs.n	8001468 <HAL_RCC_ClockConfig+0x148>
  {
     /* Program the new number of wait states to the LATENCY bits in the FLASH_ACR register */
    __HAL_FLASH_SET_LATENCY(FLatency);
 800144e:	4b22      	ldr	r3, [pc, #136]	; (80014d8 <HAL_RCC_ClockConfig+0x1b8>)
 8001450:	683a      	ldr	r2, [r7, #0]
 8001452:	b2d2      	uxtb	r2, r2
 8001454:	701a      	strb	r2, [r3, #0]

    /* Check that the new number of wait states is taken into account to access the Flash
    memory by reading the FLASH_ACR register */
    if(__HAL_FLASH_GET_LATENCY() != FLatency)
 8001456:	4b20      	ldr	r3, [pc, #128]	; (80014d8 <HAL_RCC_ClockConfig+0x1b8>)
 8001458:	681b      	ldr	r3, [r3, #0]
 800145a:	f003 0307 	and.w	r3, r3, #7
 800145e:	683a      	ldr	r2, [r7, #0]
 8001460:	429a      	cmp	r2, r3
 8001462:	d001      	beq.n	8001468 <HAL_RCC_ClockConfig+0x148>
    {
      return HAL_ERROR;
 8001464:	2301      	movs	r3, #1
 8001466:	e032      	b.n	80014ce <HAL_RCC_ClockConfig+0x1ae>
    }
  }

  /*-------------------------- PCLK1 Configuration ---------------------------*/
  if(((RCC_ClkInitStruct->ClockType) & RCC_CLOCKTYPE_PCLK1) == RCC_CLOCKTYPE_PCLK1)
 8001468:	687b      	ldr	r3, [r7, #4]
 800146a:	681b      	ldr	r3, [r3, #0]
 800146c:	f003 0304 	and.w	r3, r3, #4
 8001470:	2b00      	cmp	r3, #0
 8001472:	d008      	beq.n	8001486 <HAL_RCC_ClockConfig+0x166>
  {
    assert_param(IS_RCC_PCLK(RCC_ClkInitStruct->APB1CLKDivider));
    MODIFY_REG(RCC->CFGR, RCC_CFGR_PPRE1, RCC_ClkInitStruct->APB1CLKDivider);
 8001474:	4b19      	ldr	r3, [pc, #100]	; (80014dc <HAL_RCC_ClockConfig+0x1bc>)
 8001476:	689b      	ldr	r3, [r3, #8]
 8001478:	f423 52e0 	bic.w	r2, r3, #7168	; 0x1c00
 800147c:	687b      	ldr	r3, [r7, #4]
 800147e:	68db      	ldr	r3, [r3, #12]
 8001480:	4916      	ldr	r1, [pc, #88]	; (80014dc <HAL_RCC_ClockConfig+0x1bc>)
 8001482:	4313      	orrs	r3, r2
 8001484:	608b      	str	r3, [r1, #8]
  }

  /*-------------------------- PCLK2 Configuration ---------------------------*/
  if(((RCC_ClkInitStruct->ClockType) & RCC_CLOCKTYPE_PCLK2) == RCC_CLOCKTYPE_PCLK2)
 8001486:	687b      	ldr	r3, [r7, #4]
 8001488:	681b      	ldr	r3, [r3, #0]
 800148a:	f003 0308 	and.w	r3, r3, #8
 800148e:	2b00      	cmp	r3, #0
 8001490:	d009      	beq.n	80014a6 <HAL_RCC_ClockConfig+0x186>
  {
    assert_param(IS_RCC_PCLK(RCC_ClkInitStruct->APB2CLKDivider));
    MODIFY_REG(RCC->CFGR, RCC_CFGR_PPRE2, ((RCC_ClkInitStruct->APB2CLKDivider) << 3U));
 8001492:	4b12      	ldr	r3, [pc, #72]	; (80014dc <HAL_RCC_ClockConfig+0x1bc>)
 8001494:	689b      	ldr	r3, [r3, #8]
 8001496:	f423 4260 	bic.w	r2, r3, #57344	; 0xe000
 800149a:	687b      	ldr	r3, [r7, #4]
 800149c:	691b      	ldr	r3, [r3, #16]
 800149e:	00db      	lsls	r3, r3, #3
 80014a0:	490e      	ldr	r1, [pc, #56]	; (80014dc <HAL_RCC_ClockConfig+0x1bc>)
 80014a2:	4313      	orrs	r3, r2
 80014a4:	608b      	str	r3, [r1, #8]
  }

  /* Update the SystemCoreClock global variable */
  SystemCoreClock = HAL_RCC_GetSysClockFreq() >> AHBPrescTable[(RCC->CFGR & RCC_CFGR_HPRE)>> RCC_CFGR_HPRE_Pos];
 80014a6:	f000 f821 	bl	80014ec <HAL_RCC_GetSysClockFreq>
 80014aa:	4602      	mov	r2, r0
 80014ac:	4b0b      	ldr	r3, [pc, #44]	; (80014dc <HAL_RCC_ClockConfig+0x1bc>)
 80014ae:	689b      	ldr	r3, [r3, #8]
 80014b0:	091b      	lsrs	r3, r3, #4
 80014b2:	f003 030f 	and.w	r3, r3, #15
 80014b6:	490a      	ldr	r1, [pc, #40]	; (80014e0 <HAL_RCC_ClockConfig+0x1c0>)
 80014b8:	5ccb      	ldrb	r3, [r1, r3]
 80014ba:	fa22 f303 	lsr.w	r3, r2, r3
 80014be:	4a09      	ldr	r2, [pc, #36]	; (80014e4 <HAL_RCC_ClockConfig+0x1c4>)
 80014c0:	6013      	str	r3, [r2, #0]

  /* Configure the source of time base considering new system clocks settings */
  HAL_InitTick (uwTickPrio);
 80014c2:	4b09      	ldr	r3, [pc, #36]	; (80014e8 <HAL_RCC_ClockConfig+0x1c8>)
 80014c4:	681b      	ldr	r3, [r3, #0]
 80014c6:	4618      	mov	r0, r3
 80014c8:	f7ff f9c6 	bl	8000858 <HAL_InitTick>

  return HAL_OK;
 80014cc:	2300      	movs	r3, #0
}
 80014ce:	4618      	mov	r0, r3
 80014d0:	3710      	adds	r7, #16
 80014d2:	46bd      	mov	sp, r7
 80014d4:	bd80      	pop	{r7, pc}
 80014d6:	bf00      	nop
 80014d8:	40023c00 	.word	0x40023c00
 80014dc:	40023800 	.word	0x40023800
 80014e0:	08001768 	.word	0x08001768
 80014e4:	20000000 	.word	0x20000000
 80014e8:	20000004 	.word	0x20000004

080014ec <HAL_RCC_GetSysClockFreq>:
  *
  *
  * @retval SYSCLK frequency
  */
__weak uint32_t HAL_RCC_GetSysClockFreq(void)
{
 80014ec:	e92d 4fb0 	stmdb	sp!, {r4, r5, r7, r8, r9, sl, fp, lr}
 80014f0:	b094      	sub	sp, #80	; 0x50
 80014f2:	af00      	add	r7, sp, #0
  uint32_t pllm = 0U, pllvco = 0U, pllp = 0U;
 80014f4:	2300      	movs	r3, #0
 80014f6:	647b      	str	r3, [r7, #68]	; 0x44
 80014f8:	2300      	movs	r3, #0
 80014fa:	64fb      	str	r3, [r7, #76]	; 0x4c
 80014fc:	2300      	movs	r3, #0
 80014fe:	643b      	str	r3, [r7, #64]	; 0x40
  uint32_t sysclockfreq = 0U;
 8001500:	2300      	movs	r3, #0
 8001502:	64bb      	str	r3, [r7, #72]	; 0x48

  /* Get SYSCLK source -------------------------------------------------------*/
  switch (RCC->CFGR & RCC_CFGR_SWS)
 8001504:	4b79      	ldr	r3, [pc, #484]	; (80016ec <HAL_RCC_GetSysClockFreq+0x200>)
 8001506:	689b      	ldr	r3, [r3, #8]
 8001508:	f003 030c 	and.w	r3, r3, #12
 800150c:	2b08      	cmp	r3, #8
 800150e:	d00d      	beq.n	800152c <HAL_RCC_GetSysClockFreq+0x40>
 8001510:	2b08      	cmp	r3, #8
 8001512:	f200 80e1 	bhi.w	80016d8 <HAL_RCC_GetSysClockFreq+0x1ec>
 8001516:	2b00      	cmp	r3, #0
 8001518:	d002      	beq.n	8001520 <HAL_RCC_GetSysClockFreq+0x34>
 800151a:	2b04      	cmp	r3, #4
 800151c:	d003      	beq.n	8001526 <HAL_RCC_GetSysClockFreq+0x3a>
 800151e:	e0db      	b.n	80016d8 <HAL_RCC_GetSysClockFreq+0x1ec>
  {
    case RCC_CFGR_SWS_HSI:  /* HSI used as system clock source */
    {
      sysclockfreq = HSI_VALUE;
 8001520:	4b73      	ldr	r3, [pc, #460]	; (80016f0 <HAL_RCC_GetSysClockFreq+0x204>)
 8001522:	64bb      	str	r3, [r7, #72]	; 0x48
       break;
 8001524:	e0db      	b.n	80016de <HAL_RCC_GetSysClockFreq+0x1f2>
    }
    case RCC_CFGR_SWS_HSE:  /* HSE used as system clock  source */
    {
      sysclockfreq = HSE_VALUE;
 8001526:	4b73      	ldr	r3, [pc, #460]	; (80016f4 <HAL_RCC_GetSysClockFreq+0x208>)
 8001528:	64bb      	str	r3, [r7, #72]	; 0x48
      break;
 800152a:	e0d8      	b.n	80016de <HAL_RCC_GetSysClockFreq+0x1f2>
    }
    case RCC_CFGR_SWS_PLL:  /* PLL used as system clock  source */
    {
      /* PLL_VCO = (HSE_VALUE or HSI_VALUE / PLLM) * PLLN
      SYSCLK = PLL_VCO / PLLP */
      pllm = RCC->PLLCFGR & RCC_PLLCFGR_PLLM;
 800152c:	4b6f      	ldr	r3, [pc, #444]	; (80016ec <HAL_RCC_GetSysClockFreq+0x200>)
 800152e:	685b      	ldr	r3, [r3, #4]
 8001530:	f003 033f 	and.w	r3, r3, #63	; 0x3f
 8001534:	647b      	str	r3, [r7, #68]	; 0x44
      if(__HAL_RCC_GET_PLL_OSCSOURCE() != RCC_PLLSOURCE_HSI)
 8001536:	4b6d      	ldr	r3, [pc, #436]	; (80016ec <HAL_RCC_GetSysClockFreq+0x200>)
 8001538:	685b      	ldr	r3, [r3, #4]
 800153a:	f403 0380 	and.w	r3, r3, #4194304	; 0x400000
 800153e:	2b00      	cmp	r3, #0
 8001540:	d063      	beq.n	800160a <HAL_RCC_GetSysClockFreq+0x11e>
      {
        /* HSE used as PLL clock source */
        pllvco = (uint32_t) ((((uint64_t) HSE_VALUE * ((uint64_t) ((RCC->PLLCFGR & RCC_PLLCFGR_PLLN) >> RCC_PLLCFGR_PLLN_Pos)))) / (uint64_t)pllm);
 8001542:	4b6a      	ldr	r3, [pc, #424]	; (80016ec <HAL_RCC_GetSysClockFreq+0x200>)
 8001544:	685b      	ldr	r3, [r3, #4]
 8001546:	099b      	lsrs	r3, r3, #6
 8001548:	2200      	movs	r2, #0
 800154a:	63bb      	str	r3, [r7, #56]	; 0x38
 800154c:	63fa      	str	r2, [r7, #60]	; 0x3c
 800154e:	6bbb      	ldr	r3, [r7, #56]	; 0x38
 8001550:	f3c3 0308 	ubfx	r3, r3, #0, #9
 8001554:	633b      	str	r3, [r7, #48]	; 0x30
 8001556:	2300      	movs	r3, #0
 8001558:	637b      	str	r3, [r7, #52]	; 0x34
 800155a:	e9d7 450c 	ldrd	r4, r5, [r7, #48]	; 0x30
 800155e:	4622      	mov	r2, r4
 8001560:	462b      	mov	r3, r5
 8001562:	f04f 0000 	mov.w	r0, #0
 8001566:	f04f 0100 	mov.w	r1, #0
 800156a:	0159      	lsls	r1, r3, #5
 800156c:	ea41 61d2 	orr.w	r1, r1, r2, lsr #27
 8001570:	0150      	lsls	r0, r2, #5
 8001572:	4602      	mov	r2, r0
 8001574:	460b      	mov	r3, r1
 8001576:	4621      	mov	r1, r4
 8001578:	1a51      	subs	r1, r2, r1
 800157a:	6139      	str	r1, [r7, #16]
 800157c:	4629      	mov	r1, r5
 800157e:	eb63 0301 	sbc.w	r3, r3, r1
 8001582:	617b      	str	r3, [r7, #20]
 8001584:	f04f 0200 	mov.w	r2, #0
 8001588:	f04f 0300 	mov.w	r3, #0
 800158c:	e9d7 ab04 	ldrd	sl, fp, [r7, #16]
 8001590:	4659      	mov	r1, fp
 8001592:	018b      	lsls	r3, r1, #6
 8001594:	4651      	mov	r1, sl
 8001596:	ea43 6391 	orr.w	r3, r3, r1, lsr #26
 800159a:	4651      	mov	r1, sl
 800159c:	018a      	lsls	r2, r1, #6
 800159e:	4651      	mov	r1, sl
 80015a0:	ebb2 0801 	subs.w	r8, r2, r1
 80015a4:	4659      	mov	r1, fp
 80015a6:	eb63 0901 	sbc.w	r9, r3, r1
 80015aa:	f04f 0200 	mov.w	r2, #0
 80015ae:	f04f 0300 	mov.w	r3, #0
 80015b2:	ea4f 03c9 	mov.w	r3, r9, lsl #3
 80015b6:	ea43 7358 	orr.w	r3, r3, r8, lsr #29
 80015ba:	ea4f 02c8 	mov.w	r2, r8, lsl #3
 80015be:	4690      	mov	r8, r2
 80015c0:	4699      	mov	r9, r3
 80015c2:	4623      	mov	r3, r4
 80015c4:	eb18 0303 	adds.w	r3, r8, r3
 80015c8:	60bb      	str	r3, [r7, #8]
 80015ca:	462b      	mov	r3, r5
 80015cc:	eb49 0303 	adc.w	r3, r9, r3
 80015d0:	60fb      	str	r3, [r7, #12]
 80015d2:	f04f 0200 	mov.w	r2, #0
 80015d6:	f04f 0300 	mov.w	r3, #0
 80015da:	e9d7 4502 	ldrd	r4, r5, [r7, #8]
 80015de:	4629      	mov	r1, r5
 80015e0:	024b      	lsls	r3, r1, #9
 80015e2:	4621      	mov	r1, r4
 80015e4:	ea43 53d1 	orr.w	r3, r3, r1, lsr #23
 80015e8:	4621      	mov	r1, r4
 80015ea:	024a      	lsls	r2, r1, #9
 80015ec:	4610      	mov	r0, r2
 80015ee:	4619      	mov	r1, r3
 80015f0:	6c7b      	ldr	r3, [r7, #68]	; 0x44
 80015f2:	2200      	movs	r2, #0
 80015f4:	62bb      	str	r3, [r7, #40]	; 0x28
 80015f6:	62fa      	str	r2, [r7, #44]	; 0x2c
 80015f8:	e9d7 230a 	ldrd	r2, r3, [r7, #40]	; 0x28
 80015fc:	f7fe fdea 	bl	80001d4 <__aeabi_uldivmod>
 8001600:	4602      	mov	r2, r0
 8001602:	460b      	mov	r3, r1
 8001604:	4613      	mov	r3, r2
 8001606:	64fb      	str	r3, [r7, #76]	; 0x4c
 8001608:	e058      	b.n	80016bc <HAL_RCC_GetSysClockFreq+0x1d0>
      }
      else
      {
        /* HSI used as PLL clock source */
        pllvco = (uint32_t) ((((uint64_t) HSI_VALUE * ((uint64_t) ((RCC->PLLCFGR & RCC_PLLCFGR_PLLN) >> RCC_PLLCFGR_PLLN_Pos)))) / (uint64_t)pllm);
 800160a:	4b38      	ldr	r3, [pc, #224]	; (80016ec <HAL_RCC_GetSysClockFreq+0x200>)
 800160c:	685b      	ldr	r3, [r3, #4]
 800160e:	099b      	lsrs	r3, r3, #6
 8001610:	2200      	movs	r2, #0
 8001612:	4618      	mov	r0, r3
 8001614:	4611      	mov	r1, r2
 8001616:	f3c0 0308 	ubfx	r3, r0, #0, #9
 800161a:	623b      	str	r3, [r7, #32]
 800161c:	2300      	movs	r3, #0
 800161e:	627b      	str	r3, [r7, #36]	; 0x24
 8001620:	e9d7 8908 	ldrd	r8, r9, [r7, #32]
 8001624:	4642      	mov	r2, r8
 8001626:	464b      	mov	r3, r9
 8001628:	f04f 0000 	mov.w	r0, #0
 800162c:	f04f 0100 	mov.w	r1, #0
 8001630:	0159      	lsls	r1, r3, #5
 8001632:	ea41 61d2 	orr.w	r1, r1, r2, lsr #27
 8001636:	0150      	lsls	r0, r2, #5
 8001638:	4602      	mov	r2, r0
 800163a:	460b      	mov	r3, r1
 800163c:	4641      	mov	r1, r8
 800163e:	ebb2 0a01 	subs.w	sl, r2, r1
 8001642:	4649      	mov	r1, r9
 8001644:	eb63 0b01 	sbc.w	fp, r3, r1
 8001648:	f04f 0200 	mov.w	r2, #0
 800164c:	f04f 0300 	mov.w	r3, #0
 8001650:	ea4f 138b 	mov.w	r3, fp, lsl #6
 8001654:	ea43 639a 	orr.w	r3, r3, sl, lsr #26
 8001658:	ea4f 128a 	mov.w	r2, sl, lsl #6
 800165c:	ebb2 040a 	subs.w	r4, r2, sl
 8001660:	eb63 050b 	sbc.w	r5, r3, fp
 8001664:	f04f 0200 	mov.w	r2, #0
 8001668:	f04f 0300 	mov.w	r3, #0
 800166c:	00eb      	lsls	r3, r5, #3
 800166e:	ea43 7354 	orr.w	r3, r3, r4, lsr #29
 8001672:	00e2      	lsls	r2, r4, #3
 8001674:	4614      	mov	r4, r2
 8001676:	461d      	mov	r5, r3
 8001678:	4643      	mov	r3, r8
 800167a:	18e3      	adds	r3, r4, r3
 800167c:	603b      	str	r3, [r7, #0]
 800167e:	464b      	mov	r3, r9
 8001680:	eb45 0303 	adc.w	r3, r5, r3
 8001684:	607b      	str	r3, [r7, #4]
 8001686:	f04f 0200 	mov.w	r2, #0
 800168a:	f04f 0300 	mov.w	r3, #0
 800168e:	e9d7 4500 	ldrd	r4, r5, [r7]
 8001692:	4629      	mov	r1, r5
 8001694:	028b      	lsls	r3, r1, #10
 8001696:	4621      	mov	r1, r4
 8001698:	ea43 5391 	orr.w	r3, r3, r1, lsr #22
 800169c:	4621      	mov	r1, r4
 800169e:	028a      	lsls	r2, r1, #10
 80016a0:	4610      	mov	r0, r2
 80016a2:	4619      	mov	r1, r3
 80016a4:	6c7b      	ldr	r3, [r7, #68]	; 0x44
 80016a6:	2200      	movs	r2, #0
 80016a8:	61bb      	str	r3, [r7, #24]
 80016aa:	61fa      	str	r2, [r7, #28]
 80016ac:	e9d7 2306 	ldrd	r2, r3, [r7, #24]
 80016b0:	f7fe fd90 	bl	80001d4 <__aeabi_uldivmod>
 80016b4:	4602      	mov	r2, r0
 80016b6:	460b      	mov	r3, r1
 80016b8:	4613      	mov	r3, r2
 80016ba:	64fb      	str	r3, [r7, #76]	; 0x4c
      }
      pllp = ((((RCC->PLLCFGR & RCC_PLLCFGR_PLLP) >> RCC_PLLCFGR_PLLP_Pos) + 1U) *2U);
 80016bc:	4b0b      	ldr	r3, [pc, #44]	; (80016ec <HAL_RCC_GetSysClockFreq+0x200>)
 80016be:	685b      	ldr	r3, [r3, #4]
 80016c0:	0c1b      	lsrs	r3, r3, #16
 80016c2:	f003 0303 	and.w	r3, r3, #3
 80016c6:	3301      	adds	r3, #1
 80016c8:	005b      	lsls	r3, r3, #1
 80016ca:	643b      	str	r3, [r7, #64]	; 0x40

      sysclockfreq = pllvco/pllp;
 80016cc:	6cfa      	ldr	r2, [r7, #76]	; 0x4c
 80016ce:	6c3b      	ldr	r3, [r7, #64]	; 0x40
 80016d0:	fbb2 f3f3 	udiv	r3, r2, r3
 80016d4:	64bb      	str	r3, [r7, #72]	; 0x48
      break;
 80016d6:	e002      	b.n	80016de <HAL_RCC_GetSysClockFreq+0x1f2>
    }
    default:
    {
      sysclockfreq = HSI_VALUE;
 80016d8:	4b05      	ldr	r3, [pc, #20]	; (80016f0 <HAL_RCC_GetSysClockFreq+0x204>)
 80016da:	64bb      	str	r3, [r7, #72]	; 0x48
      break;
 80016dc:	bf00      	nop
    }
  }
  return sysclockfreq;
 80016de:	6cbb      	ldr	r3, [r7, #72]	; 0x48
}
 80016e0:	4618      	mov	r0, r3
 80016e2:	3750      	adds	r7, #80	; 0x50
 80016e4:	46bd      	mov	sp, r7
 80016e6:	e8bd 8fb0 	ldmia.w	sp!, {r4, r5, r7, r8, r9, sl, fp, pc}
 80016ea:	bf00      	nop
 80016ec:	40023800 	.word	0x40023800
 80016f0:	00f42400 	.word	0x00f42400
 80016f4:	007a1200 	.word	0x007a1200

080016f8 <__libc_init_array>:
 80016f8:	b570      	push	{r4, r5, r6, lr}
 80016fa:	4d0d      	ldr	r5, [pc, #52]	; (8001730 <__libc_init_array+0x38>)
 80016fc:	4c0d      	ldr	r4, [pc, #52]	; (8001734 <__libc_init_array+0x3c>)
 80016fe:	1b64      	subs	r4, r4, r5
 8001700:	10a4      	asrs	r4, r4, #2
 8001702:	2600      	movs	r6, #0
 8001704:	42a6      	cmp	r6, r4
 8001706:	d109      	bne.n	800171c <__libc_init_array+0x24>
 8001708:	4d0b      	ldr	r5, [pc, #44]	; (8001738 <__libc_init_array+0x40>)
 800170a:	4c0c      	ldr	r4, [pc, #48]	; (800173c <__libc_init_array+0x44>)
 800170c:	f000 f820 	bl	8001750 <_init>
 8001710:	1b64      	subs	r4, r4, r5
 8001712:	10a4      	asrs	r4, r4, #2
 8001714:	2600      	movs	r6, #0
 8001716:	42a6      	cmp	r6, r4
 8001718:	d105      	bne.n	8001726 <__libc_init_array+0x2e>
 800171a:	bd70      	pop	{r4, r5, r6, pc}
 800171c:	f855 3b04 	ldr.w	r3, [r5], #4
 8001720:	4798      	blx	r3
 8001722:	3601      	adds	r6, #1
 8001724:	e7ee      	b.n	8001704 <__libc_init_array+0xc>
 8001726:	f855 3b04 	ldr.w	r3, [r5], #4
 800172a:	4798      	blx	r3
 800172c:	3601      	adds	r6, #1
 800172e:	e7f2      	b.n	8001716 <__libc_init_array+0x1e>
 8001730:	08001780 	.word	0x08001780
 8001734:	08001780 	.word	0x08001780
 8001738:	08001780 	.word	0x08001780
 800173c:	08001784 	.word	0x08001784

08001740 <memset>:
 8001740:	4402      	add	r2, r0
 8001742:	4603      	mov	r3, r0
 8001744:	4293      	cmp	r3, r2
 8001746:	d100      	bne.n	800174a <memset+0xa>
 8001748:	4770      	bx	lr
 800174a:	f803 1b01 	strb.w	r1, [r3], #1
 800174e:	e7f9      	b.n	8001744 <memset+0x4>

08001750 <_init>:
 8001750:	b5f8      	push	{r3, r4, r5, r6, r7, lr}
 8001752:	bf00      	nop
 8001754:	bcf8      	pop	{r3, r4, r5, r6, r7}
 8001756:	bc08      	pop	{r3}
 8001758:	469e      	mov	lr, r3
 800175a:	4770      	bx	lr

0800175c <_fini>:
 800175c:	b5f8      	push	{r3, r4, r5, r6, r7, lr}
 800175e:	bf00      	nop
 8001760:	bcf8      	pop	{r3, r4, r5, r6, r7}
 8001762:	bc08      	pop	{r3}
 8001764:	469e      	mov	lr, r3
 8001766:	4770      	bx	lr
