
codigo1.elf:     file format elf32-littlearm

Sections:
Idx Name          Size      VMA       LMA       File off  Algn
  0 .isr_vector   00000194  08000000  08000000  00010000  2**0
                  CONTENTS, ALLOC, LOAD, READONLY, DATA
  1 .text         00012b14  080001a0  080001a0  000101a0  2**4
                  CONTENTS, ALLOC, LOAD, READONLY, CODE
  2 .rodata       000007a8  08012cb8  08012cb8  00022cb8  2**3
                  CONTENTS, ALLOC, LOAD, READONLY, DATA
  3 .ARM.extab    00000000  08013460  08013460  000303bc  2**0
                  CONTENTS
  4 .ARM          00000008  08013460  08013460  00023460  2**2
                  CONTENTS, ALLOC, LOAD, READONLY, DATA
  5 .preinit_array 00000000  08013468  08013468  000303bc  2**0
                  CONTENTS, ALLOC, LOAD, DATA
  6 .init_array   00000004  08013468  08013468  00023468  2**2
                  CONTENTS, ALLOC, LOAD, DATA
  7 .fini_array   00000004  0801346c  0801346c  0002346c  2**2
                  CONTENTS, ALLOC, LOAD, DATA
  8 .data         000003bc  20000000  08013470  00030000  2**3
                  CONTENTS, ALLOC, LOAD, DATA
  9 .bss          0000047c  200003c0  0801382c  000303c0  2**3
                  ALLOC
 10 ._user_heap_stack 00000604  2000083c  0801382c  0003083c  2**0
                  ALLOC
 11 .ARM.attributes 00000030  00000000  00000000  000303bc  2**0
                  CONTENTS, READONLY
 12 .debug_info   00019f0c  00000000  00000000  000303ec  2**0
                  CONTENTS, READONLY, DEBUGGING, OCTETS
 13 .debug_abbrev 00003425  00000000  00000000  0004a2f8  2**0
                  CONTENTS, READONLY, DEBUGGING, OCTETS
 14 .debug_aranges 00001890  00000000  00000000  0004d720  2**3
                  CONTENTS, READONLY, DEBUGGING, OCTETS
 15 .debug_ranges 00001780  00000000  00000000  0004efb0  2**3
                  CONTENTS, READONLY, DEBUGGING, OCTETS
 16 .debug_macro  0001a847  00000000  00000000  00050730  2**0
                  CONTENTS, READONLY, DEBUGGING, OCTETS
 17 .debug_line   00019111  00000000  00000000  0006af77  2**0
                  CONTENTS, READONLY, DEBUGGING, OCTETS
 18 .debug_str    000a82ff  00000000  00000000  00084088  2**0
                  CONTENTS, READONLY, DEBUGGING, OCTETS
 19 .comment      00000050  00000000  00000000  0012c387  2**0
                  CONTENTS, READONLY
 20 .debug_frame  00008578  00000000  00000000  0012c3d8  2**2
                  CONTENTS, READONLY, DEBUGGING, OCTETS

Disassembly of section .text:

080001a0 <__do_global_dtors_aux>:
 80001a0:	b510      	push	{r4, lr}
 80001a2:	4c05      	ldr	r4, [pc, #20]	; (80001b8 <__do_global_dtors_aux+0x18>)
 80001a4:	7823      	ldrb	r3, [r4, #0]
 80001a6:	b933      	cbnz	r3, 80001b6 <__do_global_dtors_aux+0x16>
 80001a8:	4b04      	ldr	r3, [pc, #16]	; (80001bc <__do_global_dtors_aux+0x1c>)
 80001aa:	b113      	cbz	r3, 80001b2 <__do_global_dtors_aux+0x12>
 80001ac:	4804      	ldr	r0, [pc, #16]	; (80001c0 <__do_global_dtors_aux+0x20>)
 80001ae:	f3af 8000 	nop.w
 80001b2:	2301      	movs	r3, #1
 80001b4:	7023      	strb	r3, [r4, #0]
 80001b6:	bd10      	pop	{r4, pc}
 80001b8:	200003c0 	.word	0x200003c0
 80001bc:	00000000 	.word	0x00000000
 80001c0:	08012c9c 	.word	0x08012c9c

080001c4 <frame_dummy>:
 80001c4:	b508      	push	{r3, lr}
 80001c6:	4b03      	ldr	r3, [pc, #12]	; (80001d4 <frame_dummy+0x10>)
 80001c8:	b11b      	cbz	r3, 80001d2 <frame_dummy+0xe>
 80001ca:	4903      	ldr	r1, [pc, #12]	; (80001d8 <frame_dummy+0x14>)
 80001cc:	4803      	ldr	r0, [pc, #12]	; (80001dc <frame_dummy+0x18>)
 80001ce:	f3af 8000 	nop.w
 80001d2:	bd08      	pop	{r3, pc}
 80001d4:	00000000 	.word	0x00000000
 80001d8:	200003c4 	.word	0x200003c4
 80001dc:	08012c9c 	.word	0x08012c9c

080001e0 <strlen>:
 80001e0:	4603      	mov	r3, r0
 80001e2:	f813 2b01 	ldrb.w	r2, [r3], #1
 80001e6:	2a00      	cmp	r2, #0
 80001e8:	d1fb      	bne.n	80001e2 <strlen+0x2>
 80001ea:	1a18      	subs	r0, r3, r0
 80001ec:	3801      	subs	r0, #1
 80001ee:	4770      	bx	lr

080001f0 <memchr>:
 80001f0:	f001 01ff 	and.w	r1, r1, #255	; 0xff
 80001f4:	2a10      	cmp	r2, #16
 80001f6:	db2b      	blt.n	8000250 <memchr+0x60>
 80001f8:	f010 0f07 	tst.w	r0, #7
 80001fc:	d008      	beq.n	8000210 <memchr+0x20>
 80001fe:	f810 3b01 	ldrb.w	r3, [r0], #1
 8000202:	3a01      	subs	r2, #1
 8000204:	428b      	cmp	r3, r1
 8000206:	d02d      	beq.n	8000264 <memchr+0x74>
 8000208:	f010 0f07 	tst.w	r0, #7
 800020c:	b342      	cbz	r2, 8000260 <memchr+0x70>
 800020e:	d1f6      	bne.n	80001fe <memchr+0xe>
 8000210:	b4f0      	push	{r4, r5, r6, r7}
 8000212:	ea41 2101 	orr.w	r1, r1, r1, lsl #8
 8000216:	ea41 4101 	orr.w	r1, r1, r1, lsl #16
 800021a:	f022 0407 	bic.w	r4, r2, #7
 800021e:	f07f 0700 	mvns.w	r7, #0
 8000222:	2300      	movs	r3, #0
 8000224:	e8f0 5602 	ldrd	r5, r6, [r0], #8
 8000228:	3c08      	subs	r4, #8
 800022a:	ea85 0501 	eor.w	r5, r5, r1
 800022e:	ea86 0601 	eor.w	r6, r6, r1
 8000232:	fa85 f547 	uadd8	r5, r5, r7
 8000236:	faa3 f587 	sel	r5, r3, r7
 800023a:	fa86 f647 	uadd8	r6, r6, r7
 800023e:	faa5 f687 	sel	r6, r5, r7
 8000242:	b98e      	cbnz	r6, 8000268 <memchr+0x78>
 8000244:	d1ee      	bne.n	8000224 <memchr+0x34>
 8000246:	bcf0      	pop	{r4, r5, r6, r7}
 8000248:	f001 01ff 	and.w	r1, r1, #255	; 0xff
 800024c:	f002 0207 	and.w	r2, r2, #7
 8000250:	b132      	cbz	r2, 8000260 <memchr+0x70>
 8000252:	f810 3b01 	ldrb.w	r3, [r0], #1
 8000256:	3a01      	subs	r2, #1
 8000258:	ea83 0301 	eor.w	r3, r3, r1
 800025c:	b113      	cbz	r3, 8000264 <memchr+0x74>
 800025e:	d1f8      	bne.n	8000252 <memchr+0x62>
 8000260:	2000      	movs	r0, #0
 8000262:	4770      	bx	lr
 8000264:	3801      	subs	r0, #1
 8000266:	4770      	bx	lr
 8000268:	2d00      	cmp	r5, #0
 800026a:	bf06      	itte	eq
 800026c:	4635      	moveq	r5, r6
 800026e:	3803      	subeq	r0, #3
 8000270:	3807      	subne	r0, #7
 8000272:	f015 0f01 	tst.w	r5, #1
 8000276:	d107      	bne.n	8000288 <memchr+0x98>
 8000278:	3001      	adds	r0, #1
 800027a:	f415 7f80 	tst.w	r5, #256	; 0x100
 800027e:	bf02      	ittt	eq
 8000280:	3001      	addeq	r0, #1
 8000282:	f415 3fc0 	tsteq.w	r5, #98304	; 0x18000
 8000286:	3001      	addeq	r0, #1
 8000288:	bcf0      	pop	{r4, r5, r6, r7}
 800028a:	3801      	subs	r0, #1
 800028c:	4770      	bx	lr
 800028e:	bf00      	nop

08000290 <__aeabi_drsub>:
 8000290:	f081 4100 	eor.w	r1, r1, #2147483648	; 0x80000000
 8000294:	e002      	b.n	800029c <__adddf3>
 8000296:	bf00      	nop

08000298 <__aeabi_dsub>:
 8000298:	f083 4300 	eor.w	r3, r3, #2147483648	; 0x80000000

0800029c <__adddf3>:
 800029c:	b530      	push	{r4, r5, lr}
 800029e:	ea4f 0441 	mov.w	r4, r1, lsl #1
 80002a2:	ea4f 0543 	mov.w	r5, r3, lsl #1
 80002a6:	ea94 0f05 	teq	r4, r5
 80002aa:	bf08      	it	eq
 80002ac:	ea90 0f02 	teqeq	r0, r2
 80002b0:	bf1f      	itttt	ne
 80002b2:	ea54 0c00 	orrsne.w	ip, r4, r0
 80002b6:	ea55 0c02 	orrsne.w	ip, r5, r2
 80002ba:	ea7f 5c64 	mvnsne.w	ip, r4, asr #21
 80002be:	ea7f 5c65 	mvnsne.w	ip, r5, asr #21
 80002c2:	f000 80e2 	beq.w	800048a <__adddf3+0x1ee>
 80002c6:	ea4f 5454 	mov.w	r4, r4, lsr #21
 80002ca:	ebd4 5555 	rsbs	r5, r4, r5, lsr #21
 80002ce:	bfb8      	it	lt
 80002d0:	426d      	neglt	r5, r5
 80002d2:	dd0c      	ble.n	80002ee <__adddf3+0x52>
 80002d4:	442c      	add	r4, r5
 80002d6:	ea80 0202 	eor.w	r2, r0, r2
 80002da:	ea81 0303 	eor.w	r3, r1, r3
 80002de:	ea82 0000 	eor.w	r0, r2, r0
 80002e2:	ea83 0101 	eor.w	r1, r3, r1
 80002e6:	ea80 0202 	eor.w	r2, r0, r2
 80002ea:	ea81 0303 	eor.w	r3, r1, r3
 80002ee:	2d36      	cmp	r5, #54	; 0x36
 80002f0:	bf88      	it	hi
 80002f2:	bd30      	pophi	{r4, r5, pc}
 80002f4:	f011 4f00 	tst.w	r1, #2147483648	; 0x80000000
 80002f8:	ea4f 3101 	mov.w	r1, r1, lsl #12
 80002fc:	f44f 1c80 	mov.w	ip, #1048576	; 0x100000
 8000300:	ea4c 3111 	orr.w	r1, ip, r1, lsr #12
 8000304:	d002      	beq.n	800030c <__adddf3+0x70>
 8000306:	4240      	negs	r0, r0
 8000308:	eb61 0141 	sbc.w	r1, r1, r1, lsl #1
 800030c:	f013 4f00 	tst.w	r3, #2147483648	; 0x80000000
 8000310:	ea4f 3303 	mov.w	r3, r3, lsl #12
 8000314:	ea4c 3313 	orr.w	r3, ip, r3, lsr #12
 8000318:	d002      	beq.n	8000320 <__adddf3+0x84>
 800031a:	4252      	negs	r2, r2
 800031c:	eb63 0343 	sbc.w	r3, r3, r3, lsl #1
 8000320:	ea94 0f05 	teq	r4, r5
 8000324:	f000 80a7 	beq.w	8000476 <__adddf3+0x1da>
 8000328:	f1a4 0401 	sub.w	r4, r4, #1
 800032c:	f1d5 0e20 	rsbs	lr, r5, #32
 8000330:	db0d      	blt.n	800034e <__adddf3+0xb2>
 8000332:	fa02 fc0e 	lsl.w	ip, r2, lr
 8000336:	fa22 f205 	lsr.w	r2, r2, r5
 800033a:	1880      	adds	r0, r0, r2
 800033c:	f141 0100 	adc.w	r1, r1, #0
 8000340:	fa03 f20e 	lsl.w	r2, r3, lr
 8000344:	1880      	adds	r0, r0, r2
 8000346:	fa43 f305 	asr.w	r3, r3, r5
 800034a:	4159      	adcs	r1, r3
 800034c:	e00e      	b.n	800036c <__adddf3+0xd0>
 800034e:	f1a5 0520 	sub.w	r5, r5, #32
 8000352:	f10e 0e20 	add.w	lr, lr, #32
 8000356:	2a01      	cmp	r2, #1
 8000358:	fa03 fc0e 	lsl.w	ip, r3, lr
 800035c:	bf28      	it	cs
 800035e:	f04c 0c02 	orrcs.w	ip, ip, #2
 8000362:	fa43 f305 	asr.w	r3, r3, r5
 8000366:	18c0      	adds	r0, r0, r3
 8000368:	eb51 71e3 	adcs.w	r1, r1, r3, asr #31
 800036c:	f001 4500 	and.w	r5, r1, #2147483648	; 0x80000000
 8000370:	d507      	bpl.n	8000382 <__adddf3+0xe6>
 8000372:	f04f 0e00 	mov.w	lr, #0
 8000376:	f1dc 0c00 	rsbs	ip, ip, #0
 800037a:	eb7e 0000 	sbcs.w	r0, lr, r0
 800037e:	eb6e 0101 	sbc.w	r1, lr, r1
 8000382:	f5b1 1f80 	cmp.w	r1, #1048576	; 0x100000
 8000386:	d31b      	bcc.n	80003c0 <__adddf3+0x124>
 8000388:	f5b1 1f00 	cmp.w	r1, #2097152	; 0x200000
 800038c:	d30c      	bcc.n	80003a8 <__adddf3+0x10c>
 800038e:	0849      	lsrs	r1, r1, #1
 8000390:	ea5f 0030 	movs.w	r0, r0, rrx
 8000394:	ea4f 0c3c 	mov.w	ip, ip, rrx
 8000398:	f104 0401 	add.w	r4, r4, #1
 800039c:	ea4f 5244 	mov.w	r2, r4, lsl #21
 80003a0:	f512 0f80 	cmn.w	r2, #4194304	; 0x400000
 80003a4:	f080 809a 	bcs.w	80004dc <__adddf3+0x240>
 80003a8:	f1bc 4f00 	cmp.w	ip, #2147483648	; 0x80000000
 80003ac:	bf08      	it	eq
 80003ae:	ea5f 0c50 	movseq.w	ip, r0, lsr #1
 80003b2:	f150 0000 	adcs.w	r0, r0, #0
 80003b6:	eb41 5104 	adc.w	r1, r1, r4, lsl #20
 80003ba:	ea41 0105 	orr.w	r1, r1, r5
 80003be:	bd30      	pop	{r4, r5, pc}
 80003c0:	ea5f 0c4c 	movs.w	ip, ip, lsl #1
 80003c4:	4140      	adcs	r0, r0
 80003c6:	eb41 0101 	adc.w	r1, r1, r1
 80003ca:	3c01      	subs	r4, #1
 80003cc:	bf28      	it	cs
 80003ce:	f5b1 1f80 	cmpcs.w	r1, #1048576	; 0x100000
 80003d2:	d2e9      	bcs.n	80003a8 <__adddf3+0x10c>
 80003d4:	f091 0f00 	teq	r1, #0
 80003d8:	bf04      	itt	eq
 80003da:	4601      	moveq	r1, r0
 80003dc:	2000      	moveq	r0, #0
 80003de:	fab1 f381 	clz	r3, r1
 80003e2:	bf08      	it	eq
 80003e4:	3320      	addeq	r3, #32
 80003e6:	f1a3 030b 	sub.w	r3, r3, #11
 80003ea:	f1b3 0220 	subs.w	r2, r3, #32
 80003ee:	da0c      	bge.n	800040a <__adddf3+0x16e>
 80003f0:	320c      	adds	r2, #12
 80003f2:	dd08      	ble.n	8000406 <__adddf3+0x16a>
 80003f4:	f102 0c14 	add.w	ip, r2, #20
 80003f8:	f1c2 020c 	rsb	r2, r2, #12
 80003fc:	fa01 f00c 	lsl.w	r0, r1, ip
 8000400:	fa21 f102 	lsr.w	r1, r1, r2
 8000404:	e00c      	b.n	8000420 <__adddf3+0x184>
 8000406:	f102 0214 	add.w	r2, r2, #20
 800040a:	bfd8      	it	le
 800040c:	f1c2 0c20 	rsble	ip, r2, #32
 8000410:	fa01 f102 	lsl.w	r1, r1, r2
 8000414:	fa20 fc0c 	lsr.w	ip, r0, ip
 8000418:	bfdc      	itt	le
 800041a:	ea41 010c 	orrle.w	r1, r1, ip
 800041e:	4090      	lslle	r0, r2
 8000420:	1ae4      	subs	r4, r4, r3
 8000422:	bfa2      	ittt	ge
 8000424:	eb01 5104 	addge.w	r1, r1, r4, lsl #20
 8000428:	4329      	orrge	r1, r5
 800042a:	bd30      	popge	{r4, r5, pc}
 800042c:	ea6f 0404 	mvn.w	r4, r4
 8000430:	3c1f      	subs	r4, #31
 8000432:	da1c      	bge.n	800046e <__adddf3+0x1d2>
 8000434:	340c      	adds	r4, #12
 8000436:	dc0e      	bgt.n	8000456 <__adddf3+0x1ba>
 8000438:	f104 0414 	add.w	r4, r4, #20
 800043c:	f1c4 0220 	rsb	r2, r4, #32
 8000440:	fa20 f004 	lsr.w	r0, r0, r4
 8000444:	fa01 f302 	lsl.w	r3, r1, r2
 8000448:	ea40 0003 	orr.w	r0, r0, r3
 800044c:	fa21 f304 	lsr.w	r3, r1, r4
 8000450:	ea45 0103 	orr.w	r1, r5, r3
 8000454:	bd30      	pop	{r4, r5, pc}
 8000456:	f1c4 040c 	rsb	r4, r4, #12
 800045a:	f1c4 0220 	rsb	r2, r4, #32
 800045e:	fa20 f002 	lsr.w	r0, r0, r2
 8000462:	fa01 f304 	lsl.w	r3, r1, r4
 8000466:	ea40 0003 	orr.w	r0, r0, r3
 800046a:	4629      	mov	r1, r5
 800046c:	bd30      	pop	{r4, r5, pc}
 800046e:	fa21 f004 	lsr.w	r0, r1, r4
 8000472:	4629      	mov	r1, r5
 8000474:	bd30      	pop	{r4, r5, pc}
 8000476:	f094 0f00 	teq	r4, #0
 800047a:	f483 1380 	eor.w	r3, r3, #1048576	; 0x100000
 800047e:	bf06      	itte	eq
 8000480:	f481 1180 	eoreq.w	r1, r1, #1048576	; 0x100000
 8000484:	3401      	addeq	r4, #1
 8000486:	3d01      	subne	r5, #1
 8000488:	e74e      	b.n	8000328 <__adddf3+0x8c>
 800048a:	ea7f 5c64 	mvns.w	ip, r4, asr #21
 800048e:	bf18      	it	ne
 8000490:	ea7f 5c65 	mvnsne.w	ip, r5, asr #21
 8000494:	d029      	beq.n	80004ea <__adddf3+0x24e>
 8000496:	ea94 0f05 	teq	r4, r5
 800049a:	bf08      	it	eq
 800049c:	ea90 0f02 	teqeq	r0, r2
 80004a0:	d005      	beq.n	80004ae <__adddf3+0x212>
 80004a2:	ea54 0c00 	orrs.w	ip, r4, r0
 80004a6:	bf04      	itt	eq
 80004a8:	4619      	moveq	r1, r3
 80004aa:	4610      	moveq	r0, r2
 80004ac:	bd30      	pop	{r4, r5, pc}
 80004ae:	ea91 0f03 	teq	r1, r3
 80004b2:	bf1e      	ittt	ne
 80004b4:	2100      	movne	r1, #0
 80004b6:	2000      	movne	r0, #0
 80004b8:	bd30      	popne	{r4, r5, pc}
 80004ba:	ea5f 5c54 	movs.w	ip, r4, lsr #21
 80004be:	d105      	bne.n	80004cc <__adddf3+0x230>
 80004c0:	0040      	lsls	r0, r0, #1
 80004c2:	4149      	adcs	r1, r1
 80004c4:	bf28      	it	cs
 80004c6:	f041 4100 	orrcs.w	r1, r1, #2147483648	; 0x80000000
 80004ca:	bd30      	pop	{r4, r5, pc}
 80004cc:	f514 0480 	adds.w	r4, r4, #4194304	; 0x400000
 80004d0:	bf3c      	itt	cc
 80004d2:	f501 1180 	addcc.w	r1, r1, #1048576	; 0x100000
 80004d6:	bd30      	popcc	{r4, r5, pc}
 80004d8:	f001 4500 	and.w	r5, r1, #2147483648	; 0x80000000
 80004dc:	f045 41fe 	orr.w	r1, r5, #2130706432	; 0x7f000000
 80004e0:	f441 0170 	orr.w	r1, r1, #15728640	; 0xf00000
 80004e4:	f04f 0000 	mov.w	r0, #0
 80004e8:	bd30      	pop	{r4, r5, pc}
 80004ea:	ea7f 5c64 	mvns.w	ip, r4, asr #21
 80004ee:	bf1a      	itte	ne
 80004f0:	4619      	movne	r1, r3
 80004f2:	4610      	movne	r0, r2
 80004f4:	ea7f 5c65 	mvnseq.w	ip, r5, asr #21
 80004f8:	bf1c      	itt	ne
 80004fa:	460b      	movne	r3, r1
 80004fc:	4602      	movne	r2, r0
 80004fe:	ea50 3401 	orrs.w	r4, r0, r1, lsl #12
 8000502:	bf06      	itte	eq
 8000504:	ea52 3503 	orrseq.w	r5, r2, r3, lsl #12
 8000508:	ea91 0f03 	teqeq	r1, r3
 800050c:	f441 2100 	orrne.w	r1, r1, #524288	; 0x80000
 8000510:	bd30      	pop	{r4, r5, pc}
 8000512:	bf00      	nop

08000514 <__aeabi_ui2d>:
 8000514:	f090 0f00 	teq	r0, #0
 8000518:	bf04      	itt	eq
 800051a:	2100      	moveq	r1, #0
 800051c:	4770      	bxeq	lr
 800051e:	b530      	push	{r4, r5, lr}
 8000520:	f44f 6480 	mov.w	r4, #1024	; 0x400
 8000524:	f104 0432 	add.w	r4, r4, #50	; 0x32
 8000528:	f04f 0500 	mov.w	r5, #0
 800052c:	f04f 0100 	mov.w	r1, #0
 8000530:	e750      	b.n	80003d4 <__adddf3+0x138>
 8000532:	bf00      	nop

08000534 <__aeabi_i2d>:
 8000534:	f090 0f00 	teq	r0, #0
 8000538:	bf04      	itt	eq
 800053a:	2100      	moveq	r1, #0
 800053c:	4770      	bxeq	lr
 800053e:	b530      	push	{r4, r5, lr}
 8000540:	f44f 6480 	mov.w	r4, #1024	; 0x400
 8000544:	f104 0432 	add.w	r4, r4, #50	; 0x32
 8000548:	f010 4500 	ands.w	r5, r0, #2147483648	; 0x80000000
 800054c:	bf48      	it	mi
 800054e:	4240      	negmi	r0, r0
 8000550:	f04f 0100 	mov.w	r1, #0
 8000554:	e73e      	b.n	80003d4 <__adddf3+0x138>
 8000556:	bf00      	nop

08000558 <__aeabi_f2d>:
 8000558:	0042      	lsls	r2, r0, #1
 800055a:	ea4f 01e2 	mov.w	r1, r2, asr #3
 800055e:	ea4f 0131 	mov.w	r1, r1, rrx
 8000562:	ea4f 7002 	mov.w	r0, r2, lsl #28
 8000566:	bf1f      	itttt	ne
 8000568:	f012 437f 	andsne.w	r3, r2, #4278190080	; 0xff000000
 800056c:	f093 4f7f 	teqne	r3, #4278190080	; 0xff000000
 8000570:	f081 5160 	eorne.w	r1, r1, #939524096	; 0x38000000
 8000574:	4770      	bxne	lr
 8000576:	f032 427f 	bics.w	r2, r2, #4278190080	; 0xff000000
 800057a:	bf08      	it	eq
 800057c:	4770      	bxeq	lr
 800057e:	f093 4f7f 	teq	r3, #4278190080	; 0xff000000
 8000582:	bf04      	itt	eq
 8000584:	f441 2100 	orreq.w	r1, r1, #524288	; 0x80000
 8000588:	4770      	bxeq	lr
 800058a:	b530      	push	{r4, r5, lr}
 800058c:	f44f 7460 	mov.w	r4, #896	; 0x380
 8000590:	f001 4500 	and.w	r5, r1, #2147483648	; 0x80000000
 8000594:	f021 4100 	bic.w	r1, r1, #2147483648	; 0x80000000
 8000598:	e71c      	b.n	80003d4 <__adddf3+0x138>
 800059a:	bf00      	nop

0800059c <__aeabi_ul2d>:
 800059c:	ea50 0201 	orrs.w	r2, r0, r1
 80005a0:	bf08      	it	eq
 80005a2:	4770      	bxeq	lr
 80005a4:	b530      	push	{r4, r5, lr}
 80005a6:	f04f 0500 	mov.w	r5, #0
 80005aa:	e00a      	b.n	80005c2 <__aeabi_l2d+0x16>

080005ac <__aeabi_l2d>:
 80005ac:	ea50 0201 	orrs.w	r2, r0, r1
 80005b0:	bf08      	it	eq
 80005b2:	4770      	bxeq	lr
 80005b4:	b530      	push	{r4, r5, lr}
 80005b6:	f011 4500 	ands.w	r5, r1, #2147483648	; 0x80000000
 80005ba:	d502      	bpl.n	80005c2 <__aeabi_l2d+0x16>
 80005bc:	4240      	negs	r0, r0
 80005be:	eb61 0141 	sbc.w	r1, r1, r1, lsl #1
 80005c2:	f44f 6480 	mov.w	r4, #1024	; 0x400
 80005c6:	f104 0432 	add.w	r4, r4, #50	; 0x32
 80005ca:	ea5f 5c91 	movs.w	ip, r1, lsr #22
 80005ce:	f43f aed8 	beq.w	8000382 <__adddf3+0xe6>
 80005d2:	f04f 0203 	mov.w	r2, #3
 80005d6:	ea5f 0cdc 	movs.w	ip, ip, lsr #3
 80005da:	bf18      	it	ne
 80005dc:	3203      	addne	r2, #3
 80005de:	ea5f 0cdc 	movs.w	ip, ip, lsr #3
 80005e2:	bf18      	it	ne
 80005e4:	3203      	addne	r2, #3
 80005e6:	eb02 02dc 	add.w	r2, r2, ip, lsr #3
 80005ea:	f1c2 0320 	rsb	r3, r2, #32
 80005ee:	fa00 fc03 	lsl.w	ip, r0, r3
 80005f2:	fa20 f002 	lsr.w	r0, r0, r2
 80005f6:	fa01 fe03 	lsl.w	lr, r1, r3
 80005fa:	ea40 000e 	orr.w	r0, r0, lr
 80005fe:	fa21 f102 	lsr.w	r1, r1, r2
 8000602:	4414      	add	r4, r2
 8000604:	e6bd      	b.n	8000382 <__adddf3+0xe6>
 8000606:	bf00      	nop

08000608 <__aeabi_dmul>:
 8000608:	b570      	push	{r4, r5, r6, lr}
 800060a:	f04f 0cff 	mov.w	ip, #255	; 0xff
 800060e:	f44c 6ce0 	orr.w	ip, ip, #1792	; 0x700
 8000612:	ea1c 5411 	ands.w	r4, ip, r1, lsr #20
 8000616:	bf1d      	ittte	ne
 8000618:	ea1c 5513 	andsne.w	r5, ip, r3, lsr #20
 800061c:	ea94 0f0c 	teqne	r4, ip
 8000620:	ea95 0f0c 	teqne	r5, ip
 8000624:	f000 f8de 	bleq	80007e4 <__aeabi_dmul+0x1dc>
 8000628:	442c      	add	r4, r5
 800062a:	ea81 0603 	eor.w	r6, r1, r3
 800062e:	ea21 514c 	bic.w	r1, r1, ip, lsl #21
 8000632:	ea23 534c 	bic.w	r3, r3, ip, lsl #21
 8000636:	ea50 3501 	orrs.w	r5, r0, r1, lsl #12
 800063a:	bf18      	it	ne
 800063c:	ea52 3503 	orrsne.w	r5, r2, r3, lsl #12
 8000640:	f441 1180 	orr.w	r1, r1, #1048576	; 0x100000
 8000644:	f443 1380 	orr.w	r3, r3, #1048576	; 0x100000
 8000648:	d038      	beq.n	80006bc <__aeabi_dmul+0xb4>
 800064a:	fba0 ce02 	umull	ip, lr, r0, r2
 800064e:	f04f 0500 	mov.w	r5, #0
 8000652:	fbe1 e502 	umlal	lr, r5, r1, r2
 8000656:	f006 4200 	and.w	r2, r6, #2147483648	; 0x80000000
 800065a:	fbe0 e503 	umlal	lr, r5, r0, r3
 800065e:	f04f 0600 	mov.w	r6, #0
 8000662:	fbe1 5603 	umlal	r5, r6, r1, r3
 8000666:	f09c 0f00 	teq	ip, #0
 800066a:	bf18      	it	ne
 800066c:	f04e 0e01 	orrne.w	lr, lr, #1
 8000670:	f1a4 04ff 	sub.w	r4, r4, #255	; 0xff
 8000674:	f5b6 7f00 	cmp.w	r6, #512	; 0x200
 8000678:	f564 7440 	sbc.w	r4, r4, #768	; 0x300
 800067c:	d204      	bcs.n	8000688 <__aeabi_dmul+0x80>
 800067e:	ea5f 0e4e 	movs.w	lr, lr, lsl #1
 8000682:	416d      	adcs	r5, r5
 8000684:	eb46 0606 	adc.w	r6, r6, r6
 8000688:	ea42 21c6 	orr.w	r1, r2, r6, lsl #11
 800068c:	ea41 5155 	orr.w	r1, r1, r5, lsr #21
 8000690:	ea4f 20c5 	mov.w	r0, r5, lsl #11
 8000694:	ea40 505e 	orr.w	r0, r0, lr, lsr #21
 8000698:	ea4f 2ece 	mov.w	lr, lr, lsl #11
 800069c:	f1b4 0cfd 	subs.w	ip, r4, #253	; 0xfd
 80006a0:	bf88      	it	hi
 80006a2:	f5bc 6fe0 	cmphi.w	ip, #1792	; 0x700
 80006a6:	d81e      	bhi.n	80006e6 <__aeabi_dmul+0xde>
 80006a8:	f1be 4f00 	cmp.w	lr, #2147483648	; 0x80000000
 80006ac:	bf08      	it	eq
 80006ae:	ea5f 0e50 	movseq.w	lr, r0, lsr #1
 80006b2:	f150 0000 	adcs.w	r0, r0, #0
 80006b6:	eb41 5104 	adc.w	r1, r1, r4, lsl #20
 80006ba:	bd70      	pop	{r4, r5, r6, pc}
 80006bc:	f006 4600 	and.w	r6, r6, #2147483648	; 0x80000000
 80006c0:	ea46 0101 	orr.w	r1, r6, r1
 80006c4:	ea40 0002 	orr.w	r0, r0, r2
 80006c8:	ea81 0103 	eor.w	r1, r1, r3
 80006cc:	ebb4 045c 	subs.w	r4, r4, ip, lsr #1
 80006d0:	bfc2      	ittt	gt
 80006d2:	ebd4 050c 	rsbsgt	r5, r4, ip
 80006d6:	ea41 5104 	orrgt.w	r1, r1, r4, lsl #20
 80006da:	bd70      	popgt	{r4, r5, r6, pc}
 80006dc:	f441 1180 	orr.w	r1, r1, #1048576	; 0x100000
 80006e0:	f04f 0e00 	mov.w	lr, #0
 80006e4:	3c01      	subs	r4, #1
 80006e6:	f300 80ab 	bgt.w	8000840 <__aeabi_dmul+0x238>
 80006ea:	f114 0f36 	cmn.w	r4, #54	; 0x36
 80006ee:	bfde      	ittt	le
 80006f0:	2000      	movle	r0, #0
 80006f2:	f001 4100 	andle.w	r1, r1, #2147483648	; 0x80000000
 80006f6:	bd70      	pople	{r4, r5, r6, pc}
 80006f8:	f1c4 0400 	rsb	r4, r4, #0
 80006fc:	3c20      	subs	r4, #32
 80006fe:	da35      	bge.n	800076c <__aeabi_dmul+0x164>
 8000700:	340c      	adds	r4, #12
 8000702:	dc1b      	bgt.n	800073c <__aeabi_dmul+0x134>
 8000704:	f104 0414 	add.w	r4, r4, #20
 8000708:	f1c4 0520 	rsb	r5, r4, #32
 800070c:	fa00 f305 	lsl.w	r3, r0, r5
 8000710:	fa20 f004 	lsr.w	r0, r0, r4
 8000714:	fa01 f205 	lsl.w	r2, r1, r5
 8000718:	ea40 0002 	orr.w	r0, r0, r2
 800071c:	f001 4200 	and.w	r2, r1, #2147483648	; 0x80000000
 8000720:	f021 4100 	bic.w	r1, r1, #2147483648	; 0x80000000
 8000724:	eb10 70d3 	adds.w	r0, r0, r3, lsr #31
 8000728:	fa21 f604 	lsr.w	r6, r1, r4
 800072c:	eb42 0106 	adc.w	r1, r2, r6
 8000730:	ea5e 0e43 	orrs.w	lr, lr, r3, lsl #1
 8000734:	bf08      	it	eq
 8000736:	ea20 70d3 	biceq.w	r0, r0, r3, lsr #31
 800073a:	bd70      	pop	{r4, r5, r6, pc}
 800073c:	f1c4 040c 	rsb	r4, r4, #12
 8000740:	f1c4 0520 	rsb	r5, r4, #32
 8000744:	fa00 f304 	lsl.w	r3, r0, r4
 8000748:	fa20 f005 	lsr.w	r0, r0, r5
 800074c:	fa01 f204 	lsl.w	r2, r1, r4
 8000750:	ea40 0002 	orr.w	r0, r0, r2
 8000754:	f001 4100 	and.w	r1, r1, #2147483648	; 0x80000000
 8000758:	eb10 70d3 	adds.w	r0, r0, r3, lsr #31
 800075c:	f141 0100 	adc.w	r1, r1, #0
 8000760:	ea5e 0e43 	orrs.w	lr, lr, r3, lsl #1
 8000764:	bf08      	it	eq
 8000766:	ea20 70d3 	biceq.w	r0, r0, r3, lsr #31
 800076a:	bd70      	pop	{r4, r5, r6, pc}
 800076c:	f1c4 0520 	rsb	r5, r4, #32
 8000770:	fa00 f205 	lsl.w	r2, r0, r5
 8000774:	ea4e 0e02 	orr.w	lr, lr, r2
 8000778:	fa20 f304 	lsr.w	r3, r0, r4
 800077c:	fa01 f205 	lsl.w	r2, r1, r5
 8000780:	ea43 0302 	orr.w	r3, r3, r2
 8000784:	fa21 f004 	lsr.w	r0, r1, r4
 8000788:	f001 4100 	and.w	r1, r1, #2147483648	; 0x80000000
 800078c:	fa21 f204 	lsr.w	r2, r1, r4
 8000790:	ea20 0002 	bic.w	r0, r0, r2
 8000794:	eb00 70d3 	add.w	r0, r0, r3, lsr #31
 8000798:	ea5e 0e43 	orrs.w	lr, lr, r3, lsl #1
 800079c:	bf08      	it	eq
 800079e:	ea20 70d3 	biceq.w	r0, r0, r3, lsr #31
 80007a2:	bd70      	pop	{r4, r5, r6, pc}
 80007a4:	f094 0f00 	teq	r4, #0
 80007a8:	d10f      	bne.n	80007ca <__aeabi_dmul+0x1c2>
 80007aa:	f001 4600 	and.w	r6, r1, #2147483648	; 0x80000000
 80007ae:	0040      	lsls	r0, r0, #1
 80007b0:	eb41 0101 	adc.w	r1, r1, r1
 80007b4:	f411 1f80 	tst.w	r1, #1048576	; 0x100000
 80007b8:	bf08      	it	eq
 80007ba:	3c01      	subeq	r4, #1
 80007bc:	d0f7      	beq.n	80007ae <__aeabi_dmul+0x1a6>
 80007be:	ea41 0106 	orr.w	r1, r1, r6
 80007c2:	f095 0f00 	teq	r5, #0
 80007c6:	bf18      	it	ne
 80007c8:	4770      	bxne	lr
 80007ca:	f003 4600 	and.w	r6, r3, #2147483648	; 0x80000000
 80007ce:	0052      	lsls	r2, r2, #1
 80007d0:	eb43 0303 	adc.w	r3, r3, r3
 80007d4:	f413 1f80 	tst.w	r3, #1048576	; 0x100000
 80007d8:	bf08      	it	eq
 80007da:	3d01      	subeq	r5, #1
 80007dc:	d0f7      	beq.n	80007ce <__aeabi_dmul+0x1c6>
 80007de:	ea43 0306 	orr.w	r3, r3, r6
 80007e2:	4770      	bx	lr
 80007e4:	ea94 0f0c 	teq	r4, ip
 80007e8:	ea0c 5513 	and.w	r5, ip, r3, lsr #20
 80007ec:	bf18      	it	ne
 80007ee:	ea95 0f0c 	teqne	r5, ip
 80007f2:	d00c      	beq.n	800080e <__aeabi_dmul+0x206>
 80007f4:	ea50 0641 	orrs.w	r6, r0, r1, lsl #1
 80007f8:	bf18      	it	ne
 80007fa:	ea52 0643 	orrsne.w	r6, r2, r3, lsl #1
 80007fe:	d1d1      	bne.n	80007a4 <__aeabi_dmul+0x19c>
 8000800:	ea81 0103 	eor.w	r1, r1, r3
 8000804:	f001 4100 	and.w	r1, r1, #2147483648	; 0x80000000
 8000808:	f04f 0000 	mov.w	r0, #0
 800080c:	bd70      	pop	{r4, r5, r6, pc}
 800080e:	ea50 0641 	orrs.w	r6, r0, r1, lsl #1
 8000812:	bf06      	itte	eq
 8000814:	4610      	moveq	r0, r2
 8000816:	4619      	moveq	r1, r3
 8000818:	ea52 0643 	orrsne.w	r6, r2, r3, lsl #1
 800081c:	d019      	beq.n	8000852 <__aeabi_dmul+0x24a>
 800081e:	ea94 0f0c 	teq	r4, ip
 8000822:	d102      	bne.n	800082a <__aeabi_dmul+0x222>
 8000824:	ea50 3601 	orrs.w	r6, r0, r1, lsl #12
 8000828:	d113      	bne.n	8000852 <__aeabi_dmul+0x24a>
 800082a:	ea95 0f0c 	teq	r5, ip
 800082e:	d105      	bne.n	800083c <__aeabi_dmul+0x234>
 8000830:	ea52 3603 	orrs.w	r6, r2, r3, lsl #12
 8000834:	bf1c      	itt	ne
 8000836:	4610      	movne	r0, r2
 8000838:	4619      	movne	r1, r3
 800083a:	d10a      	bne.n	8000852 <__aeabi_dmul+0x24a>
 800083c:	ea81 0103 	eor.w	r1, r1, r3
 8000840:	f001 4100 	and.w	r1, r1, #2147483648	; 0x80000000
 8000844:	f041 41fe 	orr.w	r1, r1, #2130706432	; 0x7f000000
 8000848:	f441 0170 	orr.w	r1, r1, #15728640	; 0xf00000
 800084c:	f04f 0000 	mov.w	r0, #0
 8000850:	bd70      	pop	{r4, r5, r6, pc}
 8000852:	f041 41fe 	orr.w	r1, r1, #2130706432	; 0x7f000000
 8000856:	f441 0178 	orr.w	r1, r1, #16252928	; 0xf80000
 800085a:	bd70      	pop	{r4, r5, r6, pc}

0800085c <__aeabi_ddiv>:
 800085c:	b570      	push	{r4, r5, r6, lr}
 800085e:	f04f 0cff 	mov.w	ip, #255	; 0xff
 8000862:	f44c 6ce0 	orr.w	ip, ip, #1792	; 0x700
 8000866:	ea1c 5411 	ands.w	r4, ip, r1, lsr #20
 800086a:	bf1d      	ittte	ne
 800086c:	ea1c 5513 	andsne.w	r5, ip, r3, lsr #20
 8000870:	ea94 0f0c 	teqne	r4, ip
 8000874:	ea95 0f0c 	teqne	r5, ip
 8000878:	f000 f8a7 	bleq	80009ca <__aeabi_ddiv+0x16e>
 800087c:	eba4 0405 	sub.w	r4, r4, r5
 8000880:	ea81 0e03 	eor.w	lr, r1, r3
 8000884:	ea52 3503 	orrs.w	r5, r2, r3, lsl #12
 8000888:	ea4f 3101 	mov.w	r1, r1, lsl #12
 800088c:	f000 8088 	beq.w	80009a0 <__aeabi_ddiv+0x144>
 8000890:	ea4f 3303 	mov.w	r3, r3, lsl #12
 8000894:	f04f 5580 	mov.w	r5, #268435456	; 0x10000000
 8000898:	ea45 1313 	orr.w	r3, r5, r3, lsr #4
 800089c:	ea43 6312 	orr.w	r3, r3, r2, lsr #24
 80008a0:	ea4f 2202 	mov.w	r2, r2, lsl #8
 80008a4:	ea45 1511 	orr.w	r5, r5, r1, lsr #4
 80008a8:	ea45 6510 	orr.w	r5, r5, r0, lsr #24
 80008ac:	ea4f 2600 	mov.w	r6, r0, lsl #8
 80008b0:	f00e 4100 	and.w	r1, lr, #2147483648	; 0x80000000
 80008b4:	429d      	cmp	r5, r3
 80008b6:	bf08      	it	eq
 80008b8:	4296      	cmpeq	r6, r2
 80008ba:	f144 04fd 	adc.w	r4, r4, #253	; 0xfd
 80008be:	f504 7440 	add.w	r4, r4, #768	; 0x300
 80008c2:	d202      	bcs.n	80008ca <__aeabi_ddiv+0x6e>
 80008c4:	085b      	lsrs	r3, r3, #1
 80008c6:	ea4f 0232 	mov.w	r2, r2, rrx
 80008ca:	1ab6      	subs	r6, r6, r2
 80008cc:	eb65 0503 	sbc.w	r5, r5, r3
 80008d0:	085b      	lsrs	r3, r3, #1
 80008d2:	ea4f 0232 	mov.w	r2, r2, rrx
 80008d6:	f44f 1080 	mov.w	r0, #1048576	; 0x100000
 80008da:	f44f 2c00 	mov.w	ip, #524288	; 0x80000
 80008de:	ebb6 0e02 	subs.w	lr, r6, r2
 80008e2:	eb75 0e03 	sbcs.w	lr, r5, r3
 80008e6:	bf22      	ittt	cs
 80008e8:	1ab6      	subcs	r6, r6, r2
 80008ea:	4675      	movcs	r5, lr
 80008ec:	ea40 000c 	orrcs.w	r0, r0, ip
 80008f0:	085b      	lsrs	r3, r3, #1
 80008f2:	ea4f 0232 	mov.w	r2, r2, rrx
 80008f6:	ebb6 0e02 	subs.w	lr, r6, r2
 80008fa:	eb75 0e03 	sbcs.w	lr, r5, r3
 80008fe:	bf22      	ittt	cs
 8000900:	1ab6      	subcs	r6, r6, r2
 8000902:	4675      	movcs	r5, lr
 8000904:	ea40 005c 	orrcs.w	r0, r0, ip, lsr #1
 8000908:	085b      	lsrs	r3, r3, #1
 800090a:	ea4f 0232 	mov.w	r2, r2, rrx
 800090e:	ebb6 0e02 	subs.w	lr, r6, r2
 8000912:	eb75 0e03 	sbcs.w	lr, r5, r3
 8000916:	bf22      	ittt	cs
 8000918:	1ab6      	subcs	r6, r6, r2
 800091a:	4675      	movcs	r5, lr
 800091c:	ea40 009c 	orrcs.w	r0, r0, ip, lsr #2
 8000920:	085b      	lsrs	r3, r3, #1
 8000922:	ea4f 0232 	mov.w	r2, r2, rrx
 8000926:	ebb6 0e02 	subs.w	lr, r6, r2
 800092a:	eb75 0e03 	sbcs.w	lr, r5, r3
 800092e:	bf22      	ittt	cs
 8000930:	1ab6      	subcs	r6, r6, r2
 8000932:	4675      	movcs	r5, lr
 8000934:	ea40 00dc 	orrcs.w	r0, r0, ip, lsr #3
 8000938:	ea55 0e06 	orrs.w	lr, r5, r6
 800093c:	d018      	beq.n	8000970 <__aeabi_ddiv+0x114>
 800093e:	ea4f 1505 	mov.w	r5, r5, lsl #4
 8000942:	ea45 7516 	orr.w	r5, r5, r6, lsr #28
 8000946:	ea4f 1606 	mov.w	r6, r6, lsl #4
 800094a:	ea4f 03c3 	mov.w	r3, r3, lsl #3
 800094e:	ea43 7352 	orr.w	r3, r3, r2, lsr #29
 8000952:	ea4f 02c2 	mov.w	r2, r2, lsl #3
 8000956:	ea5f 1c1c 	movs.w	ip, ip, lsr #4
 800095a:	d1c0      	bne.n	80008de <__aeabi_ddiv+0x82>
 800095c:	f411 1f80 	tst.w	r1, #1048576	; 0x100000
 8000960:	d10b      	bne.n	800097a <__aeabi_ddiv+0x11e>
 8000962:	ea41 0100 	orr.w	r1, r1, r0
 8000966:	f04f 0000 	mov.w	r0, #0
 800096a:	f04f 4c00 	mov.w	ip, #2147483648	; 0x80000000
 800096e:	e7b6      	b.n	80008de <__aeabi_ddiv+0x82>
 8000970:	f411 1f80 	tst.w	r1, #1048576	; 0x100000
 8000974:	bf04      	itt	eq
 8000976:	4301      	orreq	r1, r0
 8000978:	2000      	moveq	r0, #0
 800097a:	f1b4 0cfd 	subs.w	ip, r4, #253	; 0xfd
 800097e:	bf88      	it	hi
 8000980:	f5bc 6fe0 	cmphi.w	ip, #1792	; 0x700
 8000984:	f63f aeaf 	bhi.w	80006e6 <__aeabi_dmul+0xde>
 8000988:	ebb5 0c03 	subs.w	ip, r5, r3
 800098c:	bf04      	itt	eq
 800098e:	ebb6 0c02 	subseq.w	ip, r6, r2
 8000992:	ea5f 0c50 	movseq.w	ip, r0, lsr #1
 8000996:	f150 0000 	adcs.w	r0, r0, #0
 800099a:	eb41 5104 	adc.w	r1, r1, r4, lsl #20
 800099e:	bd70      	pop	{r4, r5, r6, pc}
 80009a0:	f00e 4e00 	and.w	lr, lr, #2147483648	; 0x80000000
 80009a4:	ea4e 3111 	orr.w	r1, lr, r1, lsr #12
 80009a8:	eb14 045c 	adds.w	r4, r4, ip, lsr #1
 80009ac:	bfc2      	ittt	gt
 80009ae:	ebd4 050c 	rsbsgt	r5, r4, ip
 80009b2:	ea41 5104 	orrgt.w	r1, r1, r4, lsl #20
 80009b6:	bd70      	popgt	{r4, r5, r6, pc}
 80009b8:	f441 1180 	orr.w	r1, r1, #1048576	; 0x100000
 80009bc:	f04f 0e00 	mov.w	lr, #0
 80009c0:	3c01      	subs	r4, #1
 80009c2:	e690      	b.n	80006e6 <__aeabi_dmul+0xde>
 80009c4:	ea45 0e06 	orr.w	lr, r5, r6
 80009c8:	e68d      	b.n	80006e6 <__aeabi_dmul+0xde>
 80009ca:	ea0c 5513 	and.w	r5, ip, r3, lsr #20
 80009ce:	ea94 0f0c 	teq	r4, ip
 80009d2:	bf08      	it	eq
 80009d4:	ea95 0f0c 	teqeq	r5, ip
 80009d8:	f43f af3b 	beq.w	8000852 <__aeabi_dmul+0x24a>
 80009dc:	ea94 0f0c 	teq	r4, ip
 80009e0:	d10a      	bne.n	80009f8 <__aeabi_ddiv+0x19c>
 80009e2:	ea50 3401 	orrs.w	r4, r0, r1, lsl #12
 80009e6:	f47f af34 	bne.w	8000852 <__aeabi_dmul+0x24a>
 80009ea:	ea95 0f0c 	teq	r5, ip
 80009ee:	f47f af25 	bne.w	800083c <__aeabi_dmul+0x234>
 80009f2:	4610      	mov	r0, r2
 80009f4:	4619      	mov	r1, r3
 80009f6:	e72c      	b.n	8000852 <__aeabi_dmul+0x24a>
 80009f8:	ea95 0f0c 	teq	r5, ip
 80009fc:	d106      	bne.n	8000a0c <__aeabi_ddiv+0x1b0>
 80009fe:	ea52 3503 	orrs.w	r5, r2, r3, lsl #12
 8000a02:	f43f aefd 	beq.w	8000800 <__aeabi_dmul+0x1f8>
 8000a06:	4610      	mov	r0, r2
 8000a08:	4619      	mov	r1, r3
 8000a0a:	e722      	b.n	8000852 <__aeabi_dmul+0x24a>
 8000a0c:	ea50 0641 	orrs.w	r6, r0, r1, lsl #1
 8000a10:	bf18      	it	ne
 8000a12:	ea52 0643 	orrsne.w	r6, r2, r3, lsl #1
 8000a16:	f47f aec5 	bne.w	80007a4 <__aeabi_dmul+0x19c>
 8000a1a:	ea50 0441 	orrs.w	r4, r0, r1, lsl #1
 8000a1e:	f47f af0d 	bne.w	800083c <__aeabi_dmul+0x234>
 8000a22:	ea52 0543 	orrs.w	r5, r2, r3, lsl #1
 8000a26:	f47f aeeb 	bne.w	8000800 <__aeabi_dmul+0x1f8>
 8000a2a:	e712      	b.n	8000852 <__aeabi_dmul+0x24a>

08000a2c <__gedf2>:
 8000a2c:	f04f 3cff 	mov.w	ip, #4294967295
 8000a30:	e006      	b.n	8000a40 <__cmpdf2+0x4>
 8000a32:	bf00      	nop

08000a34 <__ledf2>:
 8000a34:	f04f 0c01 	mov.w	ip, #1
 8000a38:	e002      	b.n	8000a40 <__cmpdf2+0x4>
 8000a3a:	bf00      	nop

08000a3c <__cmpdf2>:
 8000a3c:	f04f 0c01 	mov.w	ip, #1
 8000a40:	f84d cd04 	str.w	ip, [sp, #-4]!
 8000a44:	ea4f 0c41 	mov.w	ip, r1, lsl #1
 8000a48:	ea7f 5c6c 	mvns.w	ip, ip, asr #21
 8000a4c:	ea4f 0c43 	mov.w	ip, r3, lsl #1
 8000a50:	bf18      	it	ne
 8000a52:	ea7f 5c6c 	mvnsne.w	ip, ip, asr #21
 8000a56:	d01b      	beq.n	8000a90 <__cmpdf2+0x54>
 8000a58:	b001      	add	sp, #4
 8000a5a:	ea50 0c41 	orrs.w	ip, r0, r1, lsl #1
 8000a5e:	bf0c      	ite	eq
 8000a60:	ea52 0c43 	orrseq.w	ip, r2, r3, lsl #1
 8000a64:	ea91 0f03 	teqne	r1, r3
 8000a68:	bf02      	ittt	eq
 8000a6a:	ea90 0f02 	teqeq	r0, r2
 8000a6e:	2000      	moveq	r0, #0
 8000a70:	4770      	bxeq	lr
 8000a72:	f110 0f00 	cmn.w	r0, #0
 8000a76:	ea91 0f03 	teq	r1, r3
 8000a7a:	bf58      	it	pl
 8000a7c:	4299      	cmppl	r1, r3
 8000a7e:	bf08      	it	eq
 8000a80:	4290      	cmpeq	r0, r2
 8000a82:	bf2c      	ite	cs
 8000a84:	17d8      	asrcs	r0, r3, #31
 8000a86:	ea6f 70e3 	mvncc.w	r0, r3, asr #31
 8000a8a:	f040 0001 	orr.w	r0, r0, #1
 8000a8e:	4770      	bx	lr
 8000a90:	ea4f 0c41 	mov.w	ip, r1, lsl #1
 8000a94:	ea7f 5c6c 	mvns.w	ip, ip, asr #21
 8000a98:	d102      	bne.n	8000aa0 <__cmpdf2+0x64>
 8000a9a:	ea50 3c01 	orrs.w	ip, r0, r1, lsl #12
 8000a9e:	d107      	bne.n	8000ab0 <__cmpdf2+0x74>
 8000aa0:	ea4f 0c43 	mov.w	ip, r3, lsl #1
 8000aa4:	ea7f 5c6c 	mvns.w	ip, ip, asr #21
 8000aa8:	d1d6      	bne.n	8000a58 <__cmpdf2+0x1c>
 8000aaa:	ea52 3c03 	orrs.w	ip, r2, r3, lsl #12
 8000aae:	d0d3      	beq.n	8000a58 <__cmpdf2+0x1c>
 8000ab0:	f85d 0b04 	ldr.w	r0, [sp], #4
 8000ab4:	4770      	bx	lr
 8000ab6:	bf00      	nop

08000ab8 <__aeabi_cdrcmple>:
 8000ab8:	4684      	mov	ip, r0
 8000aba:	4610      	mov	r0, r2
 8000abc:	4662      	mov	r2, ip
 8000abe:	468c      	mov	ip, r1
 8000ac0:	4619      	mov	r1, r3
 8000ac2:	4663      	mov	r3, ip
 8000ac4:	e000      	b.n	8000ac8 <__aeabi_cdcmpeq>
 8000ac6:	bf00      	nop

08000ac8 <__aeabi_cdcmpeq>:
 8000ac8:	b501      	push	{r0, lr}
 8000aca:	f7ff ffb7 	bl	8000a3c <__cmpdf2>
 8000ace:	2800      	cmp	r0, #0
 8000ad0:	bf48      	it	mi
 8000ad2:	f110 0f00 	cmnmi.w	r0, #0
 8000ad6:	bd01      	pop	{r0, pc}

08000ad8 <__aeabi_dcmpeq>:
 8000ad8:	f84d ed08 	str.w	lr, [sp, #-8]!
 8000adc:	f7ff fff4 	bl	8000ac8 <__aeabi_cdcmpeq>
 8000ae0:	bf0c      	ite	eq
 8000ae2:	2001      	moveq	r0, #1
 8000ae4:	2000      	movne	r0, #0
 8000ae6:	f85d fb08 	ldr.w	pc, [sp], #8
 8000aea:	bf00      	nop

08000aec <__aeabi_dcmplt>:
 8000aec:	f84d ed08 	str.w	lr, [sp, #-8]!
 8000af0:	f7ff ffea 	bl	8000ac8 <__aeabi_cdcmpeq>
 8000af4:	bf34      	ite	cc
 8000af6:	2001      	movcc	r0, #1
 8000af8:	2000      	movcs	r0, #0
 8000afa:	f85d fb08 	ldr.w	pc, [sp], #8
 8000afe:	bf00      	nop

08000b00 <__aeabi_dcmple>:
 8000b00:	f84d ed08 	str.w	lr, [sp, #-8]!
 8000b04:	f7ff ffe0 	bl	8000ac8 <__aeabi_cdcmpeq>
 8000b08:	bf94      	ite	ls
 8000b0a:	2001      	movls	r0, #1
 8000b0c:	2000      	movhi	r0, #0
 8000b0e:	f85d fb08 	ldr.w	pc, [sp], #8
 8000b12:	bf00      	nop

08000b14 <__aeabi_dcmpge>:
 8000b14:	f84d ed08 	str.w	lr, [sp, #-8]!
 8000b18:	f7ff ffce 	bl	8000ab8 <__aeabi_cdrcmple>
 8000b1c:	bf94      	ite	ls
 8000b1e:	2001      	movls	r0, #1
 8000b20:	2000      	movhi	r0, #0
 8000b22:	f85d fb08 	ldr.w	pc, [sp], #8
 8000b26:	bf00      	nop

08000b28 <__aeabi_dcmpgt>:
 8000b28:	f84d ed08 	str.w	lr, [sp, #-8]!
 8000b2c:	f7ff ffc4 	bl	8000ab8 <__aeabi_cdrcmple>
 8000b30:	bf34      	ite	cc
 8000b32:	2001      	movcc	r0, #1
 8000b34:	2000      	movcs	r0, #0
 8000b36:	f85d fb08 	ldr.w	pc, [sp], #8
 8000b3a:	bf00      	nop

08000b3c <__aeabi_dcmpun>:
 8000b3c:	ea4f 0c41 	mov.w	ip, r1, lsl #1
 8000b40:	ea7f 5c6c 	mvns.w	ip, ip, asr #21
 8000b44:	d102      	bne.n	8000b4c <__aeabi_dcmpun+0x10>
 8000b46:	ea50 3c01 	orrs.w	ip, r0, r1, lsl #12
 8000b4a:	d10a      	bne.n	8000b62 <__aeabi_dcmpun+0x26>
 8000b4c:	ea4f 0c43 	mov.w	ip, r3, lsl #1
 8000b50:	ea7f 5c6c 	mvns.w	ip, ip, asr #21
 8000b54:	d102      	bne.n	8000b5c <__aeabi_dcmpun+0x20>
 8000b56:	ea52 3c03 	orrs.w	ip, r2, r3, lsl #12
 8000b5a:	d102      	bne.n	8000b62 <__aeabi_dcmpun+0x26>
 8000b5c:	f04f 0000 	mov.w	r0, #0
 8000b60:	4770      	bx	lr
 8000b62:	f04f 0001 	mov.w	r0, #1
 8000b66:	4770      	bx	lr

08000b68 <__aeabi_d2iz>:
 8000b68:	ea4f 0241 	mov.w	r2, r1, lsl #1
 8000b6c:	f512 1200 	adds.w	r2, r2, #2097152	; 0x200000
 8000b70:	d215      	bcs.n	8000b9e <__aeabi_d2iz+0x36>
 8000b72:	d511      	bpl.n	8000b98 <__aeabi_d2iz+0x30>
 8000b74:	f46f 7378 	mvn.w	r3, #992	; 0x3e0
 8000b78:	ebb3 5262 	subs.w	r2, r3, r2, asr #21
 8000b7c:	d912      	bls.n	8000ba4 <__aeabi_d2iz+0x3c>
 8000b7e:	ea4f 23c1 	mov.w	r3, r1, lsl #11
 8000b82:	f043 4300 	orr.w	r3, r3, #2147483648	; 0x80000000
 8000b86:	ea43 5350 	orr.w	r3, r3, r0, lsr #21
 8000b8a:	f011 4f00 	tst.w	r1, #2147483648	; 0x80000000
 8000b8e:	fa23 f002 	lsr.w	r0, r3, r2
 8000b92:	bf18      	it	ne
 8000b94:	4240      	negne	r0, r0
 8000b96:	4770      	bx	lr
 8000b98:	f04f 0000 	mov.w	r0, #0
 8000b9c:	4770      	bx	lr
 8000b9e:	ea50 3001 	orrs.w	r0, r0, r1, lsl #12
 8000ba2:	d105      	bne.n	8000bb0 <__aeabi_d2iz+0x48>
 8000ba4:	f011 4000 	ands.w	r0, r1, #2147483648	; 0x80000000
 8000ba8:	bf08      	it	eq
 8000baa:	f06f 4000 	mvneq.w	r0, #2147483648	; 0x80000000
 8000bae:	4770      	bx	lr
 8000bb0:	f04f 0000 	mov.w	r0, #0
 8000bb4:	4770      	bx	lr
 8000bb6:	bf00      	nop

08000bb8 <__aeabi_d2uiz>:
 8000bb8:	004a      	lsls	r2, r1, #1
 8000bba:	d211      	bcs.n	8000be0 <__aeabi_d2uiz+0x28>
 8000bbc:	f512 1200 	adds.w	r2, r2, #2097152	; 0x200000
 8000bc0:	d211      	bcs.n	8000be6 <__aeabi_d2uiz+0x2e>
 8000bc2:	d50d      	bpl.n	8000be0 <__aeabi_d2uiz+0x28>
 8000bc4:	f46f 7378 	mvn.w	r3, #992	; 0x3e0
 8000bc8:	ebb3 5262 	subs.w	r2, r3, r2, asr #21
 8000bcc:	d40e      	bmi.n	8000bec <__aeabi_d2uiz+0x34>
 8000bce:	ea4f 23c1 	mov.w	r3, r1, lsl #11
 8000bd2:	f043 4300 	orr.w	r3, r3, #2147483648	; 0x80000000
 8000bd6:	ea43 5350 	orr.w	r3, r3, r0, lsr #21
 8000bda:	fa23 f002 	lsr.w	r0, r3, r2
 8000bde:	4770      	bx	lr
 8000be0:	f04f 0000 	mov.w	r0, #0
 8000be4:	4770      	bx	lr
 8000be6:	ea50 3001 	orrs.w	r0, r0, r1, lsl #12
 8000bea:	d102      	bne.n	8000bf2 <__aeabi_d2uiz+0x3a>
 8000bec:	f04f 30ff 	mov.w	r0, #4294967295
 8000bf0:	4770      	bx	lr
 8000bf2:	f04f 0000 	mov.w	r0, #0
 8000bf6:	4770      	bx	lr

08000bf8 <__aeabi_d2f>:
 8000bf8:	ea4f 0241 	mov.w	r2, r1, lsl #1
 8000bfc:	f1b2 43e0 	subs.w	r3, r2, #1879048192	; 0x70000000
 8000c00:	bf24      	itt	cs
 8000c02:	f5b3 1c00 	subscs.w	ip, r3, #2097152	; 0x200000
 8000c06:	f1dc 5cfe 	rsbscs	ip, ip, #532676608	; 0x1fc00000
 8000c0a:	d90d      	bls.n	8000c28 <__aeabi_d2f+0x30>
 8000c0c:	f001 4c00 	and.w	ip, r1, #2147483648	; 0x80000000
 8000c10:	ea4f 02c0 	mov.w	r2, r0, lsl #3
 8000c14:	ea4c 7050 	orr.w	r0, ip, r0, lsr #29
 8000c18:	f1b2 4f00 	cmp.w	r2, #2147483648	; 0x80000000
 8000c1c:	eb40 0083 	adc.w	r0, r0, r3, lsl #2
 8000c20:	bf08      	it	eq
 8000c22:	f020 0001 	biceq.w	r0, r0, #1
 8000c26:	4770      	bx	lr
 8000c28:	f011 4f80 	tst.w	r1, #1073741824	; 0x40000000
 8000c2c:	d121      	bne.n	8000c72 <__aeabi_d2f+0x7a>
 8000c2e:	f113 7238 	adds.w	r2, r3, #48234496	; 0x2e00000
 8000c32:	bfbc      	itt	lt
 8000c34:	f001 4000 	andlt.w	r0, r1, #2147483648	; 0x80000000
 8000c38:	4770      	bxlt	lr
 8000c3a:	f441 1180 	orr.w	r1, r1, #1048576	; 0x100000
 8000c3e:	ea4f 5252 	mov.w	r2, r2, lsr #21
 8000c42:	f1c2 0218 	rsb	r2, r2, #24
 8000c46:	f1c2 0c20 	rsb	ip, r2, #32
 8000c4a:	fa10 f30c 	lsls.w	r3, r0, ip
 8000c4e:	fa20 f002 	lsr.w	r0, r0, r2
 8000c52:	bf18      	it	ne
 8000c54:	f040 0001 	orrne.w	r0, r0, #1
 8000c58:	ea4f 23c1 	mov.w	r3, r1, lsl #11
 8000c5c:	ea4f 23d3 	mov.w	r3, r3, lsr #11
 8000c60:	fa03 fc0c 	lsl.w	ip, r3, ip
 8000c64:	ea40 000c 	orr.w	r0, r0, ip
 8000c68:	fa23 f302 	lsr.w	r3, r3, r2
 8000c6c:	ea4f 0343 	mov.w	r3, r3, lsl #1
 8000c70:	e7cc      	b.n	8000c0c <__aeabi_d2f+0x14>
 8000c72:	ea7f 5362 	mvns.w	r3, r2, asr #21
 8000c76:	d107      	bne.n	8000c88 <__aeabi_d2f+0x90>
 8000c78:	ea50 3301 	orrs.w	r3, r0, r1, lsl #12
 8000c7c:	bf1e      	ittt	ne
 8000c7e:	f04f 40fe 	movne.w	r0, #2130706432	; 0x7f000000
 8000c82:	f440 0040 	orrne.w	r0, r0, #12582912	; 0xc00000
 8000c86:	4770      	bxne	lr
 8000c88:	f001 4000 	and.w	r0, r1, #2147483648	; 0x80000000
 8000c8c:	f040 40fe 	orr.w	r0, r0, #2130706432	; 0x7f000000
 8000c90:	f440 0000 	orr.w	r0, r0, #8388608	; 0x800000
 8000c94:	4770      	bx	lr
 8000c96:	bf00      	nop

08000c98 <__aeabi_uldivmod>:
 8000c98:	b953      	cbnz	r3, 8000cb0 <__aeabi_uldivmod+0x18>
 8000c9a:	b94a      	cbnz	r2, 8000cb0 <__aeabi_uldivmod+0x18>
 8000c9c:	2900      	cmp	r1, #0
 8000c9e:	bf08      	it	eq
 8000ca0:	2800      	cmpeq	r0, #0
 8000ca2:	bf1c      	itt	ne
 8000ca4:	f04f 31ff 	movne.w	r1, #4294967295
 8000ca8:	f04f 30ff 	movne.w	r0, #4294967295
 8000cac:	f000 b9aa 	b.w	8001004 <__aeabi_idiv0>
 8000cb0:	f1ad 0c08 	sub.w	ip, sp, #8
 8000cb4:	e96d ce04 	strd	ip, lr, [sp, #-16]!
 8000cb8:	f000 f83c 	bl	8000d34 <__udivmoddi4>
 8000cbc:	f8dd e004 	ldr.w	lr, [sp, #4]
 8000cc0:	e9dd 2302 	ldrd	r2, r3, [sp, #8]
 8000cc4:	b004      	add	sp, #16
 8000cc6:	4770      	bx	lr

08000cc8 <__aeabi_d2lz>:
 8000cc8:	b538      	push	{r3, r4, r5, lr}
 8000cca:	2200      	movs	r2, #0
 8000ccc:	2300      	movs	r3, #0
 8000cce:	4604      	mov	r4, r0
 8000cd0:	460d      	mov	r5, r1
 8000cd2:	f7ff ff0b 	bl	8000aec <__aeabi_dcmplt>
 8000cd6:	b928      	cbnz	r0, 8000ce4 <__aeabi_d2lz+0x1c>
 8000cd8:	4620      	mov	r0, r4
 8000cda:	4629      	mov	r1, r5
 8000cdc:	e8bd 4038 	ldmia.w	sp!, {r3, r4, r5, lr}
 8000ce0:	f000 b80a 	b.w	8000cf8 <__aeabi_d2ulz>
 8000ce4:	4620      	mov	r0, r4
 8000ce6:	f105 4100 	add.w	r1, r5, #2147483648	; 0x80000000
 8000cea:	f000 f805 	bl	8000cf8 <__aeabi_d2ulz>
 8000cee:	4240      	negs	r0, r0
 8000cf0:	eb61 0141 	sbc.w	r1, r1, r1, lsl #1
 8000cf4:	bd38      	pop	{r3, r4, r5, pc}
 8000cf6:	bf00      	nop

08000cf8 <__aeabi_d2ulz>:
 8000cf8:	b5d0      	push	{r4, r6, r7, lr}
 8000cfa:	4b0c      	ldr	r3, [pc, #48]	; (8000d2c <__aeabi_d2ulz+0x34>)
 8000cfc:	2200      	movs	r2, #0
 8000cfe:	4606      	mov	r6, r0
 8000d00:	460f      	mov	r7, r1
 8000d02:	f7ff fc81 	bl	8000608 <__aeabi_dmul>
 8000d06:	f7ff ff57 	bl	8000bb8 <__aeabi_d2uiz>
 8000d0a:	4604      	mov	r4, r0
 8000d0c:	f7ff fc02 	bl	8000514 <__aeabi_ui2d>
 8000d10:	4b07      	ldr	r3, [pc, #28]	; (8000d30 <__aeabi_d2ulz+0x38>)
 8000d12:	2200      	movs	r2, #0
 8000d14:	f7ff fc78 	bl	8000608 <__aeabi_dmul>
 8000d18:	4602      	mov	r2, r0
 8000d1a:	460b      	mov	r3, r1
 8000d1c:	4630      	mov	r0, r6
 8000d1e:	4639      	mov	r1, r7
 8000d20:	f7ff faba 	bl	8000298 <__aeabi_dsub>
 8000d24:	f7ff ff48 	bl	8000bb8 <__aeabi_d2uiz>
 8000d28:	4621      	mov	r1, r4
 8000d2a:	bdd0      	pop	{r4, r6, r7, pc}
 8000d2c:	3df00000 	.word	0x3df00000
 8000d30:	41f00000 	.word	0x41f00000

08000d34 <__udivmoddi4>:
 8000d34:	e92d 47f0 	stmdb	sp!, {r4, r5, r6, r7, r8, r9, sl, lr}
 8000d38:	9d08      	ldr	r5, [sp, #32]
 8000d3a:	4604      	mov	r4, r0
 8000d3c:	468e      	mov	lr, r1
 8000d3e:	2b00      	cmp	r3, #0
 8000d40:	d14d      	bne.n	8000dde <__udivmoddi4+0xaa>
 8000d42:	428a      	cmp	r2, r1
 8000d44:	4694      	mov	ip, r2
 8000d46:	d969      	bls.n	8000e1c <__udivmoddi4+0xe8>
 8000d48:	fab2 f282 	clz	r2, r2
 8000d4c:	b152      	cbz	r2, 8000d64 <__udivmoddi4+0x30>
 8000d4e:	fa01 f302 	lsl.w	r3, r1, r2
 8000d52:	f1c2 0120 	rsb	r1, r2, #32
 8000d56:	fa20 f101 	lsr.w	r1, r0, r1
 8000d5a:	fa0c fc02 	lsl.w	ip, ip, r2
 8000d5e:	ea41 0e03 	orr.w	lr, r1, r3
 8000d62:	4094      	lsls	r4, r2
 8000d64:	ea4f 481c 	mov.w	r8, ip, lsr #16
 8000d68:	0c21      	lsrs	r1, r4, #16
 8000d6a:	fbbe f6f8 	udiv	r6, lr, r8
 8000d6e:	fa1f f78c 	uxth.w	r7, ip
 8000d72:	fb08 e316 	mls	r3, r8, r6, lr
 8000d76:	ea41 4303 	orr.w	r3, r1, r3, lsl #16
 8000d7a:	fb06 f107 	mul.w	r1, r6, r7
 8000d7e:	4299      	cmp	r1, r3
 8000d80:	d90a      	bls.n	8000d98 <__udivmoddi4+0x64>
 8000d82:	eb1c 0303 	adds.w	r3, ip, r3
 8000d86:	f106 30ff 	add.w	r0, r6, #4294967295
 8000d8a:	f080 811f 	bcs.w	8000fcc <__udivmoddi4+0x298>
 8000d8e:	4299      	cmp	r1, r3
 8000d90:	f240 811c 	bls.w	8000fcc <__udivmoddi4+0x298>
 8000d94:	3e02      	subs	r6, #2
 8000d96:	4463      	add	r3, ip
 8000d98:	1a5b      	subs	r3, r3, r1
 8000d9a:	b2a4      	uxth	r4, r4
 8000d9c:	fbb3 f0f8 	udiv	r0, r3, r8
 8000da0:	fb08 3310 	mls	r3, r8, r0, r3
 8000da4:	ea44 4403 	orr.w	r4, r4, r3, lsl #16
 8000da8:	fb00 f707 	mul.w	r7, r0, r7
 8000dac:	42a7      	cmp	r7, r4
 8000dae:	d90a      	bls.n	8000dc6 <__udivmoddi4+0x92>
 8000db0:	eb1c 0404 	adds.w	r4, ip, r4
 8000db4:	f100 33ff 	add.w	r3, r0, #4294967295
 8000db8:	f080 810a 	bcs.w	8000fd0 <__udivmoddi4+0x29c>
 8000dbc:	42a7      	cmp	r7, r4
 8000dbe:	f240 8107 	bls.w	8000fd0 <__udivmoddi4+0x29c>
 8000dc2:	4464      	add	r4, ip
 8000dc4:	3802      	subs	r0, #2
 8000dc6:	ea40 4006 	orr.w	r0, r0, r6, lsl #16
 8000dca:	1be4      	subs	r4, r4, r7
 8000dcc:	2600      	movs	r6, #0
 8000dce:	b11d      	cbz	r5, 8000dd8 <__udivmoddi4+0xa4>
 8000dd0:	40d4      	lsrs	r4, r2
 8000dd2:	2300      	movs	r3, #0
 8000dd4:	e9c5 4300 	strd	r4, r3, [r5]
 8000dd8:	4631      	mov	r1, r6
 8000dda:	e8bd 87f0 	ldmia.w	sp!, {r4, r5, r6, r7, r8, r9, sl, pc}
 8000dde:	428b      	cmp	r3, r1
 8000de0:	d909      	bls.n	8000df6 <__udivmoddi4+0xc2>
 8000de2:	2d00      	cmp	r5, #0
 8000de4:	f000 80ef 	beq.w	8000fc6 <__udivmoddi4+0x292>
 8000de8:	2600      	movs	r6, #0
 8000dea:	e9c5 0100 	strd	r0, r1, [r5]
 8000dee:	4630      	mov	r0, r6
 8000df0:	4631      	mov	r1, r6
 8000df2:	e8bd 87f0 	ldmia.w	sp!, {r4, r5, r6, r7, r8, r9, sl, pc}
 8000df6:	fab3 f683 	clz	r6, r3
 8000dfa:	2e00      	cmp	r6, #0
 8000dfc:	d14a      	bne.n	8000e94 <__udivmoddi4+0x160>
 8000dfe:	428b      	cmp	r3, r1
 8000e00:	d302      	bcc.n	8000e08 <__udivmoddi4+0xd4>
 8000e02:	4282      	cmp	r2, r0
 8000e04:	f200 80f9 	bhi.w	8000ffa <__udivmoddi4+0x2c6>
 8000e08:	1a84      	subs	r4, r0, r2
 8000e0a:	eb61 0303 	sbc.w	r3, r1, r3
 8000e0e:	2001      	movs	r0, #1
 8000e10:	469e      	mov	lr, r3
 8000e12:	2d00      	cmp	r5, #0
 8000e14:	d0e0      	beq.n	8000dd8 <__udivmoddi4+0xa4>
 8000e16:	e9c5 4e00 	strd	r4, lr, [r5]
 8000e1a:	e7dd      	b.n	8000dd8 <__udivmoddi4+0xa4>
 8000e1c:	b902      	cbnz	r2, 8000e20 <__udivmoddi4+0xec>
 8000e1e:	deff      	udf	#255	; 0xff
 8000e20:	fab2 f282 	clz	r2, r2
 8000e24:	2a00      	cmp	r2, #0
 8000e26:	f040 8092 	bne.w	8000f4e <__udivmoddi4+0x21a>
 8000e2a:	eba1 010c 	sub.w	r1, r1, ip
 8000e2e:	ea4f 471c 	mov.w	r7, ip, lsr #16
 8000e32:	fa1f fe8c 	uxth.w	lr, ip
 8000e36:	2601      	movs	r6, #1
 8000e38:	0c20      	lsrs	r0, r4, #16
 8000e3a:	fbb1 f3f7 	udiv	r3, r1, r7
 8000e3e:	fb07 1113 	mls	r1, r7, r3, r1
 8000e42:	ea40 4101 	orr.w	r1, r0, r1, lsl #16
 8000e46:	fb0e f003 	mul.w	r0, lr, r3
 8000e4a:	4288      	cmp	r0, r1
 8000e4c:	d908      	bls.n	8000e60 <__udivmoddi4+0x12c>
 8000e4e:	eb1c 0101 	adds.w	r1, ip, r1
 8000e52:	f103 38ff 	add.w	r8, r3, #4294967295
 8000e56:	d202      	bcs.n	8000e5e <__udivmoddi4+0x12a>
 8000e58:	4288      	cmp	r0, r1
 8000e5a:	f200 80cb 	bhi.w	8000ff4 <__udivmoddi4+0x2c0>
 8000e5e:	4643      	mov	r3, r8
 8000e60:	1a09      	subs	r1, r1, r0
 8000e62:	b2a4      	uxth	r4, r4
 8000e64:	fbb1 f0f7 	udiv	r0, r1, r7
 8000e68:	fb07 1110 	mls	r1, r7, r0, r1
 8000e6c:	ea44 4401 	orr.w	r4, r4, r1, lsl #16
 8000e70:	fb0e fe00 	mul.w	lr, lr, r0
 8000e74:	45a6      	cmp	lr, r4
 8000e76:	d908      	bls.n	8000e8a <__udivmoddi4+0x156>
 8000e78:	eb1c 0404 	adds.w	r4, ip, r4
 8000e7c:	f100 31ff 	add.w	r1, r0, #4294967295
 8000e80:	d202      	bcs.n	8000e88 <__udivmoddi4+0x154>
 8000e82:	45a6      	cmp	lr, r4
 8000e84:	f200 80bb 	bhi.w	8000ffe <__udivmoddi4+0x2ca>
 8000e88:	4608      	mov	r0, r1
 8000e8a:	eba4 040e 	sub.w	r4, r4, lr
 8000e8e:	ea40 4003 	orr.w	r0, r0, r3, lsl #16
 8000e92:	e79c      	b.n	8000dce <__udivmoddi4+0x9a>
 8000e94:	f1c6 0720 	rsb	r7, r6, #32
 8000e98:	40b3      	lsls	r3, r6
 8000e9a:	fa22 fc07 	lsr.w	ip, r2, r7
 8000e9e:	ea4c 0c03 	orr.w	ip, ip, r3
 8000ea2:	fa20 f407 	lsr.w	r4, r0, r7
 8000ea6:	fa01 f306 	lsl.w	r3, r1, r6
 8000eaa:	431c      	orrs	r4, r3
 8000eac:	40f9      	lsrs	r1, r7
 8000eae:	ea4f 491c 	mov.w	r9, ip, lsr #16
 8000eb2:	fa00 f306 	lsl.w	r3, r0, r6
 8000eb6:	fbb1 f8f9 	udiv	r8, r1, r9
 8000eba:	0c20      	lsrs	r0, r4, #16
 8000ebc:	fa1f fe8c 	uxth.w	lr, ip
 8000ec0:	fb09 1118 	mls	r1, r9, r8, r1
 8000ec4:	ea40 4101 	orr.w	r1, r0, r1, lsl #16
 8000ec8:	fb08 f00e 	mul.w	r0, r8, lr
 8000ecc:	4288      	cmp	r0, r1
 8000ece:	fa02 f206 	lsl.w	r2, r2, r6
 8000ed2:	d90b      	bls.n	8000eec <__udivmoddi4+0x1b8>
 8000ed4:	eb1c 0101 	adds.w	r1, ip, r1
 8000ed8:	f108 3aff 	add.w	sl, r8, #4294967295
 8000edc:	f080 8088 	bcs.w	8000ff0 <__udivmoddi4+0x2bc>
 8000ee0:	4288      	cmp	r0, r1
 8000ee2:	f240 8085 	bls.w	8000ff0 <__udivmoddi4+0x2bc>
 8000ee6:	f1a8 0802 	sub.w	r8, r8, #2
 8000eea:	4461      	add	r1, ip
 8000eec:	1a09      	subs	r1, r1, r0
 8000eee:	b2a4      	uxth	r4, r4
 8000ef0:	fbb1 f0f9 	udiv	r0, r1, r9
 8000ef4:	fb09 1110 	mls	r1, r9, r0, r1
 8000ef8:	ea44 4101 	orr.w	r1, r4, r1, lsl #16
 8000efc:	fb00 fe0e 	mul.w	lr, r0, lr
 8000f00:	458e      	cmp	lr, r1
 8000f02:	d908      	bls.n	8000f16 <__udivmoddi4+0x1e2>
 8000f04:	eb1c 0101 	adds.w	r1, ip, r1
 8000f08:	f100 34ff 	add.w	r4, r0, #4294967295
 8000f0c:	d26c      	bcs.n	8000fe8 <__udivmoddi4+0x2b4>
 8000f0e:	458e      	cmp	lr, r1
 8000f10:	d96a      	bls.n	8000fe8 <__udivmoddi4+0x2b4>
 8000f12:	3802      	subs	r0, #2
 8000f14:	4461      	add	r1, ip
 8000f16:	ea40 4008 	orr.w	r0, r0, r8, lsl #16
 8000f1a:	fba0 9402 	umull	r9, r4, r0, r2
 8000f1e:	eba1 010e 	sub.w	r1, r1, lr
 8000f22:	42a1      	cmp	r1, r4
 8000f24:	46c8      	mov	r8, r9
 8000f26:	46a6      	mov	lr, r4
 8000f28:	d356      	bcc.n	8000fd8 <__udivmoddi4+0x2a4>
 8000f2a:	d053      	beq.n	8000fd4 <__udivmoddi4+0x2a0>
 8000f2c:	b15d      	cbz	r5, 8000f46 <__udivmoddi4+0x212>
 8000f2e:	ebb3 0208 	subs.w	r2, r3, r8
 8000f32:	eb61 010e 	sbc.w	r1, r1, lr
 8000f36:	fa01 f707 	lsl.w	r7, r1, r7
 8000f3a:	fa22 f306 	lsr.w	r3, r2, r6
 8000f3e:	40f1      	lsrs	r1, r6
 8000f40:	431f      	orrs	r7, r3
 8000f42:	e9c5 7100 	strd	r7, r1, [r5]
 8000f46:	2600      	movs	r6, #0
 8000f48:	4631      	mov	r1, r6
 8000f4a:	e8bd 87f0 	ldmia.w	sp!, {r4, r5, r6, r7, r8, r9, sl, pc}
 8000f4e:	f1c2 0320 	rsb	r3, r2, #32
 8000f52:	40d8      	lsrs	r0, r3
 8000f54:	fa0c fc02 	lsl.w	ip, ip, r2
 8000f58:	fa21 f303 	lsr.w	r3, r1, r3
 8000f5c:	4091      	lsls	r1, r2
 8000f5e:	4301      	orrs	r1, r0
 8000f60:	ea4f 471c 	mov.w	r7, ip, lsr #16
 8000f64:	fa1f fe8c 	uxth.w	lr, ip
 8000f68:	fbb3 f0f7 	udiv	r0, r3, r7
 8000f6c:	fb07 3610 	mls	r6, r7, r0, r3
 8000f70:	0c0b      	lsrs	r3, r1, #16
 8000f72:	ea43 4306 	orr.w	r3, r3, r6, lsl #16
 8000f76:	fb00 f60e 	mul.w	r6, r0, lr
 8000f7a:	429e      	cmp	r6, r3
 8000f7c:	fa04 f402 	lsl.w	r4, r4, r2
 8000f80:	d908      	bls.n	8000f94 <__udivmoddi4+0x260>
 8000f82:	eb1c 0303 	adds.w	r3, ip, r3
 8000f86:	f100 38ff 	add.w	r8, r0, #4294967295
 8000f8a:	d22f      	bcs.n	8000fec <__udivmoddi4+0x2b8>
 8000f8c:	429e      	cmp	r6, r3
 8000f8e:	d92d      	bls.n	8000fec <__udivmoddi4+0x2b8>
 8000f90:	3802      	subs	r0, #2
 8000f92:	4463      	add	r3, ip
 8000f94:	1b9b      	subs	r3, r3, r6
 8000f96:	b289      	uxth	r1, r1
 8000f98:	fbb3 f6f7 	udiv	r6, r3, r7
 8000f9c:	fb07 3316 	mls	r3, r7, r6, r3
 8000fa0:	ea41 4103 	orr.w	r1, r1, r3, lsl #16
 8000fa4:	fb06 f30e 	mul.w	r3, r6, lr
 8000fa8:	428b      	cmp	r3, r1
 8000faa:	d908      	bls.n	8000fbe <__udivmoddi4+0x28a>
 8000fac:	eb1c 0101 	adds.w	r1, ip, r1
 8000fb0:	f106 38ff 	add.w	r8, r6, #4294967295
 8000fb4:	d216      	bcs.n	8000fe4 <__udivmoddi4+0x2b0>
 8000fb6:	428b      	cmp	r3, r1
 8000fb8:	d914      	bls.n	8000fe4 <__udivmoddi4+0x2b0>
 8000fba:	3e02      	subs	r6, #2
 8000fbc:	4461      	add	r1, ip
 8000fbe:	1ac9      	subs	r1, r1, r3
 8000fc0:	ea46 4600 	orr.w	r6, r6, r0, lsl #16
 8000fc4:	e738      	b.n	8000e38 <__udivmoddi4+0x104>
 8000fc6:	462e      	mov	r6, r5
 8000fc8:	4628      	mov	r0, r5
 8000fca:	e705      	b.n	8000dd8 <__udivmoddi4+0xa4>
 8000fcc:	4606      	mov	r6, r0
 8000fce:	e6e3      	b.n	8000d98 <__udivmoddi4+0x64>
 8000fd0:	4618      	mov	r0, r3
 8000fd2:	e6f8      	b.n	8000dc6 <__udivmoddi4+0x92>
 8000fd4:	454b      	cmp	r3, r9
 8000fd6:	d2a9      	bcs.n	8000f2c <__udivmoddi4+0x1f8>
 8000fd8:	ebb9 0802 	subs.w	r8, r9, r2
 8000fdc:	eb64 0e0c 	sbc.w	lr, r4, ip
 8000fe0:	3801      	subs	r0, #1
 8000fe2:	e7a3      	b.n	8000f2c <__udivmoddi4+0x1f8>
 8000fe4:	4646      	mov	r6, r8
 8000fe6:	e7ea      	b.n	8000fbe <__udivmoddi4+0x28a>
 8000fe8:	4620      	mov	r0, r4
 8000fea:	e794      	b.n	8000f16 <__udivmoddi4+0x1e2>
 8000fec:	4640      	mov	r0, r8
 8000fee:	e7d1      	b.n	8000f94 <__udivmoddi4+0x260>
 8000ff0:	46d0      	mov	r8, sl
 8000ff2:	e77b      	b.n	8000eec <__udivmoddi4+0x1b8>
 8000ff4:	3b02      	subs	r3, #2
 8000ff6:	4461      	add	r1, ip
 8000ff8:	e732      	b.n	8000e60 <__udivmoddi4+0x12c>
 8000ffa:	4630      	mov	r0, r6
 8000ffc:	e709      	b.n	8000e12 <__udivmoddi4+0xde>
 8000ffe:	4464      	add	r4, ip
 8001000:	3802      	subs	r0, #2
 8001002:	e742      	b.n	8000e8a <__udivmoddi4+0x156>

08001004 <__aeabi_idiv0>:
 8001004:	4770      	bx	lr
 8001006:	bf00      	nop

08001008 <set_time>:
#include "RTC.h"

void set_time (RTC_HandleTypeDef hrtc, struct tiempo t)
{
 8001008:	b084      	sub	sp, #16
 800100a:	b580      	push	{r7, lr}
 800100c:	b086      	sub	sp, #24
 800100e:	af00      	add	r7, sp, #0
 8001010:	f107 0c20 	add.w	ip, r7, #32
 8001014:	e88c 000f 	stmia.w	ip, {r0, r1, r2, r3}
	//Conversión de los datos de las estructuras utilizadas en las efemérides a la utilizada
	//por la librería HAL (ADVERTENCIA: HAL trabaja en BCD, necesaria conversión de los datos)
	RTC_TimeTypeDef sTime;
	sTime.Hours = hex_to_bcd(t.hora); // set hours
 8001018:	e9d7 2316 	ldrd	r2, r3, [r7, #88]	; 0x58
 800101c:	4610      	mov	r0, r2
 800101e:	4619      	mov	r1, r3
 8001020:	f7ff fdca 	bl	8000bb8 <__aeabi_d2uiz>
 8001024:	4603      	mov	r3, r0
 8001026:	b2db      	uxtb	r3, r3
 8001028:	4618      	mov	r0, r3
 800102a:	f000 f8dd 	bl	80011e8 <hex_to_bcd>
 800102e:	4603      	mov	r3, r0
 8001030:	713b      	strb	r3, [r7, #4]
	sTime.Minutes = hex_to_bcd(t.minuto); // set minutes
 8001032:	e9d7 2318 	ldrd	r2, r3, [r7, #96]	; 0x60
 8001036:	4610      	mov	r0, r2
 8001038:	4619      	mov	r1, r3
 800103a:	f7ff fdbd 	bl	8000bb8 <__aeabi_d2uiz>
 800103e:	4603      	mov	r3, r0
 8001040:	b2db      	uxtb	r3, r3
 8001042:	4618      	mov	r0, r3
 8001044:	f000 f8d0 	bl	80011e8 <hex_to_bcd>
 8001048:	4603      	mov	r3, r0
 800104a:	717b      	strb	r3, [r7, #5]
	sTime.Seconds = hex_to_bcd(t.segundo); // set seconds
 800104c:	e9d7 231a 	ldrd	r2, r3, [r7, #104]	; 0x68
 8001050:	4610      	mov	r0, r2
 8001052:	4619      	mov	r1, r3
 8001054:	f7ff fdb0 	bl	8000bb8 <__aeabi_d2uiz>
 8001058:	4603      	mov	r3, r0
 800105a:	b2db      	uxtb	r3, r3
 800105c:	4618      	mov	r0, r3
 800105e:	f000 f8c3 	bl	80011e8 <hex_to_bcd>
 8001062:	4603      	mov	r3, r0
 8001064:	71bb      	strb	r3, [r7, #6]
	sTime.DayLightSaving = RTC_DAYLIGHTSAVING_NONE;
 8001066:	2300      	movs	r3, #0
 8001068:	613b      	str	r3, [r7, #16]
	sTime.StoreOperation = RTC_STOREOPERATION_RESET;
 800106a:	2300      	movs	r3, #0
 800106c:	617b      	str	r3, [r7, #20]

	RTC_DateTypeDef sDate;
	sDate.WeekDay = RTC_WEEKDAY_THURSDAY; //day
 800106e:	2304      	movs	r3, #4
 8001070:	703b      	strb	r3, [r7, #0]
	sDate.Month = hex_to_bcd(t.mes); //month
 8001072:	e9d7 2312 	ldrd	r2, r3, [r7, #72]	; 0x48
 8001076:	4610      	mov	r0, r2
 8001078:	4619      	mov	r1, r3
 800107a:	f7ff fd9d 	bl	8000bb8 <__aeabi_d2uiz>
 800107e:	4603      	mov	r3, r0
 8001080:	b2db      	uxtb	r3, r3
 8001082:	4618      	mov	r0, r3
 8001084:	f000 f8b0 	bl	80011e8 <hex_to_bcd>
 8001088:	4603      	mov	r3, r0
 800108a:	707b      	strb	r3, [r7, #1]
	sDate.Date = hex_to_bcd(t.dia); //date
 800108c:	e9d7 2310 	ldrd	r2, r3, [r7, #64]	; 0x40
 8001090:	4610      	mov	r0, r2
 8001092:	4619      	mov	r1, r3
 8001094:	f7ff fd90 	bl	8000bb8 <__aeabi_d2uiz>
 8001098:	4603      	mov	r3, r0
 800109a:	b2db      	uxtb	r3, r3
 800109c:	4618      	mov	r0, r3
 800109e:	f000 f8a3 	bl	80011e8 <hex_to_bcd>
 80010a2:	4603      	mov	r3, r0
 80010a4:	70bb      	strb	r3, [r7, #2]
	sDate.Year = hex_to_bcd(t.anio - 2000); //year
 80010a6:	e9d7 0114 	ldrd	r0, r1, [r7, #80]	; 0x50
 80010aa:	f04f 0200 	mov.w	r2, #0
 80010ae:	4b1b      	ldr	r3, [pc, #108]	; (800111c <set_time+0x114>)
 80010b0:	f7ff f8f2 	bl	8000298 <__aeabi_dsub>
 80010b4:	4602      	mov	r2, r0
 80010b6:	460b      	mov	r3, r1
 80010b8:	4610      	mov	r0, r2
 80010ba:	4619      	mov	r1, r3
 80010bc:	f7ff fd7c 	bl	8000bb8 <__aeabi_d2uiz>
 80010c0:	4603      	mov	r3, r0
 80010c2:	b2db      	uxtb	r3, r3
 80010c4:	4618      	mov	r0, r3
 80010c6:	f000 f88f 	bl	80011e8 <hex_to_bcd>
 80010ca:	4603      	mov	r3, r0
 80010cc:	70fb      	strb	r3, [r7, #3]

  if (HAL_RTC_SetTime(&hrtc, &sTime, RTC_FORMAT_BCD) != HAL_OK)
 80010ce:	1d3b      	adds	r3, r7, #4
 80010d0:	2201      	movs	r2, #1
 80010d2:	4619      	mov	r1, r3
 80010d4:	f107 0020 	add.w	r0, r7, #32
 80010d8:	f007 fd9a 	bl	8008c10 <HAL_RTC_SetTime>
 80010dc:	4603      	mov	r3, r0
 80010de:	2b00      	cmp	r3, #0
 80010e0:	d001      	beq.n	80010e6 <set_time+0xde>
  {
	  Error_Handler();
 80010e2:	f005 faa7 	bl	8006634 <Error_Handler>
  }

  if (HAL_RTC_SetDate(&hrtc, &sDate, RTC_FORMAT_BCD) != HAL_OK)
 80010e6:	463b      	mov	r3, r7
 80010e8:	2201      	movs	r2, #1
 80010ea:	4619      	mov	r1, r3
 80010ec:	f107 0020 	add.w	r0, r7, #32
 80010f0:	f007 fe86 	bl	8008e00 <HAL_RTC_SetDate>
 80010f4:	4603      	mov	r3, r0
 80010f6:	2b00      	cmp	r3, #0
 80010f8:	d001      	beq.n	80010fe <set_time+0xf6>
  {
	  Error_Handler();
 80010fa:	f005 fa9b 	bl	8006634 <Error_Handler>
  }
  HAL_RTCEx_BKUPWrite(&hrtc, RTC_BKP_DR1, 0x32F2); // backup register
 80010fe:	f243 22f2 	movw	r2, #13042	; 0x32f2
 8001102:	2101      	movs	r1, #1
 8001104:	f107 0020 	add.w	r0, r7, #32
 8001108:	f008 f80a 	bl	8009120 <HAL_RTCEx_BKUPWrite>
}
 800110c:	bf00      	nop
 800110e:	3718      	adds	r7, #24
 8001110:	46bd      	mov	sp, r7
 8001112:	e8bd 4080 	ldmia.w	sp!, {r7, lr}
 8001116:	b004      	add	sp, #16
 8001118:	4770      	bx	lr
 800111a:	bf00      	nop
 800111c:	409f4000 	.word	0x409f4000

08001120 <get_time>:

struct tiempo get_time(RTC_HandleTypeDef hrtc){
 8001120:	b084      	sub	sp, #16
 8001122:	b5b0      	push	{r4, r5, r7, lr}
 8001124:	b094      	sub	sp, #80	; 0x50
 8001126:	af00      	add	r7, sp, #0
 8001128:	6078      	str	r0, [r7, #4]
 800112a:	f107 0064 	add.w	r0, r7, #100	; 0x64
 800112e:	e880 000e 	stmia.w	r0, {r1, r2, r3}
	//Llamada a las funciones HAL para obtener los valores del tiempo
	RTC_TimeTypeDef gTime;
	HAL_RTC_GetTime(&hrtc, &gTime, RTC_FORMAT_BIN);
 8001132:	f107 013c 	add.w	r1, r7, #60	; 0x3c
 8001136:	f107 0364 	add.w	r3, r7, #100	; 0x64
 800113a:	2200      	movs	r2, #0
 800113c:	4618      	mov	r0, r3
 800113e:	f007 fe01 	bl	8008d44 <HAL_RTC_GetTime>
	RTC_DateTypeDef gDate;
	HAL_RTC_GetDate(&hrtc, &gDate, RTC_FORMAT_BIN);
 8001142:	f107 0138 	add.w	r1, r7, #56	; 0x38
 8001146:	f107 0364 	add.w	r3, r7, #100	; 0x64
 800114a:	2200      	movs	r2, #0
 800114c:	4618      	mov	r0, r3
 800114e:	f007 fedb 	bl	8008f08 <HAL_RTC_GetDate>

	//Conversión de los datos a estructuras utilizadas en las efemérides
	struct tiempo t;
	t.anio = gDate.Year + 2000;
 8001152:	f897 303b 	ldrb.w	r3, [r7, #59]	; 0x3b
 8001156:	f503 63fa 	add.w	r3, r3, #2000	; 0x7d0
 800115a:	4618      	mov	r0, r3
 800115c:	f7ff f9ea 	bl	8000534 <__aeabi_i2d>
 8001160:	4602      	mov	r2, r0
 8001162:	460b      	mov	r3, r1
 8001164:	e9c7 2306 	strd	r2, r3, [r7, #24]
	t.mes = gDate.Month;
 8001168:	f897 3039 	ldrb.w	r3, [r7, #57]	; 0x39
 800116c:	4618      	mov	r0, r3
 800116e:	f7ff f9d1 	bl	8000514 <__aeabi_ui2d>
 8001172:	4602      	mov	r2, r0
 8001174:	460b      	mov	r3, r1
 8001176:	e9c7 2304 	strd	r2, r3, [r7, #16]
	t.dia = gDate.Date;
 800117a:	f897 303a 	ldrb.w	r3, [r7, #58]	; 0x3a
 800117e:	4618      	mov	r0, r3
 8001180:	f7ff f9c8 	bl	8000514 <__aeabi_ui2d>
 8001184:	4602      	mov	r2, r0
 8001186:	460b      	mov	r3, r1
 8001188:	e9c7 2302 	strd	r2, r3, [r7, #8]
	t.hora = gTime.Hours;
 800118c:	f897 303c 	ldrb.w	r3, [r7, #60]	; 0x3c
 8001190:	4618      	mov	r0, r3
 8001192:	f7ff f9bf 	bl	8000514 <__aeabi_ui2d>
 8001196:	4602      	mov	r2, r0
 8001198:	460b      	mov	r3, r1
 800119a:	e9c7 2308 	strd	r2, r3, [r7, #32]
	t.minuto = gTime.Minutes;
 800119e:	f897 303d 	ldrb.w	r3, [r7, #61]	; 0x3d
 80011a2:	4618      	mov	r0, r3
 80011a4:	f7ff f9b6 	bl	8000514 <__aeabi_ui2d>
 80011a8:	4602      	mov	r2, r0
 80011aa:	460b      	mov	r3, r1
 80011ac:	e9c7 230a 	strd	r2, r3, [r7, #40]	; 0x28
	t.segundo = gTime.Seconds;
 80011b0:	f897 303e 	ldrb.w	r3, [r7, #62]	; 0x3e
 80011b4:	4618      	mov	r0, r3
 80011b6:	f7ff f9ad 	bl	8000514 <__aeabi_ui2d>
 80011ba:	4602      	mov	r2, r0
 80011bc:	460b      	mov	r3, r1
 80011be:	e9c7 230c 	strd	r2, r3, [r7, #48]	; 0x30
	return t;
 80011c2:	687b      	ldr	r3, [r7, #4]
 80011c4:	461d      	mov	r5, r3
 80011c6:	f107 0408 	add.w	r4, r7, #8
 80011ca:	cc0f      	ldmia	r4!, {r0, r1, r2, r3}
 80011cc:	c50f      	stmia	r5!, {r0, r1, r2, r3}
 80011ce:	cc0f      	ldmia	r4!, {r0, r1, r2, r3}
 80011d0:	c50f      	stmia	r5!, {r0, r1, r2, r3}
 80011d2:	e894 000f 	ldmia.w	r4, {r0, r1, r2, r3}
 80011d6:	e885 000f 	stmia.w	r5, {r0, r1, r2, r3}
}
 80011da:	6878      	ldr	r0, [r7, #4]
 80011dc:	3750      	adds	r7, #80	; 0x50
 80011de:	46bd      	mov	sp, r7
 80011e0:	e8bd 40b0 	ldmia.w	sp!, {r4, r5, r7, lr}
 80011e4:	b004      	add	sp, #16
 80011e6:	4770      	bx	lr

080011e8 <hex_to_bcd>:

unsigned char hex_to_bcd(unsigned char data)
{
 80011e8:	b480      	push	{r7}
 80011ea:	b085      	sub	sp, #20
 80011ec:	af00      	add	r7, sp, #0
 80011ee:	4603      	mov	r3, r0
 80011f0:	71fb      	strb	r3, [r7, #7]
    unsigned char temp;

    temp = (((data/10)<<4) + (data%10));
 80011f2:	79fb      	ldrb	r3, [r7, #7]
 80011f4:	4a0d      	ldr	r2, [pc, #52]	; (800122c <hex_to_bcd+0x44>)
 80011f6:	fba2 2303 	umull	r2, r3, r2, r3
 80011fa:	08db      	lsrs	r3, r3, #3
 80011fc:	b2db      	uxtb	r3, r3
 80011fe:	011b      	lsls	r3, r3, #4
 8001200:	b2d8      	uxtb	r0, r3
 8001202:	79fa      	ldrb	r2, [r7, #7]
 8001204:	4b09      	ldr	r3, [pc, #36]	; (800122c <hex_to_bcd+0x44>)
 8001206:	fba3 1302 	umull	r1, r3, r3, r2
 800120a:	08d9      	lsrs	r1, r3, #3
 800120c:	460b      	mov	r3, r1
 800120e:	009b      	lsls	r3, r3, #2
 8001210:	440b      	add	r3, r1
 8001212:	005b      	lsls	r3, r3, #1
 8001214:	1ad3      	subs	r3, r2, r3
 8001216:	b2db      	uxtb	r3, r3
 8001218:	4403      	add	r3, r0
 800121a:	73fb      	strb	r3, [r7, #15]
    return temp;
 800121c:	7bfb      	ldrb	r3, [r7, #15]
}
 800121e:	4618      	mov	r0, r3
 8001220:	3714      	adds	r7, #20
 8001222:	46bd      	mov	sp, r7
 8001224:	f85d 7b04 	ldr.w	r7, [sp], #4
 8001228:	4770      	bx	lr
 800122a:	bf00      	nop
 800122c:	cccccccd 	.word	0xcccccccd

08001230 <constantes_defecto>:
#include "angulo.h"

struct constantes constantes_defecto(){
 8001230:	b4b0      	push	{r4, r5, r7}
 8001232:	b08d      	sub	sp, #52	; 0x34
 8001234:	af00      	add	r7, sp, #0
 8001236:	6078      	str	r0, [r7, #4]
	struct constantes c;
	c.UTCOffset = 2;
 8001238:	f04f 0200 	mov.w	r2, #0
 800123c:	f04f 4380 	mov.w	r3, #1073741824	; 0x40000000
 8001240:	e9c7 2302 	strd	r2, r3, [r7, #8]
	c.temperatura = 12;
 8001244:	4b14      	ldr	r3, [pc, #80]	; (8001298 <constantes_defecto+0x68>)
 8001246:	613b      	str	r3, [r7, #16]
	c.presion = 101325;
 8001248:	4b14      	ldr	r3, [pc, #80]	; (800129c <constantes_defecto+0x6c>)
 800124a:	617b      	str	r3, [r7, #20]
	c.GCR = 4/13.2;
 800124c:	a310      	add	r3, pc, #64	; (adr r3, 8001290 <constantes_defecto+0x60>)
 800124e:	e9d3 2300 	ldrd	r2, r3, [r3]
 8001252:	e9c7 2306 	strd	r2, r3, [r7, #24]
	c.backtrack = 1;
 8001256:	f04f 0200 	mov.w	r2, #0
 800125a:	4b11      	ldr	r3, [pc, #68]	; (80012a0 <constantes_defecto+0x70>)
 800125c:	e9c7 2308 	strd	r2, r3, [r7, #32]
	c.angulo_max = 60;
 8001260:	f04f 0200 	mov.w	r2, #0
 8001264:	4b0f      	ldr	r3, [pc, #60]	; (80012a4 <constantes_defecto+0x74>)
 8001266:	e9c7 230a 	strd	r2, r3, [r7, #40]	; 0x28
	return c;
 800126a:	687b      	ldr	r3, [r7, #4]
 800126c:	461d      	mov	r5, r3
 800126e:	f107 0408 	add.w	r4, r7, #8
 8001272:	cc0f      	ldmia	r4!, {r0, r1, r2, r3}
 8001274:	c50f      	stmia	r5!, {r0, r1, r2, r3}
 8001276:	cc0f      	ldmia	r4!, {r0, r1, r2, r3}
 8001278:	c50f      	stmia	r5!, {r0, r1, r2, r3}
 800127a:	e894 0003 	ldmia.w	r4, {r0, r1}
 800127e:	e885 0003 	stmia.w	r5, {r0, r1}
}
 8001282:	6878      	ldr	r0, [r7, #4]
 8001284:	3734      	adds	r7, #52	; 0x34
 8001286:	46bd      	mov	sp, r7
 8001288:	bcb0      	pop	{r4, r5, r7}
 800128a:	4770      	bx	lr
 800128c:	f3af 8000 	nop.w
 8001290:	364d9365 	.word	0x364d9365
 8001294:	3fd364d9 	.word	0x3fd364d9
 8001298:	41400000 	.word	0x41400000
 800129c:	47c5e680 	.word	0x47c5e680
 80012a0:	3ff00000 	.word	0x3ff00000
 80012a4:	404e0000 	.word	0x404e0000

080012a8 <es_bisiesto>:

uint8_t es_bisiesto(uint16_t anio){
 80012a8:	b580      	push	{r7, lr}
 80012aa:	b082      	sub	sp, #8
 80012ac:	af00      	add	r7, sp, #0
 80012ae:	4603      	mov	r3, r0
 80012b0:	80fb      	strh	r3, [r7, #6]
	if((fmod(anio,4) == 0 && fmod(anio,100) != 0) || fmod(anio, 400) == 0){
 80012b2:	88fb      	ldrh	r3, [r7, #6]
 80012b4:	4618      	mov	r0, r3
 80012b6:	f7ff f92d 	bl	8000514 <__aeabi_ui2d>
 80012ba:	4602      	mov	r2, r0
 80012bc:	460b      	mov	r3, r1
 80012be:	ed9f 1b24 	vldr	d1, [pc, #144]	; 8001350 <es_bisiesto+0xa8>
 80012c2:	ec43 2b10 	vmov	d0, r2, r3
 80012c6:	f00e fe65 	bl	800ff94 <fmod>
 80012ca:	ec51 0b10 	vmov	r0, r1, d0
 80012ce:	f04f 0200 	mov.w	r2, #0
 80012d2:	f04f 0300 	mov.w	r3, #0
 80012d6:	f7ff fbff 	bl	8000ad8 <__aeabi_dcmpeq>
 80012da:	4603      	mov	r3, r0
 80012dc:	2b00      	cmp	r3, #0
 80012de:	d016      	beq.n	800130e <es_bisiesto+0x66>
 80012e0:	88fb      	ldrh	r3, [r7, #6]
 80012e2:	4618      	mov	r0, r3
 80012e4:	f7ff f916 	bl	8000514 <__aeabi_ui2d>
 80012e8:	4602      	mov	r2, r0
 80012ea:	460b      	mov	r3, r1
 80012ec:	ed9f 1b1a 	vldr	d1, [pc, #104]	; 8001358 <es_bisiesto+0xb0>
 80012f0:	ec43 2b10 	vmov	d0, r2, r3
 80012f4:	f00e fe4e 	bl	800ff94 <fmod>
 80012f8:	ec51 0b10 	vmov	r0, r1, d0
 80012fc:	f04f 0200 	mov.w	r2, #0
 8001300:	f04f 0300 	mov.w	r3, #0
 8001304:	f7ff fbe8 	bl	8000ad8 <__aeabi_dcmpeq>
 8001308:	4603      	mov	r3, r0
 800130a:	2b00      	cmp	r3, #0
 800130c:	d016      	beq.n	800133c <es_bisiesto+0x94>
 800130e:	88fb      	ldrh	r3, [r7, #6]
 8001310:	4618      	mov	r0, r3
 8001312:	f7ff f8ff 	bl	8000514 <__aeabi_ui2d>
 8001316:	4602      	mov	r2, r0
 8001318:	460b      	mov	r3, r1
 800131a:	ed9f 1b11 	vldr	d1, [pc, #68]	; 8001360 <es_bisiesto+0xb8>
 800131e:	ec43 2b10 	vmov	d0, r2, r3
 8001322:	f00e fe37 	bl	800ff94 <fmod>
 8001326:	ec51 0b10 	vmov	r0, r1, d0
 800132a:	f04f 0200 	mov.w	r2, #0
 800132e:	f04f 0300 	mov.w	r3, #0
 8001332:	f7ff fbd1 	bl	8000ad8 <__aeabi_dcmpeq>
 8001336:	4603      	mov	r3, r0
 8001338:	2b00      	cmp	r3, #0
 800133a:	d001      	beq.n	8001340 <es_bisiesto+0x98>
		return 1;
 800133c:	2301      	movs	r3, #1
 800133e:	e000      	b.n	8001342 <es_bisiesto+0x9a>
	}
	else{
		return 0;
 8001340:	2300      	movs	r3, #0
	}
}
 8001342:	4618      	mov	r0, r3
 8001344:	3708      	adds	r7, #8
 8001346:	46bd      	mov	sp, r7
 8001348:	bd80      	pop	{r7, pc}
 800134a:	bf00      	nop
 800134c:	f3af 8000 	nop.w
 8001350:	00000000 	.word	0x00000000
 8001354:	40100000 	.word	0x40100000
 8001358:	00000000 	.word	0x00000000
 800135c:	40590000 	.word	0x40590000
 8001360:	00000000 	.word	0x00000000
 8001364:	40790000 	.word	0x40790000

08001368 <fecha2doy>:

double fecha2doy(struct tiempo t){
 8001368:	b084      	sub	sp, #16
 800136a:	b5b0      	push	{r4, r5, r7, lr}
 800136c:	b08a      	sub	sp, #40	; 0x28
 800136e:	af00      	add	r7, sp, #0
 8001370:	f107 0438 	add.w	r4, r7, #56	; 0x38
 8001374:	e884 000f 	stmia.w	r4, {r0, r1, r2, r3}
	uint8_t bisiesto = es_bisiesto(t.anio);
 8001378:	e9d7 2312 	ldrd	r2, r3, [r7, #72]	; 0x48
 800137c:	4610      	mov	r0, r2
 800137e:	4619      	mov	r1, r3
 8001380:	f7ff fc1a 	bl	8000bb8 <__aeabi_d2uiz>
 8001384:	4603      	mov	r3, r0
 8001386:	b29b      	uxth	r3, r3
 8001388:	4618      	mov	r0, r3
 800138a:	f7ff ff8d 	bl	80012a8 <es_bisiesto>
 800138e:	4603      	mov	r3, r0
 8001390:	77fb      	strb	r3, [r7, #31]
	uint8_t offsetMes[] = {1,2,0,1,1,2,2,3,4,4,5,5};
 8001392:	4a36      	ldr	r2, [pc, #216]	; (800146c <fecha2doy+0x104>)
 8001394:	1d3b      	adds	r3, r7, #4
 8001396:	ca07      	ldmia	r2, {r0, r1, r2}
 8001398:	e883 0007 	stmia.w	r3, {r0, r1, r2}
	uint8_t mes = t.mes;
 800139c:	e9d7 2310 	ldrd	r2, r3, [r7, #64]	; 0x40
 80013a0:	4610      	mov	r0, r2
 80013a2:	4619      	mov	r1, r3
 80013a4:	f7ff fc08 	bl	8000bb8 <__aeabi_d2uiz>
 80013a8:	4603      	mov	r3, r0
 80013aa:	77bb      	strb	r3, [r7, #30]
	double dia1 = ((t.mes - 1) * 30) + offsetMes[mes - 1];
 80013ac:	e9d7 0110 	ldrd	r0, r1, [r7, #64]	; 0x40
 80013b0:	f04f 0200 	mov.w	r2, #0
 80013b4:	4b2e      	ldr	r3, [pc, #184]	; (8001470 <fecha2doy+0x108>)
 80013b6:	f7fe ff6f 	bl	8000298 <__aeabi_dsub>
 80013ba:	4602      	mov	r2, r0
 80013bc:	460b      	mov	r3, r1
 80013be:	4610      	mov	r0, r2
 80013c0:	4619      	mov	r1, r3
 80013c2:	f04f 0200 	mov.w	r2, #0
 80013c6:	4b2b      	ldr	r3, [pc, #172]	; (8001474 <fecha2doy+0x10c>)
 80013c8:	f7ff f91e 	bl	8000608 <__aeabi_dmul>
 80013cc:	4602      	mov	r2, r0
 80013ce:	460b      	mov	r3, r1
 80013d0:	4614      	mov	r4, r2
 80013d2:	461d      	mov	r5, r3
 80013d4:	7fbb      	ldrb	r3, [r7, #30]
 80013d6:	3b01      	subs	r3, #1
 80013d8:	3328      	adds	r3, #40	; 0x28
 80013da:	443b      	add	r3, r7
 80013dc:	f813 3c24 	ldrb.w	r3, [r3, #-36]
 80013e0:	4618      	mov	r0, r3
 80013e2:	f7ff f8a7 	bl	8000534 <__aeabi_i2d>
 80013e6:	4602      	mov	r2, r0
 80013e8:	460b      	mov	r3, r1
 80013ea:	4620      	mov	r0, r4
 80013ec:	4629      	mov	r1, r5
 80013ee:	f7fe ff55 	bl	800029c <__adddf3>
 80013f2:	4602      	mov	r2, r0
 80013f4:	460b      	mov	r3, r1
 80013f6:	e9c7 2304 	strd	r2, r3, [r7, #16]
	double doy = dia1 + (t.dia - 1);
 80013fa:	e9d7 010e 	ldrd	r0, r1, [r7, #56]	; 0x38
 80013fe:	f04f 0200 	mov.w	r2, #0
 8001402:	4b1b      	ldr	r3, [pc, #108]	; (8001470 <fecha2doy+0x108>)
 8001404:	f7fe ff48 	bl	8000298 <__aeabi_dsub>
 8001408:	4602      	mov	r2, r0
 800140a:	460b      	mov	r3, r1
 800140c:	e9d7 0104 	ldrd	r0, r1, [r7, #16]
 8001410:	f7fe ff44 	bl	800029c <__adddf3>
 8001414:	4602      	mov	r2, r0
 8001416:	460b      	mov	r3, r1
 8001418:	e9c7 2308 	strd	r2, r3, [r7, #32]
	if(t.mes > 2){
 800141c:	e9d7 0110 	ldrd	r0, r1, [r7, #64]	; 0x40
 8001420:	f04f 0200 	mov.w	r2, #0
 8001424:	f04f 4380 	mov.w	r3, #1073741824	; 0x40000000
 8001428:	f7ff fb7e 	bl	8000b28 <__aeabi_dcmpgt>
 800142c:	4603      	mov	r3, r0
 800142e:	2b00      	cmp	r3, #0
 8001430:	d00d      	beq.n	800144e <fecha2doy+0xe6>
		doy += bisiesto;
 8001432:	7ffb      	ldrb	r3, [r7, #31]
 8001434:	4618      	mov	r0, r3
 8001436:	f7ff f87d 	bl	8000534 <__aeabi_i2d>
 800143a:	4602      	mov	r2, r0
 800143c:	460b      	mov	r3, r1
 800143e:	e9d7 0108 	ldrd	r0, r1, [r7, #32]
 8001442:	f7fe ff2b 	bl	800029c <__adddf3>
 8001446:	4602      	mov	r2, r0
 8001448:	460b      	mov	r3, r1
 800144a:	e9c7 2308 	strd	r2, r3, [r7, #32]
	}
	return doy;
 800144e:	e9d7 2308 	ldrd	r2, r3, [r7, #32]
 8001452:	ec43 2b17 	vmov	d7, r2, r3
}
 8001456:	eeb0 0a47 	vmov.f32	s0, s14
 800145a:	eef0 0a67 	vmov.f32	s1, s15
 800145e:	3728      	adds	r7, #40	; 0x28
 8001460:	46bd      	mov	sp, r7
 8001462:	e8bd 40b0 	ldmia.w	sp!, {r4, r5, r7, lr}
 8001466:	b004      	add	sp, #16
 8001468:	4770      	bx	lr
 800146a:	bf00      	nop
 800146c:	08012cb8 	.word	0x08012cb8
 8001470:	3ff00000 	.word	0x3ff00000
 8001474:	403e0000 	.word	0x403e0000

08001478 <Dec2Rad>:

float Dec2Rad(float ang){
 8001478:	b580      	push	{r7, lr}
 800147a:	b082      	sub	sp, #8
 800147c:	af00      	add	r7, sp, #0
 800147e:	ed87 0a01 	vstr	s0, [r7, #4]
	return ang * M_PI/180.0;
 8001482:	6878      	ldr	r0, [r7, #4]
 8001484:	f7ff f868 	bl	8000558 <__aeabi_f2d>
 8001488:	a30e      	add	r3, pc, #56	; (adr r3, 80014c4 <Dec2Rad+0x4c>)
 800148a:	e9d3 2300 	ldrd	r2, r3, [r3]
 800148e:	f7ff f8bb 	bl	8000608 <__aeabi_dmul>
 8001492:	4602      	mov	r2, r0
 8001494:	460b      	mov	r3, r1
 8001496:	4610      	mov	r0, r2
 8001498:	4619      	mov	r1, r3
 800149a:	f04f 0200 	mov.w	r2, #0
 800149e:	4b08      	ldr	r3, [pc, #32]	; (80014c0 <Dec2Rad+0x48>)
 80014a0:	f7ff f9dc 	bl	800085c <__aeabi_ddiv>
 80014a4:	4602      	mov	r2, r0
 80014a6:	460b      	mov	r3, r1
 80014a8:	4610      	mov	r0, r2
 80014aa:	4619      	mov	r1, r3
 80014ac:	f7ff fba4 	bl	8000bf8 <__aeabi_d2f>
 80014b0:	4603      	mov	r3, r0
 80014b2:	ee07 3a90 	vmov	s15, r3
}
 80014b6:	eeb0 0a67 	vmov.f32	s0, s15
 80014ba:	3708      	adds	r7, #8
 80014bc:	46bd      	mov	sp, r7
 80014be:	bd80      	pop	{r7, pc}
 80014c0:	40668000 	.word	0x40668000
 80014c4:	54442d18 	.word	0x54442d18
 80014c8:	400921fb 	.word	0x400921fb
 80014cc:	00000000 	.word	0x00000000

080014d0 <Rad2Dec>:
float Rad2Dec(float ang){
 80014d0:	b580      	push	{r7, lr}
 80014d2:	b082      	sub	sp, #8
 80014d4:	af00      	add	r7, sp, #0
 80014d6:	ed87 0a01 	vstr	s0, [r7, #4]
	return ang * 180/M_PI;
 80014da:	edd7 7a01 	vldr	s15, [r7, #4]
 80014de:	ed9f 7a10 	vldr	s14, [pc, #64]	; 8001520 <Rad2Dec+0x50>
 80014e2:	ee67 7a87 	vmul.f32	s15, s15, s14
 80014e6:	ee17 0a90 	vmov	r0, s15
 80014ea:	f7ff f835 	bl	8000558 <__aeabi_f2d>
 80014ee:	a30a      	add	r3, pc, #40	; (adr r3, 8001518 <Rad2Dec+0x48>)
 80014f0:	e9d3 2300 	ldrd	r2, r3, [r3]
 80014f4:	f7ff f9b2 	bl	800085c <__aeabi_ddiv>
 80014f8:	4602      	mov	r2, r0
 80014fa:	460b      	mov	r3, r1
 80014fc:	4610      	mov	r0, r2
 80014fe:	4619      	mov	r1, r3
 8001500:	f7ff fb7a 	bl	8000bf8 <__aeabi_d2f>
 8001504:	4603      	mov	r3, r0
 8001506:	ee07 3a90 	vmov	s15, r3
}
 800150a:	eeb0 0a67 	vmov.f32	s0, s15
 800150e:	3708      	adds	r7, #8
 8001510:	46bd      	mov	sp, r7
 8001512:	bd80      	pop	{r7, pc}
 8001514:	f3af 8000 	nop.w
 8001518:	54442d18 	.word	0x54442d18
 800151c:	400921fb 	.word	0x400921fb
 8001520:	43340000 	.word	0x43340000

08001524 <sign>:

float sign(float num){
 8001524:	b480      	push	{r7}
 8001526:	b083      	sub	sp, #12
 8001528:	af00      	add	r7, sp, #0
 800152a:	ed87 0a01 	vstr	s0, [r7, #4]
	if(num > 0){
 800152e:	edd7 7a01 	vldr	s15, [r7, #4]
 8001532:	eef5 7ac0 	vcmpe.f32	s15, #0.0
 8001536:	eef1 fa10 	vmrs	APSR_nzcv, fpscr
 800153a:	dd02      	ble.n	8001542 <sign+0x1e>
		return 1;
 800153c:	f04f 537e 	mov.w	r3, #1065353216	; 0x3f800000
 8001540:	e00a      	b.n	8001558 <sign+0x34>
	}
	else if (num < 0){
 8001542:	edd7 7a01 	vldr	s15, [r7, #4]
 8001546:	eef5 7ac0 	vcmpe.f32	s15, #0.0
 800154a:	eef1 fa10 	vmrs	APSR_nzcv, fpscr
 800154e:	d501      	bpl.n	8001554 <sign+0x30>
		return -1;
 8001550:	4b06      	ldr	r3, [pc, #24]	; (800156c <sign+0x48>)
 8001552:	e001      	b.n	8001558 <sign+0x34>
	}
	else{
		return 0;
 8001554:	f04f 0300 	mov.w	r3, #0
	}
}
 8001558:	ee07 3a90 	vmov	s15, r3
 800155c:	eeb0 0a67 	vmov.f32	s0, s15
 8001560:	370c      	adds	r7, #12
 8001562:	46bd      	mov	sp, r7
 8001564:	f85d 7b04 	ldr.w	r7, [sp], #4
 8001568:	4770      	bx	lr
 800156a:	bf00      	nop
 800156c:	bf800000 	.word	0xbf800000

08001570 <ephemeritas>:

struct ephemeris ephemeritas(struct constantes c, struct tiempo t, struct localizacion local){
 8001570:	b084      	sub	sp, #16
 8001572:	e92d 4fb0 	stmdb	sp!, {r4, r5, r7, r8, r9, sl, fp, lr}
 8001576:	ed2d 8b02 	vpush	{d8}
 800157a:	b0c2      	sub	sp, #264	; 0x108
 800157c:	af08      	add	r7, sp, #32
 800157e:	f507 7488 	add.w	r4, r7, #272	; 0x110
 8001582:	e884 000f 	stmia.w	r4, {r0, r1, r2, r3}
 8001586:	eeb0 5a40 	vmov.f32	s10, s0
 800158a:	eef0 5a60 	vmov.f32	s11, s1
 800158e:	eeb0 6a41 	vmov.f32	s12, s2
 8001592:	eef0 6a61 	vmov.f32	s13, s3
 8001596:	eeb0 7a42 	vmov.f32	s14, s4
 800159a:	eef0 7a62 	vmov.f32	s15, s5
 800159e:	ed87 5b04 	vstr	d5, [r7, #16]
 80015a2:	ed87 6b06 	vstr	d6, [r7, #24]
 80015a6:	ed87 7b08 	vstr	d7, [r7, #32]
	double UTCOffset = -1*c.UTCOffset;
 80015aa:	e9d7 2344 	ldrd	r2, r3, [r7, #272]	; 0x110
 80015ae:	4611      	mov	r1, r2
 80015b0:	f8c7 10c0 	str.w	r1, [r7, #192]	; 0xc0
 80015b4:	f083 4300 	eor.w	r3, r3, #2147483648	; 0x80000000
 80015b8:	f8c7 30c4 	str.w	r3, [r7, #196]	; 0xc4
	float longitud = -1*local.longitud;
 80015bc:	e9d7 2306 	ldrd	r2, r3, [r7, #24]
 80015c0:	4610      	mov	r0, r2
 80015c2:	4619      	mov	r1, r3
 80015c4:	f7ff fb18 	bl	8000bf8 <__aeabi_d2f>
 80015c8:	4603      	mov	r3, r0
 80015ca:	ee07 3a90 	vmov	s15, r3
 80015ce:	eef1 7a67 	vneg.f32	s15, s15
 80015d2:	edc7 7a2f 	vstr	s15, [r7, #188]	; 0xbc
	uint16_t doy = fecha2doy(t);
 80015d6:	466d      	mov	r5, sp
 80015d8:	f507 74a4 	add.w	r4, r7, #328	; 0x148
 80015dc:	cc0f      	ldmia	r4!, {r0, r1, r2, r3}
 80015de:	c50f      	stmia	r5!, {r0, r1, r2, r3}
 80015e0:	e894 000f 	ldmia.w	r4, {r0, r1, r2, r3}
 80015e4:	e885 000f 	stmia.w	r5, {r0, r1, r2, r3}
 80015e8:	f507 739c 	add.w	r3, r7, #312	; 0x138
 80015ec:	cb0f      	ldmia	r3, {r0, r1, r2, r3}
 80015ee:	f7ff febb 	bl	8001368 <fecha2doy>
 80015f2:	ec53 2b10 	vmov	r2, r3, d0
 80015f6:	4610      	mov	r0, r2
 80015f8:	4619      	mov	r1, r3
 80015fa:	f7ff fadd 	bl	8000bb8 <__aeabi_d2uiz>
 80015fe:	4603      	mov	r3, r0
 8001600:	f8a7 30ba 	strh.w	r3, [r7, #186]	; 0xba
	float horaDec = t.hora + t.minuto/60.0 + t.segundo/3600.0;
 8001604:	e9d7 4554 	ldrd	r4, r5, [r7, #336]	; 0x150
 8001608:	e9d7 0156 	ldrd	r0, r1, [r7, #344]	; 0x158
 800160c:	f04f 0200 	mov.w	r2, #0
 8001610:	4beb      	ldr	r3, [pc, #940]	; (80019c0 <ephemeritas+0x450>)
 8001612:	f7ff f923 	bl	800085c <__aeabi_ddiv>
 8001616:	4602      	mov	r2, r0
 8001618:	460b      	mov	r3, r1
 800161a:	4620      	mov	r0, r4
 800161c:	4629      	mov	r1, r5
 800161e:	f7fe fe3d 	bl	800029c <__adddf3>
 8001622:	4602      	mov	r2, r0
 8001624:	460b      	mov	r3, r1
 8001626:	4614      	mov	r4, r2
 8001628:	461d      	mov	r5, r3
 800162a:	e9d7 0158 	ldrd	r0, r1, [r7, #352]	; 0x160
 800162e:	a3ce      	add	r3, pc, #824	; (adr r3, 8001968 <ephemeritas+0x3f8>)
 8001630:	e9d3 2300 	ldrd	r2, r3, [r3]
 8001634:	f7ff f912 	bl	800085c <__aeabi_ddiv>
 8001638:	4602      	mov	r2, r0
 800163a:	460b      	mov	r3, r1
 800163c:	4620      	mov	r0, r4
 800163e:	4629      	mov	r1, r5
 8001640:	f7fe fe2c 	bl	800029c <__adddf3>
 8001644:	4602      	mov	r2, r0
 8001646:	460b      	mov	r3, r1
 8001648:	4610      	mov	r0, r2
 800164a:	4619      	mov	r1, r3
 800164c:	f7ff fad4 	bl	8000bf8 <__aeabi_d2f>
 8001650:	4603      	mov	r3, r0
 8001652:	f8c7 30b4 	str.w	r3, [r7, #180]	; 0xb4
	float fechaUniv = doy + floor((horaDec + UTCOffset)/24.0);
 8001656:	f8b7 30ba 	ldrh.w	r3, [r7, #186]	; 0xba
 800165a:	4618      	mov	r0, r3
 800165c:	f7fe ff6a 	bl	8000534 <__aeabi_i2d>
 8001660:	4604      	mov	r4, r0
 8001662:	460d      	mov	r5, r1
 8001664:	f8d7 00b4 	ldr.w	r0, [r7, #180]	; 0xb4
 8001668:	f7fe ff76 	bl	8000558 <__aeabi_f2d>
 800166c:	e9d7 2330 	ldrd	r2, r3, [r7, #192]	; 0xc0
 8001670:	f7fe fe14 	bl	800029c <__adddf3>
 8001674:	4602      	mov	r2, r0
 8001676:	460b      	mov	r3, r1
 8001678:	4610      	mov	r0, r2
 800167a:	4619      	mov	r1, r3
 800167c:	f04f 0200 	mov.w	r2, #0
 8001680:	4bd0      	ldr	r3, [pc, #832]	; (80019c4 <ephemeritas+0x454>)
 8001682:	f7ff f8eb 	bl	800085c <__aeabi_ddiv>
 8001686:	4602      	mov	r2, r0
 8001688:	460b      	mov	r3, r1
 800168a:	ec43 2b17 	vmov	d7, r2, r3
 800168e:	eeb0 0a47 	vmov.f32	s0, s14
 8001692:	eef0 0a67 	vmov.f32	s1, s15
 8001696:	f00e fb07 	bl	800fca8 <floor>
 800169a:	ec53 2b10 	vmov	r2, r3, d0
 800169e:	4620      	mov	r0, r4
 80016a0:	4629      	mov	r1, r5
 80016a2:	f7fe fdfb 	bl	800029c <__adddf3>
 80016a6:	4602      	mov	r2, r0
 80016a8:	460b      	mov	r3, r1
 80016aa:	4610      	mov	r0, r2
 80016ac:	4619      	mov	r1, r3
 80016ae:	f7ff faa3 	bl	8000bf8 <__aeabi_d2f>
 80016b2:	4603      	mov	r3, r0
 80016b4:	f8c7 30b0 	str.w	r3, [r7, #176]	; 0xb0
	float horaUniv = fmod((horaDec + UTCOffset), 24);
 80016b8:	f8d7 00b4 	ldr.w	r0, [r7, #180]	; 0xb4
 80016bc:	f7fe ff4c 	bl	8000558 <__aeabi_f2d>
 80016c0:	e9d7 2330 	ldrd	r2, r3, [r7, #192]	; 0xc0
 80016c4:	f7fe fdea 	bl	800029c <__adddf3>
 80016c8:	4602      	mov	r2, r0
 80016ca:	460b      	mov	r3, r1
 80016cc:	ec43 2b17 	vmov	d7, r2, r3
 80016d0:	ed9f 1ba7 	vldr	d1, [pc, #668]	; 8001970 <ephemeritas+0x400>
 80016d4:	eeb0 0a47 	vmov.f32	s0, s14
 80016d8:	eef0 0a67 	vmov.f32	s1, s15
 80016dc:	f00e fc5a 	bl	800ff94 <fmod>
 80016e0:	ec53 2b10 	vmov	r2, r3, d0
 80016e4:	4610      	mov	r0, r2
 80016e6:	4619      	mov	r1, r3
 80016e8:	f7ff fa86 	bl	8000bf8 <__aeabi_d2f>
 80016ec:	4603      	mov	r3, r0
 80016ee:	f8c7 30ac 	str.w	r3, [r7, #172]	; 0xac
	float anio = t.anio - 1900;
 80016f2:	e9d7 0152 	ldrd	r0, r1, [r7, #328]	; 0x148
 80016f6:	a3a0      	add	r3, pc, #640	; (adr r3, 8001978 <ephemeritas+0x408>)
 80016f8:	e9d3 2300 	ldrd	r2, r3, [r3]
 80016fc:	f7fe fdcc 	bl	8000298 <__aeabi_dsub>
 8001700:	4602      	mov	r2, r0
 8001702:	460b      	mov	r3, r1
 8001704:	4610      	mov	r0, r2
 8001706:	4619      	mov	r1, r3
 8001708:	f7ff fa76 	bl	8000bf8 <__aeabi_d2f>
 800170c:	4603      	mov	r3, r0
 800170e:	f8c7 30a8 	str.w	r3, [r7, #168]	; 0xa8
	float anio_ini = 365 * anio + floor((anio-1)/4.0) - 0.5;
 8001712:	edd7 7a2a 	vldr	s15, [r7, #168]	; 0xa8
 8001716:	ed9f 7aac 	vldr	s14, [pc, #688]	; 80019c8 <ephemeritas+0x458>
 800171a:	ee67 7a87 	vmul.f32	s15, s15, s14
 800171e:	ee17 0a90 	vmov	r0, s15
 8001722:	f7fe ff19 	bl	8000558 <__aeabi_f2d>
 8001726:	4604      	mov	r4, r0
 8001728:	460d      	mov	r5, r1
 800172a:	edd7 7a2a 	vldr	s15, [r7, #168]	; 0xa8
 800172e:	eeb7 7a00 	vmov.f32	s14, #112	; 0x3f800000  1.0
 8001732:	ee77 7ac7 	vsub.f32	s15, s15, s14
 8001736:	ee17 0a90 	vmov	r0, s15
 800173a:	f7fe ff0d 	bl	8000558 <__aeabi_f2d>
 800173e:	f04f 0200 	mov.w	r2, #0
 8001742:	4ba2      	ldr	r3, [pc, #648]	; (80019cc <ephemeritas+0x45c>)
 8001744:	f7ff f88a 	bl	800085c <__aeabi_ddiv>
 8001748:	4602      	mov	r2, r0
 800174a:	460b      	mov	r3, r1
 800174c:	ec43 2b17 	vmov	d7, r2, r3
 8001750:	eeb0 0a47 	vmov.f32	s0, s14
 8001754:	eef0 0a67 	vmov.f32	s1, s15
 8001758:	f00e faa6 	bl	800fca8 <floor>
 800175c:	ec53 2b10 	vmov	r2, r3, d0
 8001760:	4620      	mov	r0, r4
 8001762:	4629      	mov	r1, r5
 8001764:	f7fe fd9a 	bl	800029c <__adddf3>
 8001768:	4602      	mov	r2, r0
 800176a:	460b      	mov	r3, r1
 800176c:	4610      	mov	r0, r2
 800176e:	4619      	mov	r1, r3
 8001770:	f04f 0200 	mov.w	r2, #0
 8001774:	4b96      	ldr	r3, [pc, #600]	; (80019d0 <ephemeritas+0x460>)
 8001776:	f7fe fd8f 	bl	8000298 <__aeabi_dsub>
 800177a:	4602      	mov	r2, r0
 800177c:	460b      	mov	r3, r1
 800177e:	4610      	mov	r0, r2
 8001780:	4619      	mov	r1, r3
 8001782:	f7ff fa39 	bl	8000bf8 <__aeabi_d2f>
 8001786:	4603      	mov	r3, r0
 8001788:	f8c7 30a4 	str.w	r3, [r7, #164]	; 0xa4
	float Ezero = anio_ini + fechaUniv; //no se que significa Ezero
 800178c:	ed97 7a29 	vldr	s14, [r7, #164]	; 0xa4
 8001790:	edd7 7a2c 	vldr	s15, [r7, #176]	; 0xb0
 8001794:	ee77 7a27 	vadd.f32	s15, s14, s15
 8001798:	edc7 7a28 	vstr	s15, [r7, #160]	; 0xa0
	float T = Ezero / 36525.0; //siglo Julian de 36525 días
 800179c:	ed97 7a28 	vldr	s14, [r7, #160]	; 0xa0
 80017a0:	eddf 6a8c 	vldr	s13, [pc, #560]	; 80019d4 <ephemeritas+0x464>
 80017a4:	eec7 7a26 	vdiv.f32	s15, s14, s13
 80017a8:	edc7 7a27 	vstr	s15, [r7, #156]	; 0x9c
	float GMST0 = 6 / 24.0 + 38 / 1440.0 + (45.836 + 8640184.542 * T + 0.0929 * pow(T,2)) / 86400.0; //día sidéreo en el meridiano de Greenwich hora 0
 80017ac:	f8d7 009c 	ldr.w	r0, [r7, #156]	; 0x9c
 80017b0:	f7fe fed2 	bl	8000558 <__aeabi_f2d>
 80017b4:	a372      	add	r3, pc, #456	; (adr r3, 8001980 <ephemeritas+0x410>)
 80017b6:	e9d3 2300 	ldrd	r2, r3, [r3]
 80017ba:	f7fe ff25 	bl	8000608 <__aeabi_dmul>
 80017be:	4602      	mov	r2, r0
 80017c0:	460b      	mov	r3, r1
 80017c2:	4610      	mov	r0, r2
 80017c4:	4619      	mov	r1, r3
 80017c6:	a370      	add	r3, pc, #448	; (adr r3, 8001988 <ephemeritas+0x418>)
 80017c8:	e9d3 2300 	ldrd	r2, r3, [r3]
 80017cc:	f7fe fd66 	bl	800029c <__adddf3>
 80017d0:	4602      	mov	r2, r0
 80017d2:	460b      	mov	r3, r1
 80017d4:	4614      	mov	r4, r2
 80017d6:	461d      	mov	r5, r3
 80017d8:	f8d7 009c 	ldr.w	r0, [r7, #156]	; 0x9c
 80017dc:	f7fe febc 	bl	8000558 <__aeabi_f2d>
 80017e0:	4602      	mov	r2, r0
 80017e2:	460b      	mov	r3, r1
 80017e4:	ed9f 1b6a 	vldr	d1, [pc, #424]	; 8001990 <ephemeritas+0x420>
 80017e8:	ec43 2b10 	vmov	d0, r2, r3
 80017ec:	f00e fc00 	bl	800fff0 <pow>
 80017f0:	ec51 0b10 	vmov	r0, r1, d0
 80017f4:	a368      	add	r3, pc, #416	; (adr r3, 8001998 <ephemeritas+0x428>)
 80017f6:	e9d3 2300 	ldrd	r2, r3, [r3]
 80017fa:	f7fe ff05 	bl	8000608 <__aeabi_dmul>
 80017fe:	4602      	mov	r2, r0
 8001800:	460b      	mov	r3, r1
 8001802:	4620      	mov	r0, r4
 8001804:	4629      	mov	r1, r5
 8001806:	f7fe fd49 	bl	800029c <__adddf3>
 800180a:	4602      	mov	r2, r0
 800180c:	460b      	mov	r3, r1
 800180e:	4610      	mov	r0, r2
 8001810:	4619      	mov	r1, r3
 8001812:	a363      	add	r3, pc, #396	; (adr r3, 80019a0 <ephemeritas+0x430>)
 8001814:	e9d3 2300 	ldrd	r2, r3, [r3]
 8001818:	f7ff f820 	bl	800085c <__aeabi_ddiv>
 800181c:	4602      	mov	r2, r0
 800181e:	460b      	mov	r3, r1
 8001820:	4610      	mov	r0, r2
 8001822:	4619      	mov	r1, r3
 8001824:	a360      	add	r3, pc, #384	; (adr r3, 80019a8 <ephemeritas+0x438>)
 8001826:	e9d3 2300 	ldrd	r2, r3, [r3]
 800182a:	f7fe fd37 	bl	800029c <__adddf3>
 800182e:	4602      	mov	r2, r0
 8001830:	460b      	mov	r3, r1
 8001832:	4610      	mov	r0, r2
 8001834:	4619      	mov	r1, r3
 8001836:	f7ff f9df 	bl	8000bf8 <__aeabi_d2f>
 800183a:	4603      	mov	r3, r0
 800183c:	f8c7 3098 	str.w	r3, [r7, #152]	; 0x98
	GMST0 = 360 * (GMST0 - floor(GMST0));
 8001840:	f8d7 0098 	ldr.w	r0, [r7, #152]	; 0x98
 8001844:	f7fe fe88 	bl	8000558 <__aeabi_f2d>
 8001848:	4604      	mov	r4, r0
 800184a:	460d      	mov	r5, r1
 800184c:	f8d7 0098 	ldr.w	r0, [r7, #152]	; 0x98
 8001850:	f7fe fe82 	bl	8000558 <__aeabi_f2d>
 8001854:	4602      	mov	r2, r0
 8001856:	460b      	mov	r3, r1
 8001858:	ec43 2b10 	vmov	d0, r2, r3
 800185c:	f00e fa24 	bl	800fca8 <floor>
 8001860:	ec53 2b10 	vmov	r2, r3, d0
 8001864:	4620      	mov	r0, r4
 8001866:	4629      	mov	r1, r5
 8001868:	f7fe fd16 	bl	8000298 <__aeabi_dsub>
 800186c:	4602      	mov	r2, r0
 800186e:	460b      	mov	r3, r1
 8001870:	4610      	mov	r0, r2
 8001872:	4619      	mov	r1, r3
 8001874:	f04f 0200 	mov.w	r2, #0
 8001878:	4b57      	ldr	r3, [pc, #348]	; (80019d8 <ephemeritas+0x468>)
 800187a:	f7fe fec5 	bl	8000608 <__aeabi_dmul>
 800187e:	4602      	mov	r2, r0
 8001880:	460b      	mov	r3, r1
 8001882:	4610      	mov	r0, r2
 8001884:	4619      	mov	r1, r3
 8001886:	f7ff f9b7 	bl	8000bf8 <__aeabi_d2f>
 800188a:	4603      	mov	r3, r0
 800188c:	f8c7 3098 	str.w	r3, [r7, #152]	; 0x98
	float GMSTi = fmod(GMST0 + 360*(1.0027379093 * horaUniv / 24.0),360); //día sidéreo a la hora que es
 8001890:	f8d7 0098 	ldr.w	r0, [r7, #152]	; 0x98
 8001894:	f7fe fe60 	bl	8000558 <__aeabi_f2d>
 8001898:	4604      	mov	r4, r0
 800189a:	460d      	mov	r5, r1
 800189c:	f8d7 00ac 	ldr.w	r0, [r7, #172]	; 0xac
 80018a0:	f7fe fe5a 	bl	8000558 <__aeabi_f2d>
 80018a4:	a342      	add	r3, pc, #264	; (adr r3, 80019b0 <ephemeritas+0x440>)
 80018a6:	e9d3 2300 	ldrd	r2, r3, [r3]
 80018aa:	f7fe fead 	bl	8000608 <__aeabi_dmul>
 80018ae:	4602      	mov	r2, r0
 80018b0:	460b      	mov	r3, r1
 80018b2:	4610      	mov	r0, r2
 80018b4:	4619      	mov	r1, r3
 80018b6:	f04f 0200 	mov.w	r2, #0
 80018ba:	4b42      	ldr	r3, [pc, #264]	; (80019c4 <ephemeritas+0x454>)
 80018bc:	f7fe ffce 	bl	800085c <__aeabi_ddiv>
 80018c0:	4602      	mov	r2, r0
 80018c2:	460b      	mov	r3, r1
 80018c4:	4610      	mov	r0, r2
 80018c6:	4619      	mov	r1, r3
 80018c8:	f04f 0200 	mov.w	r2, #0
 80018cc:	4b42      	ldr	r3, [pc, #264]	; (80019d8 <ephemeritas+0x468>)
 80018ce:	f7fe fe9b 	bl	8000608 <__aeabi_dmul>
 80018d2:	4602      	mov	r2, r0
 80018d4:	460b      	mov	r3, r1
 80018d6:	4620      	mov	r0, r4
 80018d8:	4629      	mov	r1, r5
 80018da:	f7fe fcdf 	bl	800029c <__adddf3>
 80018de:	4602      	mov	r2, r0
 80018e0:	460b      	mov	r3, r1
 80018e2:	ec43 2b17 	vmov	d7, r2, r3
 80018e6:	ed9f 1b34 	vldr	d1, [pc, #208]	; 80019b8 <ephemeritas+0x448>
 80018ea:	eeb0 0a47 	vmov.f32	s0, s14
 80018ee:	eef0 0a67 	vmov.f32	s1, s15
 80018f2:	f00e fb4f 	bl	800ff94 <fmod>
 80018f6:	ec53 2b10 	vmov	r2, r3, d0
 80018fa:	4610      	mov	r0, r2
 80018fc:	4619      	mov	r1, r3
 80018fe:	f7ff f97b 	bl	8000bf8 <__aeabi_d2f>
 8001902:	4603      	mov	r3, r0
 8001904:	f8c7 3094 	str.w	r3, [r7, #148]	; 0x94
	float LAST = fmod((360 + GMSTi - longitud), 360); //día sidereo aparente teniendo en cuenta la localización
 8001908:	edd7 7a25 	vldr	s15, [r7, #148]	; 0x94
 800190c:	ed9f 7a33 	vldr	s14, [pc, #204]	; 80019dc <ephemeritas+0x46c>
 8001910:	ee37 7a87 	vadd.f32	s14, s15, s14
 8001914:	edd7 7a2f 	vldr	s15, [r7, #188]	; 0xbc
 8001918:	ee77 7a67 	vsub.f32	s15, s14, s15
 800191c:	ee17 0a90 	vmov	r0, s15
 8001920:	f7fe fe1a 	bl	8000558 <__aeabi_f2d>
 8001924:	4602      	mov	r2, r0
 8001926:	460b      	mov	r3, r1
 8001928:	ed9f 1b23 	vldr	d1, [pc, #140]	; 80019b8 <ephemeritas+0x448>
 800192c:	ec43 2b10 	vmov	d0, r2, r3
 8001930:	f00e fb30 	bl	800ff94 <fmod>
 8001934:	ec53 2b10 	vmov	r2, r3, d0
 8001938:	4610      	mov	r0, r2
 800193a:	4619      	mov	r1, r3
 800193c:	f7ff f95c 	bl	8000bf8 <__aeabi_d2f>
 8001940:	4603      	mov	r3, r0
 8001942:	f8c7 30e4 	str.w	r3, [r7, #228]	; 0xe4

	if(LAST < 0){ //corrección necesaria ya que fmod en c y en matlab no trabajan igual con numeros negativos
 8001946:	edd7 7a39 	vldr	s15, [r7, #228]	; 0xe4
 800194a:	eef5 7ac0 	vcmpe.f32	s15, #0.0
 800194e:	eef1 fa10 	vmrs	APSR_nzcv, fpscr
 8001952:	d545      	bpl.n	80019e0 <ephemeritas+0x470>
		LAST = 360 - LAST;
 8001954:	ed9f 7a21 	vldr	s14, [pc, #132]	; 80019dc <ephemeritas+0x46c>
 8001958:	edd7 7a39 	vldr	s15, [r7, #228]	; 0xe4
 800195c:	ee77 7a67 	vsub.f32	s15, s14, s15
 8001960:	edc7 7a39 	vstr	s15, [r7, #228]	; 0xe4
 8001964:	e03c      	b.n	80019e0 <ephemeritas+0x470>
 8001966:	bf00      	nop
 8001968:	00000000 	.word	0x00000000
 800196c:	40ac2000 	.word	0x40ac2000
 8001970:	00000000 	.word	0x00000000
 8001974:	40380000 	.word	0x40380000
 8001978:	00000000 	.word	0x00000000
 800197c:	409db000 	.word	0x409db000
 8001980:	11581062 	.word	0x11581062
 8001984:	41607ad7 	.word	0x41607ad7
 8001988:	0c49ba5e 	.word	0x0c49ba5e
 800198c:	4046eb02 	.word	0x4046eb02
 8001990:	00000000 	.word	0x00000000
 8001994:	40000000 	.word	0x40000000
 8001998:	5dcc63f1 	.word	0x5dcc63f1
 800199c:	3fb7c84b 	.word	0x3fb7c84b
 80019a0:	00000000 	.word	0x00000000
 80019a4:	40f51800 	.word	0x40f51800
 80019a8:	05b05b06 	.word	0x05b05b06
 80019ac:	3fd1b05b 	.word	0x3fd1b05b
 80019b0:	e7ee7256 	.word	0xe7ee7256
 80019b4:	3ff00b36 	.word	0x3ff00b36
 80019b8:	00000000 	.word	0x00000000
 80019bc:	40768000 	.word	0x40768000
 80019c0:	404e0000 	.word	0x404e0000
 80019c4:	40380000 	.word	0x40380000
 80019c8:	43b68000 	.word	0x43b68000
 80019cc:	40100000 	.word	0x40100000
 80019d0:	3fe00000 	.word	0x3fe00000
 80019d4:	470ead00 	.word	0x470ead00
 80019d8:	40768000 	.word	0x40768000
 80019dc:	43b40000 	.word	0x43b40000
	}

	float fechaEpoch = Ezero + horaUniv/24.0;
 80019e0:	f8d7 00a0 	ldr.w	r0, [r7, #160]	; 0xa0
 80019e4:	f7fe fdb8 	bl	8000558 <__aeabi_f2d>
 80019e8:	4604      	mov	r4, r0
 80019ea:	460d      	mov	r5, r1
 80019ec:	f8d7 00ac 	ldr.w	r0, [r7, #172]	; 0xac
 80019f0:	f7fe fdb2 	bl	8000558 <__aeabi_f2d>
 80019f4:	f04f 0200 	mov.w	r2, #0
 80019f8:	4bdd      	ldr	r3, [pc, #884]	; (8001d70 <ephemeritas+0x800>)
 80019fa:	f7fe ff2f 	bl	800085c <__aeabi_ddiv>
 80019fe:	4602      	mov	r2, r0
 8001a00:	460b      	mov	r3, r1
 8001a02:	4620      	mov	r0, r4
 8001a04:	4629      	mov	r1, r5
 8001a06:	f7fe fc49 	bl	800029c <__adddf3>
 8001a0a:	4602      	mov	r2, r0
 8001a0c:	460b      	mov	r3, r1
 8001a0e:	4610      	mov	r0, r2
 8001a10:	4619      	mov	r1, r3
 8001a12:	f7ff f8f1 	bl	8000bf8 <__aeabi_d2f>
 8001a16:	4603      	mov	r3, r0
 8001a18:	f8c7 3090 	str.w	r3, [r7, #144]	; 0x90
	float T1 = fechaEpoch / 36525.0; //siglo julian de la epochDate
 8001a1c:	ed97 7a24 	vldr	s14, [r7, #144]	; 0x90
 8001a20:	eddf 6ad4 	vldr	s13, [pc, #848]	; 8001d74 <ephemeritas+0x804>
 8001a24:	eec7 7a26 	vdiv.f32	s15, s14, s13
 8001a28:	edc7 7a23 	vstr	s15, [r7, #140]	; 0x8c
	float oblicuidad = Dec2Rad(23.452294 - 0.0130125 * T1 - 0.00000164 * pow(T1,2) + 0.000000503 * pow(T1,3)); //Calculo oblicuidad de la eclíptica
 8001a2c:	f8d7 008c 	ldr.w	r0, [r7, #140]	; 0x8c
 8001a30:	f7fe fd92 	bl	8000558 <__aeabi_f2d>
 8001a34:	a3ac      	add	r3, pc, #688	; (adr r3, 8001ce8 <ephemeritas+0x778>)
 8001a36:	e9d3 2300 	ldrd	r2, r3, [r3]
 8001a3a:	f7fe fde5 	bl	8000608 <__aeabi_dmul>
 8001a3e:	4602      	mov	r2, r0
 8001a40:	460b      	mov	r3, r1
 8001a42:	a1ab      	add	r1, pc, #684	; (adr r1, 8001cf0 <ephemeritas+0x780>)
 8001a44:	e9d1 0100 	ldrd	r0, r1, [r1]
 8001a48:	f7fe fc26 	bl	8000298 <__aeabi_dsub>
 8001a4c:	4602      	mov	r2, r0
 8001a4e:	460b      	mov	r3, r1
 8001a50:	4614      	mov	r4, r2
 8001a52:	461d      	mov	r5, r3
 8001a54:	f8d7 008c 	ldr.w	r0, [r7, #140]	; 0x8c
 8001a58:	f7fe fd7e 	bl	8000558 <__aeabi_f2d>
 8001a5c:	4602      	mov	r2, r0
 8001a5e:	460b      	mov	r3, r1
 8001a60:	ed9f 1ba5 	vldr	d1, [pc, #660]	; 8001cf8 <ephemeritas+0x788>
 8001a64:	ec43 2b10 	vmov	d0, r2, r3
 8001a68:	f00e fac2 	bl	800fff0 <pow>
 8001a6c:	ec51 0b10 	vmov	r0, r1, d0
 8001a70:	a3a3      	add	r3, pc, #652	; (adr r3, 8001d00 <ephemeritas+0x790>)
 8001a72:	e9d3 2300 	ldrd	r2, r3, [r3]
 8001a76:	f7fe fdc7 	bl	8000608 <__aeabi_dmul>
 8001a7a:	4602      	mov	r2, r0
 8001a7c:	460b      	mov	r3, r1
 8001a7e:	4620      	mov	r0, r4
 8001a80:	4629      	mov	r1, r5
 8001a82:	f7fe fc09 	bl	8000298 <__aeabi_dsub>
 8001a86:	4602      	mov	r2, r0
 8001a88:	460b      	mov	r3, r1
 8001a8a:	4614      	mov	r4, r2
 8001a8c:	461d      	mov	r5, r3
 8001a8e:	f8d7 008c 	ldr.w	r0, [r7, #140]	; 0x8c
 8001a92:	f7fe fd61 	bl	8000558 <__aeabi_f2d>
 8001a96:	4602      	mov	r2, r0
 8001a98:	460b      	mov	r3, r1
 8001a9a:	ed9f 1b9b 	vldr	d1, [pc, #620]	; 8001d08 <ephemeritas+0x798>
 8001a9e:	ec43 2b10 	vmov	d0, r2, r3
 8001aa2:	f00e faa5 	bl	800fff0 <pow>
 8001aa6:	ec51 0b10 	vmov	r0, r1, d0
 8001aaa:	a399      	add	r3, pc, #612	; (adr r3, 8001d10 <ephemeritas+0x7a0>)
 8001aac:	e9d3 2300 	ldrd	r2, r3, [r3]
 8001ab0:	f7fe fdaa 	bl	8000608 <__aeabi_dmul>
 8001ab4:	4602      	mov	r2, r0
 8001ab6:	460b      	mov	r3, r1
 8001ab8:	4620      	mov	r0, r4
 8001aba:	4629      	mov	r1, r5
 8001abc:	f7fe fbee 	bl	800029c <__adddf3>
 8001ac0:	4602      	mov	r2, r0
 8001ac2:	460b      	mov	r3, r1
 8001ac4:	4610      	mov	r0, r2
 8001ac6:	4619      	mov	r1, r3
 8001ac8:	f7ff f896 	bl	8000bf8 <__aeabi_d2f>
 8001acc:	4603      	mov	r3, r0
 8001ace:	ee00 3a10 	vmov	s0, r3
 8001ad2:	f7ff fcd1 	bl	8001478 <Dec2Rad>
 8001ad6:	ed87 0a22 	vstr	s0, [r7, #136]	; 0x88
	float perigeo = 281.22083 + 0.0000470684 * fechaEpoch + 0.000453 * pow(T1,2) + 0.000003 * pow(T1,3); //cálculo perigeo del sol
 8001ada:	f8d7 0090 	ldr.w	r0, [r7, #144]	; 0x90
 8001ade:	f7fe fd3b 	bl	8000558 <__aeabi_f2d>
 8001ae2:	a38d      	add	r3, pc, #564	; (adr r3, 8001d18 <ephemeritas+0x7a8>)
 8001ae4:	e9d3 2300 	ldrd	r2, r3, [r3]
 8001ae8:	f7fe fd8e 	bl	8000608 <__aeabi_dmul>
 8001aec:	4602      	mov	r2, r0
 8001aee:	460b      	mov	r3, r1
 8001af0:	4610      	mov	r0, r2
 8001af2:	4619      	mov	r1, r3
 8001af4:	a38a      	add	r3, pc, #552	; (adr r3, 8001d20 <ephemeritas+0x7b0>)
 8001af6:	e9d3 2300 	ldrd	r2, r3, [r3]
 8001afa:	f7fe fbcf 	bl	800029c <__adddf3>
 8001afe:	4602      	mov	r2, r0
 8001b00:	460b      	mov	r3, r1
 8001b02:	4614      	mov	r4, r2
 8001b04:	461d      	mov	r5, r3
 8001b06:	f8d7 008c 	ldr.w	r0, [r7, #140]	; 0x8c
 8001b0a:	f7fe fd25 	bl	8000558 <__aeabi_f2d>
 8001b0e:	4602      	mov	r2, r0
 8001b10:	460b      	mov	r3, r1
 8001b12:	ed9f 1b79 	vldr	d1, [pc, #484]	; 8001cf8 <ephemeritas+0x788>
 8001b16:	ec43 2b10 	vmov	d0, r2, r3
 8001b1a:	f00e fa69 	bl	800fff0 <pow>
 8001b1e:	ec51 0b10 	vmov	r0, r1, d0
 8001b22:	a381      	add	r3, pc, #516	; (adr r3, 8001d28 <ephemeritas+0x7b8>)
 8001b24:	e9d3 2300 	ldrd	r2, r3, [r3]
 8001b28:	f7fe fd6e 	bl	8000608 <__aeabi_dmul>
 8001b2c:	4602      	mov	r2, r0
 8001b2e:	460b      	mov	r3, r1
 8001b30:	4620      	mov	r0, r4
 8001b32:	4629      	mov	r1, r5
 8001b34:	f7fe fbb2 	bl	800029c <__adddf3>
 8001b38:	4602      	mov	r2, r0
 8001b3a:	460b      	mov	r3, r1
 8001b3c:	4614      	mov	r4, r2
 8001b3e:	461d      	mov	r5, r3
 8001b40:	f8d7 008c 	ldr.w	r0, [r7, #140]	; 0x8c
 8001b44:	f7fe fd08 	bl	8000558 <__aeabi_f2d>
 8001b48:	4602      	mov	r2, r0
 8001b4a:	460b      	mov	r3, r1
 8001b4c:	ed9f 1b6e 	vldr	d1, [pc, #440]	; 8001d08 <ephemeritas+0x798>
 8001b50:	ec43 2b10 	vmov	d0, r2, r3
 8001b54:	f00e fa4c 	bl	800fff0 <pow>
 8001b58:	ec51 0b10 	vmov	r0, r1, d0
 8001b5c:	a374      	add	r3, pc, #464	; (adr r3, 8001d30 <ephemeritas+0x7c0>)
 8001b5e:	e9d3 2300 	ldrd	r2, r3, [r3]
 8001b62:	f7fe fd51 	bl	8000608 <__aeabi_dmul>
 8001b66:	4602      	mov	r2, r0
 8001b68:	460b      	mov	r3, r1
 8001b6a:	4620      	mov	r0, r4
 8001b6c:	4629      	mov	r1, r5
 8001b6e:	f7fe fb95 	bl	800029c <__adddf3>
 8001b72:	4602      	mov	r2, r0
 8001b74:	460b      	mov	r3, r1
 8001b76:	4610      	mov	r0, r2
 8001b78:	4619      	mov	r1, r3
 8001b7a:	f7ff f83d 	bl	8000bf8 <__aeabi_d2f>
 8001b7e:	4603      	mov	r3, r0
 8001b80:	f8c7 3084 	str.w	r3, [r7, #132]	; 0x84
	float meanSolarAnomaly = fmod((358.47583 + 0.985600267 * fechaEpoch - 0.00015 * pow(T1,2) - 0.000003 * pow(T1,3)), 360); //ángulo solar anomaly
 8001b84:	f8d7 0090 	ldr.w	r0, [r7, #144]	; 0x90
 8001b88:	f7fe fce6 	bl	8000558 <__aeabi_f2d>
 8001b8c:	a36a      	add	r3, pc, #424	; (adr r3, 8001d38 <ephemeritas+0x7c8>)
 8001b8e:	e9d3 2300 	ldrd	r2, r3, [r3]
 8001b92:	f7fe fd39 	bl	8000608 <__aeabi_dmul>
 8001b96:	4602      	mov	r2, r0
 8001b98:	460b      	mov	r3, r1
 8001b9a:	4610      	mov	r0, r2
 8001b9c:	4619      	mov	r1, r3
 8001b9e:	a368      	add	r3, pc, #416	; (adr r3, 8001d40 <ephemeritas+0x7d0>)
 8001ba0:	e9d3 2300 	ldrd	r2, r3, [r3]
 8001ba4:	f7fe fb7a 	bl	800029c <__adddf3>
 8001ba8:	4602      	mov	r2, r0
 8001baa:	460b      	mov	r3, r1
 8001bac:	4614      	mov	r4, r2
 8001bae:	461d      	mov	r5, r3
 8001bb0:	f8d7 008c 	ldr.w	r0, [r7, #140]	; 0x8c
 8001bb4:	f7fe fcd0 	bl	8000558 <__aeabi_f2d>
 8001bb8:	4602      	mov	r2, r0
 8001bba:	460b      	mov	r3, r1
 8001bbc:	ed9f 1b4e 	vldr	d1, [pc, #312]	; 8001cf8 <ephemeritas+0x788>
 8001bc0:	ec43 2b10 	vmov	d0, r2, r3
 8001bc4:	f00e fa14 	bl	800fff0 <pow>
 8001bc8:	ec51 0b10 	vmov	r0, r1, d0
 8001bcc:	a35e      	add	r3, pc, #376	; (adr r3, 8001d48 <ephemeritas+0x7d8>)
 8001bce:	e9d3 2300 	ldrd	r2, r3, [r3]
 8001bd2:	f7fe fd19 	bl	8000608 <__aeabi_dmul>
 8001bd6:	4602      	mov	r2, r0
 8001bd8:	460b      	mov	r3, r1
 8001bda:	4620      	mov	r0, r4
 8001bdc:	4629      	mov	r1, r5
 8001bde:	f7fe fb5b 	bl	8000298 <__aeabi_dsub>
 8001be2:	4602      	mov	r2, r0
 8001be4:	460b      	mov	r3, r1
 8001be6:	4614      	mov	r4, r2
 8001be8:	461d      	mov	r5, r3
 8001bea:	f8d7 008c 	ldr.w	r0, [r7, #140]	; 0x8c
 8001bee:	f7fe fcb3 	bl	8000558 <__aeabi_f2d>
 8001bf2:	4602      	mov	r2, r0
 8001bf4:	460b      	mov	r3, r1
 8001bf6:	ed9f 1b44 	vldr	d1, [pc, #272]	; 8001d08 <ephemeritas+0x798>
 8001bfa:	ec43 2b10 	vmov	d0, r2, r3
 8001bfe:	f00e f9f7 	bl	800fff0 <pow>
 8001c02:	ec51 0b10 	vmov	r0, r1, d0
 8001c06:	a34a      	add	r3, pc, #296	; (adr r3, 8001d30 <ephemeritas+0x7c0>)
 8001c08:	e9d3 2300 	ldrd	r2, r3, [r3]
 8001c0c:	f7fe fcfc 	bl	8000608 <__aeabi_dmul>
 8001c10:	4602      	mov	r2, r0
 8001c12:	460b      	mov	r3, r1
 8001c14:	4620      	mov	r0, r4
 8001c16:	4629      	mov	r1, r5
 8001c18:	f7fe fb3e 	bl	8000298 <__aeabi_dsub>
 8001c1c:	4602      	mov	r2, r0
 8001c1e:	460b      	mov	r3, r1
 8001c20:	ec43 2b17 	vmov	d7, r2, r3
 8001c24:	ed9f 1b4a 	vldr	d1, [pc, #296]	; 8001d50 <ephemeritas+0x7e0>
 8001c28:	eeb0 0a47 	vmov.f32	s0, s14
 8001c2c:	eef0 0a67 	vmov.f32	s1, s15
 8001c30:	f00e f9b0 	bl	800ff94 <fmod>
 8001c34:	ec53 2b10 	vmov	r2, r3, d0
 8001c38:	4610      	mov	r0, r2
 8001c3a:	4619      	mov	r1, r3
 8001c3c:	f7fe ffdc 	bl	8000bf8 <__aeabi_d2f>
 8001c40:	4603      	mov	r3, r0
 8001c42:	f8c7 30e0 	str.w	r3, [r7, #224]	; 0xe0

	if(meanSolarAnomaly < 0){ //corrección necesaria ya que fmod en c y en matlab no trabajan igual con numeros negativos
 8001c46:	edd7 7a38 	vldr	s15, [r7, #224]	; 0xe0
 8001c4a:	eef5 7ac0 	vcmpe.f32	s15, #0.0
 8001c4e:	eef1 fa10 	vmrs	APSR_nzcv, fpscr
 8001c52:	d507      	bpl.n	8001c64 <ephemeritas+0x6f4>
		meanSolarAnomaly = 360 - meanSolarAnomaly;
 8001c54:	ed9f 7a48 	vldr	s14, [pc, #288]	; 8001d78 <ephemeritas+0x808>
 8001c58:	edd7 7a38 	vldr	s15, [r7, #224]	; 0xe0
 8001c5c:	ee77 7a67 	vsub.f32	s15, s14, s15
 8001c60:	edc7 7a38 	vstr	s15, [r7, #224]	; 0xe0
	}

	float excentricidad = 0.01675104 - 0.0000418 * T1 - 0.000000126 * pow(T1,2);
 8001c64:	f8d7 008c 	ldr.w	r0, [r7, #140]	; 0x8c
 8001c68:	f7fe fc76 	bl	8000558 <__aeabi_f2d>
 8001c6c:	a33a      	add	r3, pc, #232	; (adr r3, 8001d58 <ephemeritas+0x7e8>)
 8001c6e:	e9d3 2300 	ldrd	r2, r3, [r3]
 8001c72:	f7fe fcc9 	bl	8000608 <__aeabi_dmul>
 8001c76:	4602      	mov	r2, r0
 8001c78:	460b      	mov	r3, r1
 8001c7a:	a139      	add	r1, pc, #228	; (adr r1, 8001d60 <ephemeritas+0x7f0>)
 8001c7c:	e9d1 0100 	ldrd	r0, r1, [r1]
 8001c80:	f7fe fb0a 	bl	8000298 <__aeabi_dsub>
 8001c84:	4602      	mov	r2, r0
 8001c86:	460b      	mov	r3, r1
 8001c88:	4614      	mov	r4, r2
 8001c8a:	461d      	mov	r5, r3
 8001c8c:	f8d7 008c 	ldr.w	r0, [r7, #140]	; 0x8c
 8001c90:	f7fe fc62 	bl	8000558 <__aeabi_f2d>
 8001c94:	4602      	mov	r2, r0
 8001c96:	460b      	mov	r3, r1
 8001c98:	ed9f 1b17 	vldr	d1, [pc, #92]	; 8001cf8 <ephemeritas+0x788>
 8001c9c:	ec43 2b10 	vmov	d0, r2, r3
 8001ca0:	f00e f9a6 	bl	800fff0 <pow>
 8001ca4:	ec51 0b10 	vmov	r0, r1, d0
 8001ca8:	a32f      	add	r3, pc, #188	; (adr r3, 8001d68 <ephemeritas+0x7f8>)
 8001caa:	e9d3 2300 	ldrd	r2, r3, [r3]
 8001cae:	f7fe fcab 	bl	8000608 <__aeabi_dmul>
 8001cb2:	4602      	mov	r2, r0
 8001cb4:	460b      	mov	r3, r1
 8001cb6:	4620      	mov	r0, r4
 8001cb8:	4629      	mov	r1, r5
 8001cba:	f7fe faed 	bl	8000298 <__aeabi_dsub>
 8001cbe:	4602      	mov	r2, r0
 8001cc0:	460b      	mov	r3, r1
 8001cc2:	4610      	mov	r0, r2
 8001cc4:	4619      	mov	r1, r3
 8001cc6:	f7fe ff97 	bl	8000bf8 <__aeabi_d2f>
 8001cca:	4603      	mov	r3, r0
 8001ccc:	f8c7 3080 	str.w	r3, [r7, #128]	; 0x80
	float ExcentAnom = meanSolarAnomaly;
 8001cd0:	f8d7 30e0 	ldr.w	r3, [r7, #224]	; 0xe0
 8001cd4:	f8c7 30dc 	str.w	r3, [r7, #220]	; 0xdc
	float E = 0;
 8001cd8:	f04f 0300 	mov.w	r3, #0
 8001cdc:	f8c7 30d8 	str.w	r3, [r7, #216]	; 0xd8

	while(fabs(ExcentAnom - E) > 0.0001){
 8001ce0:	e07e      	b.n	8001de0 <ephemeritas+0x870>
 8001ce2:	bf00      	nop
 8001ce4:	f3af 8000 	nop.w
 8001ce8:	2f837b4a 	.word	0x2f837b4a
 8001cec:	3f8aa64c 	.word	0x3f8aa64c
 8001cf0:	8a222d51 	.word	0x8a222d51
 8001cf4:	403773c9 	.word	0x403773c9
 8001cf8:	00000000 	.word	0x00000000
 8001cfc:	40000000 	.word	0x40000000
 8001d00:	11ce33aa 	.word	0x11ce33aa
 8001d04:	3ebb83bf 	.word	0x3ebb83bf
 8001d08:	00000000 	.word	0x00000000
 8001d0c:	40080000 	.word	0x40080000
 8001d10:	b29227cf 	.word	0xb29227cf
 8001d14:	3ea0e0bc 	.word	0x3ea0e0bc
 8001d18:	e8ce7675 	.word	0xe8ce7675
 8001d1c:	3f08ad69 	.word	0x3f08ad69
 8001d20:	8509bf9c 	.word	0x8509bf9c
 8001d24:	40719388 	.word	0x40719388
 8001d28:	2f61ed5b 	.word	0x2f61ed5b
 8001d2c:	3f3db014 	.word	0x3f3db014
 8001d30:	7110e454 	.word	0x7110e454
 8001d34:	3ec92a73 	.word	0x3ec92a73
 8001d38:	9236342b 	.word	0x9236342b
 8001d3c:	3fef8a09 	.word	0x3fef8a09
 8001d40:	ffeb074a 	.word	0xffeb074a
 8001d44:	4076679c 	.word	0x4076679c
 8001d48:	30553261 	.word	0x30553261
 8001d4c:	3f23a92a 	.word	0x3f23a92a
 8001d50:	00000000 	.word	0x00000000
 8001d54:	40768000 	.word	0x40768000
 8001d58:	10540b1a 	.word	0x10540b1a
 8001d5c:	3f05ea4d 	.word	0x3f05ea4d
 8001d60:	43e55d11 	.word	0x43e55d11
 8001d64:	3f91272f 	.word	0x3f91272f
 8001d68:	b8863b3a 	.word	0xb8863b3a
 8001d6c:	3e80e953 	.word	0x3e80e953
 8001d70:	40380000 	.word	0x40380000
 8001d74:	470ead00 	.word	0x470ead00
 8001d78:	43b40000 	.word	0x43b40000
		E = ExcentAnom;
 8001d7c:	f8d7 30dc 	ldr.w	r3, [r7, #220]	; 0xdc
 8001d80:	f8c7 30d8 	str.w	r3, [r7, #216]	; 0xd8
		ExcentAnom = meanSolarAnomaly + Rad2Dec(excentricidad*sin(Dec2Rad(E)));
 8001d84:	f8d7 0080 	ldr.w	r0, [r7, #128]	; 0x80
 8001d88:	f7fe fbe6 	bl	8000558 <__aeabi_f2d>
 8001d8c:	4604      	mov	r4, r0
 8001d8e:	460d      	mov	r5, r1
 8001d90:	ed97 0a36 	vldr	s0, [r7, #216]	; 0xd8
 8001d94:	f7ff fb70 	bl	8001478 <Dec2Rad>
 8001d98:	ee10 3a10 	vmov	r3, s0
 8001d9c:	4618      	mov	r0, r3
 8001d9e:	f7fe fbdb 	bl	8000558 <__aeabi_f2d>
 8001da2:	4602      	mov	r2, r0
 8001da4:	460b      	mov	r3, r1
 8001da6:	ec43 2b10 	vmov	d0, r2, r3
 8001daa:	f00d fffd 	bl	800fda8 <sin>
 8001dae:	ec53 2b10 	vmov	r2, r3, d0
 8001db2:	4620      	mov	r0, r4
 8001db4:	4629      	mov	r1, r5
 8001db6:	f7fe fc27 	bl	8000608 <__aeabi_dmul>
 8001dba:	4602      	mov	r2, r0
 8001dbc:	460b      	mov	r3, r1
 8001dbe:	4610      	mov	r0, r2
 8001dc0:	4619      	mov	r1, r3
 8001dc2:	f7fe ff19 	bl	8000bf8 <__aeabi_d2f>
 8001dc6:	4603      	mov	r3, r0
 8001dc8:	ee00 3a10 	vmov	s0, r3
 8001dcc:	f7ff fb80 	bl	80014d0 <Rad2Dec>
 8001dd0:	eeb0 7a40 	vmov.f32	s14, s0
 8001dd4:	edd7 7a38 	vldr	s15, [r7, #224]	; 0xe0
 8001dd8:	ee77 7a87 	vadd.f32	s15, s15, s14
 8001ddc:	edc7 7a37 	vstr	s15, [r7, #220]	; 0xdc
	while(fabs(ExcentAnom - E) > 0.0001){
 8001de0:	ed97 7a37 	vldr	s14, [r7, #220]	; 0xdc
 8001de4:	edd7 7a36 	vldr	s15, [r7, #216]	; 0xd8
 8001de8:	ee77 7a67 	vsub.f32	s15, s14, s15
 8001dec:	eef0 7ae7 	vabs.f32	s15, s15
 8001df0:	ee17 0a90 	vmov	r0, s15
 8001df4:	f7fe fbb0 	bl	8000558 <__aeabi_f2d>
 8001df8:	a3ef      	add	r3, pc, #956	; (adr r3, 80021b8 <ephemeritas+0xc48>)
 8001dfa:	e9d3 2300 	ldrd	r2, r3, [r3]
 8001dfe:	f7fe fe93 	bl	8000b28 <__aeabi_dcmpgt>
 8001e02:	4603      	mov	r3, r0
 8001e04:	2b00      	cmp	r3, #0
 8001e06:	d1b9      	bne.n	8001d7c <ephemeritas+0x80c>
	}

	float anomVerdadera = 2 * fmod(Rad2Dec(atan2(pow(((1 + excentricidad) / (1 - excentricidad)), 0.5) * tan(Dec2Rad(ExcentAnom / 2)), 1)), 360) ;
 8001e08:	edd7 7a20 	vldr	s15, [r7, #128]	; 0x80
 8001e0c:	eeb7 7a00 	vmov.f32	s14, #112	; 0x3f800000  1.0
 8001e10:	ee37 7a87 	vadd.f32	s14, s15, s14
 8001e14:	eef7 6a00 	vmov.f32	s13, #112	; 0x3f800000  1.0
 8001e18:	edd7 7a20 	vldr	s15, [r7, #128]	; 0x80
 8001e1c:	ee76 7ae7 	vsub.f32	s15, s13, s15
 8001e20:	eec7 6a27 	vdiv.f32	s13, s14, s15
 8001e24:	ee16 0a90 	vmov	r0, s13
 8001e28:	f7fe fb96 	bl	8000558 <__aeabi_f2d>
 8001e2c:	4602      	mov	r2, r0
 8001e2e:	460b      	mov	r3, r1
 8001e30:	ed9f 1bd9 	vldr	d1, [pc, #868]	; 8002198 <ephemeritas+0xc28>
 8001e34:	ec43 2b10 	vmov	d0, r2, r3
 8001e38:	f00e f8da 	bl	800fff0 <pow>
 8001e3c:	ec55 4b10 	vmov	r4, r5, d0
 8001e40:	edd7 7a37 	vldr	s15, [r7, #220]	; 0xdc
 8001e44:	eef0 6a00 	vmov.f32	s13, #0	; 0x40000000  2.0
 8001e48:	ee87 7aa6 	vdiv.f32	s14, s15, s13
 8001e4c:	eeb0 0a47 	vmov.f32	s0, s14
 8001e50:	f7ff fb12 	bl	8001478 <Dec2Rad>
 8001e54:	ee10 3a10 	vmov	r3, s0
 8001e58:	4618      	mov	r0, r3
 8001e5a:	f7fe fb7d 	bl	8000558 <__aeabi_f2d>
 8001e5e:	4602      	mov	r2, r0
 8001e60:	460b      	mov	r3, r1
 8001e62:	ec43 2b10 	vmov	d0, r2, r3
 8001e66:	f00d fff7 	bl	800fe58 <tan>
 8001e6a:	ec53 2b10 	vmov	r2, r3, d0
 8001e6e:	4620      	mov	r0, r4
 8001e70:	4629      	mov	r1, r5
 8001e72:	f7fe fbc9 	bl	8000608 <__aeabi_dmul>
 8001e76:	4602      	mov	r2, r0
 8001e78:	460b      	mov	r3, r1
 8001e7a:	ec43 2b17 	vmov	d7, r2, r3
 8001e7e:	ed9f 1bc8 	vldr	d1, [pc, #800]	; 80021a0 <ephemeritas+0xc30>
 8001e82:	eeb0 0a47 	vmov.f32	s0, s14
 8001e86:	eef0 0a67 	vmov.f32	s1, s15
 8001e8a:	f00e f881 	bl	800ff90 <atan2>
 8001e8e:	ec53 2b10 	vmov	r2, r3, d0
 8001e92:	4610      	mov	r0, r2
 8001e94:	4619      	mov	r1, r3
 8001e96:	f7fe feaf 	bl	8000bf8 <__aeabi_d2f>
 8001e9a:	4603      	mov	r3, r0
 8001e9c:	ee00 3a10 	vmov	s0, r3
 8001ea0:	f7ff fb16 	bl	80014d0 <Rad2Dec>
 8001ea4:	ee10 3a10 	vmov	r3, s0
 8001ea8:	4618      	mov	r0, r3
 8001eaa:	f7fe fb55 	bl	8000558 <__aeabi_f2d>
 8001eae:	4602      	mov	r2, r0
 8001eb0:	460b      	mov	r3, r1
 8001eb2:	ed9f 1bbd 	vldr	d1, [pc, #756]	; 80021a8 <ephemeritas+0xc38>
 8001eb6:	ec43 2b10 	vmov	d0, r2, r3
 8001eba:	f00e f86b 	bl	800ff94 <fmod>
 8001ebe:	ec51 0b10 	vmov	r0, r1, d0
 8001ec2:	4602      	mov	r2, r0
 8001ec4:	460b      	mov	r3, r1
 8001ec6:	f7fe f9e9 	bl	800029c <__adddf3>
 8001eca:	4602      	mov	r2, r0
 8001ecc:	460b      	mov	r3, r1
 8001ece:	4610      	mov	r0, r2
 8001ed0:	4619      	mov	r1, r3
 8001ed2:	f7fe fe91 	bl	8000bf8 <__aeabi_d2f>
 8001ed6:	4603      	mov	r3, r0
 8001ed8:	f8c7 30d4 	str.w	r3, [r7, #212]	; 0xd4

	if(anomVerdadera < 0){ //corrección necesaria ya que fmod en c y en matlab no trabajan igual con numeros negativos
 8001edc:	edd7 7a35 	vldr	s15, [r7, #212]	; 0xd4
 8001ee0:	eef5 7ac0 	vcmpe.f32	s15, #0.0
 8001ee4:	eef1 fa10 	vmrs	APSR_nzcv, fpscr
 8001ee8:	d507      	bpl.n	8001efa <ephemeritas+0x98a>
		anomVerdadera = 2*360 + anomVerdadera;
 8001eea:	edd7 7a35 	vldr	s15, [r7, #212]	; 0xd4
 8001eee:	ed9f 7ab0 	vldr	s14, [pc, #704]	; 80021b0 <ephemeritas+0xc40>
 8001ef2:	ee77 7a87 	vadd.f32	s15, s15, s14
 8001ef6:	edc7 7a35 	vstr	s15, [r7, #212]	; 0xd4
	}

	float Abber = 20/3600.0;
 8001efa:	4bae      	ldr	r3, [pc, #696]	; (80021b4 <ephemeritas+0xc44>)
 8001efc:	67fb      	str	r3, [r7, #124]	; 0x7c
	float ExLon = fmod(perigeo + anomVerdadera, 360) - Abber;
 8001efe:	ed97 7a21 	vldr	s14, [r7, #132]	; 0x84
 8001f02:	edd7 7a35 	vldr	s15, [r7, #212]	; 0xd4
 8001f06:	ee77 7a27 	vadd.f32	s15, s14, s15
 8001f0a:	ee17 0a90 	vmov	r0, s15
 8001f0e:	f7fe fb23 	bl	8000558 <__aeabi_f2d>
 8001f12:	4602      	mov	r2, r0
 8001f14:	460b      	mov	r3, r1
 8001f16:	ed9f 1ba4 	vldr	d1, [pc, #656]	; 80021a8 <ephemeritas+0xc38>
 8001f1a:	ec43 2b10 	vmov	d0, r2, r3
 8001f1e:	f00e f839 	bl	800ff94 <fmod>
 8001f22:	ec55 4b10 	vmov	r4, r5, d0
 8001f26:	6ff8      	ldr	r0, [r7, #124]	; 0x7c
 8001f28:	f7fe fb16 	bl	8000558 <__aeabi_f2d>
 8001f2c:	4602      	mov	r2, r0
 8001f2e:	460b      	mov	r3, r1
 8001f30:	4620      	mov	r0, r4
 8001f32:	4629      	mov	r1, r5
 8001f34:	f7fe f9b0 	bl	8000298 <__aeabi_dsub>
 8001f38:	4602      	mov	r2, r0
 8001f3a:	460b      	mov	r3, r1
 8001f3c:	4610      	mov	r0, r2
 8001f3e:	4619      	mov	r1, r3
 8001f40:	f7fe fe5a 	bl	8000bf8 <__aeabi_d2f>
 8001f44:	4603      	mov	r3, r0
 8001f46:	67bb      	str	r3, [r7, #120]	; 0x78
	float ExLon_Rad = Dec2Rad(ExLon);
 8001f48:	ed97 0a1e 	vldr	s0, [r7, #120]	; 0x78
 8001f4c:	f7ff fa94 	bl	8001478 <Dec2Rad>
 8001f50:	ed87 0a1d 	vstr	s0, [r7, #116]	; 0x74
	float Dec_Rad = asin(sin(oblicuidad) * sin(ExLon_Rad));
 8001f54:	f8d7 0088 	ldr.w	r0, [r7, #136]	; 0x88
 8001f58:	f7fe fafe 	bl	8000558 <__aeabi_f2d>
 8001f5c:	4602      	mov	r2, r0
 8001f5e:	460b      	mov	r3, r1
 8001f60:	ec43 2b10 	vmov	d0, r2, r3
 8001f64:	f00d ff20 	bl	800fda8 <sin>
 8001f68:	ec55 4b10 	vmov	r4, r5, d0
 8001f6c:	6f78      	ldr	r0, [r7, #116]	; 0x74
 8001f6e:	f7fe faf3 	bl	8000558 <__aeabi_f2d>
 8001f72:	4602      	mov	r2, r0
 8001f74:	460b      	mov	r3, r1
 8001f76:	ec43 2b10 	vmov	d0, r2, r3
 8001f7a:	f00d ff15 	bl	800fda8 <sin>
 8001f7e:	ec53 2b10 	vmov	r2, r3, d0
 8001f82:	4620      	mov	r0, r4
 8001f84:	4629      	mov	r1, r5
 8001f86:	f7fe fb3f 	bl	8000608 <__aeabi_dmul>
 8001f8a:	4602      	mov	r2, r0
 8001f8c:	460b      	mov	r3, r1
 8001f8e:	ec43 2b17 	vmov	d7, r2, r3
 8001f92:	eeb0 0a47 	vmov.f32	s0, s14
 8001f96:	eef0 0a67 	vmov.f32	s1, s15
 8001f9a:	f00d ffc5 	bl	800ff28 <asin>
 8001f9e:	ec53 2b10 	vmov	r2, r3, d0
 8001fa2:	4610      	mov	r0, r2
 8001fa4:	4619      	mov	r1, r3
 8001fa6:	f7fe fe27 	bl	8000bf8 <__aeabi_d2f>
 8001faa:	4603      	mov	r3, r0
 8001fac:	673b      	str	r3, [r7, #112]	; 0x70
	float Dec = Rad2Dec(Dec_Rad);
 8001fae:	ed97 0a1c 	vldr	s0, [r7, #112]	; 0x70
 8001fb2:	f7ff fa8d 	bl	80014d0 <Rad2Dec>
 8001fb6:	ed87 0a1b 	vstr	s0, [r7, #108]	; 0x6c
	float RtAscen = Rad2Dec(atan2(cos(oblicuidad) * sin(ExLon_Rad), cos(ExLon_Rad)));
 8001fba:	f8d7 0088 	ldr.w	r0, [r7, #136]	; 0x88
 8001fbe:	f7fe facb 	bl	8000558 <__aeabi_f2d>
 8001fc2:	4602      	mov	r2, r0
 8001fc4:	460b      	mov	r3, r1
 8001fc6:	ec43 2b10 	vmov	d0, r2, r3
 8001fca:	f00d fe0d 	bl	800fbe8 <cos>
 8001fce:	ec55 4b10 	vmov	r4, r5, d0
 8001fd2:	6f78      	ldr	r0, [r7, #116]	; 0x74
 8001fd4:	f7fe fac0 	bl	8000558 <__aeabi_f2d>
 8001fd8:	4602      	mov	r2, r0
 8001fda:	460b      	mov	r3, r1
 8001fdc:	ec43 2b10 	vmov	d0, r2, r3
 8001fe0:	f00d fee2 	bl	800fda8 <sin>
 8001fe4:	ec53 2b10 	vmov	r2, r3, d0
 8001fe8:	4620      	mov	r0, r4
 8001fea:	4629      	mov	r1, r5
 8001fec:	f7fe fb0c 	bl	8000608 <__aeabi_dmul>
 8001ff0:	4602      	mov	r2, r0
 8001ff2:	460b      	mov	r3, r1
 8001ff4:	ec43 2b18 	vmov	d8, r2, r3
 8001ff8:	6f78      	ldr	r0, [r7, #116]	; 0x74
 8001ffa:	f7fe faad 	bl	8000558 <__aeabi_f2d>
 8001ffe:	4602      	mov	r2, r0
 8002000:	460b      	mov	r3, r1
 8002002:	ec43 2b10 	vmov	d0, r2, r3
 8002006:	f00d fdef 	bl	800fbe8 <cos>
 800200a:	eeb0 7a40 	vmov.f32	s14, s0
 800200e:	eef0 7a60 	vmov.f32	s15, s1
 8002012:	eeb0 1a47 	vmov.f32	s2, s14
 8002016:	eef0 1a67 	vmov.f32	s3, s15
 800201a:	eeb0 0a48 	vmov.f32	s0, s16
 800201e:	eef0 0a68 	vmov.f32	s1, s17
 8002022:	f00d ffb5 	bl	800ff90 <atan2>
 8002026:	ec53 2b10 	vmov	r2, r3, d0
 800202a:	4610      	mov	r0, r2
 800202c:	4619      	mov	r1, r3
 800202e:	f7fe fde3 	bl	8000bf8 <__aeabi_d2f>
 8002032:	4603      	mov	r3, r0
 8002034:	ee00 3a10 	vmov	s0, r3
 8002038:	f7ff fa4a 	bl	80014d0 <Rad2Dec>
 800203c:	ed87 0a1a 	vstr	s0, [r7, #104]	; 0x68
	float angHora = LAST - RtAscen;
 8002040:	ed97 7a39 	vldr	s14, [r7, #228]	; 0xe4
 8002044:	edd7 7a1a 	vldr	s15, [r7, #104]	; 0x68
 8002048:	ee77 7a67 	vsub.f32	s15, s14, s15
 800204c:	edc7 7a19 	vstr	s15, [r7, #100]	; 0x64
	float angHora_Rad = Dec2Rad(angHora);
 8002050:	ed97 0a19 	vldr	s0, [r7, #100]	; 0x64
 8002054:	f7ff fa10 	bl	8001478 <Dec2Rad>
 8002058:	ed87 0a18 	vstr	s0, [r7, #96]	; 0x60

	angHora = angHora - (360 * sign(angHora) * (fabs(angHora) > 180));
 800205c:	ed97 0a19 	vldr	s0, [r7, #100]	; 0x64
 8002060:	f7ff fa60 	bl	8001524 <sign>
 8002064:	eef0 7a40 	vmov.f32	s15, s0
 8002068:	ed9f 7a56 	vldr	s14, [pc, #344]	; 80021c4 <ephemeritas+0xc54>
 800206c:	ee67 7a87 	vmul.f32	s15, s15, s14
 8002070:	ed97 7a19 	vldr	s14, [r7, #100]	; 0x64
 8002074:	eeb0 7ac7 	vabs.f32	s14, s14
 8002078:	eddf 6a53 	vldr	s13, [pc, #332]	; 80021c8 <ephemeritas+0xc58>
 800207c:	eeb4 7ae6 	vcmpe.f32	s14, s13
 8002080:	eef1 fa10 	vmrs	APSR_nzcv, fpscr
 8002084:	dd02      	ble.n	800208c <ephemeritas+0xb1c>
 8002086:	eeb7 7a00 	vmov.f32	s14, #112	; 0x3f800000  1.0
 800208a:	e001      	b.n	8002090 <ephemeritas+0xb20>
 800208c:	ed9f 7a4c 	vldr	s14, [pc, #304]	; 80021c0 <ephemeritas+0xc50>
 8002090:	ee67 7a27 	vmul.f32	s15, s14, s15
 8002094:	ed97 7a19 	vldr	s14, [r7, #100]	; 0x64
 8002098:	ee77 7a67 	vsub.f32	s15, s14, s15
 800209c:	edc7 7a19 	vstr	s15, [r7, #100]	; 0x64

	float Latitud_Rad = Dec2Rad(local.latitud);
 80020a0:	e9d7 2304 	ldrd	r2, r3, [r7, #16]
 80020a4:	4610      	mov	r0, r2
 80020a6:	4619      	mov	r1, r3
 80020a8:	f7fe fda6 	bl	8000bf8 <__aeabi_d2f>
 80020ac:	4603      	mov	r3, r0
 80020ae:	ee00 3a10 	vmov	s0, r3
 80020b2:	f7ff f9e1 	bl	8001478 <Dec2Rad>
 80020b6:	ed87 0a17 	vstr	s0, [r7, #92]	; 0x5c
	float Azimut_Sol = Rad2Dec(atan2(-1 * sin(angHora_Rad), cos(Latitud_Rad) * tan(Dec_Rad) - sin(Latitud_Rad) * cos(angHora_Rad)));
 80020ba:	6e38      	ldr	r0, [r7, #96]	; 0x60
 80020bc:	f7fe fa4c 	bl	8000558 <__aeabi_f2d>
 80020c0:	4602      	mov	r2, r0
 80020c2:	460b      	mov	r3, r1
 80020c4:	ec43 2b10 	vmov	d0, r2, r3
 80020c8:	f00d fe6e 	bl	800fda8 <sin>
 80020cc:	ec53 2b10 	vmov	r2, r3, d0
 80020d0:	4690      	mov	r8, r2
 80020d2:	f083 4900 	eor.w	r9, r3, #2147483648	; 0x80000000
 80020d6:	6df8      	ldr	r0, [r7, #92]	; 0x5c
 80020d8:	f7fe fa3e 	bl	8000558 <__aeabi_f2d>
 80020dc:	4602      	mov	r2, r0
 80020de:	460b      	mov	r3, r1
 80020e0:	ec43 2b10 	vmov	d0, r2, r3
 80020e4:	f00d fd80 	bl	800fbe8 <cos>
 80020e8:	ec55 4b10 	vmov	r4, r5, d0
 80020ec:	6f38      	ldr	r0, [r7, #112]	; 0x70
 80020ee:	f7fe fa33 	bl	8000558 <__aeabi_f2d>
 80020f2:	4602      	mov	r2, r0
 80020f4:	460b      	mov	r3, r1
 80020f6:	ec43 2b10 	vmov	d0, r2, r3
 80020fa:	f00d fead 	bl	800fe58 <tan>
 80020fe:	ec53 2b10 	vmov	r2, r3, d0
 8002102:	4620      	mov	r0, r4
 8002104:	4629      	mov	r1, r5
 8002106:	f7fe fa7f 	bl	8000608 <__aeabi_dmul>
 800210a:	4602      	mov	r2, r0
 800210c:	460b      	mov	r3, r1
 800210e:	4614      	mov	r4, r2
 8002110:	461d      	mov	r5, r3
 8002112:	6df8      	ldr	r0, [r7, #92]	; 0x5c
 8002114:	f7fe fa20 	bl	8000558 <__aeabi_f2d>
 8002118:	4602      	mov	r2, r0
 800211a:	460b      	mov	r3, r1
 800211c:	ec43 2b10 	vmov	d0, r2, r3
 8002120:	f00d fe42 	bl	800fda8 <sin>
 8002124:	ec5b ab10 	vmov	sl, fp, d0
 8002128:	6e38      	ldr	r0, [r7, #96]	; 0x60
 800212a:	f7fe fa15 	bl	8000558 <__aeabi_f2d>
 800212e:	4602      	mov	r2, r0
 8002130:	460b      	mov	r3, r1
 8002132:	ec43 2b10 	vmov	d0, r2, r3
 8002136:	f00d fd57 	bl	800fbe8 <cos>
 800213a:	ec53 2b10 	vmov	r2, r3, d0
 800213e:	4650      	mov	r0, sl
 8002140:	4659      	mov	r1, fp
 8002142:	f7fe fa61 	bl	8000608 <__aeabi_dmul>
 8002146:	4602      	mov	r2, r0
 8002148:	460b      	mov	r3, r1
 800214a:	4620      	mov	r0, r4
 800214c:	4629      	mov	r1, r5
 800214e:	f7fe f8a3 	bl	8000298 <__aeabi_dsub>
 8002152:	4602      	mov	r2, r0
 8002154:	460b      	mov	r3, r1
 8002156:	ec43 2b17 	vmov	d7, r2, r3
 800215a:	eeb0 1a47 	vmov.f32	s2, s14
 800215e:	eef0 1a67 	vmov.f32	s3, s15
 8002162:	ec49 8b10 	vmov	d0, r8, r9
 8002166:	f00d ff13 	bl	800ff90 <atan2>
 800216a:	ec53 2b10 	vmov	r2, r3, d0
 800216e:	4610      	mov	r0, r2
 8002170:	4619      	mov	r1, r3
 8002172:	f7fe fd41 	bl	8000bf8 <__aeabi_d2f>
 8002176:	4603      	mov	r3, r0
 8002178:	ee00 3a10 	vmov	s0, r3
 800217c:	f7ff f9a8 	bl	80014d0 <Rad2Dec>
 8002180:	ed87 0a34 	vstr	s0, [r7, #208]	; 0xd0
	Azimut_Sol = Azimut_Sol + (Azimut_Sol < 0) * 360; //Cambio de rango de [-180,180] a [0,360]
 8002184:	edd7 7a34 	vldr	s15, [r7, #208]	; 0xd0
 8002188:	eef5 7ac0 	vcmpe.f32	s15, #0.0
 800218c:	eef1 fa10 	vmrs	APSR_nzcv, fpscr
 8002190:	d51e      	bpl.n	80021d0 <ephemeritas+0xc60>
 8002192:	eddf 7a0c 	vldr	s15, [pc, #48]	; 80021c4 <ephemeritas+0xc54>
 8002196:	e01d      	b.n	80021d4 <ephemeritas+0xc64>
 8002198:	00000000 	.word	0x00000000
 800219c:	3fe00000 	.word	0x3fe00000
 80021a0:	00000000 	.word	0x00000000
 80021a4:	3ff00000 	.word	0x3ff00000
 80021a8:	00000000 	.word	0x00000000
 80021ac:	40768000 	.word	0x40768000
 80021b0:	44340000 	.word	0x44340000
 80021b4:	3bb60b61 	.word	0x3bb60b61
 80021b8:	eb1c432d 	.word	0xeb1c432d
 80021bc:	3f1a36e2 	.word	0x3f1a36e2
 80021c0:	00000000 	.word	0x00000000
 80021c4:	43b40000 	.word	0x43b40000
 80021c8:	43340000 	.word	0x43340000
 80021cc:	42aa0000 	.word	0x42aa0000
 80021d0:	ed5f 7a05 	vldr	s15, [pc, #-20]	; 80021c0 <ephemeritas+0xc50>
 80021d4:	ed97 7a34 	vldr	s14, [r7, #208]	; 0xd0
 80021d8:	ee77 7a27 	vadd.f32	s15, s14, s15
 80021dc:	edc7 7a34 	vstr	s15, [r7, #208]	; 0xd0
	Azimut_Sol = Azimut_Sol + 180; //Cambio ángulo 0 es el Sur en vez de el Norte
 80021e0:	edd7 7a34 	vldr	s15, [r7, #208]	; 0xd0
 80021e4:	ed1f 7a08 	vldr	s14, [pc, #-32]	; 80021c8 <ephemeritas+0xc58>
 80021e8:	ee77 7a87 	vadd.f32	s15, s15, s14
 80021ec:	edc7 7a34 	vstr	s15, [r7, #208]	; 0xd0
	if(Azimut_Sol >= 360){
 80021f0:	edd7 7a34 	vldr	s15, [r7, #208]	; 0xd0
 80021f4:	ed1f 7a0d 	vldr	s14, [pc, #-52]	; 80021c4 <ephemeritas+0xc54>
 80021f8:	eef4 7ac7 	vcmpe.f32	s15, s14
 80021fc:	eef1 fa10 	vmrs	APSR_nzcv, fpscr
 8002200:	db07      	blt.n	8002212 <ephemeritas+0xca2>
		Azimut_Sol = Azimut_Sol - 360;
 8002202:	edd7 7a34 	vldr	s15, [r7, #208]	; 0xd0
 8002206:	ed1f 7a11 	vldr	s14, [pc, #-68]	; 80021c4 <ephemeritas+0xc54>
 800220a:	ee77 7ac7 	vsub.f32	s15, s15, s14
 800220e:	edc7 7a34 	vstr	s15, [r7, #208]	; 0xd0
	}
	float Elevacion_Sol = Rad2Dec(asin(cos(Latitud_Rad) * cos(Dec_Rad) * cos(angHora_Rad) + sin(Latitud_Rad) * sin(Dec_Rad)));
 8002212:	6df8      	ldr	r0, [r7, #92]	; 0x5c
 8002214:	f7fe f9a0 	bl	8000558 <__aeabi_f2d>
 8002218:	4602      	mov	r2, r0
 800221a:	460b      	mov	r3, r1
 800221c:	ec43 2b10 	vmov	d0, r2, r3
 8002220:	f00d fce2 	bl	800fbe8 <cos>
 8002224:	ec55 4b10 	vmov	r4, r5, d0
 8002228:	6f38      	ldr	r0, [r7, #112]	; 0x70
 800222a:	f7fe f995 	bl	8000558 <__aeabi_f2d>
 800222e:	4602      	mov	r2, r0
 8002230:	460b      	mov	r3, r1
 8002232:	ec43 2b10 	vmov	d0, r2, r3
 8002236:	f00d fcd7 	bl	800fbe8 <cos>
 800223a:	ec53 2b10 	vmov	r2, r3, d0
 800223e:	4620      	mov	r0, r4
 8002240:	4629      	mov	r1, r5
 8002242:	f7fe f9e1 	bl	8000608 <__aeabi_dmul>
 8002246:	4602      	mov	r2, r0
 8002248:	460b      	mov	r3, r1
 800224a:	4614      	mov	r4, r2
 800224c:	461d      	mov	r5, r3
 800224e:	6e38      	ldr	r0, [r7, #96]	; 0x60
 8002250:	f7fe f982 	bl	8000558 <__aeabi_f2d>
 8002254:	4602      	mov	r2, r0
 8002256:	460b      	mov	r3, r1
 8002258:	ec43 2b10 	vmov	d0, r2, r3
 800225c:	f00d fcc4 	bl	800fbe8 <cos>
 8002260:	ec53 2b10 	vmov	r2, r3, d0
 8002264:	4620      	mov	r0, r4
 8002266:	4629      	mov	r1, r5
 8002268:	f7fe f9ce 	bl	8000608 <__aeabi_dmul>
 800226c:	4602      	mov	r2, r0
 800226e:	460b      	mov	r3, r1
 8002270:	4614      	mov	r4, r2
 8002272:	461d      	mov	r5, r3
 8002274:	6df8      	ldr	r0, [r7, #92]	; 0x5c
 8002276:	f7fe f96f 	bl	8000558 <__aeabi_f2d>
 800227a:	4602      	mov	r2, r0
 800227c:	460b      	mov	r3, r1
 800227e:	ec43 2b10 	vmov	d0, r2, r3
 8002282:	f00d fd91 	bl	800fda8 <sin>
 8002286:	ec59 8b10 	vmov	r8, r9, d0
 800228a:	6f38      	ldr	r0, [r7, #112]	; 0x70
 800228c:	f7fe f964 	bl	8000558 <__aeabi_f2d>
 8002290:	4602      	mov	r2, r0
 8002292:	460b      	mov	r3, r1
 8002294:	ec43 2b10 	vmov	d0, r2, r3
 8002298:	f00d fd86 	bl	800fda8 <sin>
 800229c:	ec53 2b10 	vmov	r2, r3, d0
 80022a0:	4640      	mov	r0, r8
 80022a2:	4649      	mov	r1, r9
 80022a4:	f7fe f9b0 	bl	8000608 <__aeabi_dmul>
 80022a8:	4602      	mov	r2, r0
 80022aa:	460b      	mov	r3, r1
 80022ac:	4620      	mov	r0, r4
 80022ae:	4629      	mov	r1, r5
 80022b0:	f7fd fff4 	bl	800029c <__adddf3>
 80022b4:	4602      	mov	r2, r0
 80022b6:	460b      	mov	r3, r1
 80022b8:	ec43 2b17 	vmov	d7, r2, r3
 80022bc:	eeb0 0a47 	vmov.f32	s0, s14
 80022c0:	eef0 0a67 	vmov.f32	s1, s15
 80022c4:	f00d fe30 	bl	800ff28 <asin>
 80022c8:	ec53 2b10 	vmov	r2, r3, d0
 80022cc:	4610      	mov	r0, r2
 80022ce:	4619      	mov	r1, r3
 80022d0:	f7fe fc92 	bl	8000bf8 <__aeabi_d2f>
 80022d4:	4603      	mov	r3, r0
 80022d6:	ee00 3a10 	vmov	s0, r3
 80022da:	f7ff f8f9 	bl	80014d0 <Rad2Dec>
 80022de:	ed87 0a16 	vstr	s0, [r7, #88]	; 0x58

	float horaSolar = (180 + angHora) / 15.0;
 80022e2:	edd7 7a19 	vldr	s15, [r7, #100]	; 0x64
 80022e6:	ed1f 7a48 	vldr	s14, [pc, #-288]	; 80021c8 <ephemeritas+0xc58>
 80022ea:	ee37 7a87 	vadd.f32	s14, s15, s14
 80022ee:	eef2 6a0e 	vmov.f32	s13, #46	; 0x41700000  15.0
 80022f2:	eec7 7a26 	vdiv.f32	s15, s14, s13
 80022f6:	edc7 7a15 	vstr	s15, [r7, #84]	; 0x54

	//Calculo refraccion de la luz hasta que el centro del sol está 1º por debajo del horizonte
	float tangenteElevacion = tan(Dec2Rad(Elevacion_Sol));
 80022fa:	ed97 0a16 	vldr	s0, [r7, #88]	; 0x58
 80022fe:	f7ff f8bb 	bl	8001478 <Dec2Rad>
 8002302:	ee10 3a10 	vmov	r3, s0
 8002306:	4618      	mov	r0, r3
 8002308:	f7fe f926 	bl	8000558 <__aeabi_f2d>
 800230c:	4602      	mov	r2, r0
 800230e:	460b      	mov	r3, r1
 8002310:	ec43 2b10 	vmov	d0, r2, r3
 8002314:	f00d fda0 	bl	800fe58 <tan>
 8002318:	ec53 2b10 	vmov	r2, r3, d0
 800231c:	4610      	mov	r0, r2
 800231e:	4619      	mov	r1, r3
 8002320:	f7fe fc6a 	bl	8000bf8 <__aeabi_d2f>
 8002324:	4603      	mov	r3, r0
 8002326:	653b      	str	r3, [r7, #80]	; 0x50
	float refraccion;
	if(Elevacion_Sol > 5 && Elevacion_Sol <= 85){
 8002328:	edd7 7a16 	vldr	s15, [r7, #88]	; 0x58
 800232c:	eeb1 7a04 	vmov.f32	s14, #20	; 0x40a00000  5.0
 8002330:	eef4 7ac7 	vcmpe.f32	s15, s14
 8002334:	eef1 fa10 	vmrs	APSR_nzcv, fpscr
 8002338:	dd54      	ble.n	80023e4 <ephemeritas+0xe74>
 800233a:	edd7 7a16 	vldr	s15, [r7, #88]	; 0x58
 800233e:	ed1f 7a5d 	vldr	s14, [pc, #-372]	; 80021cc <ephemeritas+0xc5c>
 8002342:	eef4 7ac7 	vcmpe.f32	s15, s14
 8002346:	eef1 fa10 	vmrs	APSR_nzcv, fpscr
 800234a:	d84b      	bhi.n	80023e4 <ephemeritas+0xe74>
		refraccion = 58.1 / tangenteElevacion - 0.07 / pow(tangenteElevacion, 3) + 0.000086 / pow(tangenteElevacion, 5);
 800234c:	6d38      	ldr	r0, [r7, #80]	; 0x50
 800234e:	f7fe f903 	bl	8000558 <__aeabi_f2d>
 8002352:	4602      	mov	r2, r0
 8002354:	460b      	mov	r3, r1
 8002356:	a1b0      	add	r1, pc, #704	; (adr r1, 8002618 <ephemeritas+0x10a8>)
 8002358:	e9d1 0100 	ldrd	r0, r1, [r1]
 800235c:	f7fe fa7e 	bl	800085c <__aeabi_ddiv>
 8002360:	4602      	mov	r2, r0
 8002362:	460b      	mov	r3, r1
 8002364:	4614      	mov	r4, r2
 8002366:	461d      	mov	r5, r3
 8002368:	6d38      	ldr	r0, [r7, #80]	; 0x50
 800236a:	f7fe f8f5 	bl	8000558 <__aeabi_f2d>
 800236e:	4602      	mov	r2, r0
 8002370:	460b      	mov	r3, r1
 8002372:	ed9f 1ba5 	vldr	d1, [pc, #660]	; 8002608 <ephemeritas+0x1098>
 8002376:	ec43 2b10 	vmov	d0, r2, r3
 800237a:	f00d fe39 	bl	800fff0 <pow>
 800237e:	ec53 2b10 	vmov	r2, r3, d0
 8002382:	a1a7      	add	r1, pc, #668	; (adr r1, 8002620 <ephemeritas+0x10b0>)
 8002384:	e9d1 0100 	ldrd	r0, r1, [r1]
 8002388:	f7fe fa68 	bl	800085c <__aeabi_ddiv>
 800238c:	4602      	mov	r2, r0
 800238e:	460b      	mov	r3, r1
 8002390:	4620      	mov	r0, r4
 8002392:	4629      	mov	r1, r5
 8002394:	f7fd ff80 	bl	8000298 <__aeabi_dsub>
 8002398:	4602      	mov	r2, r0
 800239a:	460b      	mov	r3, r1
 800239c:	4614      	mov	r4, r2
 800239e:	461d      	mov	r5, r3
 80023a0:	6d38      	ldr	r0, [r7, #80]	; 0x50
 80023a2:	f7fe f8d9 	bl	8000558 <__aeabi_f2d>
 80023a6:	4602      	mov	r2, r0
 80023a8:	460b      	mov	r3, r1
 80023aa:	ed9f 1b99 	vldr	d1, [pc, #612]	; 8002610 <ephemeritas+0x10a0>
 80023ae:	ec43 2b10 	vmov	d0, r2, r3
 80023b2:	f00d fe1d 	bl	800fff0 <pow>
 80023b6:	ec53 2b10 	vmov	r2, r3, d0
 80023ba:	a19b      	add	r1, pc, #620	; (adr r1, 8002628 <ephemeritas+0x10b8>)
 80023bc:	e9d1 0100 	ldrd	r0, r1, [r1]
 80023c0:	f7fe fa4c 	bl	800085c <__aeabi_ddiv>
 80023c4:	4602      	mov	r2, r0
 80023c6:	460b      	mov	r3, r1
 80023c8:	4620      	mov	r0, r4
 80023ca:	4629      	mov	r1, r5
 80023cc:	f7fd ff66 	bl	800029c <__adddf3>
 80023d0:	4602      	mov	r2, r0
 80023d2:	460b      	mov	r3, r1
 80023d4:	4610      	mov	r0, r2
 80023d6:	4619      	mov	r1, r3
 80023d8:	f7fe fc0e 	bl	8000bf8 <__aeabi_d2f>
 80023dc:	4603      	mov	r3, r0
 80023de:	f8c7 30cc 	str.w	r3, [r7, #204]	; 0xcc
 80023e2:	e096      	b.n	8002512 <ephemeritas+0xfa2>
	}
	else if(Elevacion_Sol > -0.575 && Elevacion_Sol <= 5){
 80023e4:	6db8      	ldr	r0, [r7, #88]	; 0x58
 80023e6:	f7fe f8b7 	bl	8000558 <__aeabi_f2d>
 80023ea:	a391      	add	r3, pc, #580	; (adr r3, 8002630 <ephemeritas+0x10c0>)
 80023ec:	e9d3 2300 	ldrd	r2, r3, [r3]
 80023f0:	f7fe fb9a 	bl	8000b28 <__aeabi_dcmpgt>
 80023f4:	4603      	mov	r3, r0
 80023f6:	2b00      	cmp	r3, #0
 80023f8:	d05f      	beq.n	80024ba <ephemeritas+0xf4a>
 80023fa:	edd7 7a16 	vldr	s15, [r7, #88]	; 0x58
 80023fe:	eeb1 7a04 	vmov.f32	s14, #20	; 0x40a00000  5.0
 8002402:	eef4 7ac7 	vcmpe.f32	s15, s14
 8002406:	eef1 fa10 	vmrs	APSR_nzcv, fpscr
 800240a:	d856      	bhi.n	80024ba <ephemeritas+0xf4a>
		refraccion = Elevacion_Sol *(-518.2 + Elevacion_Sol * (103.4 + Elevacion_Sol * (-12.79 + Elevacion_Sol * 0.711))) + 1735;
 800240c:	6db8      	ldr	r0, [r7, #88]	; 0x58
 800240e:	f7fe f8a3 	bl	8000558 <__aeabi_f2d>
 8002412:	4604      	mov	r4, r0
 8002414:	460d      	mov	r5, r1
 8002416:	6db8      	ldr	r0, [r7, #88]	; 0x58
 8002418:	f7fe f89e 	bl	8000558 <__aeabi_f2d>
 800241c:	4680      	mov	r8, r0
 800241e:	4689      	mov	r9, r1
 8002420:	6db8      	ldr	r0, [r7, #88]	; 0x58
 8002422:	f7fe f899 	bl	8000558 <__aeabi_f2d>
 8002426:	4682      	mov	sl, r0
 8002428:	468b      	mov	fp, r1
 800242a:	6db8      	ldr	r0, [r7, #88]	; 0x58
 800242c:	f7fe f894 	bl	8000558 <__aeabi_f2d>
 8002430:	a381      	add	r3, pc, #516	; (adr r3, 8002638 <ephemeritas+0x10c8>)
 8002432:	e9d3 2300 	ldrd	r2, r3, [r3]
 8002436:	f7fe f8e7 	bl	8000608 <__aeabi_dmul>
 800243a:	4602      	mov	r2, r0
 800243c:	460b      	mov	r3, r1
 800243e:	4610      	mov	r0, r2
 8002440:	4619      	mov	r1, r3
 8002442:	a37f      	add	r3, pc, #508	; (adr r3, 8002640 <ephemeritas+0x10d0>)
 8002444:	e9d3 2300 	ldrd	r2, r3, [r3]
 8002448:	f7fd ff26 	bl	8000298 <__aeabi_dsub>
 800244c:	4602      	mov	r2, r0
 800244e:	460b      	mov	r3, r1
 8002450:	4650      	mov	r0, sl
 8002452:	4659      	mov	r1, fp
 8002454:	f7fe f8d8 	bl	8000608 <__aeabi_dmul>
 8002458:	4602      	mov	r2, r0
 800245a:	460b      	mov	r3, r1
 800245c:	4610      	mov	r0, r2
 800245e:	4619      	mov	r1, r3
 8002460:	a379      	add	r3, pc, #484	; (adr r3, 8002648 <ephemeritas+0x10d8>)
 8002462:	e9d3 2300 	ldrd	r2, r3, [r3]
 8002466:	f7fd ff19 	bl	800029c <__adddf3>
 800246a:	4602      	mov	r2, r0
 800246c:	460b      	mov	r3, r1
 800246e:	4640      	mov	r0, r8
 8002470:	4649      	mov	r1, r9
 8002472:	f7fe f8c9 	bl	8000608 <__aeabi_dmul>
 8002476:	4602      	mov	r2, r0
 8002478:	460b      	mov	r3, r1
 800247a:	4610      	mov	r0, r2
 800247c:	4619      	mov	r1, r3
 800247e:	a374      	add	r3, pc, #464	; (adr r3, 8002650 <ephemeritas+0x10e0>)
 8002480:	e9d3 2300 	ldrd	r2, r3, [r3]
 8002484:	f7fd ff08 	bl	8000298 <__aeabi_dsub>
 8002488:	4602      	mov	r2, r0
 800248a:	460b      	mov	r3, r1
 800248c:	4620      	mov	r0, r4
 800248e:	4629      	mov	r1, r5
 8002490:	f7fe f8ba 	bl	8000608 <__aeabi_dmul>
 8002494:	4602      	mov	r2, r0
 8002496:	460b      	mov	r3, r1
 8002498:	4610      	mov	r0, r2
 800249a:	4619      	mov	r1, r3
 800249c:	a36e      	add	r3, pc, #440	; (adr r3, 8002658 <ephemeritas+0x10e8>)
 800249e:	e9d3 2300 	ldrd	r2, r3, [r3]
 80024a2:	f7fd fefb 	bl	800029c <__adddf3>
 80024a6:	4602      	mov	r2, r0
 80024a8:	460b      	mov	r3, r1
 80024aa:	4610      	mov	r0, r2
 80024ac:	4619      	mov	r1, r3
 80024ae:	f7fe fba3 	bl	8000bf8 <__aeabi_d2f>
 80024b2:	4603      	mov	r3, r0
 80024b4:	f8c7 30cc 	str.w	r3, [r7, #204]	; 0xcc
 80024b8:	e02b      	b.n	8002512 <ephemeritas+0xfa2>
	}
	else if(Elevacion_Sol > -1 && Elevacion_Sol <= -0.575){
 80024ba:	edd7 7a16 	vldr	s15, [r7, #88]	; 0x58
 80024be:	eebf 7a00 	vmov.f32	s14, #240	; 0xbf800000 -1.0
 80024c2:	eef4 7ac7 	vcmpe.f32	s15, s14
 80024c6:	eef1 fa10 	vmrs	APSR_nzcv, fpscr
 80024ca:	dd1e      	ble.n	800250a <ephemeritas+0xf9a>
 80024cc:	6db8      	ldr	r0, [r7, #88]	; 0x58
 80024ce:	f7fe f843 	bl	8000558 <__aeabi_f2d>
 80024d2:	a357      	add	r3, pc, #348	; (adr r3, 8002630 <ephemeritas+0x10c0>)
 80024d4:	e9d3 2300 	ldrd	r2, r3, [r3]
 80024d8:	f7fe fb12 	bl	8000b00 <__aeabi_dcmple>
 80024dc:	4603      	mov	r3, r0
 80024de:	2b00      	cmp	r3, #0
 80024e0:	d013      	beq.n	800250a <ephemeritas+0xf9a>
		refraccion = -20.774 / tangenteElevacion;
 80024e2:	6d38      	ldr	r0, [r7, #80]	; 0x50
 80024e4:	f7fe f838 	bl	8000558 <__aeabi_f2d>
 80024e8:	4602      	mov	r2, r0
 80024ea:	460b      	mov	r3, r1
 80024ec:	a15c      	add	r1, pc, #368	; (adr r1, 8002660 <ephemeritas+0x10f0>)
 80024ee:	e9d1 0100 	ldrd	r0, r1, [r1]
 80024f2:	f7fe f9b3 	bl	800085c <__aeabi_ddiv>
 80024f6:	4602      	mov	r2, r0
 80024f8:	460b      	mov	r3, r1
 80024fa:	4610      	mov	r0, r2
 80024fc:	4619      	mov	r1, r3
 80024fe:	f7fe fb7b 	bl	8000bf8 <__aeabi_d2f>
 8002502:	4603      	mov	r3, r0
 8002504:	f8c7 30cc 	str.w	r3, [r7, #204]	; 0xcc
 8002508:	e003      	b.n	8002512 <ephemeritas+0xfa2>
	}
	else{
		refraccion = 0;
 800250a:	f04f 0300 	mov.w	r3, #0
 800250e:	f8c7 30cc 	str.w	r3, [r7, #204]	; 0xcc
	}

	refraccion = refraccion * (283 / (273.0 + c.temperatura)) * c.presion / 101325 / 3600;
 8002512:	f8d7 00cc 	ldr.w	r0, [r7, #204]	; 0xcc
 8002516:	f7fe f81f 	bl	8000558 <__aeabi_f2d>
 800251a:	4604      	mov	r4, r0
 800251c:	460d      	mov	r5, r1
 800251e:	f8d7 3118 	ldr.w	r3, [r7, #280]	; 0x118
 8002522:	4618      	mov	r0, r3
 8002524:	f7fe f818 	bl	8000558 <__aeabi_f2d>
 8002528:	a34f      	add	r3, pc, #316	; (adr r3, 8002668 <ephemeritas+0x10f8>)
 800252a:	e9d3 2300 	ldrd	r2, r3, [r3]
 800252e:	f7fd feb5 	bl	800029c <__adddf3>
 8002532:	4602      	mov	r2, r0
 8002534:	460b      	mov	r3, r1
 8002536:	a14e      	add	r1, pc, #312	; (adr r1, 8002670 <ephemeritas+0x1100>)
 8002538:	e9d1 0100 	ldrd	r0, r1, [r1]
 800253c:	f7fe f98e 	bl	800085c <__aeabi_ddiv>
 8002540:	4602      	mov	r2, r0
 8002542:	460b      	mov	r3, r1
 8002544:	4620      	mov	r0, r4
 8002546:	4629      	mov	r1, r5
 8002548:	f7fe f85e 	bl	8000608 <__aeabi_dmul>
 800254c:	4602      	mov	r2, r0
 800254e:	460b      	mov	r3, r1
 8002550:	4614      	mov	r4, r2
 8002552:	461d      	mov	r5, r3
 8002554:	f8d7 311c 	ldr.w	r3, [r7, #284]	; 0x11c
 8002558:	4618      	mov	r0, r3
 800255a:	f7fd fffd 	bl	8000558 <__aeabi_f2d>
 800255e:	4602      	mov	r2, r0
 8002560:	460b      	mov	r3, r1
 8002562:	4620      	mov	r0, r4
 8002564:	4629      	mov	r1, r5
 8002566:	f7fe f84f 	bl	8000608 <__aeabi_dmul>
 800256a:	4602      	mov	r2, r0
 800256c:	460b      	mov	r3, r1
 800256e:	4610      	mov	r0, r2
 8002570:	4619      	mov	r1, r3
 8002572:	a341      	add	r3, pc, #260	; (adr r3, 8002678 <ephemeritas+0x1108>)
 8002574:	e9d3 2300 	ldrd	r2, r3, [r3]
 8002578:	f7fe f970 	bl	800085c <__aeabi_ddiv>
 800257c:	4602      	mov	r2, r0
 800257e:	460b      	mov	r3, r1
 8002580:	4610      	mov	r0, r2
 8002582:	4619      	mov	r1, r3
 8002584:	a33e      	add	r3, pc, #248	; (adr r3, 8002680 <ephemeritas+0x1110>)
 8002586:	e9d3 2300 	ldrd	r2, r3, [r3]
 800258a:	f7fe f967 	bl	800085c <__aeabi_ddiv>
 800258e:	4602      	mov	r2, r0
 8002590:	460b      	mov	r3, r1
 8002592:	4610      	mov	r0, r2
 8002594:	4619      	mov	r1, r3
 8002596:	f7fe fb2f 	bl	8000bf8 <__aeabi_d2f>
 800259a:	4603      	mov	r3, r0
 800259c:	f8c7 30cc 	str.w	r3, [r7, #204]	; 0xcc

	//La elevacion aparente tiene en cuenta la refraccion
	float Elevacion_Aparente = Elevacion_Sol + refraccion;
 80025a0:	ed97 7a16 	vldr	s14, [r7, #88]	; 0x58
 80025a4:	edd7 7a33 	vldr	s15, [r7, #204]	; 0xcc
 80025a8:	ee77 7a27 	vadd.f32	s15, s14, s15
 80025ac:	edc7 7a13 	vstr	s15, [r7, #76]	; 0x4c

	struct ephemeris datos;
	datos.Azimut = Azimut_Sol;
 80025b0:	f8d7 30d0 	ldr.w	r3, [r7, #208]	; 0xd0
 80025b4:	62fb      	str	r3, [r7, #44]	; 0x2c
	datos.Elevacion = Elevacion_Sol;
 80025b6:	6dbb      	ldr	r3, [r7, #88]	; 0x58
 80025b8:	633b      	str	r3, [r7, #48]	; 0x30
	datos.Aparente_Elevacion = Elevacion_Aparente;
 80025ba:	6cfb      	ldr	r3, [r7, #76]	; 0x4c
 80025bc:	637b      	str	r3, [r7, #52]	; 0x34
	datos.horaSolar = horaSolar;
 80025be:	6d7b      	ldr	r3, [r7, #84]	; 0x54
 80025c0:	63bb      	str	r3, [r7, #56]	; 0x38
	return datos; //los ángulos se devuelven en grados
 80025c2:	f107 043c 	add.w	r4, r7, #60	; 0x3c
 80025c6:	f107 032c 	add.w	r3, r7, #44	; 0x2c
 80025ca:	cb0f      	ldmia	r3, {r0, r1, r2, r3}
 80025cc:	e884 000f 	stmia.w	r4, {r0, r1, r2, r3}
 80025d0:	6bf8      	ldr	r0, [r7, #60]	; 0x3c
 80025d2:	6c39      	ldr	r1, [r7, #64]	; 0x40
 80025d4:	6c7a      	ldr	r2, [r7, #68]	; 0x44
 80025d6:	6cbb      	ldr	r3, [r7, #72]	; 0x48
 80025d8:	ee06 0a10 	vmov	s12, r0
 80025dc:	ee06 1a90 	vmov	s13, r1
 80025e0:	ee07 2a10 	vmov	s14, r2
 80025e4:	ee07 3a90 	vmov	s15, r3

}
 80025e8:	eeb0 0a46 	vmov.f32	s0, s12
 80025ec:	eef0 0a66 	vmov.f32	s1, s13
 80025f0:	eeb0 1a47 	vmov.f32	s2, s14
 80025f4:	eef0 1a67 	vmov.f32	s3, s15
 80025f8:	37e8      	adds	r7, #232	; 0xe8
 80025fa:	46bd      	mov	sp, r7
 80025fc:	ecbd 8b02 	vpop	{d8}
 8002600:	e8bd 4fb0 	ldmia.w	sp!, {r4, r5, r7, r8, r9, sl, fp, lr}
 8002604:	b004      	add	sp, #16
 8002606:	4770      	bx	lr
 8002608:	00000000 	.word	0x00000000
 800260c:	40080000 	.word	0x40080000
 8002610:	00000000 	.word	0x00000000
 8002614:	40140000 	.word	0x40140000
 8002618:	cccccccd 	.word	0xcccccccd
 800261c:	404d0ccc 	.word	0x404d0ccc
 8002620:	1eb851ec 	.word	0x1eb851ec
 8002624:	3fb1eb85 	.word	0x3fb1eb85
 8002628:	bff47736 	.word	0xbff47736
 800262c:	3f168b5c 	.word	0x3f168b5c
 8002630:	66666666 	.word	0x66666666
 8002634:	bfe26666 	.word	0xbfe26666
 8002638:	126e978d 	.word	0x126e978d
 800263c:	3fe6c083 	.word	0x3fe6c083
 8002640:	e147ae14 	.word	0xe147ae14
 8002644:	4029947a 	.word	0x4029947a
 8002648:	9999999a 	.word	0x9999999a
 800264c:	4059d999 	.word	0x4059d999
 8002650:	9999999a 	.word	0x9999999a
 8002654:	40803199 	.word	0x40803199
 8002658:	00000000 	.word	0x00000000
 800265c:	409b1c00 	.word	0x409b1c00
 8002660:	dd2f1aa0 	.word	0xdd2f1aa0
 8002664:	c034c624 	.word	0xc034c624
 8002668:	00000000 	.word	0x00000000
 800266c:	40711000 	.word	0x40711000
 8002670:	00000000 	.word	0x00000000
 8002674:	4071b000 	.word	0x4071b000
 8002678:	00000000 	.word	0x00000000
 800267c:	40f8bcd0 	.word	0x40f8bcd0
 8002680:	00000000 	.word	0x00000000
 8002684:	40ac2000 	.word	0x40ac2000

08002688 <pos_Sol>:

struct posSol pos_Sol (float azimut, float elevacion){
 8002688:	b5b0      	push	{r4, r5, r7, lr}
 800268a:	b08c      	sub	sp, #48	; 0x30
 800268c:	af00      	add	r7, sp, #0
 800268e:	ed87 0a05 	vstr	s0, [r7, #20]
 8002692:	edc7 0a04 	vstr	s1, [r7, #16]
	struct posSol pos;
	pos.x = cos(Dec2Rad(elevacion)) * sin(Dec2Rad(azimut));
 8002696:	ed97 0a04 	vldr	s0, [r7, #16]
 800269a:	f7fe feed 	bl	8001478 <Dec2Rad>
 800269e:	ee10 3a10 	vmov	r3, s0
 80026a2:	4618      	mov	r0, r3
 80026a4:	f7fd ff58 	bl	8000558 <__aeabi_f2d>
 80026a8:	4602      	mov	r2, r0
 80026aa:	460b      	mov	r3, r1
 80026ac:	ec43 2b10 	vmov	d0, r2, r3
 80026b0:	f00d fa9a 	bl	800fbe8 <cos>
 80026b4:	ec55 4b10 	vmov	r4, r5, d0
 80026b8:	ed97 0a05 	vldr	s0, [r7, #20]
 80026bc:	f7fe fedc 	bl	8001478 <Dec2Rad>
 80026c0:	ee10 3a10 	vmov	r3, s0
 80026c4:	4618      	mov	r0, r3
 80026c6:	f7fd ff47 	bl	8000558 <__aeabi_f2d>
 80026ca:	4602      	mov	r2, r0
 80026cc:	460b      	mov	r3, r1
 80026ce:	ec43 2b10 	vmov	d0, r2, r3
 80026d2:	f00d fb69 	bl	800fda8 <sin>
 80026d6:	ec53 2b10 	vmov	r2, r3, d0
 80026da:	4620      	mov	r0, r4
 80026dc:	4629      	mov	r1, r5
 80026de:	f7fd ff93 	bl	8000608 <__aeabi_dmul>
 80026e2:	4602      	mov	r2, r0
 80026e4:	460b      	mov	r3, r1
 80026e6:	4610      	mov	r0, r2
 80026e8:	4619      	mov	r1, r3
 80026ea:	f7fe fa85 	bl	8000bf8 <__aeabi_d2f>
 80026ee:	4603      	mov	r3, r0
 80026f0:	61bb      	str	r3, [r7, #24]
	pos.y = cos(Dec2Rad(elevacion)) * cos(Dec2Rad(azimut));
 80026f2:	ed97 0a04 	vldr	s0, [r7, #16]
 80026f6:	f7fe febf 	bl	8001478 <Dec2Rad>
 80026fa:	ee10 3a10 	vmov	r3, s0
 80026fe:	4618      	mov	r0, r3
 8002700:	f7fd ff2a 	bl	8000558 <__aeabi_f2d>
 8002704:	4602      	mov	r2, r0
 8002706:	460b      	mov	r3, r1
 8002708:	ec43 2b10 	vmov	d0, r2, r3
 800270c:	f00d fa6c 	bl	800fbe8 <cos>
 8002710:	ec55 4b10 	vmov	r4, r5, d0
 8002714:	ed97 0a05 	vldr	s0, [r7, #20]
 8002718:	f7fe feae 	bl	8001478 <Dec2Rad>
 800271c:	ee10 3a10 	vmov	r3, s0
 8002720:	4618      	mov	r0, r3
 8002722:	f7fd ff19 	bl	8000558 <__aeabi_f2d>
 8002726:	4602      	mov	r2, r0
 8002728:	460b      	mov	r3, r1
 800272a:	ec43 2b10 	vmov	d0, r2, r3
 800272e:	f00d fa5b 	bl	800fbe8 <cos>
 8002732:	ec53 2b10 	vmov	r2, r3, d0
 8002736:	4620      	mov	r0, r4
 8002738:	4629      	mov	r1, r5
 800273a:	f7fd ff65 	bl	8000608 <__aeabi_dmul>
 800273e:	4602      	mov	r2, r0
 8002740:	460b      	mov	r3, r1
 8002742:	4610      	mov	r0, r2
 8002744:	4619      	mov	r1, r3
 8002746:	f7fe fa57 	bl	8000bf8 <__aeabi_d2f>
 800274a:	4603      	mov	r3, r0
 800274c:	61fb      	str	r3, [r7, #28]
	pos.z = sin(Dec2Rad(elevacion));
 800274e:	ed97 0a04 	vldr	s0, [r7, #16]
 8002752:	f7fe fe91 	bl	8001478 <Dec2Rad>
 8002756:	ee10 3a10 	vmov	r3, s0
 800275a:	4618      	mov	r0, r3
 800275c:	f7fd fefc 	bl	8000558 <__aeabi_f2d>
 8002760:	4602      	mov	r2, r0
 8002762:	460b      	mov	r3, r1
 8002764:	ec43 2b10 	vmov	d0, r2, r3
 8002768:	f00d fb1e 	bl	800fda8 <sin>
 800276c:	ec53 2b10 	vmov	r2, r3, d0
 8002770:	4610      	mov	r0, r2
 8002772:	4619      	mov	r1, r3
 8002774:	f7fe fa40 	bl	8000bf8 <__aeabi_d2f>
 8002778:	4603      	mov	r3, r0
 800277a:	623b      	str	r3, [r7, #32]
	return pos;
 800277c:	f107 0324 	add.w	r3, r7, #36	; 0x24
 8002780:	f107 0218 	add.w	r2, r7, #24
 8002784:	ca07      	ldmia	r2, {r0, r1, r2}
 8002786:	e883 0007 	stmia.w	r3, {r0, r1, r2}
 800278a:	6a79      	ldr	r1, [r7, #36]	; 0x24
 800278c:	6aba      	ldr	r2, [r7, #40]	; 0x28
 800278e:	6afb      	ldr	r3, [r7, #44]	; 0x2c
 8002790:	ee06 1a90 	vmov	s13, r1
 8002794:	ee07 2a10 	vmov	s14, r2
 8002798:	ee07 3a90 	vmov	s15, r3
}
 800279c:	eeb0 0a66 	vmov.f32	s0, s13
 80027a0:	eef0 0a47 	vmov.f32	s1, s14
 80027a4:	eeb0 1a67 	vmov.f32	s2, s15
 80027a8:	3730      	adds	r7, #48	; 0x30
 80027aa:	46bd      	mov	sp, r7
 80027ac:	bdb0      	pop	{r4, r5, r7, pc}

080027ae <pos_Sol_inclinado_y_desviado>:

struct posSol pos_Sol_inclinado_y_desviado (struct posSol pos, float inclinacion, float azimut){
 80027ae:	e92d 43b0 	stmdb	sp!, {r4, r5, r7, r8, r9, lr}
 80027b2:	b090      	sub	sp, #64	; 0x40
 80027b4:	af00      	add	r7, sp, #0
 80027b6:	eef0 6a40 	vmov.f32	s13, s0
 80027ba:	eeb0 7a60 	vmov.f32	s14, s1
 80027be:	eef0 7a41 	vmov.f32	s15, s2
 80027c2:	edc7 1a06 	vstr	s3, [r7, #24]
 80027c6:	ed87 2a05 	vstr	s4, [r7, #20]
 80027ca:	edc7 6a07 	vstr	s13, [r7, #28]
 80027ce:	ed87 7a08 	vstr	s14, [r7, #32]
 80027d2:	edc7 7a09 	vstr	s15, [r7, #36]	; 0x24
	struct posSol pos_res;
	pos_res.x = pos.x * cos(Dec2Rad(azimut)) - pos.y * sin(Dec2Rad(azimut));
 80027d6:	69fb      	ldr	r3, [r7, #28]
 80027d8:	4618      	mov	r0, r3
 80027da:	f7fd febd 	bl	8000558 <__aeabi_f2d>
 80027de:	4604      	mov	r4, r0
 80027e0:	460d      	mov	r5, r1
 80027e2:	ed97 0a05 	vldr	s0, [r7, #20]
 80027e6:	f7fe fe47 	bl	8001478 <Dec2Rad>
 80027ea:	ee10 3a10 	vmov	r3, s0
 80027ee:	4618      	mov	r0, r3
 80027f0:	f7fd feb2 	bl	8000558 <__aeabi_f2d>
 80027f4:	4602      	mov	r2, r0
 80027f6:	460b      	mov	r3, r1
 80027f8:	ec43 2b10 	vmov	d0, r2, r3
 80027fc:	f00d f9f4 	bl	800fbe8 <cos>
 8002800:	ec53 2b10 	vmov	r2, r3, d0
 8002804:	4620      	mov	r0, r4
 8002806:	4629      	mov	r1, r5
 8002808:	f7fd fefe 	bl	8000608 <__aeabi_dmul>
 800280c:	4602      	mov	r2, r0
 800280e:	460b      	mov	r3, r1
 8002810:	4690      	mov	r8, r2
 8002812:	4699      	mov	r9, r3
 8002814:	6a3b      	ldr	r3, [r7, #32]
 8002816:	4618      	mov	r0, r3
 8002818:	f7fd fe9e 	bl	8000558 <__aeabi_f2d>
 800281c:	4604      	mov	r4, r0
 800281e:	460d      	mov	r5, r1
 8002820:	ed97 0a05 	vldr	s0, [r7, #20]
 8002824:	f7fe fe28 	bl	8001478 <Dec2Rad>
 8002828:	ee10 3a10 	vmov	r3, s0
 800282c:	4618      	mov	r0, r3
 800282e:	f7fd fe93 	bl	8000558 <__aeabi_f2d>
 8002832:	4602      	mov	r2, r0
 8002834:	460b      	mov	r3, r1
 8002836:	ec43 2b10 	vmov	d0, r2, r3
 800283a:	f00d fab5 	bl	800fda8 <sin>
 800283e:	ec53 2b10 	vmov	r2, r3, d0
 8002842:	4620      	mov	r0, r4
 8002844:	4629      	mov	r1, r5
 8002846:	f7fd fedf 	bl	8000608 <__aeabi_dmul>
 800284a:	4602      	mov	r2, r0
 800284c:	460b      	mov	r3, r1
 800284e:	4640      	mov	r0, r8
 8002850:	4649      	mov	r1, r9
 8002852:	f7fd fd21 	bl	8000298 <__aeabi_dsub>
 8002856:	4602      	mov	r2, r0
 8002858:	460b      	mov	r3, r1
 800285a:	4610      	mov	r0, r2
 800285c:	4619      	mov	r1, r3
 800285e:	f7fe f9cb 	bl	8000bf8 <__aeabi_d2f>
 8002862:	4603      	mov	r3, r0
 8002864:	62bb      	str	r3, [r7, #40]	; 0x28
	pos_res.y = pos.x * cos(Dec2Rad(inclinacion)) * sin(Dec2Rad(azimut)) + pos.y * cos(Dec2Rad(inclinacion)) * cos(Dec2Rad(azimut)) - pos.z * sin(Dec2Rad(inclinacion));
 8002866:	69fb      	ldr	r3, [r7, #28]
 8002868:	4618      	mov	r0, r3
 800286a:	f7fd fe75 	bl	8000558 <__aeabi_f2d>
 800286e:	4604      	mov	r4, r0
 8002870:	460d      	mov	r5, r1
 8002872:	ed97 0a06 	vldr	s0, [r7, #24]
 8002876:	f7fe fdff 	bl	8001478 <Dec2Rad>
 800287a:	ee10 3a10 	vmov	r3, s0
 800287e:	4618      	mov	r0, r3
 8002880:	f7fd fe6a 	bl	8000558 <__aeabi_f2d>
 8002884:	4602      	mov	r2, r0
 8002886:	460b      	mov	r3, r1
 8002888:	ec43 2b10 	vmov	d0, r2, r3
 800288c:	f00d f9ac 	bl	800fbe8 <cos>
 8002890:	ec53 2b10 	vmov	r2, r3, d0
 8002894:	4620      	mov	r0, r4
 8002896:	4629      	mov	r1, r5
 8002898:	f7fd feb6 	bl	8000608 <__aeabi_dmul>
 800289c:	4602      	mov	r2, r0
 800289e:	460b      	mov	r3, r1
 80028a0:	4614      	mov	r4, r2
 80028a2:	461d      	mov	r5, r3
 80028a4:	ed97 0a05 	vldr	s0, [r7, #20]
 80028a8:	f7fe fde6 	bl	8001478 <Dec2Rad>
 80028ac:	ee10 3a10 	vmov	r3, s0
 80028b0:	4618      	mov	r0, r3
 80028b2:	f7fd fe51 	bl	8000558 <__aeabi_f2d>
 80028b6:	4602      	mov	r2, r0
 80028b8:	460b      	mov	r3, r1
 80028ba:	ec43 2b10 	vmov	d0, r2, r3
 80028be:	f00d fa73 	bl	800fda8 <sin>
 80028c2:	ec53 2b10 	vmov	r2, r3, d0
 80028c6:	4620      	mov	r0, r4
 80028c8:	4629      	mov	r1, r5
 80028ca:	f7fd fe9d 	bl	8000608 <__aeabi_dmul>
 80028ce:	4602      	mov	r2, r0
 80028d0:	460b      	mov	r3, r1
 80028d2:	4690      	mov	r8, r2
 80028d4:	4699      	mov	r9, r3
 80028d6:	6a3b      	ldr	r3, [r7, #32]
 80028d8:	4618      	mov	r0, r3
 80028da:	f7fd fe3d 	bl	8000558 <__aeabi_f2d>
 80028de:	4604      	mov	r4, r0
 80028e0:	460d      	mov	r5, r1
 80028e2:	ed97 0a06 	vldr	s0, [r7, #24]
 80028e6:	f7fe fdc7 	bl	8001478 <Dec2Rad>
 80028ea:	ee10 3a10 	vmov	r3, s0
 80028ee:	4618      	mov	r0, r3
 80028f0:	f7fd fe32 	bl	8000558 <__aeabi_f2d>
 80028f4:	4602      	mov	r2, r0
 80028f6:	460b      	mov	r3, r1
 80028f8:	ec43 2b10 	vmov	d0, r2, r3
 80028fc:	f00d f974 	bl	800fbe8 <cos>
 8002900:	ec53 2b10 	vmov	r2, r3, d0
 8002904:	4620      	mov	r0, r4
 8002906:	4629      	mov	r1, r5
 8002908:	f7fd fe7e 	bl	8000608 <__aeabi_dmul>
 800290c:	4602      	mov	r2, r0
 800290e:	460b      	mov	r3, r1
 8002910:	4614      	mov	r4, r2
 8002912:	461d      	mov	r5, r3
 8002914:	ed97 0a05 	vldr	s0, [r7, #20]
 8002918:	f7fe fdae 	bl	8001478 <Dec2Rad>
 800291c:	ee10 3a10 	vmov	r3, s0
 8002920:	4618      	mov	r0, r3
 8002922:	f7fd fe19 	bl	8000558 <__aeabi_f2d>
 8002926:	4602      	mov	r2, r0
 8002928:	460b      	mov	r3, r1
 800292a:	ec43 2b10 	vmov	d0, r2, r3
 800292e:	f00d f95b 	bl	800fbe8 <cos>
 8002932:	ec53 2b10 	vmov	r2, r3, d0
 8002936:	4620      	mov	r0, r4
 8002938:	4629      	mov	r1, r5
 800293a:	f7fd fe65 	bl	8000608 <__aeabi_dmul>
 800293e:	4602      	mov	r2, r0
 8002940:	460b      	mov	r3, r1
 8002942:	4640      	mov	r0, r8
 8002944:	4649      	mov	r1, r9
 8002946:	f7fd fca9 	bl	800029c <__adddf3>
 800294a:	4602      	mov	r2, r0
 800294c:	460b      	mov	r3, r1
 800294e:	4690      	mov	r8, r2
 8002950:	4699      	mov	r9, r3
 8002952:	6a7b      	ldr	r3, [r7, #36]	; 0x24
 8002954:	4618      	mov	r0, r3
 8002956:	f7fd fdff 	bl	8000558 <__aeabi_f2d>
 800295a:	4604      	mov	r4, r0
 800295c:	460d      	mov	r5, r1
 800295e:	ed97 0a06 	vldr	s0, [r7, #24]
 8002962:	f7fe fd89 	bl	8001478 <Dec2Rad>
 8002966:	ee10 3a10 	vmov	r3, s0
 800296a:	4618      	mov	r0, r3
 800296c:	f7fd fdf4 	bl	8000558 <__aeabi_f2d>
 8002970:	4602      	mov	r2, r0
 8002972:	460b      	mov	r3, r1
 8002974:	ec43 2b10 	vmov	d0, r2, r3
 8002978:	f00d fa16 	bl	800fda8 <sin>
 800297c:	ec53 2b10 	vmov	r2, r3, d0
 8002980:	4620      	mov	r0, r4
 8002982:	4629      	mov	r1, r5
 8002984:	f7fd fe40 	bl	8000608 <__aeabi_dmul>
 8002988:	4602      	mov	r2, r0
 800298a:	460b      	mov	r3, r1
 800298c:	4640      	mov	r0, r8
 800298e:	4649      	mov	r1, r9
 8002990:	f7fd fc82 	bl	8000298 <__aeabi_dsub>
 8002994:	4602      	mov	r2, r0
 8002996:	460b      	mov	r3, r1
 8002998:	4610      	mov	r0, r2
 800299a:	4619      	mov	r1, r3
 800299c:	f7fe f92c 	bl	8000bf8 <__aeabi_d2f>
 80029a0:	4603      	mov	r3, r0
 80029a2:	62fb      	str	r3, [r7, #44]	; 0x2c
	pos_res.z = pos.x * sin(Dec2Rad(inclinacion)) * sin(Dec2Rad(azimut)) + pos.y * sin(Dec2Rad(inclinacion)) * cos(Dec2Rad(azimut)) + pos.z * cos(Dec2Rad(inclinacion));
 80029a4:	69fb      	ldr	r3, [r7, #28]
 80029a6:	4618      	mov	r0, r3
 80029a8:	f7fd fdd6 	bl	8000558 <__aeabi_f2d>
 80029ac:	4604      	mov	r4, r0
 80029ae:	460d      	mov	r5, r1
 80029b0:	ed97 0a06 	vldr	s0, [r7, #24]
 80029b4:	f7fe fd60 	bl	8001478 <Dec2Rad>
 80029b8:	ee10 3a10 	vmov	r3, s0
 80029bc:	4618      	mov	r0, r3
 80029be:	f7fd fdcb 	bl	8000558 <__aeabi_f2d>
 80029c2:	4602      	mov	r2, r0
 80029c4:	460b      	mov	r3, r1
 80029c6:	ec43 2b10 	vmov	d0, r2, r3
 80029ca:	f00d f9ed 	bl	800fda8 <sin>
 80029ce:	ec53 2b10 	vmov	r2, r3, d0
 80029d2:	4620      	mov	r0, r4
 80029d4:	4629      	mov	r1, r5
 80029d6:	f7fd fe17 	bl	8000608 <__aeabi_dmul>
 80029da:	4602      	mov	r2, r0
 80029dc:	460b      	mov	r3, r1
 80029de:	4614      	mov	r4, r2
 80029e0:	461d      	mov	r5, r3
 80029e2:	ed97 0a05 	vldr	s0, [r7, #20]
 80029e6:	f7fe fd47 	bl	8001478 <Dec2Rad>
 80029ea:	ee10 3a10 	vmov	r3, s0
 80029ee:	4618      	mov	r0, r3
 80029f0:	f7fd fdb2 	bl	8000558 <__aeabi_f2d>
 80029f4:	4602      	mov	r2, r0
 80029f6:	460b      	mov	r3, r1
 80029f8:	ec43 2b10 	vmov	d0, r2, r3
 80029fc:	f00d f9d4 	bl	800fda8 <sin>
 8002a00:	ec53 2b10 	vmov	r2, r3, d0
 8002a04:	4620      	mov	r0, r4
 8002a06:	4629      	mov	r1, r5
 8002a08:	f7fd fdfe 	bl	8000608 <__aeabi_dmul>
 8002a0c:	4602      	mov	r2, r0
 8002a0e:	460b      	mov	r3, r1
 8002a10:	4690      	mov	r8, r2
 8002a12:	4699      	mov	r9, r3
 8002a14:	6a3b      	ldr	r3, [r7, #32]
 8002a16:	4618      	mov	r0, r3
 8002a18:	f7fd fd9e 	bl	8000558 <__aeabi_f2d>
 8002a1c:	4604      	mov	r4, r0
 8002a1e:	460d      	mov	r5, r1
 8002a20:	ed97 0a06 	vldr	s0, [r7, #24]
 8002a24:	f7fe fd28 	bl	8001478 <Dec2Rad>
 8002a28:	ee10 3a10 	vmov	r3, s0
 8002a2c:	4618      	mov	r0, r3
 8002a2e:	f7fd fd93 	bl	8000558 <__aeabi_f2d>
 8002a32:	4602      	mov	r2, r0
 8002a34:	460b      	mov	r3, r1
 8002a36:	ec43 2b10 	vmov	d0, r2, r3
 8002a3a:	f00d f9b5 	bl	800fda8 <sin>
 8002a3e:	ec53 2b10 	vmov	r2, r3, d0
 8002a42:	4620      	mov	r0, r4
 8002a44:	4629      	mov	r1, r5
 8002a46:	f7fd fddf 	bl	8000608 <__aeabi_dmul>
 8002a4a:	4602      	mov	r2, r0
 8002a4c:	460b      	mov	r3, r1
 8002a4e:	4614      	mov	r4, r2
 8002a50:	461d      	mov	r5, r3
 8002a52:	ed97 0a05 	vldr	s0, [r7, #20]
 8002a56:	f7fe fd0f 	bl	8001478 <Dec2Rad>
 8002a5a:	ee10 3a10 	vmov	r3, s0
 8002a5e:	4618      	mov	r0, r3
 8002a60:	f7fd fd7a 	bl	8000558 <__aeabi_f2d>
 8002a64:	4602      	mov	r2, r0
 8002a66:	460b      	mov	r3, r1
 8002a68:	ec43 2b10 	vmov	d0, r2, r3
 8002a6c:	f00d f8bc 	bl	800fbe8 <cos>
 8002a70:	ec53 2b10 	vmov	r2, r3, d0
 8002a74:	4620      	mov	r0, r4
 8002a76:	4629      	mov	r1, r5
 8002a78:	f7fd fdc6 	bl	8000608 <__aeabi_dmul>
 8002a7c:	4602      	mov	r2, r0
 8002a7e:	460b      	mov	r3, r1
 8002a80:	4640      	mov	r0, r8
 8002a82:	4649      	mov	r1, r9
 8002a84:	f7fd fc0a 	bl	800029c <__adddf3>
 8002a88:	4602      	mov	r2, r0
 8002a8a:	460b      	mov	r3, r1
 8002a8c:	4690      	mov	r8, r2
 8002a8e:	4699      	mov	r9, r3
 8002a90:	6a7b      	ldr	r3, [r7, #36]	; 0x24
 8002a92:	4618      	mov	r0, r3
 8002a94:	f7fd fd60 	bl	8000558 <__aeabi_f2d>
 8002a98:	4604      	mov	r4, r0
 8002a9a:	460d      	mov	r5, r1
 8002a9c:	ed97 0a06 	vldr	s0, [r7, #24]
 8002aa0:	f7fe fcea 	bl	8001478 <Dec2Rad>
 8002aa4:	ee10 3a10 	vmov	r3, s0
 8002aa8:	4618      	mov	r0, r3
 8002aaa:	f7fd fd55 	bl	8000558 <__aeabi_f2d>
 8002aae:	4602      	mov	r2, r0
 8002ab0:	460b      	mov	r3, r1
 8002ab2:	ec43 2b10 	vmov	d0, r2, r3
 8002ab6:	f00d f897 	bl	800fbe8 <cos>
 8002aba:	ec53 2b10 	vmov	r2, r3, d0
 8002abe:	4620      	mov	r0, r4
 8002ac0:	4629      	mov	r1, r5
 8002ac2:	f7fd fda1 	bl	8000608 <__aeabi_dmul>
 8002ac6:	4602      	mov	r2, r0
 8002ac8:	460b      	mov	r3, r1
 8002aca:	4640      	mov	r0, r8
 8002acc:	4649      	mov	r1, r9
 8002ace:	f7fd fbe5 	bl	800029c <__adddf3>
 8002ad2:	4602      	mov	r2, r0
 8002ad4:	460b      	mov	r3, r1
 8002ad6:	4610      	mov	r0, r2
 8002ad8:	4619      	mov	r1, r3
 8002ada:	f7fe f88d 	bl	8000bf8 <__aeabi_d2f>
 8002ade:	4603      	mov	r3, r0
 8002ae0:	633b      	str	r3, [r7, #48]	; 0x30
	return pos_res;
 8002ae2:	f107 0334 	add.w	r3, r7, #52	; 0x34
 8002ae6:	f107 0228 	add.w	r2, r7, #40	; 0x28
 8002aea:	ca07      	ldmia	r2, {r0, r1, r2}
 8002aec:	e883 0007 	stmia.w	r3, {r0, r1, r2}
 8002af0:	6b79      	ldr	r1, [r7, #52]	; 0x34
 8002af2:	6bba      	ldr	r2, [r7, #56]	; 0x38
 8002af4:	6bfb      	ldr	r3, [r7, #60]	; 0x3c
 8002af6:	ee06 1a90 	vmov	s13, r1
 8002afa:	ee07 2a10 	vmov	s14, r2
 8002afe:	ee07 3a90 	vmov	s15, r3
}
 8002b02:	eeb0 0a66 	vmov.f32	s0, s13
 8002b06:	eef0 0a47 	vmov.f32	s1, s14
 8002b0a:	eeb0 1a67 	vmov.f32	s2, s15
 8002b0e:	3740      	adds	r7, #64	; 0x40
 8002b10:	46bd      	mov	sp, r7
 8002b12:	e8bd 83b0 	ldmia.w	sp!, {r4, r5, r7, r8, r9, pc}

08002b16 <angulo_track_wid>:

float angulo_track_wid(struct posSol pos){
 8002b16:	b580      	push	{r7, lr}
 8002b18:	b086      	sub	sp, #24
 8002b1a:	af00      	add	r7, sp, #0
 8002b1c:	eef0 6a40 	vmov.f32	s13, s0
 8002b20:	eeb0 7a60 	vmov.f32	s14, s1
 8002b24:	eef0 7a41 	vmov.f32	s15, s2
 8002b28:	edc7 6a01 	vstr	s13, [r7, #4]
 8002b2c:	ed87 7a02 	vstr	s14, [r7, #8]
 8002b30:	edc7 7a03 	vstr	s15, [r7, #12]
	float angulo = atan(pos.x / pos.z);
 8002b34:	ed97 7a01 	vldr	s14, [r7, #4]
 8002b38:	edd7 7a03 	vldr	s15, [r7, #12]
 8002b3c:	eec7 6a27 	vdiv.f32	s13, s14, s15
 8002b40:	ee16 0a90 	vmov	r0, s13
 8002b44:	f7fd fd08 	bl	8000558 <__aeabi_f2d>
 8002b48:	4602      	mov	r2, r0
 8002b4a:	460b      	mov	r3, r1
 8002b4c:	ec43 2b10 	vmov	d0, r2, r3
 8002b50:	f00c feaa 	bl	800f8a8 <atan>
 8002b54:	ec53 2b10 	vmov	r2, r3, d0
 8002b58:	4610      	mov	r0, r2
 8002b5a:	4619      	mov	r1, r3
 8002b5c:	f7fe f84c 	bl	8000bf8 <__aeabi_d2f>
 8002b60:	4603      	mov	r3, r0
 8002b62:	617b      	str	r3, [r7, #20]
	//Por convenio cuando el sol se pone colocamos el tracker en posición horizontal, es decir, mirando al zenit
	if(pos.z <= 0){
 8002b64:	edd7 7a03 	vldr	s15, [r7, #12]
 8002b68:	eef5 7ac0 	vcmpe.f32	s15, #0.0
 8002b6c:	eef1 fa10 	vmrs	APSR_nzcv, fpscr
 8002b70:	d802      	bhi.n	8002b78 <angulo_track_wid+0x62>
		angulo = 0;
 8002b72:	f04f 0300 	mov.w	r3, #0
 8002b76:	617b      	str	r3, [r7, #20]
	}
	return Rad2Dec(angulo);
 8002b78:	ed97 0a05 	vldr	s0, [r7, #20]
 8002b7c:	f7fe fca8 	bl	80014d0 <Rad2Dec>
 8002b80:	eef0 7a40 	vmov.f32	s15, s0
}
 8002b84:	eeb0 0a67 	vmov.f32	s0, s15
 8002b88:	3718      	adds	r7, #24
 8002b8a:	46bd      	mov	sp, r7
 8002b8c:	bd80      	pop	{r7, pc}
	...

08002b90 <backtracking>:

float backtracking(struct constantes c, float angulo_wid, struct posSol pos){
 8002b90:	b084      	sub	sp, #16
 8002b92:	e92d 43b0 	stmdb	sp!, {r4, r5, r7, r8, r9, lr}
 8002b96:	b08a      	sub	sp, #40	; 0x28
 8002b98:	af00      	add	r7, sp, #0
 8002b9a:	f107 0c40 	add.w	ip, r7, #64	; 0x40
 8002b9e:	e88c 000f 	stmia.w	ip, {r0, r1, r2, r3}
 8002ba2:	ed87 0a03 	vstr	s0, [r7, #12]
 8002ba6:	eef0 6a60 	vmov.f32	s13, s1
 8002baa:	eeb0 7a41 	vmov.f32	s14, s2
 8002bae:	eef0 7a61 	vmov.f32	s15, s3
 8002bb2:	edc7 6a00 	vstr	s13, [r7]
 8002bb6:	ed87 7a01 	vstr	s14, [r7, #4]
 8002bba:	edc7 7a02 	vstr	s15, [r7, #8]
	float angulo_widc;
	float wc;
	if(c.backtrack == 0){
 8002bbe:	e9d7 0116 	ldrd	r0, r1, [r7, #88]	; 0x58
 8002bc2:	f04f 0200 	mov.w	r2, #0
 8002bc6:	f04f 0300 	mov.w	r3, #0
 8002bca:	f7fd ff85 	bl	8000ad8 <__aeabi_dcmpeq>
 8002bce:	4603      	mov	r3, r0
 8002bd0:	2b00      	cmp	r3, #0
 8002bd2:	d002      	beq.n	8002bda <backtracking+0x4a>
		angulo_widc = angulo_wid;
 8002bd4:	68fb      	ldr	r3, [r7, #12]
 8002bd6:	627b      	str	r3, [r7, #36]	; 0x24
 8002bd8:	e06b      	b.n	8002cb2 <backtracking+0x122>
	}
	else{
		float LEW = 1/c.GCR;
 8002bda:	e9d7 2314 	ldrd	r2, r3, [r7, #80]	; 0x50
 8002bde:	f04f 0000 	mov.w	r0, #0
 8002be2:	4957      	ldr	r1, [pc, #348]	; (8002d40 <backtracking+0x1b0>)
 8002be4:	f7fd fe3a 	bl	800085c <__aeabi_ddiv>
 8002be8:	4602      	mov	r2, r0
 8002bea:	460b      	mov	r3, r1
 8002bec:	4610      	mov	r0, r2
 8002bee:	4619      	mov	r1, r3
 8002bf0:	f7fe f802 	bl	8000bf8 <__aeabi_d2f>
 8002bf4:	4603      	mov	r3, r0
 8002bf6:	61bb      	str	r3, [r7, #24]
		float cos_wc = LEW * cos(Dec2Rad(angulo_wid));
 8002bf8:	69b8      	ldr	r0, [r7, #24]
 8002bfa:	f7fd fcad 	bl	8000558 <__aeabi_f2d>
 8002bfe:	4680      	mov	r8, r0
 8002c00:	4689      	mov	r9, r1
 8002c02:	ed97 0a03 	vldr	s0, [r7, #12]
 8002c06:	f7fe fc37 	bl	8001478 <Dec2Rad>
 8002c0a:	ee10 3a10 	vmov	r3, s0
 8002c0e:	4618      	mov	r0, r3
 8002c10:	f7fd fca2 	bl	8000558 <__aeabi_f2d>
 8002c14:	4602      	mov	r2, r0
 8002c16:	460b      	mov	r3, r1
 8002c18:	ec43 2b10 	vmov	d0, r2, r3
 8002c1c:	f00c ffe4 	bl	800fbe8 <cos>
 8002c20:	ec53 2b10 	vmov	r2, r3, d0
 8002c24:	4640      	mov	r0, r8
 8002c26:	4649      	mov	r1, r9
 8002c28:	f7fd fcee 	bl	8000608 <__aeabi_dmul>
 8002c2c:	4602      	mov	r2, r0
 8002c2e:	460b      	mov	r3, r1
 8002c30:	4610      	mov	r0, r2
 8002c32:	4619      	mov	r1, r3
 8002c34:	f7fd ffe0 	bl	8000bf8 <__aeabi_d2f>
 8002c38:	4603      	mov	r3, r0
 8002c3a:	623b      	str	r3, [r7, #32]
		if(cos_wc > 1){
 8002c3c:	edd7 7a08 	vldr	s15, [r7, #32]
 8002c40:	eeb7 7a00 	vmov.f32	s14, #112	; 0x3f800000  1.0
 8002c44:	eef4 7ac7 	vcmpe.f32	s15, s14
 8002c48:	eef1 fa10 	vmrs	APSR_nzcv, fpscr
 8002c4c:	dd02      	ble.n	8002c54 <backtracking+0xc4>
			cos_wc = 1;
 8002c4e:	f04f 537e 	mov.w	r3, #1065353216	; 0x3f800000
 8002c52:	623b      	str	r3, [r7, #32]
		}
		wc = acos(cos_wc); //angulo backtracking, siempre +
 8002c54:	6a38      	ldr	r0, [r7, #32]
 8002c56:	f7fd fc7f 	bl	8000558 <__aeabi_f2d>
 8002c5a:	4602      	mov	r2, r0
 8002c5c:	460b      	mov	r3, r1
 8002c5e:	ec43 2b10 	vmov	d0, r2, r3
 8002c62:	f00d f92d 	bl	800fec0 <acos>
 8002c66:	ec53 2b10 	vmov	r2, r3, d0
 8002c6a:	4610      	mov	r0, r2
 8002c6c:	4619      	mov	r1, r3
 8002c6e:	f7fd ffc3 	bl	8000bf8 <__aeabi_d2f>
 8002c72:	4603      	mov	r3, r0
 8002c74:	617b      	str	r3, [r7, #20]
		wc = Rad2Dec(wc);
 8002c76:	ed97 0a05 	vldr	s0, [r7, #20]
 8002c7a:	f7fe fc29 	bl	80014d0 <Rad2Dec>
 8002c7e:	ed87 0a05 	vstr	s0, [r7, #20]
		if(angulo_wid >= 0){
 8002c82:	edd7 7a03 	vldr	s15, [r7, #12]
 8002c86:	eef5 7ac0 	vcmpe.f32	s15, #0.0
 8002c8a:	eef1 fa10 	vmrs	APSR_nzcv, fpscr
 8002c8e:	db08      	blt.n	8002ca2 <backtracking+0x112>
			angulo_widc = angulo_wid - wc;
 8002c90:	ed97 7a03 	vldr	s14, [r7, #12]
 8002c94:	edd7 7a05 	vldr	s15, [r7, #20]
 8002c98:	ee77 7a67 	vsub.f32	s15, s14, s15
 8002c9c:	edc7 7a09 	vstr	s15, [r7, #36]	; 0x24
 8002ca0:	e007      	b.n	8002cb2 <backtracking+0x122>
		}else{
			angulo_widc = angulo_wid + wc;
 8002ca2:	ed97 7a03 	vldr	s14, [r7, #12]
 8002ca6:	edd7 7a05 	vldr	s15, [r7, #20]
 8002caa:	ee77 7a27 	vadd.f32	s15, s14, s15
 8002cae:	edc7 7a09 	vstr	s15, [r7, #36]	; 0x24
		}
	}

	//Aplicar correcciones de ángulo máximo y mínimo
	float angulo_tracker;
	if(pos.z <= 0){
 8002cb2:	edd7 7a02 	vldr	s15, [r7, #8]
 8002cb6:	eef5 7ac0 	vcmpe.f32	s15, #0.0
 8002cba:	eef1 fa10 	vmrs	APSR_nzcv, fpscr
 8002cbe:	d803      	bhi.n	8002cc8 <backtracking+0x138>
		angulo_tracker = 0; //el sol esta por debajo de la horizontal, por convenio colocamos el tracker en posicion horizontal
 8002cc0:	f04f 0300 	mov.w	r3, #0
 8002cc4:	61fb      	str	r3, [r7, #28]
 8002cc6:	e001      	b.n	8002ccc <backtracking+0x13c>
	}
	else{
		angulo_tracker = angulo_widc;
 8002cc8:	6a7b      	ldr	r3, [r7, #36]	; 0x24
 8002cca:	61fb      	str	r3, [r7, #28]
	}

	if(angulo_tracker > c.angulo_max){
 8002ccc:	69f8      	ldr	r0, [r7, #28]
 8002cce:	f7fd fc43 	bl	8000558 <__aeabi_f2d>
 8002cd2:	e9d7 2318 	ldrd	r2, r3, [r7, #96]	; 0x60
 8002cd6:	f7fd ff27 	bl	8000b28 <__aeabi_dcmpgt>
 8002cda:	4603      	mov	r3, r0
 8002cdc:	2b00      	cmp	r3, #0
 8002cde:	d008      	beq.n	8002cf2 <backtracking+0x162>
		angulo_tracker = c.angulo_max;
 8002ce0:	e9d7 2318 	ldrd	r2, r3, [r7, #96]	; 0x60
 8002ce4:	4610      	mov	r0, r2
 8002ce6:	4619      	mov	r1, r3
 8002ce8:	f7fd ff86 	bl	8000bf8 <__aeabi_d2f>
 8002cec:	4603      	mov	r3, r0
 8002cee:	61fb      	str	r3, [r7, #28]
 8002cf0:	e01b      	b.n	8002d2a <backtracking+0x19a>
	}
	else if(angulo_tracker < (-c.angulo_max)){
 8002cf2:	69f8      	ldr	r0, [r7, #28]
 8002cf4:	f7fd fc30 	bl	8000558 <__aeabi_f2d>
 8002cf8:	e9d7 2318 	ldrd	r2, r3, [r7, #96]	; 0x60
 8002cfc:	4614      	mov	r4, r2
 8002cfe:	f083 4500 	eor.w	r5, r3, #2147483648	; 0x80000000
 8002d02:	4622      	mov	r2, r4
 8002d04:	462b      	mov	r3, r5
 8002d06:	f7fd fef1 	bl	8000aec <__aeabi_dcmplt>
 8002d0a:	4603      	mov	r3, r0
 8002d0c:	2b00      	cmp	r3, #0
 8002d0e:	d00c      	beq.n	8002d2a <backtracking+0x19a>
		angulo_tracker = -c.angulo_max;
 8002d10:	e9d7 2318 	ldrd	r2, r3, [r7, #96]	; 0x60
 8002d14:	4610      	mov	r0, r2
 8002d16:	4619      	mov	r1, r3
 8002d18:	f7fd ff6e 	bl	8000bf8 <__aeabi_d2f>
 8002d1c:	4603      	mov	r3, r0
 8002d1e:	ee07 3a90 	vmov	s15, r3
 8002d22:	eef1 7a67 	vneg.f32	s15, s15
 8002d26:	edc7 7a07 	vstr	s15, [r7, #28]
	}

	return angulo_tracker;
 8002d2a:	69fb      	ldr	r3, [r7, #28]
 8002d2c:	ee07 3a90 	vmov	s15, r3
}
 8002d30:	eeb0 0a67 	vmov.f32	s0, s15
 8002d34:	3728      	adds	r7, #40	; 0x28
 8002d36:	46bd      	mov	sp, r7
 8002d38:	e8bd 43b0 	ldmia.w	sp!, {r4, r5, r7, r8, r9, lr}
 8002d3c:	b004      	add	sp, #16
 8002d3e:	4770      	bx	lr
 8002d40:	3ff00000 	.word	0x3ff00000

08002d44 <L6474_AttachErrorHandler>:
 * @param[in] callback Name of the callback to attach 
 * to the error Hanlder
 * @retval None
 **********************************************************/
void L6474_AttachErrorHandler(void (*callback)(uint16_t))
{
 8002d44:	b480      	push	{r7}
 8002d46:	b083      	sub	sp, #12
 8002d48:	af00      	add	r7, sp, #0
 8002d4a:	6078      	str	r0, [r7, #4]
  errorHandlerCallback = (void (*)(uint16_t))callback;
 8002d4c:	4a04      	ldr	r2, [pc, #16]	; (8002d60 <L6474_AttachErrorHandler+0x1c>)
 8002d4e:	687b      	ldr	r3, [r7, #4]
 8002d50:	6013      	str	r3, [r2, #0]
}
 8002d52:	bf00      	nop
 8002d54:	370c      	adds	r7, #12
 8002d56:	46bd      	mov	sp, r7
 8002d58:	f85d 7b04 	ldr.w	r7, [sp], #4
 8002d5c:	4770      	bx	lr
 8002d5e:	bf00      	nop
 8002d60:	200003e0 	.word	0x200003e0

08002d64 <L6474_AttachFlagInterrupt>:
 * @param[in] callback Name of the callback to attach 
 * to the Flag Interrupt
 * @retval None
 **********************************************************/
void L6474_AttachFlagInterrupt(void (*callback)(void))
{
 8002d64:	b480      	push	{r7}
 8002d66:	b083      	sub	sp, #12
 8002d68:	af00      	add	r7, sp, #0
 8002d6a:	6078      	str	r0, [r7, #4]
  flagInterruptCallback = (void (*)())callback;
 8002d6c:	4a04      	ldr	r2, [pc, #16]	; (8002d80 <L6474_AttachFlagInterrupt+0x1c>)
 8002d6e:	687b      	ldr	r3, [r7, #4]
 8002d70:	6013      	str	r3, [r2, #0]
}
 8002d72:	bf00      	nop
 8002d74:	370c      	adds	r7, #12
 8002d76:	46bd      	mov	sp, r7
 8002d78:	f85d 7b04 	ldr.w	r7, [sp], #4
 8002d7c:	4770      	bx	lr
 8002d7e:	bf00      	nop
 8002d80:	200003dc 	.word	0x200003dc

08002d84 <L6474_CmdDisable>:
 * @brief  Issue the Disable command to the L6474 of the specified device
 * @param[in] deviceId (from 0 to 2)
 * @retval None
 **********************************************************/
void L6474_CmdDisable(uint8_t deviceId)
{
 8002d84:	b580      	push	{r7, lr}
 8002d86:	b082      	sub	sp, #8
 8002d88:	af00      	add	r7, sp, #0
 8002d8a:	4603      	mov	r3, r0
 8002d8c:	71fb      	strb	r3, [r7, #7]
  L6474_SendCommand(deviceId, L6474_DISABLE);
 8002d8e:	79fb      	ldrb	r3, [r7, #7]
 8002d90:	21a8      	movs	r1, #168	; 0xa8
 8002d92:	4618      	mov	r0, r3
 8002d94:	f001 fb16 	bl	80043c4 <L6474_SendCommand>
}
 8002d98:	bf00      	nop
 8002d9a:	3708      	adds	r7, #8
 8002d9c:	46bd      	mov	sp, r7
 8002d9e:	bd80      	pop	{r7, pc}

08002da0 <L6474_CmdEnable>:
 * @brief  Issues the Enable command to the L6474 of the specified device
 * @param[in] deviceId (from 0 to 2)
 * @retval None
 **********************************************************/
void L6474_CmdEnable(uint8_t deviceId)
{
 8002da0:	b580      	push	{r7, lr}
 8002da2:	b082      	sub	sp, #8
 8002da4:	af00      	add	r7, sp, #0
 8002da6:	4603      	mov	r3, r0
 8002da8:	71fb      	strb	r3, [r7, #7]
  L6474_SendCommand(deviceId, L6474_ENABLE);
 8002daa:	79fb      	ldrb	r3, [r7, #7]
 8002dac:	21b8      	movs	r1, #184	; 0xb8
 8002dae:	4618      	mov	r0, r3
 8002db0:	f001 fb08 	bl	80043c4 <L6474_SendCommand>
}
 8002db4:	bf00      	nop
 8002db6:	3708      	adds	r7, #8
 8002db8:	46bd      	mov	sp, r7
 8002dba:	bd80      	pop	{r7, pc}

08002dbc <L6474_CmdGetParam>:
 * @param[in] deviceId (from 0 to 2)
 * @param[in] param Register adress (L6474_ABS_POS, L6474_MARK,...)
 * @retval Register value
 **********************************************************/
uint32_t L6474_CmdGetParam(uint8_t deviceId, uint32_t param)
{
 8002dbc:	b580      	push	{r7, lr}
 8002dbe:	b086      	sub	sp, #24
 8002dc0:	af00      	add	r7, sp, #0
 8002dc2:	4603      	mov	r3, r0
 8002dc4:	6039      	str	r1, [r7, #0]
 8002dc6:	71fb      	strb	r3, [r7, #7]
  uint32_t i;
  uint32_t spiRxData;
  uint8_t maxArgumentNbBytes = 0;
 8002dc8:	2300      	movs	r3, #0
 8002dca:	74fb      	strb	r3, [r7, #19]
  uint8_t spiIndex = numberOfDevices - deviceId - 1;
 8002dcc:	4b71      	ldr	r3, [pc, #452]	; (8002f94 <L6474_CmdGetParam+0x1d8>)
 8002dce:	781b      	ldrb	r3, [r3, #0]
 8002dd0:	b2da      	uxtb	r2, r3
 8002dd2:	79fb      	ldrb	r3, [r7, #7]
 8002dd4:	1ad3      	subs	r3, r2, r3
 8002dd6:	b2db      	uxtb	r3, r3
 8002dd8:	3b01      	subs	r3, #1
 8002dda:	747b      	strb	r3, [r7, #17]
  bool itDisable = FALSE;  
 8002ddc:	2300      	movs	r3, #0
 8002dde:	74bb      	strb	r3, [r7, #18]
  
  do
  {
    spiPreemtionByIsr = FALSE;
 8002de0:	4b6d      	ldr	r3, [pc, #436]	; (8002f98 <L6474_CmdGetParam+0x1dc>)
 8002de2:	2200      	movs	r2, #0
 8002de4:	701a      	strb	r2, [r3, #0]
    if (itDisable)
 8002de6:	7cbb      	ldrb	r3, [r7, #18]
 8002de8:	2b00      	cmp	r3, #0
 8002dea:	d003      	beq.n	8002df4 <L6474_CmdGetParam+0x38>
    {
      /* re-enable L6474_Board_EnableIrq if disable in previous iteration */
      L6474_Board_EnableIrq();
 8002dec:	f003 ff5a 	bl	8006ca4 <L6474_Board_EnableIrq>
      itDisable = FALSE;
 8002df0:	2300      	movs	r3, #0
 8002df2:	74bb      	strb	r3, [r7, #18]
    }
  
    for (i = 0; i < numberOfDevices; i++)
 8002df4:	2300      	movs	r3, #0
 8002df6:	617b      	str	r3, [r7, #20]
 8002df8:	e02b      	b.n	8002e52 <L6474_CmdGetParam+0x96>
    {
      spiTxBursts[0][i] = L6474_NOP;
 8002dfa:	4a68      	ldr	r2, [pc, #416]	; (8002f9c <L6474_CmdGetParam+0x1e0>)
 8002dfc:	697b      	ldr	r3, [r7, #20]
 8002dfe:	4413      	add	r3, r2
 8002e00:	2200      	movs	r2, #0
 8002e02:	701a      	strb	r2, [r3, #0]
      spiTxBursts[1][i] = L6474_NOP;
 8002e04:	4a65      	ldr	r2, [pc, #404]	; (8002f9c <L6474_CmdGetParam+0x1e0>)
 8002e06:	697b      	ldr	r3, [r7, #20]
 8002e08:	4413      	add	r3, r2
 8002e0a:	3303      	adds	r3, #3
 8002e0c:	2200      	movs	r2, #0
 8002e0e:	701a      	strb	r2, [r3, #0]
      spiTxBursts[2][i] = L6474_NOP;
 8002e10:	4a62      	ldr	r2, [pc, #392]	; (8002f9c <L6474_CmdGetParam+0x1e0>)
 8002e12:	697b      	ldr	r3, [r7, #20]
 8002e14:	4413      	add	r3, r2
 8002e16:	3306      	adds	r3, #6
 8002e18:	2200      	movs	r2, #0
 8002e1a:	701a      	strb	r2, [r3, #0]
      spiTxBursts[3][i] = L6474_NOP;
 8002e1c:	4a5f      	ldr	r2, [pc, #380]	; (8002f9c <L6474_CmdGetParam+0x1e0>)
 8002e1e:	697b      	ldr	r3, [r7, #20]
 8002e20:	4413      	add	r3, r2
 8002e22:	3309      	adds	r3, #9
 8002e24:	2200      	movs	r2, #0
 8002e26:	701a      	strb	r2, [r3, #0]
      spiRxBursts[1][i] = 0;
 8002e28:	4a5d      	ldr	r2, [pc, #372]	; (8002fa0 <L6474_CmdGetParam+0x1e4>)
 8002e2a:	697b      	ldr	r3, [r7, #20]
 8002e2c:	4413      	add	r3, r2
 8002e2e:	3303      	adds	r3, #3
 8002e30:	2200      	movs	r2, #0
 8002e32:	701a      	strb	r2, [r3, #0]
      spiRxBursts[2][i] = 0;
 8002e34:	4a5a      	ldr	r2, [pc, #360]	; (8002fa0 <L6474_CmdGetParam+0x1e4>)
 8002e36:	697b      	ldr	r3, [r7, #20]
 8002e38:	4413      	add	r3, r2
 8002e3a:	3306      	adds	r3, #6
 8002e3c:	2200      	movs	r2, #0
 8002e3e:	701a      	strb	r2, [r3, #0]
      spiRxBursts[3][i] = 0;    
 8002e40:	4a57      	ldr	r2, [pc, #348]	; (8002fa0 <L6474_CmdGetParam+0x1e4>)
 8002e42:	697b      	ldr	r3, [r7, #20]
 8002e44:	4413      	add	r3, r2
 8002e46:	3309      	adds	r3, #9
 8002e48:	2200      	movs	r2, #0
 8002e4a:	701a      	strb	r2, [r3, #0]
    for (i = 0; i < numberOfDevices; i++)
 8002e4c:	697b      	ldr	r3, [r7, #20]
 8002e4e:	3301      	adds	r3, #1
 8002e50:	617b      	str	r3, [r7, #20]
 8002e52:	4b50      	ldr	r3, [pc, #320]	; (8002f94 <L6474_CmdGetParam+0x1d8>)
 8002e54:	781b      	ldrb	r3, [r3, #0]
 8002e56:	b2db      	uxtb	r3, r3
 8002e58:	461a      	mov	r2, r3
 8002e5a:	697b      	ldr	r3, [r7, #20]
 8002e5c:	4293      	cmp	r3, r2
 8002e5e:	d3cc      	bcc.n	8002dfa <L6474_CmdGetParam+0x3e>
    }
    switch (param)
 8002e60:	683b      	ldr	r3, [r7, #0]
 8002e62:	3b01      	subs	r3, #1
 8002e64:	2b18      	cmp	r3, #24
 8002e66:	d84d      	bhi.n	8002f04 <L6474_CmdGetParam+0x148>
 8002e68:	a201      	add	r2, pc, #4	; (adr r2, 8002e70 <L6474_CmdGetParam+0xb4>)
 8002e6a:	f852 f023 	ldr.w	pc, [r2, r3, lsl #2]
 8002e6e:	bf00      	nop
 8002e70:	08002ed5 	.word	0x08002ed5
 8002e74:	08002eeb 	.word	0x08002eeb
 8002e78:	08002ed5 	.word	0x08002ed5
 8002e7c:	08002f05 	.word	0x08002f05
 8002e80:	08002f05 	.word	0x08002f05
 8002e84:	08002f05 	.word	0x08002f05
 8002e88:	08002f05 	.word	0x08002f05
 8002e8c:	08002f05 	.word	0x08002f05
 8002e90:	08002f05 	.word	0x08002f05
 8002e94:	08002f05 	.word	0x08002f05
 8002e98:	08002f05 	.word	0x08002f05
 8002e9c:	08002f05 	.word	0x08002f05
 8002ea0:	08002f05 	.word	0x08002f05
 8002ea4:	08002f05 	.word	0x08002f05
 8002ea8:	08002f05 	.word	0x08002f05
 8002eac:	08002f05 	.word	0x08002f05
 8002eb0:	08002f05 	.word	0x08002f05
 8002eb4:	08002f05 	.word	0x08002f05
 8002eb8:	08002f05 	.word	0x08002f05
 8002ebc:	08002f05 	.word	0x08002f05
 8002ec0:	08002f05 	.word	0x08002f05
 8002ec4:	08002f05 	.word	0x08002f05
 8002ec8:	08002f05 	.word	0x08002f05
 8002ecc:	08002eeb 	.word	0x08002eeb
 8002ed0:	08002eeb 	.word	0x08002eeb
    {
      case L6474_ABS_POS: ;
      case L6474_MARK:
        spiTxBursts[0][spiIndex] = ((uint8_t)L6474_GET_PARAM )| (param);
 8002ed4:	683b      	ldr	r3, [r7, #0]
 8002ed6:	b2da      	uxtb	r2, r3
 8002ed8:	7c7b      	ldrb	r3, [r7, #17]
 8002eda:	f042 0220 	orr.w	r2, r2, #32
 8002ede:	b2d1      	uxtb	r1, r2
 8002ee0:	4a2e      	ldr	r2, [pc, #184]	; (8002f9c <L6474_CmdGetParam+0x1e0>)
 8002ee2:	54d1      	strb	r1, [r2, r3]
        maxArgumentNbBytes = 3;
 8002ee4:	2303      	movs	r3, #3
 8002ee6:	74fb      	strb	r3, [r7, #19]
        break;
 8002ee8:	e018      	b.n	8002f1c <L6474_CmdGetParam+0x160>
      case L6474_EL_POS: ;
      case L6474_CONFIG: ;
      case L6474_STATUS:
        spiTxBursts[1][spiIndex] = ((uint8_t)L6474_GET_PARAM )| (param);
 8002eea:	683b      	ldr	r3, [r7, #0]
 8002eec:	b2da      	uxtb	r2, r3
 8002eee:	7c7b      	ldrb	r3, [r7, #17]
 8002ef0:	f042 0220 	orr.w	r2, r2, #32
 8002ef4:	b2d1      	uxtb	r1, r2
 8002ef6:	4a29      	ldr	r2, [pc, #164]	; (8002f9c <L6474_CmdGetParam+0x1e0>)
 8002ef8:	4413      	add	r3, r2
 8002efa:	460a      	mov	r2, r1
 8002efc:	70da      	strb	r2, [r3, #3]
        maxArgumentNbBytes = 2;
 8002efe:	2302      	movs	r3, #2
 8002f00:	74fb      	strb	r3, [r7, #19]
        break;
 8002f02:	e00b      	b.n	8002f1c <L6474_CmdGetParam+0x160>
      default:
        spiTxBursts[2][spiIndex] = ((uint8_t)L6474_GET_PARAM )| (param);
 8002f04:	683b      	ldr	r3, [r7, #0]
 8002f06:	b2da      	uxtb	r2, r3
 8002f08:	7c7b      	ldrb	r3, [r7, #17]
 8002f0a:	f042 0220 	orr.w	r2, r2, #32
 8002f0e:	b2d1      	uxtb	r1, r2
 8002f10:	4a22      	ldr	r2, [pc, #136]	; (8002f9c <L6474_CmdGetParam+0x1e0>)
 8002f12:	4413      	add	r3, r2
 8002f14:	460a      	mov	r2, r1
 8002f16:	719a      	strb	r2, [r3, #6]
        maxArgumentNbBytes = 1;
 8002f18:	2301      	movs	r3, #1
 8002f1a:	74fb      	strb	r3, [r7, #19]
    }
    
    /* Disable interruption before checking */
    /* pre-emption by ISR and SPI transfers*/
    L6474_Board_DisableIrq();
 8002f1c:	f003 feb9 	bl	8006c92 <L6474_Board_DisableIrq>
    itDisable = TRUE;
 8002f20:	2301      	movs	r3, #1
 8002f22:	74bb      	strb	r3, [r7, #18]
  } while (spiPreemtionByIsr); // check pre-emption by ISR
 8002f24:	4b1c      	ldr	r3, [pc, #112]	; (8002f98 <L6474_CmdGetParam+0x1dc>)
 8002f26:	781b      	ldrb	r3, [r3, #0]
 8002f28:	b2db      	uxtb	r3, r3
 8002f2a:	2b00      	cmp	r3, #0
 8002f2c:	f47f af58 	bne.w	8002de0 <L6474_CmdGetParam+0x24>
    
  for (i = L6474_CMD_ARG_MAX_NB_BYTES-1-maxArgumentNbBytes;
 8002f30:	7cfb      	ldrb	r3, [r7, #19]
 8002f32:	f1c3 0303 	rsb	r3, r3, #3
 8002f36:	617b      	str	r3, [r7, #20]
 8002f38:	e011      	b.n	8002f5e <L6474_CmdGetParam+0x1a2>
       i < L6474_CMD_ARG_MAX_NB_BYTES;
       i++)
  {
     L6474_WriteBytes(&spiTxBursts[i][0],
 8002f3a:	697a      	ldr	r2, [r7, #20]
 8002f3c:	4613      	mov	r3, r2
 8002f3e:	005b      	lsls	r3, r3, #1
 8002f40:	4413      	add	r3, r2
 8002f42:	4a16      	ldr	r2, [pc, #88]	; (8002f9c <L6474_CmdGetParam+0x1e0>)
 8002f44:	1898      	adds	r0, r3, r2
 8002f46:	697a      	ldr	r2, [r7, #20]
 8002f48:	4613      	mov	r3, r2
 8002f4a:	005b      	lsls	r3, r3, #1
 8002f4c:	4413      	add	r3, r2
 8002f4e:	4a14      	ldr	r2, [pc, #80]	; (8002fa0 <L6474_CmdGetParam+0x1e4>)
 8002f50:	4413      	add	r3, r2
 8002f52:	4619      	mov	r1, r3
 8002f54:	f002 f91e 	bl	8005194 <L6474_WriteBytes>
       i++)
 8002f58:	697b      	ldr	r3, [r7, #20]
 8002f5a:	3301      	adds	r3, #1
 8002f5c:	617b      	str	r3, [r7, #20]
  for (i = L6474_CMD_ARG_MAX_NB_BYTES-1-maxArgumentNbBytes;
 8002f5e:	697b      	ldr	r3, [r7, #20]
 8002f60:	2b03      	cmp	r3, #3
 8002f62:	d9ea      	bls.n	8002f3a <L6474_CmdGetParam+0x17e>
                          &spiRxBursts[i][0]);
  }
  
  spiRxData = ((uint32_t)spiRxBursts[1][spiIndex] << 16)|
 8002f64:	7c7b      	ldrb	r3, [r7, #17]
 8002f66:	4a0e      	ldr	r2, [pc, #56]	; (8002fa0 <L6474_CmdGetParam+0x1e4>)
 8002f68:	4413      	add	r3, r2
 8002f6a:	78db      	ldrb	r3, [r3, #3]
 8002f6c:	041b      	lsls	r3, r3, #16
              (spiRxBursts[2][spiIndex] << 8) |
 8002f6e:	7c7a      	ldrb	r2, [r7, #17]
 8002f70:	490b      	ldr	r1, [pc, #44]	; (8002fa0 <L6474_CmdGetParam+0x1e4>)
 8002f72:	440a      	add	r2, r1
 8002f74:	7992      	ldrb	r2, [r2, #6]
 8002f76:	0212      	lsls	r2, r2, #8
  spiRxData = ((uint32_t)spiRxBursts[1][spiIndex] << 16)|
 8002f78:	4313      	orrs	r3, r2
              (spiRxBursts[3][spiIndex]);
 8002f7a:	7c7a      	ldrb	r2, [r7, #17]
 8002f7c:	4908      	ldr	r1, [pc, #32]	; (8002fa0 <L6474_CmdGetParam+0x1e4>)
 8002f7e:	440a      	add	r2, r1
 8002f80:	7a52      	ldrb	r2, [r2, #9]
  spiRxData = ((uint32_t)spiRxBursts[1][spiIndex] << 16)|
 8002f82:	4313      	orrs	r3, r2
 8002f84:	60fb      	str	r3, [r7, #12]
  
  /* re-enable L6474_Board_EnableIrq after SPI transfers*/
  L6474_Board_EnableIrq();
 8002f86:	f003 fe8d 	bl	8006ca4 <L6474_Board_EnableIrq>
    
  return (spiRxData);
 8002f8a:	68fb      	ldr	r3, [r7, #12]
}
 8002f8c:	4618      	mov	r0, r3
 8002f8e:	3718      	adds	r7, #24
 8002f90:	46bd      	mov	sp, r7
 8002f92:	bd80      	pop	{r7, pc}
 8002f94:	200003e4 	.word	0x200003e4
 8002f98:	20000400 	.word	0x20000400
 8002f9c:	200003e8 	.word	0x200003e8
 8002fa0:	200003f4 	.word	0x200003f4

08002fa4 <L6474_CmdGetStatus>:
 * @note Once the GetStatus command is performed, the flags of the status register
 * are reset. This is not the case when the status register is read with the
 * GetParam command (via the functions L6474ReadStatusRegister or L6474CmdGetParam).
 **********************************************************/
uint16_t L6474_CmdGetStatus(uint8_t deviceId)
{
 8002fa4:	b580      	push	{r7, lr}
 8002fa6:	b084      	sub	sp, #16
 8002fa8:	af00      	add	r7, sp, #0
 8002faa:	4603      	mov	r3, r0
 8002fac:	71fb      	strb	r3, [r7, #7]
  uint32_t i;
  uint16_t status;
  uint8_t spiIndex = numberOfDevices - deviceId - 1;
 8002fae:	4b3c      	ldr	r3, [pc, #240]	; (80030a0 <L6474_CmdGetStatus+0xfc>)
 8002fb0:	781b      	ldrb	r3, [r3, #0]
 8002fb2:	b2da      	uxtb	r2, r3
 8002fb4:	79fb      	ldrb	r3, [r7, #7]
 8002fb6:	1ad3      	subs	r3, r2, r3
 8002fb8:	b2db      	uxtb	r3, r3
 8002fba:	3b01      	subs	r3, #1
 8002fbc:	72bb      	strb	r3, [r7, #10]
  bool itDisable = FALSE;  
 8002fbe:	2300      	movs	r3, #0
 8002fc0:	72fb      	strb	r3, [r7, #11]
  
  do
  {
    spiPreemtionByIsr = FALSE;
 8002fc2:	4b38      	ldr	r3, [pc, #224]	; (80030a4 <L6474_CmdGetStatus+0x100>)
 8002fc4:	2200      	movs	r2, #0
 8002fc6:	701a      	strb	r2, [r3, #0]
    if (itDisable)
 8002fc8:	7afb      	ldrb	r3, [r7, #11]
 8002fca:	2b00      	cmp	r3, #0
 8002fcc:	d003      	beq.n	8002fd6 <L6474_CmdGetStatus+0x32>
    {
      /* re-enable L6474_Board_EnableIrq if disable in previous iteration */
      L6474_Board_EnableIrq();
 8002fce:	f003 fe69 	bl	8006ca4 <L6474_Board_EnableIrq>
      itDisable = FALSE;
 8002fd2:	2300      	movs	r3, #0
 8002fd4:	72fb      	strb	r3, [r7, #11]
    }

    for (i = 0; i < numberOfDevices; i++)
 8002fd6:	2300      	movs	r3, #0
 8002fd8:	60fb      	str	r3, [r7, #12]
 8002fda:	e01f      	b.n	800301c <L6474_CmdGetStatus+0x78>
    {
       spiTxBursts[0][i] = L6474_NOP;
 8002fdc:	4a32      	ldr	r2, [pc, #200]	; (80030a8 <L6474_CmdGetStatus+0x104>)
 8002fde:	68fb      	ldr	r3, [r7, #12]
 8002fe0:	4413      	add	r3, r2
 8002fe2:	2200      	movs	r2, #0
 8002fe4:	701a      	strb	r2, [r3, #0]
       spiTxBursts[1][i] = L6474_NOP;
 8002fe6:	4a30      	ldr	r2, [pc, #192]	; (80030a8 <L6474_CmdGetStatus+0x104>)
 8002fe8:	68fb      	ldr	r3, [r7, #12]
 8002fea:	4413      	add	r3, r2
 8002fec:	3303      	adds	r3, #3
 8002fee:	2200      	movs	r2, #0
 8002ff0:	701a      	strb	r2, [r3, #0]
       spiTxBursts[2][i] = L6474_NOP;
 8002ff2:	4a2d      	ldr	r2, [pc, #180]	; (80030a8 <L6474_CmdGetStatus+0x104>)
 8002ff4:	68fb      	ldr	r3, [r7, #12]
 8002ff6:	4413      	add	r3, r2
 8002ff8:	3306      	adds	r3, #6
 8002ffa:	2200      	movs	r2, #0
 8002ffc:	701a      	strb	r2, [r3, #0]
       spiRxBursts[1][i] = 0;
 8002ffe:	4a2b      	ldr	r2, [pc, #172]	; (80030ac <L6474_CmdGetStatus+0x108>)
 8003000:	68fb      	ldr	r3, [r7, #12]
 8003002:	4413      	add	r3, r2
 8003004:	3303      	adds	r3, #3
 8003006:	2200      	movs	r2, #0
 8003008:	701a      	strb	r2, [r3, #0]
       spiRxBursts[2][i] = 0;
 800300a:	4a28      	ldr	r2, [pc, #160]	; (80030ac <L6474_CmdGetStatus+0x108>)
 800300c:	68fb      	ldr	r3, [r7, #12]
 800300e:	4413      	add	r3, r2
 8003010:	3306      	adds	r3, #6
 8003012:	2200      	movs	r2, #0
 8003014:	701a      	strb	r2, [r3, #0]
    for (i = 0; i < numberOfDevices; i++)
 8003016:	68fb      	ldr	r3, [r7, #12]
 8003018:	3301      	adds	r3, #1
 800301a:	60fb      	str	r3, [r7, #12]
 800301c:	4b20      	ldr	r3, [pc, #128]	; (80030a0 <L6474_CmdGetStatus+0xfc>)
 800301e:	781b      	ldrb	r3, [r3, #0]
 8003020:	b2db      	uxtb	r3, r3
 8003022:	461a      	mov	r2, r3
 8003024:	68fb      	ldr	r3, [r7, #12]
 8003026:	4293      	cmp	r3, r2
 8003028:	d3d8      	bcc.n	8002fdc <L6474_CmdGetStatus+0x38>
    }
    spiTxBursts[0][spiIndex] = L6474_GET_STATUS;
 800302a:	7abb      	ldrb	r3, [r7, #10]
 800302c:	4a1e      	ldr	r2, [pc, #120]	; (80030a8 <L6474_CmdGetStatus+0x104>)
 800302e:	21d0      	movs	r1, #208	; 0xd0
 8003030:	54d1      	strb	r1, [r2, r3]

    /* Disable interruption before checking */
    /* pre-emption by ISR and SPI transfers*/
    L6474_Board_DisableIrq();
 8003032:	f003 fe2e 	bl	8006c92 <L6474_Board_DisableIrq>
    itDisable = TRUE;
 8003036:	2301      	movs	r3, #1
 8003038:	72fb      	strb	r3, [r7, #11]
  } while (spiPreemtionByIsr); // check pre-emption by ISR
 800303a:	4b1a      	ldr	r3, [pc, #104]	; (80030a4 <L6474_CmdGetStatus+0x100>)
 800303c:	781b      	ldrb	r3, [r3, #0]
 800303e:	b2db      	uxtb	r3, r3
 8003040:	2b00      	cmp	r3, #0
 8003042:	d1be      	bne.n	8002fc2 <L6474_CmdGetStatus+0x1e>

  for (i = 0; i < L6474_CMD_ARG_NB_BYTES_GET_STATUS + L6474_RSP_NB_BYTES_GET_STATUS; i++)
 8003044:	2300      	movs	r3, #0
 8003046:	60fb      	str	r3, [r7, #12]
 8003048:	e011      	b.n	800306e <L6474_CmdGetStatus+0xca>
  {
     L6474_WriteBytes(&spiTxBursts[i][0], &spiRxBursts[i][0]);
 800304a:	68fa      	ldr	r2, [r7, #12]
 800304c:	4613      	mov	r3, r2
 800304e:	005b      	lsls	r3, r3, #1
 8003050:	4413      	add	r3, r2
 8003052:	4a15      	ldr	r2, [pc, #84]	; (80030a8 <L6474_CmdGetStatus+0x104>)
 8003054:	1898      	adds	r0, r3, r2
 8003056:	68fa      	ldr	r2, [r7, #12]
 8003058:	4613      	mov	r3, r2
 800305a:	005b      	lsls	r3, r3, #1
 800305c:	4413      	add	r3, r2
 800305e:	4a13      	ldr	r2, [pc, #76]	; (80030ac <L6474_CmdGetStatus+0x108>)
 8003060:	4413      	add	r3, r2
 8003062:	4619      	mov	r1, r3
 8003064:	f002 f896 	bl	8005194 <L6474_WriteBytes>
  for (i = 0; i < L6474_CMD_ARG_NB_BYTES_GET_STATUS + L6474_RSP_NB_BYTES_GET_STATUS; i++)
 8003068:	68fb      	ldr	r3, [r7, #12]
 800306a:	3301      	adds	r3, #1
 800306c:	60fb      	str	r3, [r7, #12]
 800306e:	68fb      	ldr	r3, [r7, #12]
 8003070:	2b02      	cmp	r3, #2
 8003072:	d9ea      	bls.n	800304a <L6474_CmdGetStatus+0xa6>
  }
  status = (spiRxBursts[1][spiIndex] << 8) | (spiRxBursts[2][spiIndex]);
 8003074:	7abb      	ldrb	r3, [r7, #10]
 8003076:	4a0d      	ldr	r2, [pc, #52]	; (80030ac <L6474_CmdGetStatus+0x108>)
 8003078:	4413      	add	r3, r2
 800307a:	78db      	ldrb	r3, [r3, #3]
 800307c:	021b      	lsls	r3, r3, #8
 800307e:	b21a      	sxth	r2, r3
 8003080:	7abb      	ldrb	r3, [r7, #10]
 8003082:	490a      	ldr	r1, [pc, #40]	; (80030ac <L6474_CmdGetStatus+0x108>)
 8003084:	440b      	add	r3, r1
 8003086:	799b      	ldrb	r3, [r3, #6]
 8003088:	b21b      	sxth	r3, r3
 800308a:	4313      	orrs	r3, r2
 800308c:	b21b      	sxth	r3, r3
 800308e:	813b      	strh	r3, [r7, #8]
  
  /* re-enable L6474_Board_EnableIrq after SPI transfers*/
  L6474_Board_EnableIrq();
 8003090:	f003 fe08 	bl	8006ca4 <L6474_Board_EnableIrq>
  
  return (status);
 8003094:	893b      	ldrh	r3, [r7, #8]
}
 8003096:	4618      	mov	r0, r3
 8003098:	3710      	adds	r7, #16
 800309a:	46bd      	mov	sp, r7
 800309c:	bd80      	pop	{r7, pc}
 800309e:	bf00      	nop
 80030a0:	200003e4 	.word	0x200003e4
 80030a4:	20000400 	.word	0x20000400
 80030a8:	200003e8 	.word	0x200003e8
 80030ac:	200003f4 	.word	0x200003f4

080030b0 <L6474_CmdNop>:
 * @brief  Issues the Nop command to the L6474 of the specified device
 * @param[in] deviceId (from 0 to 2)
 * @retval None
 **********************************************************/
void L6474_CmdNop(uint8_t deviceId)
{
 80030b0:	b580      	push	{r7, lr}
 80030b2:	b082      	sub	sp, #8
 80030b4:	af00      	add	r7, sp, #0
 80030b6:	4603      	mov	r3, r0
 80030b8:	71fb      	strb	r3, [r7, #7]
  L6474_SendCommand(deviceId, L6474_NOP);
 80030ba:	79fb      	ldrb	r3, [r7, #7]
 80030bc:	2100      	movs	r1, #0
 80030be:	4618      	mov	r0, r3
 80030c0:	f001 f980 	bl	80043c4 <L6474_SendCommand>
}
 80030c4:	bf00      	nop
 80030c6:	3708      	adds	r7, #8
 80030c8:	46bd      	mov	sp, r7
 80030ca:	bd80      	pop	{r7, pc}

080030cc <L6474_CmdSetParam>:
 * @retval None
 **********************************************************/
void L6474_CmdSetParam(uint8_t deviceId,
                       uint32_t param,
                       uint32_t value)
{
 80030cc:	b580      	push	{r7, lr}
 80030ce:	b086      	sub	sp, #24
 80030d0:	af00      	add	r7, sp, #0
 80030d2:	4603      	mov	r3, r0
 80030d4:	60b9      	str	r1, [r7, #8]
 80030d6:	607a      	str	r2, [r7, #4]
 80030d8:	73fb      	strb	r3, [r7, #15]
  uint32_t i;
  uint8_t maxArgumentNbBytes = 0;
 80030da:	2300      	movs	r3, #0
 80030dc:	74fb      	strb	r3, [r7, #19]
  uint8_t spiIndex = numberOfDevices - deviceId - 1;
 80030de:	4b69      	ldr	r3, [pc, #420]	; (8003284 <L6474_CmdSetParam+0x1b8>)
 80030e0:	781b      	ldrb	r3, [r3, #0]
 80030e2:	b2da      	uxtb	r2, r3
 80030e4:	7bfb      	ldrb	r3, [r7, #15]
 80030e6:	1ad3      	subs	r3, r2, r3
 80030e8:	b2db      	uxtb	r3, r3
 80030ea:	3b01      	subs	r3, #1
 80030ec:	747b      	strb	r3, [r7, #17]
  bool itDisable = FALSE;  
 80030ee:	2300      	movs	r3, #0
 80030f0:	74bb      	strb	r3, [r7, #18]
  do
  {
    spiPreemtionByIsr = FALSE;
 80030f2:	4b65      	ldr	r3, [pc, #404]	; (8003288 <L6474_CmdSetParam+0x1bc>)
 80030f4:	2200      	movs	r2, #0
 80030f6:	701a      	strb	r2, [r3, #0]
    if (itDisable)
 80030f8:	7cbb      	ldrb	r3, [r7, #18]
 80030fa:	2b00      	cmp	r3, #0
 80030fc:	d003      	beq.n	8003106 <L6474_CmdSetParam+0x3a>
    {
      /* re-enable L6474_Board_EnableIrq if disable in previous iteration */
      L6474_Board_EnableIrq();
 80030fe:	f003 fdd1 	bl	8006ca4 <L6474_Board_EnableIrq>
      itDisable = FALSE;
 8003102:	2300      	movs	r3, #0
 8003104:	74bb      	strb	r3, [r7, #18]
    }
    for (i = 0; i < numberOfDevices; i++)
 8003106:	2300      	movs	r3, #0
 8003108:	617b      	str	r3, [r7, #20]
 800310a:	e019      	b.n	8003140 <L6474_CmdSetParam+0x74>
    {
      spiTxBursts[0][i] = L6474_NOP;
 800310c:	4a5f      	ldr	r2, [pc, #380]	; (800328c <L6474_CmdSetParam+0x1c0>)
 800310e:	697b      	ldr	r3, [r7, #20]
 8003110:	4413      	add	r3, r2
 8003112:	2200      	movs	r2, #0
 8003114:	701a      	strb	r2, [r3, #0]
      spiTxBursts[1][i] = L6474_NOP;
 8003116:	4a5d      	ldr	r2, [pc, #372]	; (800328c <L6474_CmdSetParam+0x1c0>)
 8003118:	697b      	ldr	r3, [r7, #20]
 800311a:	4413      	add	r3, r2
 800311c:	3303      	adds	r3, #3
 800311e:	2200      	movs	r2, #0
 8003120:	701a      	strb	r2, [r3, #0]
      spiTxBursts[2][i] = L6474_NOP;
 8003122:	4a5a      	ldr	r2, [pc, #360]	; (800328c <L6474_CmdSetParam+0x1c0>)
 8003124:	697b      	ldr	r3, [r7, #20]
 8003126:	4413      	add	r3, r2
 8003128:	3306      	adds	r3, #6
 800312a:	2200      	movs	r2, #0
 800312c:	701a      	strb	r2, [r3, #0]
      spiTxBursts[3][i] = L6474_NOP;
 800312e:	4a57      	ldr	r2, [pc, #348]	; (800328c <L6474_CmdSetParam+0x1c0>)
 8003130:	697b      	ldr	r3, [r7, #20]
 8003132:	4413      	add	r3, r2
 8003134:	3309      	adds	r3, #9
 8003136:	2200      	movs	r2, #0
 8003138:	701a      	strb	r2, [r3, #0]
    for (i = 0; i < numberOfDevices; i++)
 800313a:	697b      	ldr	r3, [r7, #20]
 800313c:	3301      	adds	r3, #1
 800313e:	617b      	str	r3, [r7, #20]
 8003140:	4b50      	ldr	r3, [pc, #320]	; (8003284 <L6474_CmdSetParam+0x1b8>)
 8003142:	781b      	ldrb	r3, [r3, #0]
 8003144:	b2db      	uxtb	r3, r3
 8003146:	461a      	mov	r2, r3
 8003148:	697b      	ldr	r3, [r7, #20]
 800314a:	4293      	cmp	r3, r2
 800314c:	d3de      	bcc.n	800310c <L6474_CmdSetParam+0x40>
    }
    switch (param)
 800314e:	68bb      	ldr	r3, [r7, #8]
 8003150:	3b01      	subs	r3, #1
 8003152:	2b17      	cmp	r3, #23
 8003154:	d85c      	bhi.n	8003210 <L6474_CmdSetParam+0x144>
 8003156:	a201      	add	r2, pc, #4	; (adr r2, 800315c <L6474_CmdSetParam+0x90>)
 8003158:	f852 f023 	ldr.w	pc, [r2, r3, lsl #2]
 800315c:	080031bd 	.word	0x080031bd
 8003160:	080031ed 	.word	0x080031ed
 8003164:	080031bd 	.word	0x080031bd
 8003168:	08003211 	.word	0x08003211
 800316c:	08003211 	.word	0x08003211
 8003170:	08003211 	.word	0x08003211
 8003174:	08003211 	.word	0x08003211
 8003178:	08003211 	.word	0x08003211
 800317c:	08003211 	.word	0x08003211
 8003180:	08003211 	.word	0x08003211
 8003184:	08003211 	.word	0x08003211
 8003188:	08003211 	.word	0x08003211
 800318c:	08003211 	.word	0x08003211
 8003190:	08003211 	.word	0x08003211
 8003194:	08003211 	.word	0x08003211
 8003198:	08003211 	.word	0x08003211
 800319c:	08003211 	.word	0x08003211
 80031a0:	08003211 	.word	0x08003211
 80031a4:	08003211 	.word	0x08003211
 80031a8:	08003211 	.word	0x08003211
 80031ac:	08003211 	.word	0x08003211
 80031b0:	08003211 	.word	0x08003211
 80031b4:	08003211 	.word	0x08003211
 80031b8:	080031ed 	.word	0x080031ed
  {
    case L6474_ABS_POS: ;
    case L6474_MARK:
        spiTxBursts[0][spiIndex] = param;
 80031bc:	7c7b      	ldrb	r3, [r7, #17]
 80031be:	68ba      	ldr	r2, [r7, #8]
 80031c0:	b2d1      	uxtb	r1, r2
 80031c2:	4a32      	ldr	r2, [pc, #200]	; (800328c <L6474_CmdSetParam+0x1c0>)
 80031c4:	54d1      	strb	r1, [r2, r3]
        spiTxBursts[1][spiIndex] = (uint8_t)(value >> 16);
 80031c6:	687b      	ldr	r3, [r7, #4]
 80031c8:	0c1a      	lsrs	r2, r3, #16
 80031ca:	7c7b      	ldrb	r3, [r7, #17]
 80031cc:	b2d1      	uxtb	r1, r2
 80031ce:	4a2f      	ldr	r2, [pc, #188]	; (800328c <L6474_CmdSetParam+0x1c0>)
 80031d0:	4413      	add	r3, r2
 80031d2:	460a      	mov	r2, r1
 80031d4:	70da      	strb	r2, [r3, #3]
        spiTxBursts[2][spiIndex] = (uint8_t)(value >> 8);
 80031d6:	687b      	ldr	r3, [r7, #4]
 80031d8:	0a1a      	lsrs	r2, r3, #8
 80031da:	7c7b      	ldrb	r3, [r7, #17]
 80031dc:	b2d1      	uxtb	r1, r2
 80031de:	4a2b      	ldr	r2, [pc, #172]	; (800328c <L6474_CmdSetParam+0x1c0>)
 80031e0:	4413      	add	r3, r2
 80031e2:	460a      	mov	r2, r1
 80031e4:	719a      	strb	r2, [r3, #6]
        maxArgumentNbBytes = 3;
 80031e6:	2303      	movs	r3, #3
 80031e8:	74fb      	strb	r3, [r7, #19]
        break;
 80031ea:	e01a      	b.n	8003222 <L6474_CmdSetParam+0x156>
    case L6474_EL_POS: ;
    case L6474_CONFIG:
        spiTxBursts[1][spiIndex] = param;
 80031ec:	7c7b      	ldrb	r3, [r7, #17]
 80031ee:	68ba      	ldr	r2, [r7, #8]
 80031f0:	b2d1      	uxtb	r1, r2
 80031f2:	4a26      	ldr	r2, [pc, #152]	; (800328c <L6474_CmdSetParam+0x1c0>)
 80031f4:	4413      	add	r3, r2
 80031f6:	460a      	mov	r2, r1
 80031f8:	70da      	strb	r2, [r3, #3]
        spiTxBursts[2][spiIndex] = (uint8_t)(value >> 8);
 80031fa:	687b      	ldr	r3, [r7, #4]
 80031fc:	0a1a      	lsrs	r2, r3, #8
 80031fe:	7c7b      	ldrb	r3, [r7, #17]
 8003200:	b2d1      	uxtb	r1, r2
 8003202:	4a22      	ldr	r2, [pc, #136]	; (800328c <L6474_CmdSetParam+0x1c0>)
 8003204:	4413      	add	r3, r2
 8003206:	460a      	mov	r2, r1
 8003208:	719a      	strb	r2, [r3, #6]
        maxArgumentNbBytes = 2;
 800320a:	2302      	movs	r3, #2
 800320c:	74fb      	strb	r3, [r7, #19]
        break;
 800320e:	e008      	b.n	8003222 <L6474_CmdSetParam+0x156>
    default:
        spiTxBursts[2][spiIndex] = param;
 8003210:	7c7b      	ldrb	r3, [r7, #17]
 8003212:	68ba      	ldr	r2, [r7, #8]
 8003214:	b2d1      	uxtb	r1, r2
 8003216:	4a1d      	ldr	r2, [pc, #116]	; (800328c <L6474_CmdSetParam+0x1c0>)
 8003218:	4413      	add	r3, r2
 800321a:	460a      	mov	r2, r1
 800321c:	719a      	strb	r2, [r3, #6]
        maxArgumentNbBytes = 1;
 800321e:	2301      	movs	r3, #1
 8003220:	74fb      	strb	r3, [r7, #19]
    }
    spiTxBursts[3][spiIndex] = (uint8_t)(value);
 8003222:	7c7b      	ldrb	r3, [r7, #17]
 8003224:	687a      	ldr	r2, [r7, #4]
 8003226:	b2d1      	uxtb	r1, r2
 8003228:	4a18      	ldr	r2, [pc, #96]	; (800328c <L6474_CmdSetParam+0x1c0>)
 800322a:	4413      	add	r3, r2
 800322c:	460a      	mov	r2, r1
 800322e:	725a      	strb	r2, [r3, #9]
    
    /* Disable interruption before checking */
    /* pre-emption by ISR and SPI transfers*/
    L6474_Board_DisableIrq();
 8003230:	f003 fd2f 	bl	8006c92 <L6474_Board_DisableIrq>
    itDisable = TRUE;
 8003234:	2301      	movs	r3, #1
 8003236:	74bb      	strb	r3, [r7, #18]
  } while (spiPreemtionByIsr); // check pre-emption by ISR
 8003238:	4b13      	ldr	r3, [pc, #76]	; (8003288 <L6474_CmdSetParam+0x1bc>)
 800323a:	781b      	ldrb	r3, [r3, #0]
 800323c:	b2db      	uxtb	r3, r3
 800323e:	2b00      	cmp	r3, #0
 8003240:	f47f af57 	bne.w	80030f2 <L6474_CmdSetParam+0x26>
 
  /* SPI transfer */
  for (i = L6474_CMD_ARG_MAX_NB_BYTES-1-maxArgumentNbBytes;
 8003244:	7cfb      	ldrb	r3, [r7, #19]
 8003246:	f1c3 0303 	rsb	r3, r3, #3
 800324a:	617b      	str	r3, [r7, #20]
 800324c:	e011      	b.n	8003272 <L6474_CmdSetParam+0x1a6>
       i < L6474_CMD_ARG_MAX_NB_BYTES;
       i++)
  {
     L6474_WriteBytes(&spiTxBursts[i][0],&spiRxBursts[i][0]);
 800324e:	697a      	ldr	r2, [r7, #20]
 8003250:	4613      	mov	r3, r2
 8003252:	005b      	lsls	r3, r3, #1
 8003254:	4413      	add	r3, r2
 8003256:	4a0d      	ldr	r2, [pc, #52]	; (800328c <L6474_CmdSetParam+0x1c0>)
 8003258:	1898      	adds	r0, r3, r2
 800325a:	697a      	ldr	r2, [r7, #20]
 800325c:	4613      	mov	r3, r2
 800325e:	005b      	lsls	r3, r3, #1
 8003260:	4413      	add	r3, r2
 8003262:	4a0b      	ldr	r2, [pc, #44]	; (8003290 <L6474_CmdSetParam+0x1c4>)
 8003264:	4413      	add	r3, r2
 8003266:	4619      	mov	r1, r3
 8003268:	f001 ff94 	bl	8005194 <L6474_WriteBytes>
       i++)
 800326c:	697b      	ldr	r3, [r7, #20]
 800326e:	3301      	adds	r3, #1
 8003270:	617b      	str	r3, [r7, #20]
  for (i = L6474_CMD_ARG_MAX_NB_BYTES-1-maxArgumentNbBytes;
 8003272:	697b      	ldr	r3, [r7, #20]
 8003274:	2b03      	cmp	r3, #3
 8003276:	d9ea      	bls.n	800324e <L6474_CmdSetParam+0x182>
  }
  /* re-enable L6474_Board_EnableIrq after SPI transfers*/
  L6474_Board_EnableIrq();
 8003278:	f003 fd14 	bl	8006ca4 <L6474_Board_EnableIrq>
}
 800327c:	bf00      	nop
 800327e:	3718      	adds	r7, #24
 8003280:	46bd      	mov	sp, r7
 8003282:	bd80      	pop	{r7, pc}
 8003284:	200003e4 	.word	0x200003e4
 8003288:	20000400 	.word	0x20000400
 800328c:	200003e8 	.word	0x200003e8
 8003290:	200003f4 	.word	0x200003f4

08003294 <L6474_Init>:
 * @brief Starts a new L6474 instance 
 * @param[in] pInit pointer to the initialization data
 * @retval None
 **********************************************************/
void L6474_Init(void* pInit)
{
 8003294:	b580      	push	{r7, lr}
 8003296:	b082      	sub	sp, #8
 8003298:	af00      	add	r7, sp, #0
 800329a:	6078      	str	r0, [r7, #4]
  /* Initialise the GPIOs */
  L6474_Board_GpioInit(l6474DriverInstance);
 800329c:	4b22      	ldr	r3, [pc, #136]	; (8003328 <L6474_Init+0x94>)
 800329e:	881b      	ldrh	r3, [r3, #0]
 80032a0:	b2db      	uxtb	r3, r3
 80032a2:	4618      	mov	r0, r3
 80032a4:	f003 fd08 	bl	8006cb8 <L6474_Board_GpioInit>
  
  if(L6474_Board_SpiInit() != 0)
 80032a8:	f003 ff00 	bl	80070ac <L6474_Board_SpiInit>
 80032ac:	4603      	mov	r3, r0
 80032ae:	2b00      	cmp	r3, #0
 80032b0:	d003      	beq.n	80032ba <L6474_Init+0x26>
  {
    /* Initialization Error */
    L6474_ErrorHandler(L6474_ERROR_0);
 80032b2:	f44f 4000 	mov.w	r0, #32768	; 0x8000
 80032b6:	f001 f859 	bl	800436c <L6474_ErrorHandler>
  } 

  /* Initialise the PWMs used for the Step clocks ----------------------------*/
  L6474_Board_PwmInit(l6474DriverInstance);
 80032ba:	4b1b      	ldr	r3, [pc, #108]	; (8003328 <L6474_Init+0x94>)
 80032bc:	881b      	ldrh	r3, [r3, #0]
 80032be:	b2db      	uxtb	r3, r3
 80032c0:	4618      	mov	r0, r3
 80032c2:	f003 fe1d 	bl	8006f00 <L6474_Board_PwmInit>
 
  /* Standby-reset deactivation */
  L6474_Board_ReleaseReset(l6474DriverInstance);
 80032c6:	4b18      	ldr	r3, [pc, #96]	; (8003328 <L6474_Init+0x94>)
 80032c8:	881b      	ldrh	r3, [r3, #0]
 80032ca:	b2db      	uxtb	r3, r3
 80032cc:	4618      	mov	r0, r3
 80032ce:	f003 fe99 	bl	8007004 <L6474_Board_ReleaseReset>
  
  /* Let a delay after reset */
  L6474_Board_Delay(1);
 80032d2:	2001      	movs	r0, #1
 80032d4:	f003 fcd2 	bl	8006c7c <L6474_Board_Delay>
  
  /* Set all registers and context variables to the predefined values from l6474_target_config.h */
  if (pInit == 0)
 80032d8:	687b      	ldr	r3, [r7, #4]
 80032da:	2b00      	cmp	r3, #0
 80032dc:	d106      	bne.n	80032ec <L6474_Init+0x58>
  {
    L6474_SetDeviceParamsToPredefinedValues(l6474DriverInstance);
 80032de:	4b12      	ldr	r3, [pc, #72]	; (8003328 <L6474_Init+0x94>)
 80032e0:	881b      	ldrh	r3, [r3, #0]
 80032e2:	b2db      	uxtb	r3, r3
 80032e4:	4618      	mov	r0, r3
 80032e6:	f001 f963 	bl	80045b0 <L6474_SetDeviceParamsToPredefinedValues>
 80032ea:	e006      	b.n	80032fa <L6474_Init+0x66>
  }
  else
  {
    L6474_SetDeviceParamsToGivenValues(l6474DriverInstance, pInit);
 80032ec:	4b0e      	ldr	r3, [pc, #56]	; (8003328 <L6474_Init+0x94>)
 80032ee:	881b      	ldrh	r3, [r3, #0]
 80032f0:	b2db      	uxtb	r3, r3
 80032f2:	6879      	ldr	r1, [r7, #4]
 80032f4:	4618      	mov	r0, r3
 80032f6:	f001 f8b7 	bl	8004468 <L6474_SetDeviceParamsToGivenValues>
  }
  /* Disable L6474 powerstage */
  L6474_CmdDisable(l6474DriverInstance);
 80032fa:	4b0b      	ldr	r3, [pc, #44]	; (8003328 <L6474_Init+0x94>)
 80032fc:	881b      	ldrh	r3, [r3, #0]
 80032fe:	b2db      	uxtb	r3, r3
 8003300:	4618      	mov	r0, r3
 8003302:	f7ff fd3f 	bl	8002d84 <L6474_CmdDisable>

  /* Get Status to clear flags after start up */
  L6474_CmdGetStatus(l6474DriverInstance);
 8003306:	4b08      	ldr	r3, [pc, #32]	; (8003328 <L6474_Init+0x94>)
 8003308:	881b      	ldrh	r3, [r3, #0]
 800330a:	b2db      	uxtb	r3, r3
 800330c:	4618      	mov	r0, r3
 800330e:	f7ff fe49 	bl	8002fa4 <L6474_CmdGetStatus>

  l6474DriverInstance++;
 8003312:	4b05      	ldr	r3, [pc, #20]	; (8003328 <L6474_Init+0x94>)
 8003314:	881b      	ldrh	r3, [r3, #0]
 8003316:	3301      	adds	r3, #1
 8003318:	b29a      	uxth	r2, r3
 800331a:	4b03      	ldr	r3, [pc, #12]	; (8003328 <L6474_Init+0x94>)
 800331c:	801a      	strh	r2, [r3, #0]
}
 800331e:	bf00      	nop
 8003320:	3708      	adds	r7, #8
 8003322:	46bd      	mov	sp, r7
 8003324:	bd80      	pop	{r7, pc}
 8003326:	bf00      	nop
 8003328:	20000402 	.word	0x20000402

0800332c <L6474_GetAcceleration>:
 * @brief Returns the acceleration of the specified device
 * @param[in] deviceId (from 0 to 2)
 * @retval Acceleration in pps^2
 **********************************************************/
uint16_t L6474_GetAcceleration(uint8_t deviceId)
{                                                  
 800332c:	b480      	push	{r7}
 800332e:	b083      	sub	sp, #12
 8003330:	af00      	add	r7, sp, #0
 8003332:	4603      	mov	r3, r0
 8003334:	71fb      	strb	r3, [r7, #7]
  return (devicePrm[deviceId].acceleration);
 8003336:	79fa      	ldrb	r2, [r7, #7]
 8003338:	4907      	ldr	r1, [pc, #28]	; (8003358 <L6474_GetAcceleration+0x2c>)
 800333a:	4613      	mov	r3, r2
 800333c:	009b      	lsls	r3, r3, #2
 800333e:	4413      	add	r3, r2
 8003340:	00db      	lsls	r3, r3, #3
 8003342:	440b      	add	r3, r1
 8003344:	3318      	adds	r3, #24
 8003346:	881b      	ldrh	r3, [r3, #0]
 8003348:	b29b      	uxth	r3, r3
}            
 800334a:	4618      	mov	r0, r3
 800334c:	370c      	adds	r7, #12
 800334e:	46bd      	mov	sp, r7
 8003350:	f85d 7b04 	ldr.w	r7, [sp], #4
 8003354:	4770      	bx	lr
 8003356:	bf00      	nop
 8003358:	20000404 	.word	0x20000404

0800335c <L6474_GetAnalogValue>:
 * @param[in] deviceId (from 0 to MAX_NUMBER_OF_DEVICES-1 )
 * @param[in] param L6474 register address
 * @retval Register value - 1 to 3 bytes (depends on register)
 *********************************************************/
float L6474_GetAnalogValue(uint8_t deviceId, uint32_t param)
{
 800335c:	b580      	push	{r7, lr}
 800335e:	b084      	sub	sp, #16
 8003360:	af00      	add	r7, sp, #0
 8003362:	4603      	mov	r3, r0
 8003364:	6039      	str	r1, [r7, #0]
 8003366:	71fb      	strb	r3, [r7, #7]
  uint32_t registerValue = L6474_CmdGetParam(deviceId, param);
 8003368:	79fb      	ldrb	r3, [r7, #7]
 800336a:	6839      	ldr	r1, [r7, #0]
 800336c:	4618      	mov	r0, r3
 800336e:	f7ff fd25 	bl	8002dbc <L6474_CmdGetParam>
 8003372:	60b8      	str	r0, [r7, #8]
  float value;
  switch (param)
 8003374:	683b      	ldr	r3, [r7, #0]
 8003376:	3b01      	subs	r3, #1
 8003378:	2b12      	cmp	r3, #18
 800337a:	d84b      	bhi.n	8003414 <L6474_GetAnalogValue+0xb8>
 800337c:	a201      	add	r2, pc, #4	; (adr r2, 8003384 <L6474_GetAnalogValue+0x28>)
 800337e:	f852 f023 	ldr.w	pc, [r2, r3, lsl #2]
 8003382:	bf00      	nop
 8003384:	080033d1 	.word	0x080033d1
 8003388:	08003415 	.word	0x08003415
 800338c:	080033d1 	.word	0x080033d1
 8003390:	08003415 	.word	0x08003415
 8003394:	08003415 	.word	0x08003415
 8003398:	08003415 	.word	0x08003415
 800339c:	08003415 	.word	0x08003415
 80033a0:	08003415 	.word	0x08003415
 80033a4:	080033e5 	.word	0x080033e5
 80033a8:	08003415 	.word	0x08003415
 80033ac:	08003415 	.word	0x08003415
 80033b0:	08003415 	.word	0x08003415
 80033b4:	08003415 	.word	0x08003415
 80033b8:	08003415 	.word	0x08003415
 80033bc:	08003405 	.word	0x08003405
 80033c0:	08003405 	.word	0x08003405
 80033c4:	08003415 	.word	0x08003415
 80033c8:	08003415 	.word	0x08003415
 80033cc:	080033f5 	.word	0x080033f5
  {
    case L6474_ABS_POS:
    case L6474_MARK:
      value = (float) L6474_ConvertPosition(registerValue);
 80033d0:	68b8      	ldr	r0, [r7, #8]
 80033d2:	f000 ffab 	bl	800432c <L6474_ConvertPosition>
 80033d6:	ee07 0a90 	vmov	s15, r0
 80033da:	eef8 7ae7 	vcvt.f32.s32	s15, s15
 80033de:	edc7 7a03 	vstr	s15, [r7, #12]
      break;
