
RTC.elf:     file format elf32-littlearm

Sections:
Idx Name          Size      VMA       LMA       File off  Algn
  0 .isr_vector   00000194  08000000  08000000  00010000  2**0
                  CONTENTS, ALLOC, LOAD, READONLY, DATA
  1 .text         00001fd8  08000194  08000194  00010194  2**2
                  CONTENTS, ALLOC, LOAD, READONLY, CODE
  2 .rodata       00000010  0800216c  0800216c  0001216c  2**2
                  CONTENTS, ALLOC, LOAD, READONLY, DATA
  3 .ARM.extab    00000000  0800217c  0800217c  0002000c  2**0
                  CONTENTS
  4 .ARM          00000008  0800217c  0800217c  0001217c  2**2
                  CONTENTS, ALLOC, LOAD, READONLY, DATA
  5 .preinit_array 00000000  08002184  08002184  0002000c  2**0
                  CONTENTS, ALLOC, LOAD, DATA
  6 .init_array   00000004  08002184  08002184  00012184  2**2
                  CONTENTS, ALLOC, LOAD, DATA
  7 .fini_array   00000004  08002188  08002188  00012188  2**2
                  CONTENTS, ALLOC, LOAD, DATA
  8 .data         0000000c  20000000  0800218c  00020000  2**2
                  CONTENTS, ALLOC, LOAD, DATA
  9 .bss          00000058  2000000c  08002198  0002000c  2**2
                  ALLOC
 10 ._user_heap_stack 00000604  20000064  08002198  00020064  2**0
                  ALLOC
 11 .ARM.attributes 00000030  00000000  00000000  0002000c  2**0
                  CONTENTS, READONLY
 12 .debug_info   00006506  00000000  00000000  0002003c  2**0
                  CONTENTS, READONLY, DEBUGGING, OCTETS
 13 .debug_abbrev 0000151e  00000000  00000000  00026542  2**0
                  CONTENTS, READONLY, DEBUGGING, OCTETS
 14 .debug_aranges 00000670  00000000  00000000  00027a60  2**3
                  CONTENTS, READONLY, DEBUGGING, OCTETS
 15 .debug_ranges 000005b8  00000000  00000000  000280d0  2**3
                  CONTENTS, READONLY, DEBUGGING, OCTETS
 16 .debug_macro  0001505c  00000000  00000000  00028688  2**0
                  CONTENTS, READONLY, DEBUGGING, OCTETS
 17 .debug_line   00007983  00000000  00000000  0003d6e4  2**0
                  CONTENTS, READONLY, DEBUGGING, OCTETS
 18 .debug_str    00084856  00000000  00000000  00045067  2**0
                  CONTENTS, READONLY, DEBUGGING, OCTETS
 19 .comment      00000050  00000000  00000000  000c98bd  2**0
                  CONTENTS, READONLY
 20 .debug_frame  000018e0  00000000  00000000  000c9910  2**2
                  CONTENTS, READONLY, DEBUGGING, OCTETS

Disassembly of section .text:

08000194 <__do_global_dtors_aux>:
 8000194:	b510      	push	{r4, lr}
 8000196:	4c05      	ldr	r4, [pc, #20]	; (80001ac <__do_global_dtors_aux+0x18>)
 8000198:	7823      	ldrb	r3, [r4, #0]
 800019a:	b933      	cbnz	r3, 80001aa <__do_global_dtors_aux+0x16>
 800019c:	4b04      	ldr	r3, [pc, #16]	; (80001b0 <__do_global_dtors_aux+0x1c>)
 800019e:	b113      	cbz	r3, 80001a6 <__do_global_dtors_aux+0x12>
 80001a0:	4804      	ldr	r0, [pc, #16]	; (80001b4 <__do_global_dtors_aux+0x20>)
 80001a2:	f3af 8000 	nop.w
 80001a6:	2301      	movs	r3, #1
 80001a8:	7023      	strb	r3, [r4, #0]
 80001aa:	bd10      	pop	{r4, pc}
 80001ac:	2000000c 	.word	0x2000000c
 80001b0:	00000000 	.word	0x00000000
 80001b4:	08002154 	.word	0x08002154

080001b8 <frame_dummy>:
 80001b8:	b508      	push	{r3, lr}
 80001ba:	4b03      	ldr	r3, [pc, #12]	; (80001c8 <frame_dummy+0x10>)
 80001bc:	b11b      	cbz	r3, 80001c6 <frame_dummy+0xe>
 80001be:	4903      	ldr	r1, [pc, #12]	; (80001cc <frame_dummy+0x14>)
 80001c0:	4803      	ldr	r0, [pc, #12]	; (80001d0 <frame_dummy+0x18>)
 80001c2:	f3af 8000 	nop.w
 80001c6:	bd08      	pop	{r3, pc}
 80001c8:	00000000 	.word	0x00000000
 80001cc:	20000010 	.word	0x20000010
 80001d0:	08002154 	.word	0x08002154

080001d4 <__aeabi_uldivmod>:
 80001d4:	b953      	cbnz	r3, 80001ec <__aeabi_uldivmod+0x18>
 80001d6:	b94a      	cbnz	r2, 80001ec <__aeabi_uldivmod+0x18>
 80001d8:	2900      	cmp	r1, #0
 80001da:	bf08      	it	eq
 80001dc:	2800      	cmpeq	r0, #0
 80001de:	bf1c      	itt	ne
 80001e0:	f04f 31ff 	movne.w	r1, #4294967295
 80001e4:	f04f 30ff 	movne.w	r0, #4294967295
 80001e8:	f000 b974 	b.w	80004d4 <__aeabi_idiv0>
 80001ec:	f1ad 0c08 	sub.w	ip, sp, #8
 80001f0:	e96d ce04 	strd	ip, lr, [sp, #-16]!
 80001f4:	f000 f806 	bl	8000204 <__udivmoddi4>
 80001f8:	f8dd e004 	ldr.w	lr, [sp, #4]
 80001fc:	e9dd 2302 	ldrd	r2, r3, [sp, #8]
 8000200:	b004      	add	sp, #16
 8000202:	4770      	bx	lr

08000204 <__udivmoddi4>:
 8000204:	e92d 47f0 	stmdb	sp!, {r4, r5, r6, r7, r8, r9, sl, lr}
 8000208:	9d08      	ldr	r5, [sp, #32]
 800020a:	4604      	mov	r4, r0
 800020c:	468e      	mov	lr, r1
 800020e:	2b00      	cmp	r3, #0
 8000210:	d14d      	bne.n	80002ae <__udivmoddi4+0xaa>
 8000212:	428a      	cmp	r2, r1
 8000214:	4694      	mov	ip, r2
 8000216:	d969      	bls.n	80002ec <__udivmoddi4+0xe8>
 8000218:	fab2 f282 	clz	r2, r2
 800021c:	b152      	cbz	r2, 8000234 <__udivmoddi4+0x30>
 800021e:	fa01 f302 	lsl.w	r3, r1, r2
 8000222:	f1c2 0120 	rsb	r1, r2, #32
 8000226:	fa20 f101 	lsr.w	r1, r0, r1
 800022a:	fa0c fc02 	lsl.w	ip, ip, r2
 800022e:	ea41 0e03 	orr.w	lr, r1, r3
 8000232:	4094      	lsls	r4, r2
 8000234:	ea4f 481c 	mov.w	r8, ip, lsr #16
 8000238:	0c21      	lsrs	r1, r4, #16
 800023a:	fbbe f6f8 	udiv	r6, lr, r8
 800023e:	fa1f f78c 	uxth.w	r7, ip
 8000242:	fb08 e316 	mls	r3, r8, r6, lr
 8000246:	ea41 4303 	orr.w	r3, r1, r3, lsl #16
 800024a:	fb06 f107 	mul.w	r1, r6, r7
 800024e:	4299      	cmp	r1, r3
 8000250:	d90a      	bls.n	8000268 <__udivmoddi4+0x64>
 8000252:	eb1c 0303 	adds.w	r3, ip, r3
 8000256:	f106 30ff 	add.w	r0, r6, #4294967295
 800025a:	f080 811f 	bcs.w	800049c <__udivmoddi4+0x298>
 800025e:	4299      	cmp	r1, r3
 8000260:	f240 811c 	bls.w	800049c <__udivmoddi4+0x298>
 8000264:	3e02      	subs	r6, #2
 8000266:	4463      	add	r3, ip
 8000268:	1a5b      	subs	r3, r3, r1
 800026a:	b2a4      	uxth	r4, r4
 800026c:	fbb3 f0f8 	udiv	r0, r3, r8
 8000270:	fb08 3310 	mls	r3, r8, r0, r3
 8000274:	ea44 4403 	orr.w	r4, r4, r3, lsl #16
 8000278:	fb00 f707 	mul.w	r7, r0, r7
 800027c:	42a7      	cmp	r7, r4
 800027e:	d90a      	bls.n	8000296 <__udivmoddi4+0x92>
 8000280:	eb1c 0404 	adds.w	r4, ip, r4
 8000284:	f100 33ff 	add.w	r3, r0, #4294967295
 8000288:	f080 810a 	bcs.w	80004a0 <__udivmoddi4+0x29c>
 800028c:	42a7      	cmp	r7, r4
 800028e:	f240 8107 	bls.w	80004a0 <__udivmoddi4+0x29c>
 8000292:	4464      	add	r4, ip
 8000294:	3802      	subs	r0, #2
 8000296:	ea40 4006 	orr.w	r0, r0, r6, lsl #16
 800029a:	1be4      	subs	r4, r4, r7
 800029c:	2600      	movs	r6, #0
 800029e:	b11d      	cbz	r5, 80002a8 <__udivmoddi4+0xa4>
 80002a0:	40d4      	lsrs	r4, r2
 80002a2:	2300      	movs	r3, #0
 80002a4:	e9c5 4300 	strd	r4, r3, [r5]
 80002a8:	4631      	mov	r1, r6
 80002aa:	e8bd 87f0 	ldmia.w	sp!, {r4, r5, r6, r7, r8, r9, sl, pc}
 80002ae:	428b      	cmp	r3, r1
 80002b0:	d909      	bls.n	80002c6 <__udivmoddi4+0xc2>
 80002b2:	2d00      	cmp	r5, #0
 80002b4:	f000 80ef 	beq.w	8000496 <__udivmoddi4+0x292>
 80002b8:	2600      	movs	r6, #0
 80002ba:	e9c5 0100 	strd	r0, r1, [r5]
 80002be:	4630      	mov	r0, r6
 80002c0:	4631      	mov	r1, r6
 80002c2:	e8bd 87f0 	ldmia.w	sp!, {r4, r5, r6, r7, r8, r9, sl, pc}
 80002c6:	fab3 f683 	clz	r6, r3
 80002ca:	2e00      	cmp	r6, #0
 80002cc:	d14a      	bne.n	8000364 <__udivmoddi4+0x160>
 80002ce:	428b      	cmp	r3, r1
 80002d0:	d302      	bcc.n	80002d8 <__udivmoddi4+0xd4>
 80002d2:	4282      	cmp	r2, r0
 80002d4:	f200 80f9 	bhi.w	80004ca <__udivmoddi4+0x2c6>
 80002d8:	1a84      	subs	r4, r0, r2
 80002da:	eb61 0303 	sbc.w	r3, r1, r3
 80002de:	2001      	movs	r0, #1
 80002e0:	469e      	mov	lr, r3
 80002e2:	2d00      	cmp	r5, #0
 80002e4:	d0e0      	beq.n	80002a8 <__udivmoddi4+0xa4>
 80002e6:	e9c5 4e00 	strd	r4, lr, [r5]
 80002ea:	e7dd      	b.n	80002a8 <__udivmoddi4+0xa4>
 80002ec:	b902      	cbnz	r2, 80002f0 <__udivmoddi4+0xec>
 80002ee:	deff      	udf	#255	; 0xff
 80002f0:	fab2 f282 	clz	r2, r2
 80002f4:	2a00      	cmp	r2, #0
 80002f6:	f040 8092 	bne.w	800041e <__udivmoddi4+0x21a>
 80002fa:	eba1 010c 	sub.w	r1, r1, ip
 80002fe:	ea4f 471c 	mov.w	r7, ip, lsr #16
 8000302:	fa1f fe8c 	uxth.w	lr, ip
 8000306:	2601      	movs	r6, #1
 8000308:	0c20      	lsrs	r0, r4, #16
 800030a:	fbb1 f3f7 	udiv	r3, r1, r7
 800030e:	fb07 1113 	mls	r1, r7, r3, r1
 8000312:	ea40 4101 	orr.w	r1, r0, r1, lsl #16
 8000316:	fb0e f003 	mul.w	r0, lr, r3
 800031a:	4288      	cmp	r0, r1
 800031c:	d908      	bls.n	8000330 <__udivmoddi4+0x12c>
 800031e:	eb1c 0101 	adds.w	r1, ip, r1
 8000322:	f103 38ff 	add.w	r8, r3, #4294967295
 8000326:	d202      	bcs.n	800032e <__udivmoddi4+0x12a>
 8000328:	4288      	cmp	r0, r1
 800032a:	f200 80cb 	bhi.w	80004c4 <__udivmoddi4+0x2c0>
 800032e:	4643      	mov	r3, r8
 8000330:	1a09      	subs	r1, r1, r0
 8000332:	b2a4      	uxth	r4, r4
 8000334:	fbb1 f0f7 	udiv	r0, r1, r7
 8000338:	fb07 1110 	mls	r1, r7, r0, r1
 800033c:	ea44 4401 	orr.w	r4, r4, r1, lsl #16
 8000340:	fb0e fe00 	mul.w	lr, lr, r0
 8000344:	45a6      	cmp	lr, r4
 8000346:	d908      	bls.n	800035a <__udivmoddi4+0x156>
 8000348:	eb1c 0404 	adds.w	r4, ip, r4
 800034c:	f100 31ff 	add.w	r1, r0, #4294967295
 8000350:	d202      	bcs.n	8000358 <__udivmoddi4+0x154>
 8000352:	45a6      	cmp	lr, r4
 8000354:	f200 80bb 	bhi.w	80004ce <__udivmoddi4+0x2ca>
 8000358:	4608      	mov	r0, r1
 800035a:	eba4 040e 	sub.w	r4, r4, lr
 800035e:	ea40 4003 	orr.w	r0, r0, r3, lsl #16
 8000362:	e79c      	b.n	800029e <__udivmoddi4+0x9a>
 8000364:	f1c6 0720 	rsb	r7, r6, #32
 8000368:	40b3      	lsls	r3, r6
 800036a:	fa22 fc07 	lsr.w	ip, r2, r7
 800036e:	ea4c 0c03 	orr.w	ip, ip, r3
 8000372:	fa20 f407 	lsr.w	r4, r0, r7
 8000376:	fa01 f306 	lsl.w	r3, r1, r6
 800037a:	431c      	orrs	r4, r3
 800037c:	40f9      	lsrs	r1, r7
 800037e:	ea4f 491c 	mov.w	r9, ip, lsr #16
 8000382:	fa00 f306 	lsl.w	r3, r0, r6
 8000386:	fbb1 f8f9 	udiv	r8, r1, r9
 800038a:	0c20      	lsrs	r0, r4, #16
 800038c:	fa1f fe8c 	uxth.w	lr, ip
 8000390:	fb09 1118 	mls	r1, r9, r8, r1
 8000394:	ea40 4101 	orr.w	r1, r0, r1, lsl #16
 8000398:	fb08 f00e 	mul.w	r0, r8, lr
 800039c:	4288      	cmp	r0, r1
 800039e:	fa02 f206 	lsl.w	r2, r2, r6
 80003a2:	d90b      	bls.n	80003bc <__udivmoddi4+0x1b8>
 80003a4:	eb1c 0101 	adds.w	r1, ip, r1
 80003a8:	f108 3aff 	add.w	sl, r8, #4294967295
 80003ac:	f080 8088 	bcs.w	80004c0 <__udivmoddi4+0x2bc>
 80003b0:	4288      	cmp	r0, r1
 80003b2:	f240 8085 	bls.w	80004c0 <__udivmoddi4+0x2bc>
 80003b6:	f1a8 0802 	sub.w	r8, r8, #2
 80003ba:	4461      	add	r1, ip
 80003bc:	1a09      	subs	r1, r1, r0
 80003be:	b2a4      	uxth	r4, r4
 80003c0:	fbb1 f0f9 	udiv	r0, r1, r9
 80003c4:	fb09 1110 	mls	r1, r9, r0, r1
 80003c8:	ea44 4101 	orr.w	r1, r4, r1, lsl #16
 80003cc:	fb00 fe0e 	mul.w	lr, r0, lr
 80003d0:	458e      	cmp	lr, r1
 80003d2:	d908      	bls.n	80003e6 <__udivmoddi4+0x1e2>
 80003d4:	eb1c 0101 	adds.w	r1, ip, r1
 80003d8:	f100 34ff 	add.w	r4, r0, #4294967295
 80003dc:	d26c      	bcs.n	80004b8 <__udivmoddi4+0x2b4>
 80003de:	458e      	cmp	lr, r1
 80003e0:	d96a      	bls.n	80004b8 <__udivmoddi4+0x2b4>
 80003e2:	3802      	subs	r0, #2
 80003e4:	4461      	add	r1, ip
 80003e6:	ea40 4008 	orr.w	r0, r0, r8, lsl #16
 80003ea:	fba0 9402 	umull	r9, r4, r0, r2
 80003ee:	eba1 010e 	sub.w	r1, r1, lr
 80003f2:	42a1      	cmp	r1, r4
 80003f4:	46c8      	mov	r8, r9
 80003f6:	46a6      	mov	lr, r4
 80003f8:	d356      	bcc.n	80004a8 <__udivmoddi4+0x2a4>
 80003fa:	d053      	beq.n	80004a4 <__udivmoddi4+0x2a0>
 80003fc:	b15d      	cbz	r5, 8000416 <__udivmoddi4+0x212>
 80003fe:	ebb3 0208 	subs.w	r2, r3, r8
 8000402:	eb61 010e 	sbc.w	r1, r1, lr
 8000406:	fa01 f707 	lsl.w	r7, r1, r7
 800040a:	fa22 f306 	lsr.w	r3, r2, r6
 800040e:	40f1      	lsrs	r1, r6
 8000410:	431f      	orrs	r7, r3
 8000412:	e9c5 7100 	strd	r7, r1, [r5]
 8000416:	2600      	movs	r6, #0
 8000418:	4631      	mov	r1, r6
 800041a:	e8bd 87f0 	ldmia.w	sp!, {r4, r5, r6, r7, r8, r9, sl, pc}
 800041e:	f1c2 0320 	rsb	r3, r2, #32
 8000422:	40d8      	lsrs	r0, r3
 8000424:	fa0c fc02 	lsl.w	ip, ip, r2
 8000428:	fa21 f303 	lsr.w	r3, r1, r3
 800042c:	4091      	lsls	r1, r2
 800042e:	4301      	orrs	r1, r0
 8000430:	ea4f 471c 	mov.w	r7, ip, lsr #16
 8000434:	fa1f fe8c 	uxth.w	lr, ip
 8000438:	fbb3 f0f7 	udiv	r0, r3, r7
 800043c:	fb07 3610 	mls	r6, r7, r0, r3
 8000440:	0c0b      	lsrs	r3, r1, #16
 8000442:	ea43 4306 	orr.w	r3, r3, r6, lsl #16
 8000446:	fb00 f60e 	mul.w	r6, r0, lr
 800044a:	429e      	cmp	r6, r3
 800044c:	fa04 f402 	lsl.w	r4, r4, r2
 8000450:	d908      	bls.n	8000464 <__udivmoddi4+0x260>
 8000452:	eb1c 0303 	adds.w	r3, ip, r3
 8000456:	f100 38ff 	add.w	r8, r0, #4294967295
 800045a:	d22f      	bcs.n	80004bc <__udivmoddi4+0x2b8>
 800045c:	429e      	cmp	r6, r3
 800045e:	d92d      	bls.n	80004bc <__udivmoddi4+0x2b8>
 8000460:	3802      	subs	r0, #2
 8000462:	4463      	add	r3, ip
 8000464:	1b9b      	subs	r3, r3, r6
 8000466:	b289      	uxth	r1, r1
 8000468:	fbb3 f6f7 	udiv	r6, r3, r7
 800046c:	fb07 3316 	mls	r3, r7, r6, r3
 8000470:	ea41 4103 	orr.w	r1, r1, r3, lsl #16
 8000474:	fb06 f30e 	mul.w	r3, r6, lr
 8000478:	428b      	cmp	r3, r1
 800047a:	d908      	bls.n	800048e <__udivmoddi4+0x28a>
 800047c:	eb1c 0101 	adds.w	r1, ip, r1
 8000480:	f106 38ff 	add.w	r8, r6, #4294967295
 8000484:	d216      	bcs.n	80004b4 <__udivmoddi4+0x2b0>
 8000486:	428b      	cmp	r3, r1
 8000488:	d914      	bls.n	80004b4 <__udivmoddi4+0x2b0>
 800048a:	3e02      	subs	r6, #2
 800048c:	4461      	add	r1, ip
 800048e:	1ac9      	subs	r1, r1, r3
 8000490:	ea46 4600 	orr.w	r6, r6, r0, lsl #16
 8000494:	e738      	b.n	8000308 <__udivmoddi4+0x104>
 8000496:	462e      	mov	r6, r5
 8000498:	4628      	mov	r0, r5
 800049a:	e705      	b.n	80002a8 <__udivmoddi4+0xa4>
 800049c:	4606      	mov	r6, r0
 800049e:	e6e3      	b.n	8000268 <__udivmoddi4+0x64>
 80004a0:	4618      	mov	r0, r3
 80004a2:	e6f8      	b.n	8000296 <__udivmoddi4+0x92>
 80004a4:	454b      	cmp	r3, r9
 80004a6:	d2a9      	bcs.n	80003fc <__udivmoddi4+0x1f8>
 80004a8:	ebb9 0802 	subs.w	r8, r9, r2
 80004ac:	eb64 0e0c 	sbc.w	lr, r4, ip
 80004b0:	3801      	subs	r0, #1
 80004b2:	e7a3      	b.n	80003fc <__udivmoddi4+0x1f8>
 80004b4:	4646      	mov	r6, r8
 80004b6:	e7ea      	b.n	800048e <__udivmoddi4+0x28a>
 80004b8:	4620      	mov	r0, r4
 80004ba:	e794      	b.n	80003e6 <__udivmoddi4+0x1e2>
 80004bc:	4640      	mov	r0, r8
 80004be:	e7d1      	b.n	8000464 <__udivmoddi4+0x260>
 80004c0:	46d0      	mov	r8, sl
 80004c2:	e77b      	b.n	80003bc <__udivmoddi4+0x1b8>
 80004c4:	3b02      	subs	r3, #2
 80004c6:	4461      	add	r1, ip
 80004c8:	e732      	b.n	8000330 <__udivmoddi4+0x12c>
 80004ca:	4630      	mov	r0, r6
 80004cc:	e709      	b.n	80002e2 <__udivmoddi4+0xde>
 80004ce:	4464      	add	r4, ip
 80004d0:	3802      	subs	r0, #2
 80004d2:	e742      	b.n	800035a <__udivmoddi4+0x156>

080004d4 <__aeabi_idiv0>:
 80004d4:	4770      	bx	lr
 80004d6:	bf00      	nop

080004d8 <set_time>:

/* Private user code ---------------------------------------------------------*/
/* USER CODE BEGIN 0 */

void set_time (RTC_TimeTypeDef sTime, RTC_DateTypeDef sDate)
{
 80004d8:	b084      	sub	sp, #16
 80004da:	b580      	push	{r7, lr}
 80004dc:	af00      	add	r7, sp, #0
 80004de:	f107 0c08 	add.w	ip, r7, #8
 80004e2:	e88c 000f 	stmia.w	ip, {r0, r1, r2, r3}
  if (HAL_RTC_SetTime(&hrtc, &sTime, RTC_FORMAT_BCD) != HAL_OK)
 80004e6:	2201      	movs	r2, #1
 80004e8:	f107 0108 	add.w	r1, r7, #8
 80004ec:	480f      	ldr	r0, [pc, #60]	; (800052c <set_time+0x54>)
 80004ee:	f001 fb63 	bl	8001bb8 <HAL_RTC_SetTime>
 80004f2:	4603      	mov	r3, r0
 80004f4:	2b00      	cmp	r3, #0
 80004f6:	d001      	beq.n	80004fc <set_time+0x24>
  {
	  Error_Handler();
 80004f8:	f000 f9e0 	bl	80008bc <Error_Handler>
  }

  if (HAL_RTC_SetDate(&hrtc, &sDate, RTC_FORMAT_BCD) != HAL_OK)
 80004fc:	f107 031c 	add.w	r3, r7, #28
 8000500:	2201      	movs	r2, #1
 8000502:	4619      	mov	r1, r3
 8000504:	4809      	ldr	r0, [pc, #36]	; (800052c <set_time+0x54>)
 8000506:	f001 fc4f 	bl	8001da8 <HAL_RTC_SetDate>
 800050a:	4603      	mov	r3, r0
 800050c:	2b00      	cmp	r3, #0
 800050e:	d001      	beq.n	8000514 <set_time+0x3c>
  {
	  Error_Handler();
 8000510:	f000 f9d4 	bl	80008bc <Error_Handler>
  }
  HAL_RTCEx_BKUPWrite(&hrtc, RTC_BKP_DR1, 0x32F2); // backup register
 8000514:	f243 22f2 	movw	r2, #13042	; 0x32f2
 8000518:	2101      	movs	r1, #1
 800051a:	4804      	ldr	r0, [pc, #16]	; (800052c <set_time+0x54>)
 800051c:	f001 fdd4 	bl	80020c8 <HAL_RTCEx_BKUPWrite>
}
 8000520:	bf00      	nop
 8000522:	46bd      	mov	sp, r7
 8000524:	e8bd 4080 	ldmia.w	sp!, {r7, lr}
 8000528:	b004      	add	sp, #16
 800052a:	4770      	bx	lr
 800052c:	20000040 	.word	0x20000040

08000530 <get_time>:

RTC_TimeTypeDef get_time(){
 8000530:	b5b0      	push	{r4, r5, r7, lr}
 8000532:	b088      	sub	sp, #32
 8000534:	af00      	add	r7, sp, #0
 8000536:	6078      	str	r0, [r7, #4]
	RTC_TimeTypeDef gTime;
	HAL_RTC_GetTime(&hrtc, &gTime, RTC_FORMAT_BIN);
 8000538:	f107 030c 	add.w	r3, r7, #12
 800053c:	2200      	movs	r2, #0
 800053e:	4619      	mov	r1, r3
 8000540:	4807      	ldr	r0, [pc, #28]	; (8000560 <get_time+0x30>)
 8000542:	f001 fbd3 	bl	8001cec <HAL_RTC_GetTime>
	return gTime;
 8000546:	687b      	ldr	r3, [r7, #4]
 8000548:	461d      	mov	r5, r3
 800054a:	f107 040c 	add.w	r4, r7, #12
 800054e:	cc0f      	ldmia	r4!, {r0, r1, r2, r3}
 8000550:	c50f      	stmia	r5!, {r0, r1, r2, r3}
 8000552:	6823      	ldr	r3, [r4, #0]
 8000554:	602b      	str	r3, [r5, #0]
}
 8000556:	6878      	ldr	r0, [r7, #4]
 8000558:	3720      	adds	r7, #32
 800055a:	46bd      	mov	sp, r7
 800055c:	bdb0      	pop	{r4, r5, r7, pc}
 800055e:	bf00      	nop
 8000560:	20000040 	.word	0x20000040

08000564 <get_date>:

RTC_DateTypeDef get_date(){
 8000564:	b580      	push	{r7, lr}
 8000566:	b082      	sub	sp, #8
 8000568:	af00      	add	r7, sp, #0
	RTC_DateTypeDef gDate;
	HAL_RTC_GetDate(&hrtc, &gDate, RTC_FORMAT_BIN);
 800056a:	463b      	mov	r3, r7
 800056c:	2200      	movs	r2, #0
 800056e:	4619      	mov	r1, r3
 8000570:	480a      	ldr	r0, [pc, #40]	; (800059c <get_date+0x38>)
 8000572:	f001 fc9d 	bl	8001eb0 <HAL_RTC_GetDate>
	return gDate;
 8000576:	683b      	ldr	r3, [r7, #0]
 8000578:	607b      	str	r3, [r7, #4]
 800057a:	2300      	movs	r3, #0
 800057c:	793a      	ldrb	r2, [r7, #4]
 800057e:	f362 0307 	bfi	r3, r2, #0, #8
 8000582:	797a      	ldrb	r2, [r7, #5]
 8000584:	f362 230f 	bfi	r3, r2, #8, #8
 8000588:	79ba      	ldrb	r2, [r7, #6]
 800058a:	f362 4317 	bfi	r3, r2, #16, #8
 800058e:	79fa      	ldrb	r2, [r7, #7]
 8000590:	f362 631f 	bfi	r3, r2, #24, #8
}
 8000594:	4618      	mov	r0, r3
 8000596:	3708      	adds	r7, #8
 8000598:	46bd      	mov	sp, r7
 800059a:	bd80      	pop	{r7, pc}
 800059c:	20000040 	.word	0x20000040

080005a0 <main>:
/**
  * @brief  The application entry point.
  * @retval int
  */
int main(void)
{
 80005a0:	b5b0      	push	{r4, r5, r7, lr}
 80005a2:	b08a      	sub	sp, #40	; 0x28
 80005a4:	af02      	add	r7, sp, #8
  /* USER CODE END 1 */

  /* MCU Configuration--------------------------------------------------------*/

  /* Reset of all peripherals, Initializes the Flash interface and the Systick. */
  HAL_Init();
 80005a6:	f000 fa49 	bl	8000a3c <HAL_Init>
  /* USER CODE BEGIN Init */

  /* USER CODE END Init */

  /* Configure the system clock */
  SystemClock_Config();
 80005aa:	f000 f841 	bl	8000630 <SystemClock_Config>
  /* USER CODE BEGIN SysInit */

  /* USER CODE END SysInit */

  /* Initialize all configured peripherals */
  MX_GPIO_Init();
 80005ae:	f000 f907 	bl	80007c0 <MX_GPIO_Init>
  MX_RTC_Init();
 80005b2:	f000 f8ab 	bl	800070c <MX_RTC_Init>
  /* USER CODE BEGIN 2 */

  //Inicialización tiempo
  sTime.Hours = 0x23; // set hours
 80005b6:	4b1c      	ldr	r3, [pc, #112]	; (8000628 <main+0x88>)
 80005b8:	2223      	movs	r2, #35	; 0x23
 80005ba:	701a      	strb	r2, [r3, #0]
  sTime.Minutes = 0x59; // set minutes
 80005bc:	4b1a      	ldr	r3, [pc, #104]	; (8000628 <main+0x88>)
 80005be:	2259      	movs	r2, #89	; 0x59
 80005c0:	705a      	strb	r2, [r3, #1]
  sTime.Seconds = 0x00; // set seconds
 80005c2:	4b19      	ldr	r3, [pc, #100]	; (8000628 <main+0x88>)
 80005c4:	2200      	movs	r2, #0
 80005c6:	709a      	strb	r2, [r3, #2]
  sTime.DayLightSaving = RTC_DAYLIGHTSAVING_NONE;
 80005c8:	4b17      	ldr	r3, [pc, #92]	; (8000628 <main+0x88>)
 80005ca:	2200      	movs	r2, #0
 80005cc:	60da      	str	r2, [r3, #12]
  sTime.StoreOperation = RTC_STOREOPERATION_RESET;
 80005ce:	4b16      	ldr	r3, [pc, #88]	; (8000628 <main+0x88>)
 80005d0:	2200      	movs	r2, #0
 80005d2:	611a      	str	r2, [r3, #16]

  //Inicialización fecha
  sDate.WeekDay = RTC_WEEKDAY_THURSDAY; //day
 80005d4:	4b15      	ldr	r3, [pc, #84]	; (800062c <main+0x8c>)
 80005d6:	2204      	movs	r2, #4
 80005d8:	701a      	strb	r2, [r3, #0]
  sDate.Month = RTC_MONTH_AUGUST; //month
 80005da:	4b14      	ldr	r3, [pc, #80]	; (800062c <main+0x8c>)
 80005dc:	2208      	movs	r2, #8
 80005de:	705a      	strb	r2, [r3, #1]
  sDate.Date = 0x9; //date
 80005e0:	4b12      	ldr	r3, [pc, #72]	; (800062c <main+0x8c>)
 80005e2:	2209      	movs	r2, #9
 80005e4:	709a      	strb	r2, [r3, #2]
  sDate.Year = 0x18; //year
 80005e6:	4b11      	ldr	r3, [pc, #68]	; (800062c <main+0x8c>)
 80005e8:	2218      	movs	r2, #24
 80005ea:	70da      	strb	r2, [r3, #3]

  set_time(sTime, sDate);
 80005ec:	4b0e      	ldr	r3, [pc, #56]	; (8000628 <main+0x88>)
 80005ee:	4a0f      	ldr	r2, [pc, #60]	; (800062c <main+0x8c>)
 80005f0:	6812      	ldr	r2, [r2, #0]
 80005f2:	9201      	str	r2, [sp, #4]
 80005f4:	691a      	ldr	r2, [r3, #16]
 80005f6:	9200      	str	r2, [sp, #0]
 80005f8:	cb0f      	ldmia	r3, {r0, r1, r2, r3}
 80005fa:	f7ff ff6d 	bl	80004d8 <set_time>
  {
    /* USER CODE END WHILE */

    /* USER CODE BEGIN 3 */

	  sTime = get_time();
 80005fe:	4c0a      	ldr	r4, [pc, #40]	; (8000628 <main+0x88>)
 8000600:	463b      	mov	r3, r7
 8000602:	4618      	mov	r0, r3
 8000604:	f7ff ff94 	bl	8000530 <get_time>
 8000608:	4625      	mov	r5, r4
 800060a:	463c      	mov	r4, r7
 800060c:	cc0f      	ldmia	r4!, {r0, r1, r2, r3}
 800060e:	c50f      	stmia	r5!, {r0, r1, r2, r3}
 8000610:	6823      	ldr	r3, [r4, #0]
 8000612:	602b      	str	r3, [r5, #0]
	  sDate = get_date();
 8000614:	f7ff ffa6 	bl	8000564 <get_date>
 8000618:	4603      	mov	r3, r0
 800061a:	4a04      	ldr	r2, [pc, #16]	; (800062c <main+0x8c>)
 800061c:	6013      	str	r3, [r2, #0]

	  uint8_t segundo = sTime.Seconds;
 800061e:	4b02      	ldr	r3, [pc, #8]	; (8000628 <main+0x88>)
 8000620:	789b      	ldrb	r3, [r3, #2]
 8000622:	77fb      	strb	r3, [r7, #31]
  {
 8000624:	e7eb      	b.n	80005fe <main+0x5e>
 8000626:	bf00      	nop
 8000628:	20000028 	.word	0x20000028
 800062c:	2000003c 	.word	0x2000003c

08000630 <SystemClock_Config>:
/**
  * @brief System Clock Configuration
  * @retval None
  */
void SystemClock_Config(void)
{
 8000630:	b580      	push	{r7, lr}
 8000632:	b094      	sub	sp, #80	; 0x50
 8000634:	af00      	add	r7, sp, #0
  RCC_OscInitTypeDef RCC_OscInitStruct = {0};
 8000636:	f107 0320 	add.w	r3, r7, #32
 800063a:	2230      	movs	r2, #48	; 0x30
 800063c:	2100      	movs	r1, #0
 800063e:	4618      	mov	r0, r3
 8000640:	f001 fd80 	bl	8002144 <memset>
  RCC_ClkInitTypeDef RCC_ClkInitStruct = {0};
 8000644:	f107 030c 	add.w	r3, r7, #12
 8000648:	2200      	movs	r2, #0
 800064a:	601a      	str	r2, [r3, #0]
 800064c:	605a      	str	r2, [r3, #4]
 800064e:	609a      	str	r2, [r3, #8]
 8000650:	60da      	str	r2, [r3, #12]
 8000652:	611a      	str	r2, [r3, #16]

  /** Configure the main internal regulator output voltage
  */
  __HAL_RCC_PWR_CLK_ENABLE();
 8000654:	2300      	movs	r3, #0
 8000656:	60bb      	str	r3, [r7, #8]
 8000658:	4b2a      	ldr	r3, [pc, #168]	; (8000704 <SystemClock_Config+0xd4>)
 800065a:	6c1b      	ldr	r3, [r3, #64]	; 0x40
 800065c:	4a29      	ldr	r2, [pc, #164]	; (8000704 <SystemClock_Config+0xd4>)
 800065e:	f043 5380 	orr.w	r3, r3, #268435456	; 0x10000000
 8000662:	6413      	str	r3, [r2, #64]	; 0x40
 8000664:	4b27      	ldr	r3, [pc, #156]	; (8000704 <SystemClock_Config+0xd4>)
 8000666:	6c1b      	ldr	r3, [r3, #64]	; 0x40
 8000668:	f003 5380 	and.w	r3, r3, #268435456	; 0x10000000
 800066c:	60bb      	str	r3, [r7, #8]
 800066e:	68bb      	ldr	r3, [r7, #8]
  __HAL_PWR_VOLTAGESCALING_CONFIG(PWR_REGULATOR_VOLTAGE_SCALE2);
 8000670:	2300      	movs	r3, #0
 8000672:	607b      	str	r3, [r7, #4]
 8000674:	4b24      	ldr	r3, [pc, #144]	; (8000708 <SystemClock_Config+0xd8>)
 8000676:	681b      	ldr	r3, [r3, #0]
 8000678:	f423 4340 	bic.w	r3, r3, #49152	; 0xc000
 800067c:	4a22      	ldr	r2, [pc, #136]	; (8000708 <SystemClock_Config+0xd8>)
 800067e:	f443 4300 	orr.w	r3, r3, #32768	; 0x8000
 8000682:	6013      	str	r3, [r2, #0]
 8000684:	4b20      	ldr	r3, [pc, #128]	; (8000708 <SystemClock_Config+0xd8>)
 8000686:	681b      	ldr	r3, [r3, #0]
 8000688:	f403 4340 	and.w	r3, r3, #49152	; 0xc000
 800068c:	607b      	str	r3, [r7, #4]
 800068e:	687b      	ldr	r3, [r7, #4]

  /** Initializes the RCC Oscillators according to the specified parameters
  * in the RCC_OscInitTypeDef structure.
  */
  RCC_OscInitStruct.OscillatorType = RCC_OSCILLATORTYPE_HSI|RCC_OSCILLATORTYPE_LSI;
 8000690:	230a      	movs	r3, #10
 8000692:	623b      	str	r3, [r7, #32]
  RCC_OscInitStruct.HSIState = RCC_HSI_ON;
 8000694:	2301      	movs	r3, #1
 8000696:	62fb      	str	r3, [r7, #44]	; 0x2c
  RCC_OscInitStruct.HSICalibrationValue = RCC_HSICALIBRATION_DEFAULT;
 8000698:	2310      	movs	r3, #16
 800069a:	633b      	str	r3, [r7, #48]	; 0x30
  RCC_OscInitStruct.LSIState = RCC_LSI_ON;
 800069c:	2301      	movs	r3, #1
 800069e:	637b      	str	r3, [r7, #52]	; 0x34
  RCC_OscInitStruct.PLL.PLLState = RCC_PLL_ON;
 80006a0:	2302      	movs	r3, #2
 80006a2:	63bb      	str	r3, [r7, #56]	; 0x38
  RCC_OscInitStruct.PLL.PLLSource = RCC_PLLSOURCE_HSI;
 80006a4:	2300      	movs	r3, #0
 80006a6:	63fb      	str	r3, [r7, #60]	; 0x3c
  RCC_OscInitStruct.PLL.PLLM = 16;
 80006a8:	2310      	movs	r3, #16
 80006aa:	643b      	str	r3, [r7, #64]	; 0x40
  RCC_OscInitStruct.PLL.PLLN = 336;
 80006ac:	f44f 73a8 	mov.w	r3, #336	; 0x150
 80006b0:	647b      	str	r3, [r7, #68]	; 0x44
  RCC_OscInitStruct.PLL.PLLP = RCC_PLLP_DIV4;
 80006b2:	2304      	movs	r3, #4
 80006b4:	64bb      	str	r3, [r7, #72]	; 0x48
  RCC_OscInitStruct.PLL.PLLQ = 7;
 80006b6:	2307      	movs	r3, #7
 80006b8:	64fb      	str	r3, [r7, #76]	; 0x4c
  if (HAL_RCC_OscConfig(&RCC_OscInitStruct) != HAL_OK)
 80006ba:	f107 0320 	add.w	r3, r7, #32
 80006be:	4618      	mov	r0, r3
 80006c0:	f000 fcb2 	bl	8001028 <HAL_RCC_OscConfig>
 80006c4:	4603      	mov	r3, r0
 80006c6:	2b00      	cmp	r3, #0
 80006c8:	d001      	beq.n	80006ce <SystemClock_Config+0x9e>
  {
    Error_Handler();
 80006ca:	f000 f8f7 	bl	80008bc <Error_Handler>
  }

  /** Initializes the CPU, AHB and APB buses clocks
  */
  RCC_ClkInitStruct.ClockType = RCC_CLOCKTYPE_HCLK|RCC_CLOCKTYPE_SYSCLK
 80006ce:	230f      	movs	r3, #15
 80006d0:	60fb      	str	r3, [r7, #12]
                              |RCC_CLOCKTYPE_PCLK1|RCC_CLOCKTYPE_PCLK2;
  RCC_ClkInitStruct.SYSCLKSource = RCC_SYSCLKSOURCE_PLLCLK;
 80006d2:	2302      	movs	r3, #2
 80006d4:	613b      	str	r3, [r7, #16]
  RCC_ClkInitStruct.AHBCLKDivider = RCC_SYSCLK_DIV1;
 80006d6:	2300      	movs	r3, #0
 80006d8:	617b      	str	r3, [r7, #20]
  RCC_ClkInitStruct.APB1CLKDivider = RCC_HCLK_DIV2;
 80006da:	f44f 5380 	mov.w	r3, #4096	; 0x1000
 80006de:	61bb      	str	r3, [r7, #24]
  RCC_ClkInitStruct.APB2CLKDivider = RCC_HCLK_DIV1;
 80006e0:	2300      	movs	r3, #0
 80006e2:	61fb      	str	r3, [r7, #28]

  if (HAL_RCC_ClockConfig(&RCC_ClkInitStruct, FLASH_LATENCY_2) != HAL_OK)
 80006e4:	f107 030c 	add.w	r3, r7, #12
 80006e8:	2102      	movs	r1, #2
 80006ea:	4618      	mov	r0, r3
 80006ec:	f000 ff14 	bl	8001518 <HAL_RCC_ClockConfig>
 80006f0:	4603      	mov	r3, r0
 80006f2:	2b00      	cmp	r3, #0
 80006f4:	d001      	beq.n	80006fa <SystemClock_Config+0xca>
  {
    Error_Handler();
 80006f6:	f000 f8e1 	bl	80008bc <Error_Handler>
  }
}
 80006fa:	bf00      	nop
 80006fc:	3750      	adds	r7, #80	; 0x50
 80006fe:	46bd      	mov	sp, r7
 8000700:	bd80      	pop	{r7, pc}
 8000702:	bf00      	nop
 8000704:	40023800 	.word	0x40023800
 8000708:	40007000 	.word	0x40007000

0800070c <MX_RTC_Init>:
  * @brief RTC Initialization Function
  * @param None
  * @retval None
  */
static void MX_RTC_Init(void)
{
 800070c:	b580      	push	{r7, lr}
 800070e:	b086      	sub	sp, #24
 8000710:	af00      	add	r7, sp, #0

  /* USER CODE BEGIN RTC_Init 0 */

  /* USER CODE END RTC_Init 0 */

  RTC_TimeTypeDef sTime = {0};
 8000712:	1d3b      	adds	r3, r7, #4
 8000714:	2200      	movs	r2, #0
 8000716:	601a      	str	r2, [r3, #0]
 8000718:	605a      	str	r2, [r3, #4]
 800071a:	609a      	str	r2, [r3, #8]
 800071c:	60da      	str	r2, [r3, #12]
 800071e:	611a      	str	r2, [r3, #16]
  RTC_DateTypeDef sDate = {0};
 8000720:	2300      	movs	r3, #0
 8000722:	603b      	str	r3, [r7, #0]

  /* USER CODE END RTC_Init 1 */

  /** Initialize RTC Only
  */
  hrtc.Instance = RTC;
 8000724:	4b24      	ldr	r3, [pc, #144]	; (80007b8 <MX_RTC_Init+0xac>)
 8000726:	4a25      	ldr	r2, [pc, #148]	; (80007bc <MX_RTC_Init+0xb0>)
 8000728:	601a      	str	r2, [r3, #0]
  hrtc.Init.HourFormat = RTC_HOURFORMAT_24;
 800072a:	4b23      	ldr	r3, [pc, #140]	; (80007b8 <MX_RTC_Init+0xac>)
 800072c:	2200      	movs	r2, #0
 800072e:	605a      	str	r2, [r3, #4]
  hrtc.Init.AsynchPrediv = 127;
 8000730:	4b21      	ldr	r3, [pc, #132]	; (80007b8 <MX_RTC_Init+0xac>)
 8000732:	227f      	movs	r2, #127	; 0x7f
 8000734:	609a      	str	r2, [r3, #8]
  hrtc.Init.SynchPrediv = 255;
 8000736:	4b20      	ldr	r3, [pc, #128]	; (80007b8 <MX_RTC_Init+0xac>)
 8000738:	22ff      	movs	r2, #255	; 0xff
 800073a:	60da      	str	r2, [r3, #12]
  hrtc.Init.OutPut = RTC_OUTPUT_DISABLE;
 800073c:	4b1e      	ldr	r3, [pc, #120]	; (80007b8 <MX_RTC_Init+0xac>)
 800073e:	2200      	movs	r2, #0
 8000740:	611a      	str	r2, [r3, #16]
  hrtc.Init.OutPutPolarity = RTC_OUTPUT_POLARITY_HIGH;
 8000742:	4b1d      	ldr	r3, [pc, #116]	; (80007b8 <MX_RTC_Init+0xac>)
 8000744:	2200      	movs	r2, #0
 8000746:	615a      	str	r2, [r3, #20]
  hrtc.Init.OutPutType = RTC_OUTPUT_TYPE_OPENDRAIN;
 8000748:	4b1b      	ldr	r3, [pc, #108]	; (80007b8 <MX_RTC_Init+0xac>)
 800074a:	2200      	movs	r2, #0
 800074c:	619a      	str	r2, [r3, #24]
  if (HAL_RTC_Init(&hrtc) != HAL_OK)
 800074e:	481a      	ldr	r0, [pc, #104]	; (80007b8 <MX_RTC_Init+0xac>)
 8000750:	f001 f9bc 	bl	8001acc <HAL_RTC_Init>
 8000754:	4603      	mov	r3, r0
 8000756:	2b00      	cmp	r3, #0
 8000758:	d001      	beq.n	800075e <MX_RTC_Init+0x52>
  {
    Error_Handler();
 800075a:	f000 f8af 	bl	80008bc <Error_Handler>

  /* USER CODE END Check_RTC_BKUP */

  /** Initialize RTC and set the Time and Date
  */
  sTime.Hours = 0x10;
 800075e:	2310      	movs	r3, #16
 8000760:	713b      	strb	r3, [r7, #4]
  sTime.Minutes = 0x20;
 8000762:	2320      	movs	r3, #32
 8000764:	717b      	strb	r3, [r7, #5]
  sTime.Seconds = 0x30;
 8000766:	2330      	movs	r3, #48	; 0x30
 8000768:	71bb      	strb	r3, [r7, #6]
  sTime.DayLightSaving = RTC_DAYLIGHTSAVING_NONE;
 800076a:	2300      	movs	r3, #0
 800076c:	613b      	str	r3, [r7, #16]
  sTime.StoreOperation = RTC_STOREOPERATION_RESET;
 800076e:	2300      	movs	r3, #0
 8000770:	617b      	str	r3, [r7, #20]
  if (HAL_RTC_SetTime(&hrtc, &sTime, RTC_FORMAT_BCD) != HAL_OK)
 8000772:	1d3b      	adds	r3, r7, #4
 8000774:	2201      	movs	r2, #1
 8000776:	4619      	mov	r1, r3
 8000778:	480f      	ldr	r0, [pc, #60]	; (80007b8 <MX_RTC_Init+0xac>)
 800077a:	f001 fa1d 	bl	8001bb8 <HAL_RTC_SetTime>
 800077e:	4603      	mov	r3, r0
 8000780:	2b00      	cmp	r3, #0
 8000782:	d001      	beq.n	8000788 <MX_RTC_Init+0x7c>
  {
    Error_Handler();
 8000784:	f000 f89a 	bl	80008bc <Error_Handler>
  }
  sDate.WeekDay = RTC_WEEKDAY_MONDAY;
 8000788:	2301      	movs	r3, #1
 800078a:	703b      	strb	r3, [r7, #0]
  sDate.Month = RTC_MONTH_JANUARY;
 800078c:	2301      	movs	r3, #1
 800078e:	707b      	strb	r3, [r7, #1]
  sDate.Date = 0x1;
 8000790:	2301      	movs	r3, #1
 8000792:	70bb      	strb	r3, [r7, #2]
  sDate.Year = 0x0;
 8000794:	2300      	movs	r3, #0
 8000796:	70fb      	strb	r3, [r7, #3]

  if (HAL_RTC_SetDate(&hrtc, &sDate, RTC_FORMAT_BCD) != HAL_OK)
 8000798:	463b      	mov	r3, r7
 800079a:	2201      	movs	r2, #1
 800079c:	4619      	mov	r1, r3
 800079e:	4806      	ldr	r0, [pc, #24]	; (80007b8 <MX_RTC_Init+0xac>)
 80007a0:	f001 fb02 	bl	8001da8 <HAL_RTC_SetDate>
 80007a4:	4603      	mov	r3, r0
 80007a6:	2b00      	cmp	r3, #0
 80007a8:	d001      	beq.n	80007ae <MX_RTC_Init+0xa2>
  {
    Error_Handler();
 80007aa:	f000 f887 	bl	80008bc <Error_Handler>
  }
  /* USER CODE BEGIN RTC_Init 2 */

  /* USER CODE END RTC_Init 2 */

}
 80007ae:	bf00      	nop
 80007b0:	3718      	adds	r7, #24
 80007b2:	46bd      	mov	sp, r7
 80007b4:	bd80      	pop	{r7, pc}
 80007b6:	bf00      	nop
 80007b8:	20000040 	.word	0x20000040
 80007bc:	40002800 	.word	0x40002800

080007c0 <MX_GPIO_Init>:
  * @brief GPIO Initialization Function
  * @param None
  * @retval None
  */
static void MX_GPIO_Init(void)
{
 80007c0:	b580      	push	{r7, lr}
 80007c2:	b08a      	sub	sp, #40	; 0x28
 80007c4:	af00      	add	r7, sp, #0
  GPIO_InitTypeDef GPIO_InitStruct = {0};
 80007c6:	f107 0314 	add.w	r3, r7, #20
 80007ca:	2200      	movs	r2, #0
 80007cc:	601a      	str	r2, [r3, #0]
 80007ce:	605a      	str	r2, [r3, #4]
 80007d0:	609a      	str	r2, [r3, #8]
 80007d2:	60da      	str	r2, [r3, #12]
 80007d4:	611a      	str	r2, [r3, #16]

  /* GPIO Ports Clock Enable */
  __HAL_RCC_GPIOC_CLK_ENABLE();
 80007d6:	2300      	movs	r3, #0
 80007d8:	613b      	str	r3, [r7, #16]
 80007da:	4b35      	ldr	r3, [pc, #212]	; (80008b0 <MX_GPIO_Init+0xf0>)
 80007dc:	6b1b      	ldr	r3, [r3, #48]	; 0x30
 80007de:	4a34      	ldr	r2, [pc, #208]	; (80008b0 <MX_GPIO_Init+0xf0>)
 80007e0:	f043 0304 	orr.w	r3, r3, #4
 80007e4:	6313      	str	r3, [r2, #48]	; 0x30
 80007e6:	4b32      	ldr	r3, [pc, #200]	; (80008b0 <MX_GPIO_Init+0xf0>)
 80007e8:	6b1b      	ldr	r3, [r3, #48]	; 0x30
 80007ea:	f003 0304 	and.w	r3, r3, #4
 80007ee:	613b      	str	r3, [r7, #16]
 80007f0:	693b      	ldr	r3, [r7, #16]
  __HAL_RCC_GPIOH_CLK_ENABLE();
 80007f2:	2300      	movs	r3, #0
 80007f4:	60fb      	str	r3, [r7, #12]
 80007f6:	4b2e      	ldr	r3, [pc, #184]	; (80008b0 <MX_GPIO_Init+0xf0>)
 80007f8:	6b1b      	ldr	r3, [r3, #48]	; 0x30
 80007fa:	4a2d      	ldr	r2, [pc, #180]	; (80008b0 <MX_GPIO_Init+0xf0>)
 80007fc:	f043 0380 	orr.w	r3, r3, #128	; 0x80
 8000800:	6313      	str	r3, [r2, #48]	; 0x30
 8000802:	4b2b      	ldr	r3, [pc, #172]	; (80008b0 <MX_GPIO_Init+0xf0>)
 8000804:	6b1b      	ldr	r3, [r3, #48]	; 0x30
 8000806:	f003 0380 	and.w	r3, r3, #128	; 0x80
 800080a:	60fb      	str	r3, [r7, #12]
 800080c:	68fb      	ldr	r3, [r7, #12]
  __HAL_RCC_GPIOA_CLK_ENABLE();
 800080e:	2300      	movs	r3, #0
 8000810:	60bb      	str	r3, [r7, #8]
 8000812:	4b27      	ldr	r3, [pc, #156]	; (80008b0 <MX_GPIO_Init+0xf0>)
 8000814:	6b1b      	ldr	r3, [r3, #48]	; 0x30
 8000816:	4a26      	ldr	r2, [pc, #152]	; (80008b0 <MX_GPIO_Init+0xf0>)
 8000818:	f043 0301 	orr.w	r3, r3, #1
 800081c:	6313      	str	r3, [r2, #48]	; 0x30
 800081e:	4b24      	ldr	r3, [pc, #144]	; (80008b0 <MX_GPIO_Init+0xf0>)
 8000820:	6b1b      	ldr	r3, [r3, #48]	; 0x30
 8000822:	f003 0301 	and.w	r3, r3, #1
 8000826:	60bb      	str	r3, [r7, #8]
 8000828:	68bb      	ldr	r3, [r7, #8]
  __HAL_RCC_GPIOB_CLK_ENABLE();
 800082a:	2300      	movs	r3, #0
 800082c:	607b      	str	r3, [r7, #4]
 800082e:	4b20      	ldr	r3, [pc, #128]	; (80008b0 <MX_GPIO_Init+0xf0>)
 8000830:	6b1b      	ldr	r3, [r3, #48]	; 0x30
 8000832:	4a1f      	ldr	r2, [pc, #124]	; (80008b0 <MX_GPIO_Init+0xf0>)
 8000834:	f043 0302 	orr.w	r3, r3, #2
 8000838:	6313      	str	r3, [r2, #48]	; 0x30
 800083a:	4b1d      	ldr	r3, [pc, #116]	; (80008b0 <MX_GPIO_Init+0xf0>)
 800083c:	6b1b      	ldr	r3, [r3, #48]	; 0x30
 800083e:	f003 0302 	and.w	r3, r3, #2
 8000842:	607b      	str	r3, [r7, #4]
 8000844:	687b      	ldr	r3, [r7, #4]

  /*Configure GPIO pin Output Level */
  HAL_GPIO_WritePin(LD2_GPIO_Port, LD2_Pin, GPIO_PIN_RESET);
 8000846:	2200      	movs	r2, #0
 8000848:	2120      	movs	r1, #32
 800084a:	481a      	ldr	r0, [pc, #104]	; (80008b4 <MX_GPIO_Init+0xf4>)
 800084c:	f000 fbd2 	bl	8000ff4 <HAL_GPIO_WritePin>

  /*Configure GPIO pin : B1_Pin */
  GPIO_InitStruct.Pin = B1_Pin;
 8000850:	f44f 5300 	mov.w	r3, #8192	; 0x2000
 8000854:	617b      	str	r3, [r7, #20]
  GPIO_InitStruct.Mode = GPIO_MODE_IT_FALLING;
 8000856:	f44f 1304 	mov.w	r3, #2162688	; 0x210000
 800085a:	61bb      	str	r3, [r7, #24]
  GPIO_InitStruct.Pull = GPIO_NOPULL;
 800085c:	2300      	movs	r3, #0
 800085e:	61fb      	str	r3, [r7, #28]
  HAL_GPIO_Init(B1_GPIO_Port, &GPIO_InitStruct);
 8000860:	f107 0314 	add.w	r3, r7, #20
 8000864:	4619      	mov	r1, r3
 8000866:	4814      	ldr	r0, [pc, #80]	; (80008b8 <MX_GPIO_Init+0xf8>)
 8000868:	f000 fa40 	bl	8000cec <HAL_GPIO_Init>

  /*Configure GPIO pins : USART_TX_Pin USART_RX_Pin */
  GPIO_InitStruct.Pin = USART_TX_Pin|USART_RX_Pin;
 800086c:	230c      	movs	r3, #12
 800086e:	617b      	str	r3, [r7, #20]
  GPIO_InitStruct.Mode = GPIO_MODE_AF_PP;
 8000870:	2302      	movs	r3, #2
 8000872:	61bb      	str	r3, [r7, #24]
  GPIO_InitStruct.Pull = GPIO_NOPULL;
 8000874:	2300      	movs	r3, #0
 8000876:	61fb      	str	r3, [r7, #28]
  GPIO_InitStruct.Speed = GPIO_SPEED_FREQ_LOW;
 8000878:	2300      	movs	r3, #0
 800087a:	623b      	str	r3, [r7, #32]
  GPIO_InitStruct.Alternate = GPIO_AF7_USART2;
 800087c:	2307      	movs	r3, #7
 800087e:	627b      	str	r3, [r7, #36]	; 0x24
  HAL_GPIO_Init(GPIOA, &GPIO_InitStruct);
 8000880:	f107 0314 	add.w	r3, r7, #20
 8000884:	4619      	mov	r1, r3
 8000886:	480b      	ldr	r0, [pc, #44]	; (80008b4 <MX_GPIO_Init+0xf4>)
 8000888:	f000 fa30 	bl	8000cec <HAL_GPIO_Init>

  /*Configure GPIO pin : LD2_Pin */
  GPIO_InitStruct.Pin = LD2_Pin;
 800088c:	2320      	movs	r3, #32
 800088e:	617b      	str	r3, [r7, #20]
  GPIO_InitStruct.Mode = GPIO_MODE_OUTPUT_PP;
 8000890:	2301      	movs	r3, #1
 8000892:	61bb      	str	r3, [r7, #24]
  GPIO_InitStruct.Pull = GPIO_NOPULL;
 8000894:	2300      	movs	r3, #0
 8000896:	61fb      	str	r3, [r7, #28]
  GPIO_InitStruct.Speed = GPIO_SPEED_FREQ_LOW;
 8000898:	2300      	movs	r3, #0
 800089a:	623b      	str	r3, [r7, #32]
  HAL_GPIO_Init(LD2_GPIO_Port, &GPIO_InitStruct);
 800089c:	f107 0314 	add.w	r3, r7, #20
 80008a0:	4619      	mov	r1, r3
 80008a2:	4804      	ldr	r0, [pc, #16]	; (80008b4 <MX_GPIO_Init+0xf4>)
 80008a4:	f000 fa22 	bl	8000cec <HAL_GPIO_Init>

}
 80008a8:	bf00      	nop
 80008aa:	3728      	adds	r7, #40	; 0x28
 80008ac:	46bd      	mov	sp, r7
 80008ae:	bd80      	pop	{r7, pc}
 80008b0:	40023800 	.word	0x40023800
 80008b4:	40020000 	.word	0x40020000
 80008b8:	40020800 	.word	0x40020800

080008bc <Error_Handler>:
/**
  * @brief  This function is executed in case of error occurrence.
  * @retval None
  */
void Error_Handler(void)
{
 80008bc:	b480      	push	{r7}
 80008be:	af00      	add	r7, sp, #0
  \details Disables IRQ interrupts by setting the I-bit in the CPSR.
           Can only be executed in Privileged modes.
 */
__STATIC_FORCEINLINE void __disable_irq(void)
{
  __ASM volatile ("cpsid i" : : : "memory");
 80008c0:	b672      	cpsid	i
}
 80008c2:	bf00      	nop
  /* USER CODE BEGIN Error_Handler_Debug */
  /* User can add his own implementation to report the HAL error return state */
  __disable_irq();
  while (1)
 80008c4:	e7fe      	b.n	80008c4 <Error_Handler+0x8>
	...

080008c8 <HAL_MspInit>:
/* USER CODE END 0 */
/**
  * Initializes the Global MSP.
  */
void HAL_MspInit(void)
{
 80008c8:	b580      	push	{r7, lr}
 80008ca:	b082      	sub	sp, #8
 80008cc:	af00      	add	r7, sp, #0
  /* USER CODE BEGIN MspInit 0 */

  /* USER CODE END MspInit 0 */

  __HAL_RCC_SYSCFG_CLK_ENABLE();
 80008ce:	2300      	movs	r3, #0
 80008d0:	607b      	str	r3, [r7, #4]
 80008d2:	4b10      	ldr	r3, [pc, #64]	; (8000914 <HAL_MspInit+0x4c>)
 80008d4:	6c5b      	ldr	r3, [r3, #68]	; 0x44
 80008d6:	4a0f      	ldr	r2, [pc, #60]	; (8000914 <HAL_MspInit+0x4c>)
 80008d8:	f443 4380 	orr.w	r3, r3, #16384	; 0x4000
 80008dc:	6453      	str	r3, [r2, #68]	; 0x44
 80008de:	4b0d      	ldr	r3, [pc, #52]	; (8000914 <HAL_MspInit+0x4c>)
 80008e0:	6c5b      	ldr	r3, [r3, #68]	; 0x44
 80008e2:	f403 4380 	and.w	r3, r3, #16384	; 0x4000
 80008e6:	607b      	str	r3, [r7, #4]
 80008e8:	687b      	ldr	r3, [r7, #4]
  __HAL_RCC_PWR_CLK_ENABLE();
 80008ea:	2300      	movs	r3, #0
 80008ec:	603b      	str	r3, [r7, #0]
 80008ee:	4b09      	ldr	r3, [pc, #36]	; (8000914 <HAL_MspInit+0x4c>)
 80008f0:	6c1b      	ldr	r3, [r3, #64]	; 0x40
 80008f2:	4a08      	ldr	r2, [pc, #32]	; (8000914 <HAL_MspInit+0x4c>)
 80008f4:	f043 5380 	orr.w	r3, r3, #268435456	; 0x10000000
 80008f8:	6413      	str	r3, [r2, #64]	; 0x40
 80008fa:	4b06      	ldr	r3, [pc, #24]	; (8000914 <HAL_MspInit+0x4c>)
 80008fc:	6c1b      	ldr	r3, [r3, #64]	; 0x40
 80008fe:	f003 5380 	and.w	r3, r3, #268435456	; 0x10000000
 8000902:	603b      	str	r3, [r7, #0]
 8000904:	683b      	ldr	r3, [r7, #0]

  HAL_NVIC_SetPriorityGrouping(NVIC_PRIORITYGROUP_0);
 8000906:	2007      	movs	r0, #7
 8000908:	f000 f9bc 	bl	8000c84 <HAL_NVIC_SetPriorityGrouping>
  /* System interrupt init*/

  /* USER CODE BEGIN MspInit 1 */

  /* USER CODE END MspInit 1 */
}
 800090c:	bf00      	nop
 800090e:	3708      	adds	r7, #8
 8000910:	46bd      	mov	sp, r7
 8000912:	bd80      	pop	{r7, pc}
 8000914:	40023800 	.word	0x40023800

08000918 <HAL_RTC_MspInit>:
* This function configures the hardware resources used in this example
* @param hrtc: RTC handle pointer
* @retval None
*/
void HAL_RTC_MspInit(RTC_HandleTypeDef* hrtc)
{
 8000918:	b580      	push	{r7, lr}
 800091a:	b088      	sub	sp, #32
 800091c:	af00      	add	r7, sp, #0
 800091e:	6078      	str	r0, [r7, #4]
  RCC_PeriphCLKInitTypeDef PeriphClkInitStruct = {0};
 8000920:	f107 030c 	add.w	r3, r7, #12
 8000924:	2200      	movs	r2, #0
 8000926:	601a      	str	r2, [r3, #0]
 8000928:	605a      	str	r2, [r3, #4]
 800092a:	609a      	str	r2, [r3, #8]
 800092c:	60da      	str	r2, [r3, #12]
 800092e:	611a      	str	r2, [r3, #16]
  if(hrtc->Instance==RTC)
 8000930:	687b      	ldr	r3, [r7, #4]
 8000932:	681b      	ldr	r3, [r3, #0]
 8000934:	4a0c      	ldr	r2, [pc, #48]	; (8000968 <HAL_RTC_MspInit+0x50>)
 8000936:	4293      	cmp	r3, r2
 8000938:	d111      	bne.n	800095e <HAL_RTC_MspInit+0x46>

  /* USER CODE END RTC_MspInit 0 */

  /** Initializes the peripherals clock
  */
    PeriphClkInitStruct.PeriphClockSelection = RCC_PERIPHCLK_RTC;
 800093a:	2302      	movs	r3, #2
 800093c:	60fb      	str	r3, [r7, #12]
    PeriphClkInitStruct.RTCClockSelection = RCC_RTCCLKSOURCE_LSI;
 800093e:	f44f 7300 	mov.w	r3, #512	; 0x200
 8000942:	61bb      	str	r3, [r7, #24]
    if (HAL_RCCEx_PeriphCLKConfig(&PeriphClkInitStruct) != HAL_OK)
 8000944:	f107 030c 	add.w	r3, r7, #12
 8000948:	4618      	mov	r0, r3
 800094a:	f000 ffd1 	bl	80018f0 <HAL_RCCEx_PeriphCLKConfig>
 800094e:	4603      	mov	r3, r0
 8000950:	2b00      	cmp	r3, #0
 8000952:	d001      	beq.n	8000958 <HAL_RTC_MspInit+0x40>
    {
      Error_Handler();
 8000954:	f7ff ffb2 	bl	80008bc <Error_Handler>
    }

    /* Peripheral clock enable */
    __HAL_RCC_RTC_ENABLE();
 8000958:	4b04      	ldr	r3, [pc, #16]	; (800096c <HAL_RTC_MspInit+0x54>)
 800095a:	2201      	movs	r2, #1
 800095c:	601a      	str	r2, [r3, #0]
  /* USER CODE BEGIN RTC_MspInit 1 */

  /* USER CODE END RTC_MspInit 1 */
  }

}
 800095e:	bf00      	nop
 8000960:	3720      	adds	r7, #32
 8000962:	46bd      	mov	sp, r7
 8000964:	bd80      	pop	{r7, pc}
 8000966:	bf00      	nop
 8000968:	40002800 	.word	0x40002800
 800096c:	42470e3c 	.word	0x42470e3c

08000970 <NMI_Handler>:
/******************************************************************************/
/**
  * @brief This function handles Non maskable interrupt.
  */
void NMI_Handler(void)
{
 8000970:	b480      	push	{r7}
 8000972:	af00      	add	r7, sp, #0
  /* USER CODE BEGIN NonMaskableInt_IRQn 0 */

  /* USER CODE END NonMaskableInt_IRQn 0 */
  /* USER CODE BEGIN NonMaskableInt_IRQn 1 */
  while (1)
 8000974:	e7fe      	b.n	8000974 <NMI_Handler+0x4>

08000976 <HardFault_Handler>:

/**
  * @brief This function handles Hard fault interrupt.
  */
void HardFault_Handler(void)
{
 8000976:	b480      	push	{r7}
 8000978:	af00      	add	r7, sp, #0
  /* USER CODE BEGIN HardFault_IRQn 0 */

  /* USER CODE END HardFault_IRQn 0 */
  while (1)
 800097a:	e7fe      	b.n	800097a <HardFault_Handler+0x4>

0800097c <MemManage_Handler>:

/**
  * @brief This function handles Memory management fault.
  */
void MemManage_Handler(void)
{
 800097c:	b480      	push	{r7}
 800097e:	af00      	add	r7, sp, #0
  /* USER CODE BEGIN MemoryManagement_IRQn 0 */

  /* USER CODE END MemoryManagement_IRQn 0 */
  while (1)
 8000980:	e7fe      	b.n	8000980 <MemManage_Handler+0x4>

08000982 <BusFault_Handler>:

/**
  * @brief This function handles Pre-fetch fault, memory access fault.
  */
void BusFault_Handler(void)
{
 8000982:	b480      	push	{r7}
 8000984:	af00      	add	r7, sp, #0
  /* USER CODE BEGIN BusFault_IRQn 0 */

  /* USER CODE END BusFault_IRQn 0 */
  while (1)
 8000986:	e7fe      	b.n	8000986 <BusFault_Handler+0x4>

08000988 <UsageFault_Handler>:

/**
  * @brief This function handles Undefined instruction or illegal state.
  */
void UsageFault_Handler(void)
{
 8000988:	b480      	push	{r7}
 800098a:	af00      	add	r7, sp, #0
  /* USER CODE BEGIN UsageFault_IRQn 0 */

  /* USER CODE END UsageFault_IRQn 0 */
  while (1)
 800098c:	e7fe      	b.n	800098c <UsageFault_Handler+0x4>

0800098e <SVC_Handler>:

/**
  * @brief This function handles System service call via SWI instruction.
  */
void SVC_Handler(void)
{
 800098e:	b480      	push	{r7}
 8000990:	af00      	add	r7, sp, #0

  /* USER CODE END SVCall_IRQn 0 */
  /* USER CODE BEGIN SVCall_IRQn 1 */

  /* USER CODE END SVCall_IRQn 1 */
}
 8000992:	bf00      	nop
 8000994:	46bd      	mov	sp, r7
 8000996:	f85d 7b04 	ldr.w	r7, [sp], #4
 800099a:	4770      	bx	lr

0800099c <DebugMon_Handler>:

/**
  * @brief This function handles Debug monitor.
  */
void DebugMon_Handler(void)
{
 800099c:	b480      	push	{r7}
 800099e:	af00      	add	r7, sp, #0

  /* USER CODE END DebugMonitor_IRQn 0 */
  /* USER CODE BEGIN DebugMonitor_IRQn 1 */

  /* USER CODE END DebugMonitor_IRQn 1 */
}
 80009a0:	bf00      	nop
 80009a2:	46bd      	mov	sp, r7
 80009a4:	f85d 7b04 	ldr.w	r7, [sp], #4
 80009a8:	4770      	bx	lr

080009aa <PendSV_Handler>:

/**
  * @brief This function handles Pendable request for system service.
  */
void PendSV_Handler(void)
{
 80009aa:	b480      	push	{r7}
 80009ac:	af00      	add	r7, sp, #0

  /* USER CODE END PendSV_IRQn 0 */
  /* USER CODE BEGIN PendSV_IRQn 1 */

  /* USER CODE END PendSV_IRQn 1 */
}
 80009ae:	bf00      	nop
 80009b0:	46bd      	mov	sp, r7
 80009b2:	f85d 7b04 	ldr.w	r7, [sp], #4
 80009b6:	4770      	bx	lr

080009b8 <SysTick_Handler>:

/**
  * @brief This function handles System tick timer.
  */
void SysTick_Handler(void)
{
 80009b8:	b580      	push	{r7, lr}
 80009ba:	af00      	add	r7, sp, #0
  /* USER CODE BEGIN SysTick_IRQn 0 */

  /* USER CODE END SysTick_IRQn 0 */
  HAL_IncTick();
 80009bc:	f000 f890 	bl	8000ae0 <HAL_IncTick>
  /* USER CODE BEGIN SysTick_IRQn 1 */

  /* USER CODE END SysTick_IRQn 1 */
}
 80009c0:	bf00      	nop
 80009c2:	bd80      	pop	{r7, pc}

080009c4 <SystemInit>:
  *         configuration.
  * @param  None
  * @retval None
  */
void SystemInit(void)
{
 80009c4:	b480      	push	{r7}
 80009c6:	af00      	add	r7, sp, #0
  /* FPU settings ------------------------------------------------------------*/
  #if (__FPU_PRESENT == 1) && (__FPU_USED == 1)
    SCB->CPACR |= ((3UL << 10*2)|(3UL << 11*2));  /* set CP10 and CP11 Full Access */
 80009c8:	4b06      	ldr	r3, [pc, #24]	; (80009e4 <SystemInit+0x20>)
 80009ca:	f8d3 3088 	ldr.w	r3, [r3, #136]	; 0x88
 80009ce:	4a05      	ldr	r2, [pc, #20]	; (80009e4 <SystemInit+0x20>)
 80009d0:	f443 0370 	orr.w	r3, r3, #15728640	; 0xf00000
 80009d4:	f8c2 3088 	str.w	r3, [r2, #136]	; 0x88

  /* Configure the Vector Table location -------------------------------------*/
#if defined(USER_VECT_TAB_ADDRESS)
  SCB->VTOR = VECT_TAB_BASE_ADDRESS | VECT_TAB_OFFSET; /* Vector Table Relocation in Internal SRAM */
#endif /* USER_VECT_TAB_ADDRESS */
}
 80009d8:	bf00      	nop
 80009da:	46bd      	mov	sp, r7
 80009dc:	f85d 7b04 	ldr.w	r7, [sp], #4
 80009e0:	4770      	bx	lr
 80009e2:	bf00      	nop
 80009e4:	e000ed00 	.word	0xe000ed00

080009e8 <Reset_Handler>:

    .section  .text.Reset_Handler
  .weak  Reset_Handler
  .type  Reset_Handler, %function
Reset_Handler:  
  ldr   sp, =_estack    		 /* set stack pointer */
 80009e8:	f8df d034 	ldr.w	sp, [pc, #52]	; 8000a20 <LoopFillZerobss+0x12>

/* Copy the data segment initializers from flash to SRAM */  
  ldr r0, =_sdata
 80009ec:	480d      	ldr	r0, [pc, #52]	; (8000a24 <LoopFillZerobss+0x16>)
  ldr r1, =_edata
 80009ee:	490e      	ldr	r1, [pc, #56]	; (8000a28 <LoopFillZerobss+0x1a>)
  ldr r2, =_sidata
 80009f0:	4a0e      	ldr	r2, [pc, #56]	; (8000a2c <LoopFillZerobss+0x1e>)
  movs r3, #0
 80009f2:	2300      	movs	r3, #0
  b LoopCopyDataInit
 80009f4:	e002      	b.n	80009fc <LoopCopyDataInit>

080009f6 <CopyDataInit>:

CopyDataInit:
  ldr r4, [r2, r3]
 80009f6:	58d4      	ldr	r4, [r2, r3]
  str r4, [r0, r3]
 80009f8:	50c4      	str	r4, [r0, r3]
  adds r3, r3, #4
 80009fa:	3304      	adds	r3, #4

080009fc <LoopCopyDataInit>:

LoopCopyDataInit:
  adds r4, r0, r3
 80009fc:	18c4      	adds	r4, r0, r3
  cmp r4, r1
 80009fe:	428c      	cmp	r4, r1
  bcc CopyDataInit
 8000a00:	d3f9      	bcc.n	80009f6 <CopyDataInit>
  
/* Zero fill the bss segment. */
  ldr r2, =_sbss
 8000a02:	4a0b      	ldr	r2, [pc, #44]	; (8000a30 <LoopFillZerobss+0x22>)
  ldr r4, =_ebss
 8000a04:	4c0b      	ldr	r4, [pc, #44]	; (8000a34 <LoopFillZerobss+0x26>)
  movs r3, #0
 8000a06:	2300      	movs	r3, #0
  b LoopFillZerobss
 8000a08:	e001      	b.n	8000a0e <LoopFillZerobss>

08000a0a <FillZerobss>:

FillZerobss:
  str  r3, [r2]
 8000a0a:	6013      	str	r3, [r2, #0]
  adds r2, r2, #4
 8000a0c:	3204      	adds	r2, #4

08000a0e <LoopFillZerobss>:

LoopFillZerobss:
  cmp r2, r4
 8000a0e:	42a2      	cmp	r2, r4
  bcc FillZerobss
 8000a10:	d3fb      	bcc.n	8000a0a <FillZerobss>

/* Call the clock system initialization function.*/
  bl  SystemInit   
 8000a12:	f7ff ffd7 	bl	80009c4 <SystemInit>
/* Call static constructors */
    bl __libc_init_array
 8000a16:	f001 fb71 	bl	80020fc <__libc_init_array>
/* Call the application's entry point.*/
  bl  main
 8000a1a:	f7ff fdc1 	bl	80005a0 <main>
  bx  lr    
 8000a1e:	4770      	bx	lr
  ldr   sp, =_estack    		 /* set stack pointer */
 8000a20:	20018000 	.word	0x20018000
  ldr r0, =_sdata
 8000a24:	20000000 	.word	0x20000000
  ldr r1, =_edata
 8000a28:	2000000c 	.word	0x2000000c
  ldr r2, =_sidata
 8000a2c:	0800218c 	.word	0x0800218c
  ldr r2, =_sbss
 8000a30:	2000000c 	.word	0x2000000c
  ldr r4, =_ebss
 8000a34:	20000064 	.word	0x20000064

08000a38 <ADC_IRQHandler>:
 * @retval None       
*/
    .section  .text.Default_Handler,"ax",%progbits
Default_Handler:
Infinite_Loop:
  b  Infinite_Loop
 8000a38:	e7fe      	b.n	8000a38 <ADC_IRQHandler>
	...

08000a3c <HAL_Init>:
  *         need to ensure that the SysTick time base is always set to 1 millisecond
  *         to have correct HAL operation.
  * @retval HAL status
  */
HAL_StatusTypeDef HAL_Init(void)
{
 8000a3c:	b580      	push	{r7, lr}
 8000a3e:	af00      	add	r7, sp, #0
  /* Configure Flash prefetch, Instruction cache, Data cache */ 
#if (INSTRUCTION_CACHE_ENABLE != 0U)
  __HAL_FLASH_INSTRUCTION_CACHE_ENABLE();
 8000a40:	4b0e      	ldr	r3, [pc, #56]	; (8000a7c <HAL_Init+0x40>)
 8000a42:	681b      	ldr	r3, [r3, #0]
 8000a44:	4a0d      	ldr	r2, [pc, #52]	; (8000a7c <HAL_Init+0x40>)
 8000a46:	f443 7300 	orr.w	r3, r3, #512	; 0x200
 8000a4a:	6013      	str	r3, [r2, #0]
#endif /* INSTRUCTION_CACHE_ENABLE */

#if (DATA_CACHE_ENABLE != 0U)
  __HAL_FLASH_DATA_CACHE_ENABLE();
 8000a4c:	4b0b      	ldr	r3, [pc, #44]	; (8000a7c <HAL_Init+0x40>)
 8000a4e:	681b      	ldr	r3, [r3, #0]
 8000a50:	4a0a      	ldr	r2, [pc, #40]	; (8000a7c <HAL_Init+0x40>)
 8000a52:	f443 6380 	orr.w	r3, r3, #1024	; 0x400
 8000a56:	6013      	str	r3, [r2, #0]
#endif /* DATA_CACHE_ENABLE */

#if (PREFETCH_ENABLE != 0U)
  __HAL_FLASH_PREFETCH_BUFFER_ENABLE();
 8000a58:	4b08      	ldr	r3, [pc, #32]	; (8000a7c <HAL_Init+0x40>)
 8000a5a:	681b      	ldr	r3, [r3, #0]
 8000a5c:	4a07      	ldr	r2, [pc, #28]	; (8000a7c <HAL_Init+0x40>)
 8000a5e:	f443 7380 	orr.w	r3, r3, #256	; 0x100
 8000a62:	6013      	str	r3, [r2, #0]
#endif /* PREFETCH_ENABLE */

  /* Set Interrupt Group Priority */
  HAL_NVIC_SetPriorityGrouping(NVIC_PRIORITYGROUP_4);
 8000a64:	2003      	movs	r0, #3
 8000a66:	f000 f90d 	bl	8000c84 <HAL_NVIC_SetPriorityGrouping>

  /* Use systick as time base source and configure 1ms tick (default clock after Reset is HSI) */
  HAL_InitTick(TICK_INT_PRIORITY);
 8000a6a:	2000      	movs	r0, #0
 8000a6c:	f000 f808 	bl	8000a80 <HAL_InitTick>

  /* Init the low level hardware */
  HAL_MspInit();
 8000a70:	f7ff ff2a 	bl	80008c8 <HAL_MspInit>

  /* Return function status */
  return HAL_OK;
 8000a74:	2300      	movs	r3, #0
}
 8000a76:	4618      	mov	r0, r3
 8000a78:	bd80      	pop	{r7, pc}
 8000a7a:	bf00      	nop
 8000a7c:	40023c00 	.word	0x40023c00

08000a80 <HAL_InitTick>:
  *       implementation  in user file.
  * @param TickPriority Tick interrupt priority.
  * @retval HAL status
  */
__weak HAL_StatusTypeDef HAL_InitTick(uint32_t TickPriority)
{
 8000a80:	b580      	push	{r7, lr}
 8000a82:	b082      	sub	sp, #8
 8000a84:	af00      	add	r7, sp, #0
 8000a86:	6078      	str	r0, [r7, #4]
  /* Configure the SysTick to have interrupt in 1ms time basis*/
  if (HAL_SYSTICK_Config(SystemCoreClock / (1000U / uwTickFreq)) > 0U)
 8000a88:	4b12      	ldr	r3, [pc, #72]	; (8000ad4 <HAL_InitTick+0x54>)
 8000a8a:	681a      	ldr	r2, [r3, #0]
 8000a8c:	4b12      	ldr	r3, [pc, #72]	; (8000ad8 <HAL_InitTick+0x58>)
 8000a8e:	781b      	ldrb	r3, [r3, #0]
 8000a90:	4619      	mov	r1, r3
 8000a92:	f44f 737a 	mov.w	r3, #1000	; 0x3e8
 8000a96:	fbb3 f3f1 	udiv	r3, r3, r1
 8000a9a:	fbb2 f3f3 	udiv	r3, r2, r3
 8000a9e:	4618      	mov	r0, r3
 8000aa0:	f000 f917 	bl	8000cd2 <HAL_SYSTICK_Config>
 8000aa4:	4603      	mov	r3, r0
 8000aa6:	2b00      	cmp	r3, #0
 8000aa8:	d001      	beq.n	8000aae <HAL_InitTick+0x2e>
  {
    return HAL_ERROR;
 8000aaa:	2301      	movs	r3, #1
 8000aac:	e00e      	b.n	8000acc <HAL_InitTick+0x4c>
  }

  /* Configure the SysTick IRQ priority */
  if (TickPriority < (1UL << __NVIC_PRIO_BITS))
 8000aae:	687b      	ldr	r3, [r7, #4]
 8000ab0:	2b0f      	cmp	r3, #15
 8000ab2:	d80a      	bhi.n	8000aca <HAL_InitTick+0x4a>
  {
    HAL_NVIC_SetPriority(SysTick_IRQn, TickPriority, 0U);
 8000ab4:	2200      	movs	r2, #0
 8000ab6:	6879      	ldr	r1, [r7, #4]
 8000ab8:	f04f 30ff 	mov.w	r0, #4294967295
 8000abc:	f000 f8ed 	bl	8000c9a <HAL_NVIC_SetPriority>
    uwTickPrio = TickPriority;
 8000ac0:	4a06      	ldr	r2, [pc, #24]	; (8000adc <HAL_InitTick+0x5c>)
 8000ac2:	687b      	ldr	r3, [r7, #4]
 8000ac4:	6013      	str	r3, [r2, #0]
  {
    return HAL_ERROR;
  }

  /* Return function status */
  return HAL_OK;
 8000ac6:	2300      	movs	r3, #0
 8000ac8:	e000      	b.n	8000acc <HAL_InitTick+0x4c>
    return HAL_ERROR;
 8000aca:	2301      	movs	r3, #1
}
 8000acc:	4618      	mov	r0, r3
 8000ace:	3708      	adds	r7, #8
 8000ad0:	46bd      	mov	sp, r7
 8000ad2:	bd80      	pop	{r7, pc}
 8000ad4:	20000000 	.word	0x20000000
 8000ad8:	20000008 	.word	0x20000008
 8000adc:	20000004 	.word	0x20000004

08000ae0 <HAL_IncTick>:
 * @note This function is declared as __weak to be overwritten in case of other 
  *      implementations in user file.
  * @retval None
  */
__weak void HAL_IncTick(void)
{
 8000ae0:	b480      	push	{r7}
 8000ae2:	af00      	add	r7, sp, #0
  uwTick += uwTickFreq;
 8000ae4:	4b06      	ldr	r3, [pc, #24]	; (8000b00 <HAL_IncTick+0x20>)
 8000ae6:	781b      	ldrb	r3, [r3, #0]
 8000ae8:	461a      	mov	r2, r3
 8000aea:	4b06      	ldr	r3, [pc, #24]	; (8000b04 <HAL_IncTick+0x24>)
 8000aec:	681b      	ldr	r3, [r3, #0]
 8000aee:	4413      	add	r3, r2
 8000af0:	4a04      	ldr	r2, [pc, #16]	; (8000b04 <HAL_IncTick+0x24>)
 8000af2:	6013      	str	r3, [r2, #0]
}
 8000af4:	bf00      	nop
 8000af6:	46bd      	mov	sp, r7
 8000af8:	f85d 7b04 	ldr.w	r7, [sp], #4
 8000afc:	4770      	bx	lr
 8000afe:	bf00      	nop
 8000b00:	20000008 	.word	0x20000008
 8000b04:	20000060 	.word	0x20000060

08000b08 <HAL_GetTick>:
  * @note This function is declared as __weak to be overwritten in case of other 
  *       implementations in user file.
  * @retval tick value
  */
__weak uint32_t HAL_GetTick(void)
{
 8000b08:	b480      	push	{r7}
 8000b0a:	af00      	add	r7, sp, #0
  return uwTick;
 8000b0c:	4b03      	ldr	r3, [pc, #12]	; (8000b1c <HAL_GetTick+0x14>)
 8000b0e:	681b      	ldr	r3, [r3, #0]
}
 8000b10:	4618      	mov	r0, r3
 8000b12:	46bd      	mov	sp, r7
 8000b14:	f85d 7b04 	ldr.w	r7, [sp], #4
 8000b18:	4770      	bx	lr
 8000b1a:	bf00      	nop
 8000b1c:	20000060 	.word	0x20000060

08000b20 <__NVIC_SetPriorityGrouping>:
           In case of a conflict between priority grouping and available
           priority bits (__NVIC_PRIO_BITS), the smallest possible priority group is set.
  \param [in]      PriorityGroup  Priority grouping field.
 */
__STATIC_INLINE void __NVIC_SetPriorityGrouping(uint32_t PriorityGroup)
{
 8000b20:	b480      	push	{r7}
 8000b22:	b085      	sub	sp, #20
 8000b24:	af00      	add	r7, sp, #0
 8000b26:	6078      	str	r0, [r7, #4]
  uint32_t reg_value;
  uint32_t PriorityGroupTmp = (PriorityGroup & (uint32_t)0x07UL);             /* only values 0..7 are used          */
 8000b28:	687b      	ldr	r3, [r7, #4]
 8000b2a:	f003 0307 	and.w	r3, r3, #7
 8000b2e:	60fb      	str	r3, [r7, #12]

  reg_value  =  SCB->AIRCR;                                                   /* read old register configuration    */
 8000b30:	4b0c      	ldr	r3, [pc, #48]	; (8000b64 <__NVIC_SetPriorityGrouping+0x44>)
 8000b32:	68db      	ldr	r3, [r3, #12]
 8000b34:	60bb      	str	r3, [r7, #8]
  reg_value &= ~((uint32_t)(SCB_AIRCR_VECTKEY_Msk | SCB_AIRCR_PRIGROUP_Msk)); /* clear bits to change               */
 8000b36:	68ba      	ldr	r2, [r7, #8]
 8000b38:	f64f 03ff 	movw	r3, #63743	; 0xf8ff
 8000b3c:	4013      	ands	r3, r2
 8000b3e:	60bb      	str	r3, [r7, #8]
  reg_value  =  (reg_value                                   |
                ((uint32_t)0x5FAUL << SCB_AIRCR_VECTKEY_Pos) |
                (PriorityGroupTmp << SCB_AIRCR_PRIGROUP_Pos)  );              /* Insert write key and priority group */
 8000b40:	68fb      	ldr	r3, [r7, #12]
 8000b42:	021a      	lsls	r2, r3, #8
                ((uint32_t)0x5FAUL << SCB_AIRCR_VECTKEY_Pos) |
 8000b44:	68bb      	ldr	r3, [r7, #8]
 8000b46:	4313      	orrs	r3, r2
  reg_value  =  (reg_value                                   |
 8000b48:	f043 63bf 	orr.w	r3, r3, #100139008	; 0x5f80000
 8000b4c:	f443 3300 	orr.w	r3, r3, #131072	; 0x20000
 8000b50:	60bb      	str	r3, [r7, #8]
  SCB->AIRCR =  reg_value;
 8000b52:	4a04      	ldr	r2, [pc, #16]	; (8000b64 <__NVIC_SetPriorityGrouping+0x44>)
 8000b54:	68bb      	ldr	r3, [r7, #8]
 8000b56:	60d3      	str	r3, [r2, #12]
}
 8000b58:	bf00      	nop
 8000b5a:	3714      	adds	r7, #20
 8000b5c:	46bd      	mov	sp, r7
 8000b5e:	f85d 7b04 	ldr.w	r7, [sp], #4
 8000b62:	4770      	bx	lr
 8000b64:	e000ed00 	.word	0xe000ed00

08000b68 <__NVIC_GetPriorityGrouping>:
  \brief   Get Priority Grouping
  \details Reads the priority grouping field from the NVIC Interrupt Controller.
  \return                Priority grouping field (SCB->AIRCR [10:8] PRIGROUP field).
 */
__STATIC_INLINE uint32_t __NVIC_GetPriorityGrouping(void)
{
 8000b68:	b480      	push	{r7}
 8000b6a:	af00      	add	r7, sp, #0
  return ((uint32_t)((SCB->AIRCR & SCB_AIRCR_PRIGROUP_Msk) >> SCB_AIRCR_PRIGROUP_Pos));
 8000b6c:	4b04      	ldr	r3, [pc, #16]	; (8000b80 <__NVIC_GetPriorityGrouping+0x18>)
 8000b6e:	68db      	ldr	r3, [r3, #12]
 8000b70:	0a1b      	lsrs	r3, r3, #8
 8000b72:	f003 0307 	and.w	r3, r3, #7
}
 8000b76:	4618      	mov	r0, r3
 8000b78:	46bd      	mov	sp, r7
 8000b7a:	f85d 7b04 	ldr.w	r7, [sp], #4
 8000b7e:	4770      	bx	lr
 8000b80:	e000ed00 	.word	0xe000ed00

08000b84 <__NVIC_SetPriority>:
  \param [in]      IRQn  Interrupt number.
  \param [in]  priority  Priority to set.
  \note    The priority cannot be set for every processor exception.
 */
__STATIC_INLINE void __NVIC_SetPriority(IRQn_Type IRQn, uint32_t priority)
{
 8000b84:	b480      	push	{r7}
 8000b86:	b083      	sub	sp, #12
 8000b88:	af00      	add	r7, sp, #0
 8000b8a:	4603      	mov	r3, r0
 8000b8c:	6039      	str	r1, [r7, #0]
 8000b8e:	71fb      	strb	r3, [r7, #7]
  if ((int32_t)(IRQn) >= 0)
 8000b90:	f997 3007 	ldrsb.w	r3, [r7, #7]
 8000b94:	2b00      	cmp	r3, #0
 8000b96:	db0a      	blt.n	8000bae <__NVIC_SetPriority+0x2a>
  {
    NVIC->IP[((uint32_t)IRQn)]               = (uint8_t)((priority << (8U - __NVIC_PRIO_BITS)) & (uint32_t)0xFFUL);
 8000b98:	683b      	ldr	r3, [r7, #0]
 8000b9a:	b2da      	uxtb	r2, r3
 8000b9c:	490c      	ldr	r1, [pc, #48]	; (8000bd0 <__NVIC_SetPriority+0x4c>)
 8000b9e:	f997 3007 	ldrsb.w	r3, [r7, #7]
 8000ba2:	0112      	lsls	r2, r2, #4
 8000ba4:	b2d2      	uxtb	r2, r2
 8000ba6:	440b      	add	r3, r1
 8000ba8:	f883 2300 	strb.w	r2, [r3, #768]	; 0x300
  }
  else
  {
    SCB->SHP[(((uint32_t)IRQn) & 0xFUL)-4UL] = (uint8_t)((priority << (8U - __NVIC_PRIO_BITS)) & (uint32_t)0xFFUL);
  }
}
 8000bac:	e00a      	b.n	8000bc4 <__NVIC_SetPriority+0x40>
    SCB->SHP[(((uint32_t)IRQn) & 0xFUL)-4UL] = (uint8_t)((priority << (8U - __NVIC_PRIO_BITS)) & (uint32_t)0xFFUL);
 8000bae:	683b      	ldr	r3, [r7, #0]
 8000bb0:	b2da      	uxtb	r2, r3
 8000bb2:	4908      	ldr	r1, [pc, #32]	; (8000bd4 <__NVIC_SetPriority+0x50>)
 8000bb4:	79fb      	ldrb	r3, [r7, #7]
 8000bb6:	f003 030f 	and.w	r3, r3, #15
 8000bba:	3b04      	subs	r3, #4
 8000bbc:	0112      	lsls	r2, r2, #4
 8000bbe:	b2d2      	uxtb	r2, r2
 8000bc0:	440b      	add	r3, r1
 8000bc2:	761a      	strb	r2, [r3, #24]
}
 8000bc4:	bf00      	nop
 8000bc6:	370c      	adds	r7, #12
 8000bc8:	46bd      	mov	sp, r7
 8000bca:	f85d 7b04 	ldr.w	r7, [sp], #4
 8000bce:	4770      	bx	lr
 8000bd0:	e000e100 	.word	0xe000e100
 8000bd4:	e000ed00 	.word	0xe000ed00

08000bd8 <NVIC_EncodePriority>:
  \param [in]   PreemptPriority  Preemptive priority value (starting from 0).
  \param [in]       SubPriority  Subpriority value (starting from 0).
  \return                        Encoded priority. Value can be used in the function \ref NVIC_SetPriority().
 */
__STATIC_INLINE uint32_t NVIC_EncodePriority (uint32_t PriorityGroup, uint32_t PreemptPriority, uint32_t SubPriority)
{
 8000bd8:	b480      	push	{r7}
 8000bda:	b089      	sub	sp, #36	; 0x24
 8000bdc:	af00      	add	r7, sp, #0
 8000bde:	60f8      	str	r0, [r7, #12]
 8000be0:	60b9      	str	r1, [r7, #8]
 8000be2:	607a      	str	r2, [r7, #4]
  uint32_t PriorityGroupTmp = (PriorityGroup & (uint32_t)0x07UL);   /* only values 0..7 are used          */
 8000be4:	68fb      	ldr	r3, [r7, #12]
 8000be6:	f003 0307 	and.w	r3, r3, #7
 8000bea:	61fb      	str	r3, [r7, #28]
  uint32_t PreemptPriorityBits;
  uint32_t SubPriorityBits;

  PreemptPriorityBits = ((7UL - PriorityGroupTmp) > (uint32_t)(__NVIC_PRIO_BITS)) ? (uint32_t)(__NVIC_PRIO_BITS) : (uint32_t)(7UL - PriorityGroupTmp);
 8000bec:	69fb      	ldr	r3, [r7, #28]
 8000bee:	f1c3 0307 	rsb	r3, r3, #7
 8000bf2:	2b04      	cmp	r3, #4
 8000bf4:	bf28      	it	cs
 8000bf6:	2304      	movcs	r3, #4
 8000bf8:	61bb      	str	r3, [r7, #24]
  SubPriorityBits     = ((PriorityGroupTmp + (uint32_t)(__NVIC_PRIO_BITS)) < (uint32_t)7UL) ? (uint32_t)0UL : (uint32_t)((PriorityGroupTmp - 7UL) + (uint32_t)(__NVIC_PRIO_BITS));
 8000bfa:	69fb      	ldr	r3, [r7, #28]
 8000bfc:	3304      	adds	r3, #4
 8000bfe:	2b06      	cmp	r3, #6
 8000c00:	d902      	bls.n	8000c08 <NVIC_EncodePriority+0x30>
 8000c02:	69fb      	ldr	r3, [r7, #28]
 8000c04:	3b03      	subs	r3, #3
 8000c06:	e000      	b.n	8000c0a <NVIC_EncodePriority+0x32>
 8000c08:	2300      	movs	r3, #0
 8000c0a:	617b      	str	r3, [r7, #20]

  return (
           ((PreemptPriority & (uint32_t)((1UL << (PreemptPriorityBits)) - 1UL)) << SubPriorityBits) |
 8000c0c:	f04f 32ff 	mov.w	r2, #4294967295
 8000c10:	69bb      	ldr	r3, [r7, #24]
 8000c12:	fa02 f303 	lsl.w	r3, r2, r3
 8000c16:	43da      	mvns	r2, r3
 8000c18:	68bb      	ldr	r3, [r7, #8]
 8000c1a:	401a      	ands	r2, r3
 8000c1c:	697b      	ldr	r3, [r7, #20]
 8000c1e:	409a      	lsls	r2, r3
           ((SubPriority     & (uint32_t)((1UL << (SubPriorityBits    )) - 1UL)))
 8000c20:	f04f 31ff 	mov.w	r1, #4294967295
 8000c24:	697b      	ldr	r3, [r7, #20]
 8000c26:	fa01 f303 	lsl.w	r3, r1, r3
 8000c2a:	43d9      	mvns	r1, r3
 8000c2c:	687b      	ldr	r3, [r7, #4]
 8000c2e:	400b      	ands	r3, r1
           ((PreemptPriority & (uint32_t)((1UL << (PreemptPriorityBits)) - 1UL)) << SubPriorityBits) |
 8000c30:	4313      	orrs	r3, r2
         );
}
 8000c32:	4618      	mov	r0, r3
 8000c34:	3724      	adds	r7, #36	; 0x24
 8000c36:	46bd      	mov	sp, r7
 8000c38:	f85d 7b04 	ldr.w	r7, [sp], #4
 8000c3c:	4770      	bx	lr
	...

08000c40 <SysTick_Config>:
  \note    When the variable <b>__Vendor_SysTickConfig</b> is set to 1, then the
           function <b>SysTick_Config</b> is not included. In this case, the file <b><i>device</i>.h</b>
           must contain a vendor-specific implementation of this function.
 */
__STATIC_INLINE uint32_t SysTick_Config(uint32_t ticks)
{
 8000c40:	b580      	push	{r7, lr}
 8000c42:	b082      	sub	sp, #8
 8000c44:	af00      	add	r7, sp, #0
 8000c46:	6078      	str	r0, [r7, #4]
  if ((ticks - 1UL) > SysTick_LOAD_RELOAD_Msk)
 8000c48:	687b      	ldr	r3, [r7, #4]
 8000c4a:	3b01      	subs	r3, #1
 8000c4c:	f1b3 7f80 	cmp.w	r3, #16777216	; 0x1000000
 8000c50:	d301      	bcc.n	8000c56 <SysTick_Config+0x16>
  {
    return (1UL);                                                   /* Reload value impossible */
 8000c52:	2301      	movs	r3, #1
 8000c54:	e00f      	b.n	8000c76 <SysTick_Config+0x36>
  }

  SysTick->LOAD  = (uint32_t)(ticks - 1UL);                         /* set reload register */
 8000c56:	4a0a      	ldr	r2, [pc, #40]	; (8000c80 <SysTick_Config+0x40>)
 8000c58:	687b      	ldr	r3, [r7, #4]
 8000c5a:	3b01      	subs	r3, #1
 8000c5c:	6053      	str	r3, [r2, #4]
  NVIC_SetPriority (SysTick_IRQn, (1UL << __NVIC_PRIO_BITS) - 1UL); /* set Priority for Systick Interrupt */
 8000c5e:	210f      	movs	r1, #15
 8000c60:	f04f 30ff 	mov.w	r0, #4294967295
 8000c64:	f7ff ff8e 	bl	8000b84 <__NVIC_SetPriority>
  SysTick->VAL   = 0UL;                                             /* Load the SysTick Counter Value */
 8000c68:	4b05      	ldr	r3, [pc, #20]	; (8000c80 <SysTick_Config+0x40>)
 8000c6a:	2200      	movs	r2, #0
 8000c6c:	609a      	str	r2, [r3, #8]
  SysTick->CTRL  = SysTick_CTRL_CLKSOURCE_Msk |
 8000c6e:	4b04      	ldr	r3, [pc, #16]	; (8000c80 <SysTick_Config+0x40>)
 8000c70:	2207      	movs	r2, #7
 8000c72:	601a      	str	r2, [r3, #0]
                   SysTick_CTRL_TICKINT_Msk   |
                   SysTick_CTRL_ENABLE_Msk;                         /* Enable SysTick IRQ and SysTick Timer */
  return (0UL);                                                     /* Function successful */
 8000c74:	2300      	movs	r3, #0
}
 8000c76:	4618      	mov	r0, r3
 8000c78:	3708      	adds	r7, #8
 8000c7a:	46bd      	mov	sp, r7
 8000c7c:	bd80      	pop	{r7, pc}
 8000c7e:	bf00      	nop
 8000c80:	e000e010 	.word	0xe000e010

08000c84 <HAL_NVIC_SetPriorityGrouping>:
  * @note   When the NVIC_PriorityGroup_0 is selected, IRQ preemption is no more possible. 
  *         The pending IRQ priority will be managed only by the subpriority. 
  * @retval None
  */
void HAL_NVIC_SetPriorityGrouping(uint32_t PriorityGroup)
{
 8000c84:	b580      	push	{r7, lr}
 8000c86:	b082      	sub	sp, #8
 8000c88:	af00      	add	r7, sp, #0
 8000c8a:	6078      	str	r0, [r7, #4]
  /* Check the parameters */
  assert_param(IS_NVIC_PRIORITY_GROUP(PriorityGroup));
  
  /* Set the PRIGROUP[10:8] bits according to the PriorityGroup parameter value */
  NVIC_SetPriorityGrouping(PriorityGroup);
 8000c8c:	6878      	ldr	r0, [r7, #4]
 8000c8e:	f7ff ff47 	bl	8000b20 <__NVIC_SetPriorityGrouping>
}
 8000c92:	bf00      	nop
 8000c94:	3708      	adds	r7, #8
 8000c96:	46bd      	mov	sp, r7
 8000c98:	bd80      	pop	{r7, pc}

08000c9a <HAL_NVIC_SetPriority>:
  *         This parameter can be a value between 0 and 15
  *         A lower priority value indicates a higher priority.          
  * @retval None
  */
void HAL_NVIC_SetPriority(IRQn_Type IRQn, uint32_t PreemptPriority, uint32_t SubPriority)
{ 
 8000c9a:	b580      	push	{r7, lr}
 8000c9c:	b086      	sub	sp, #24
 8000c9e:	af00      	add	r7, sp, #0
 8000ca0:	4603      	mov	r3, r0
 8000ca2:	60b9      	str	r1, [r7, #8]
 8000ca4:	607a      	str	r2, [r7, #4]
 8000ca6:	73fb      	strb	r3, [r7, #15]
  uint32_t prioritygroup = 0x00U;
 8000ca8:	2300      	movs	r3, #0
 8000caa:	617b      	str	r3, [r7, #20]
  
  /* Check the parameters */
  assert_param(IS_NVIC_SUB_PRIORITY(SubPriority));
  assert_param(IS_NVIC_PREEMPTION_PRIORITY(PreemptPriority));
  
  prioritygroup = NVIC_GetPriorityGrouping();
 8000cac:	f7ff ff5c 	bl	8000b68 <__NVIC_GetPriorityGrouping>
 8000cb0:	6178      	str	r0, [r7, #20]
  
  NVIC_SetPriority(IRQn, NVIC_EncodePriority(prioritygroup, PreemptPriority, SubPriority));
 8000cb2:	687a      	ldr	r2, [r7, #4]
 8000cb4:	68b9      	ldr	r1, [r7, #8]
 8000cb6:	6978      	ldr	r0, [r7, #20]
 8000cb8:	f7ff ff8e 	bl	8000bd8 <NVIC_EncodePriority>
 8000cbc:	4602      	mov	r2, r0
 8000cbe:	f997 300f 	ldrsb.w	r3, [r7, #15]
 8000cc2:	4611      	mov	r1, r2
 8000cc4:	4618      	mov	r0, r3
 8000cc6:	f7ff ff5d 	bl	8000b84 <__NVIC_SetPriority>
}
 8000cca:	bf00      	nop
 8000ccc:	3718      	adds	r7, #24
 8000cce:	46bd      	mov	sp, r7
 8000cd0:	bd80      	pop	{r7, pc}

08000cd2 <HAL_SYSTICK_Config>:
  * @param  TicksNumb Specifies the ticks Number of ticks between two interrupts.
  * @retval status:  - 0  Function succeeded.
  *                  - 1  Function failed.
  */
uint32_t HAL_SYSTICK_Config(uint32_t TicksNumb)
{
 8000cd2:	b580      	push	{r7, lr}
 8000cd4:	b082      	sub	sp, #8
 8000cd6:	af00      	add	r7, sp, #0
 8000cd8:	6078      	str	r0, [r7, #4]
   return SysTick_Config(TicksNumb);
 8000cda:	6878      	ldr	r0, [r7, #4]
 8000cdc:	f7ff ffb0 	bl	8000c40 <SysTick_Config>
 8000ce0:	4603      	mov	r3, r0
}
 8000ce2:	4618      	mov	r0, r3
 8000ce4:	3708      	adds	r7, #8
 8000ce6:	46bd      	mov	sp, r7
 8000ce8:	bd80      	pop	{r7, pc}
	...

08000cec <HAL_GPIO_Init>:
  * @param  GPIO_Init pointer to a GPIO_InitTypeDef structure that contains
  *         the configuration information for the specified GPIO peripheral.
  * @retval None
  */
void HAL_GPIO_Init(GPIO_TypeDef  *GPIOx, GPIO_InitTypeDef *GPIO_Init)
{
 8000cec:	b480      	push	{r7}
 8000cee:	b089      	sub	sp, #36	; 0x24
 8000cf0:	af00      	add	r7, sp, #0
 8000cf2:	6078      	str	r0, [r7, #4]
 8000cf4:	6039      	str	r1, [r7, #0]
  uint32_t position;
  uint32_t ioposition = 0x00U;
 8000cf6:	2300      	movs	r3, #0
 8000cf8:	617b      	str	r3, [r7, #20]
  uint32_t iocurrent = 0x00U;
 8000cfa:	2300      	movs	r3, #0
 8000cfc:	613b      	str	r3, [r7, #16]
  uint32_t temp = 0x00U;
 8000cfe:	2300      	movs	r3, #0
 8000d00:	61bb      	str	r3, [r7, #24]
  assert_param(IS_GPIO_ALL_INSTANCE(GPIOx));
  assert_param(IS_GPIO_PIN(GPIO_Init->Pin));
  assert_param(IS_GPIO_MODE(GPIO_Init->Mode));

  /* Configure the port pins */
  for(position = 0U; position < GPIO_NUMBER; position++)
 8000d02:	2300      	movs	r3, #0
 8000d04:	61fb      	str	r3, [r7, #28]
 8000d06:	e159      	b.n	8000fbc <HAL_GPIO_Init+0x2d0>
  {
    /* Get the IO position */
    ioposition = 0x01U << position;
 8000d08:	2201      	movs	r2, #1
 8000d0a:	69fb      	ldr	r3, [r7, #28]
 8000d0c:	fa02 f303 	lsl.w	r3, r2, r3
 8000d10:	617b      	str	r3, [r7, #20]
    /* Get the current IO position */
    iocurrent = (uint32_t)(GPIO_Init->Pin) & ioposition;
 8000d12:	683b      	ldr	r3, [r7, #0]
 8000d14:	681b      	ldr	r3, [r3, #0]
 8000d16:	697a      	ldr	r2, [r7, #20]
 8000d18:	4013      	ands	r3, r2
 8000d1a:	613b      	str	r3, [r7, #16]

    if(iocurrent == ioposition)
 8000d1c:	693a      	ldr	r2, [r7, #16]
 8000d1e:	697b      	ldr	r3, [r7, #20]
 8000d20:	429a      	cmp	r2, r3
 8000d22:	f040 8148 	bne.w	8000fb6 <HAL_GPIO_Init+0x2ca>
    {
      /*--------------------- GPIO Mode Configuration ------------------------*/
      /* In case of Output or Alternate function mode selection */
      if(((GPIO_Init->Mode & GPIO_MODE) == MODE_OUTPUT) || \
 8000d26:	683b      	ldr	r3, [r7, #0]
 8000d28:	685b      	ldr	r3, [r3, #4]
 8000d2a:	f003 0303 	and.w	r3, r3, #3
 8000d2e:	2b01      	cmp	r3, #1
 8000d30:	d005      	beq.n	8000d3e <HAL_GPIO_Init+0x52>
          (GPIO_Init->Mode & GPIO_MODE) == MODE_AF)
 8000d32:	683b      	ldr	r3, [r7, #0]
 8000d34:	685b      	ldr	r3, [r3, #4]
 8000d36:	f003 0303 	and.w	r3, r3, #3
      if(((GPIO_Init->Mode & GPIO_MODE) == MODE_OUTPUT) || \
 8000d3a:	2b02      	cmp	r3, #2
 8000d3c:	d130      	bne.n	8000da0 <HAL_GPIO_Init+0xb4>
      {
        /* Check the Speed parameter */
        assert_param(IS_GPIO_SPEED(GPIO_Init->Speed));
        /* Configure the IO Speed */
        temp = GPIOx->OSPEEDR; 
 8000d3e:	687b      	ldr	r3, [r7, #4]
 8000d40:	689b      	ldr	r3, [r3, #8]
 8000d42:	61bb      	str	r3, [r7, #24]
        temp &= ~(GPIO_OSPEEDER_OSPEEDR0 << (position * 2U));
 8000d44:	69fb      	ldr	r3, [r7, #28]
 8000d46:	005b      	lsls	r3, r3, #1
 8000d48:	2203      	movs	r2, #3
 8000d4a:	fa02 f303 	lsl.w	r3, r2, r3
 8000d4e:	43db      	mvns	r3, r3
 8000d50:	69ba      	ldr	r2, [r7, #24]
 8000d52:	4013      	ands	r3, r2
 8000d54:	61bb      	str	r3, [r7, #24]
        temp |= (GPIO_Init->Speed << (position * 2U));
 8000d56:	683b      	ldr	r3, [r7, #0]
 8000d58:	68da      	ldr	r2, [r3, #12]
 8000d5a:	69fb      	ldr	r3, [r7, #28]
 8000d5c:	005b      	lsls	r3, r3, #1
 8000d5e:	fa02 f303 	lsl.w	r3, r2, r3
 8000d62:	69ba      	ldr	r2, [r7, #24]
 8000d64:	4313      	orrs	r3, r2
 8000d66:	61bb      	str	r3, [r7, #24]
        GPIOx->OSPEEDR = temp;
 8000d68:	687b      	ldr	r3, [r7, #4]
 8000d6a:	69ba      	ldr	r2, [r7, #24]
 8000d6c:	609a      	str	r2, [r3, #8]

        /* Configure the IO Output Type */
        temp = GPIOx->OTYPER;
 8000d6e:	687b      	ldr	r3, [r7, #4]
 8000d70:	685b      	ldr	r3, [r3, #4]
 8000d72:	61bb      	str	r3, [r7, #24]
        temp &= ~(GPIO_OTYPER_OT_0 << position) ;
 8000d74:	2201      	movs	r2, #1
 8000d76:	69fb      	ldr	r3, [r7, #28]
 8000d78:	fa02 f303 	lsl.w	r3, r2, r3
 8000d7c:	43db      	mvns	r3, r3
 8000d7e:	69ba      	ldr	r2, [r7, #24]
 8000d80:	4013      	ands	r3, r2
 8000d82:	61bb      	str	r3, [r7, #24]
        temp |= (((GPIO_Init->Mode & OUTPUT_TYPE) >> OUTPUT_TYPE_Pos) << position);
 8000d84:	683b      	ldr	r3, [r7, #0]
 8000d86:	685b      	ldr	r3, [r3, #4]
 8000d88:	091b      	lsrs	r3, r3, #4
 8000d8a:	f003 0201 	and.w	r2, r3, #1
 8000d8e:	69fb      	ldr	r3, [r7, #28]
 8000d90:	fa02 f303 	lsl.w	r3, r2, r3
 8000d94:	69ba      	ldr	r2, [r7, #24]
 8000d96:	4313      	orrs	r3, r2
 8000d98:	61bb      	str	r3, [r7, #24]
        GPIOx->OTYPER = temp;
 8000d9a:	687b      	ldr	r3, [r7, #4]
 8000d9c:	69ba      	ldr	r2, [r7, #24]
 8000d9e:	605a      	str	r2, [r3, #4]
       }

      if((GPIO_Init->Mode & GPIO_MODE) != MODE_ANALOG)
 8000da0:	683b      	ldr	r3, [r7, #0]
 8000da2:	685b      	ldr	r3, [r3, #4]
 8000da4:	f003 0303 	and.w	r3, r3, #3
 8000da8:	2b03      	cmp	r3, #3
 8000daa:	d017      	beq.n	8000ddc <HAL_GPIO_Init+0xf0>
      {
        /* Check the parameters */
        assert_param(IS_GPIO_PULL(GPIO_Init->Pull));
        
        /* Activate the Pull-up or Pull down resistor for the current IO */
        temp = GPIOx->PUPDR;
 8000dac:	687b      	ldr	r3, [r7, #4]
 8000dae:	68db      	ldr	r3, [r3, #12]
 8000db0:	61bb      	str	r3, [r7, #24]
        temp &= ~(GPIO_PUPDR_PUPDR0 << (position * 2U));
 8000db2:	69fb      	ldr	r3, [r7, #28]
 8000db4:	005b      	lsls	r3, r3, #1
 8000db6:	2203      	movs	r2, #3
 8000db8:	fa02 f303 	lsl.w	r3, r2, r3
 8000dbc:	43db      	mvns	r3, r3
 8000dbe:	69ba      	ldr	r2, [r7, #24]
 8000dc0:	4013      	ands	r3, r2
 8000dc2:	61bb      	str	r3, [r7, #24]
        temp |= ((GPIO_Init->Pull) << (position * 2U));
 8000dc4:	683b      	ldr	r3, [r7, #0]
 8000dc6:	689a      	ldr	r2, [r3, #8]
 8000dc8:	69fb      	ldr	r3, [r7, #28]
 8000dca:	005b      	lsls	r3, r3, #1
 8000dcc:	fa02 f303 	lsl.w	r3, r2, r3
 8000dd0:	69ba      	ldr	r2, [r7, #24]
 8000dd2:	4313      	orrs	r3, r2
 8000dd4:	61bb      	str	r3, [r7, #24]
        GPIOx->PUPDR = temp;
 8000dd6:	687b      	ldr	r3, [r7, #4]
 8000dd8:	69ba      	ldr	r2, [r7, #24]
 8000dda:	60da      	str	r2, [r3, #12]
      }

      /* In case of Alternate function mode selection */
      if((GPIO_Init->Mode & GPIO_MODE) == MODE_AF)
 8000ddc:	683b      	ldr	r3, [r7, #0]
 8000dde:	685b      	ldr	r3, [r3, #4]
 8000de0:	f003 0303 	and.w	r3, r3, #3
 8000de4:	2b02      	cmp	r3, #2
 8000de6:	d123      	bne.n	8000e30 <HAL_GPIO_Init+0x144>
      {
        /* Check the Alternate function parameter */
        assert_param(IS_GPIO_AF(GPIO_Init->Alternate));
        /* Configure Alternate function mapped with the current IO */
        temp = GPIOx->AFR[position >> 3U];
 8000de8:	69fb      	ldr	r3, [r7, #28]
 8000dea:	08da      	lsrs	r2, r3, #3
 8000dec:	687b      	ldr	r3, [r7, #4]
 8000dee:	3208      	adds	r2, #8
 8000df0:	f853 3022 	ldr.w	r3, [r3, r2, lsl #2]
 8000df4:	61bb      	str	r3, [r7, #24]
        temp &= ~(0xFU << ((uint32_t)(position & 0x07U) * 4U)) ;
 8000df6:	69fb      	ldr	r3, [r7, #28]
 8000df8:	f003 0307 	and.w	r3, r3, #7
 8000dfc:	009b      	lsls	r3, r3, #2
 8000dfe:	220f      	movs	r2, #15
 8000e00:	fa02 f303 	lsl.w	r3, r2, r3
 8000e04:	43db      	mvns	r3, r3
 8000e06:	69ba      	ldr	r2, [r7, #24]
 8000e08:	4013      	ands	r3, r2
 8000e0a:	61bb      	str	r3, [r7, #24]
        temp |= ((uint32_t)(GPIO_Init->Alternate) << (((uint32_t)position & 0x07U) * 4U));
 8000e0c:	683b      	ldr	r3, [r7, #0]
 8000e0e:	691a      	ldr	r2, [r3, #16]
 8000e10:	69fb      	ldr	r3, [r7, #28]
 8000e12:	f003 0307 	and.w	r3, r3, #7
 8000e16:	009b      	lsls	r3, r3, #2
 8000e18:	fa02 f303 	lsl.w	r3, r2, r3
 8000e1c:	69ba      	ldr	r2, [r7, #24]
 8000e1e:	4313      	orrs	r3, r2
 8000e20:	61bb      	str	r3, [r7, #24]
        GPIOx->AFR[position >> 3U] = temp;
 8000e22:	69fb      	ldr	r3, [r7, #28]
 8000e24:	08da      	lsrs	r2, r3, #3
 8000e26:	687b      	ldr	r3, [r7, #4]
 8000e28:	3208      	adds	r2, #8
 8000e2a:	69b9      	ldr	r1, [r7, #24]
 8000e2c:	f843 1022 	str.w	r1, [r3, r2, lsl #2]
      }

      /* Configure IO Direction mode (Input, Output, Alternate or Analog) */
      temp = GPIOx->MODER;
 8000e30:	687b      	ldr	r3, [r7, #4]
 8000e32:	681b      	ldr	r3, [r3, #0]
 8000e34:	61bb      	str	r3, [r7, #24]
      temp &= ~(GPIO_MODER_MODER0 << (position * 2U));
 8000e36:	69fb      	ldr	r3, [r7, #28]
 8000e38:	005b      	lsls	r3, r3, #1
 8000e3a:	2203      	movs	r2, #3
 8000e3c:	fa02 f303 	lsl.w	r3, r2, r3
 8000e40:	43db      	mvns	r3, r3
 8000e42:	69ba      	ldr	r2, [r7, #24]
 8000e44:	4013      	ands	r3, r2
 8000e46:	61bb      	str	r3, [r7, #24]
      temp |= ((GPIO_Init->Mode & GPIO_MODE) << (position * 2U));
 8000e48:	683b      	ldr	r3, [r7, #0]
 8000e4a:	685b      	ldr	r3, [r3, #4]
 8000e4c:	f003 0203 	and.w	r2, r3, #3
 8000e50:	69fb      	ldr	r3, [r7, #28]
 8000e52:	005b      	lsls	r3, r3, #1
 8000e54:	fa02 f303 	lsl.w	r3, r2, r3
 8000e58:	69ba      	ldr	r2, [r7, #24]
 8000e5a:	4313      	orrs	r3, r2
 8000e5c:	61bb      	str	r3, [r7, #24]
      GPIOx->MODER = temp;
 8000e5e:	687b      	ldr	r3, [r7, #4]
 8000e60:	69ba      	ldr	r2, [r7, #24]
 8000e62:	601a      	str	r2, [r3, #0]

      /*--------------------- EXTI Mode Configuration ------------------------*/
      /* Configure the External Interrupt or event for the current IO */
      if((GPIO_Init->Mode & EXTI_MODE) != 0x00U)
 8000e64:	683b      	ldr	r3, [r7, #0]
 8000e66:	685b      	ldr	r3, [r3, #4]
 8000e68:	f403 3340 	and.w	r3, r3, #196608	; 0x30000
 8000e6c:	2b00      	cmp	r3, #0
 8000e6e:	f000 80a2 	beq.w	8000fb6 <HAL_GPIO_Init+0x2ca>
      {
        /* Enable SYSCFG Clock */
        __HAL_RCC_SYSCFG_CLK_ENABLE();
 8000e72:	2300      	movs	r3, #0
 8000e74:	60fb      	str	r3, [r7, #12]
 8000e76:	4b57      	ldr	r3, [pc, #348]	; (8000fd4 <HAL_GPIO_Init+0x2e8>)
 8000e78:	6c5b      	ldr	r3, [r3, #68]	; 0x44
 8000e7a:	4a56      	ldr	r2, [pc, #344]	; (8000fd4 <HAL_GPIO_Init+0x2e8>)
 8000e7c:	f443 4380 	orr.w	r3, r3, #16384	; 0x4000
 8000e80:	6453      	str	r3, [r2, #68]	; 0x44
 8000e82:	4b54      	ldr	r3, [pc, #336]	; (8000fd4 <HAL_GPIO_Init+0x2e8>)
 8000e84:	6c5b      	ldr	r3, [r3, #68]	; 0x44
 8000e86:	f403 4380 	and.w	r3, r3, #16384	; 0x4000
 8000e8a:	60fb      	str	r3, [r7, #12]
 8000e8c:	68fb      	ldr	r3, [r7, #12]

        temp = SYSCFG->EXTICR[position >> 2U];
 8000e8e:	4a52      	ldr	r2, [pc, #328]	; (8000fd8 <HAL_GPIO_Init+0x2ec>)
 8000e90:	69fb      	ldr	r3, [r7, #28]
 8000e92:	089b      	lsrs	r3, r3, #2
 8000e94:	3302      	adds	r3, #2
 8000e96:	f852 3023 	ldr.w	r3, [r2, r3, lsl #2]
 8000e9a:	61bb      	str	r3, [r7, #24]
        temp &= ~(0x0FU << (4U * (position & 0x03U)));
 8000e9c:	69fb      	ldr	r3, [r7, #28]
 8000e9e:	f003 0303 	and.w	r3, r3, #3
 8000ea2:	009b      	lsls	r3, r3, #2
 8000ea4:	220f      	movs	r2, #15
 8000ea6:	fa02 f303 	lsl.w	r3, r2, r3
 8000eaa:	43db      	mvns	r3, r3
 8000eac:	69ba      	ldr	r2, [r7, #24]
 8000eae:	4013      	ands	r3, r2
 8000eb0:	61bb      	str	r3, [r7, #24]
        temp |= ((uint32_t)(GPIO_GET_INDEX(GPIOx)) << (4U * (position & 0x03U)));
 8000eb2:	687b      	ldr	r3, [r7, #4]
 8000eb4:	4a49      	ldr	r2, [pc, #292]	; (8000fdc <HAL_GPIO_Init+0x2f0>)
 8000eb6:	4293      	cmp	r3, r2
 8000eb8:	d019      	beq.n	8000eee <HAL_GPIO_Init+0x202>
 8000eba:	687b      	ldr	r3, [r7, #4]
 8000ebc:	4a48      	ldr	r2, [pc, #288]	; (8000fe0 <HAL_GPIO_Init+0x2f4>)
 8000ebe:	4293      	cmp	r3, r2
 8000ec0:	d013      	beq.n	8000eea <HAL_GPIO_Init+0x1fe>
 8000ec2:	687b      	ldr	r3, [r7, #4]
 8000ec4:	4a47      	ldr	r2, [pc, #284]	; (8000fe4 <HAL_GPIO_Init+0x2f8>)
 8000ec6:	4293      	cmp	r3, r2
 8000ec8:	d00d      	beq.n	8000ee6 <HAL_GPIO_Init+0x1fa>
 8000eca:	687b      	ldr	r3, [r7, #4]
 8000ecc:	4a46      	ldr	r2, [pc, #280]	; (8000fe8 <HAL_GPIO_Init+0x2fc>)
 8000ece:	4293      	cmp	r3, r2
 8000ed0:	d007      	beq.n	8000ee2 <HAL_GPIO_Init+0x1f6>
 8000ed2:	687b      	ldr	r3, [r7, #4]
 8000ed4:	4a45      	ldr	r2, [pc, #276]	; (8000fec <HAL_GPIO_Init+0x300>)
 8000ed6:	4293      	cmp	r3, r2
 8000ed8:	d101      	bne.n	8000ede <HAL_GPIO_Init+0x1f2>
 8000eda:	2304      	movs	r3, #4
 8000edc:	e008      	b.n	8000ef0 <HAL_GPIO_Init+0x204>
 8000ede:	2307      	movs	r3, #7
 8000ee0:	e006      	b.n	8000ef0 <HAL_GPIO_Init+0x204>
 8000ee2:	2303      	movs	r3, #3
 8000ee4:	e004      	b.n	8000ef0 <HAL_GPIO_Init+0x204>
 8000ee6:	2302      	movs	r3, #2
 8000ee8:	e002      	b.n	8000ef0 <HAL_GPIO_Init+0x204>
 8000eea:	2301      	movs	r3, #1
 8000eec:	e000      	b.n	8000ef0 <HAL_GPIO_Init+0x204>
 8000eee:	2300      	movs	r3, #0
 8000ef0:	69fa      	ldr	r2, [r7, #28]
 8000ef2:	f002 0203 	and.w	r2, r2, #3
 8000ef6:	0092      	lsls	r2, r2, #2
 8000ef8:	4093      	lsls	r3, r2
 8000efa:	69ba      	ldr	r2, [r7, #24]
 8000efc:	4313      	orrs	r3, r2
 8000efe:	61bb      	str	r3, [r7, #24]
        SYSCFG->EXTICR[position >> 2U] = temp;
 8000f00:	4935      	ldr	r1, [pc, #212]	; (8000fd8 <HAL_GPIO_Init+0x2ec>)
 8000f02:	69fb      	ldr	r3, [r7, #28]
 8000f04:	089b      	lsrs	r3, r3, #2
 8000f06:	3302      	adds	r3, #2
 8000f08:	69ba      	ldr	r2, [r7, #24]
 8000f0a:	f841 2023 	str.w	r2, [r1, r3, lsl #2]

        /* Clear Rising Falling edge configuration */
        temp = EXTI->RTSR;
 8000f0e:	4b38      	ldr	r3, [pc, #224]	; (8000ff0 <HAL_GPIO_Init+0x304>)
 8000f10:	689b      	ldr	r3, [r3, #8]
 8000f12:	61bb      	str	r3, [r7, #24]
        temp &= ~((uint32_t)iocurrent);
 8000f14:	693b      	ldr	r3, [r7, #16]
 8000f16:	43db      	mvns	r3, r3
 8000f18:	69ba      	ldr	r2, [r7, #24]
 8000f1a:	4013      	ands	r3, r2
 8000f1c:	61bb      	str	r3, [r7, #24]
        if((GPIO_Init->Mode & TRIGGER_RISING) != 0x00U)
 8000f1e:	683b      	ldr	r3, [r7, #0]
 8000f20:	685b      	ldr	r3, [r3, #4]
 8000f22:	f403 1380 	and.w	r3, r3, #1048576	; 0x100000
 8000f26:	2b00      	cmp	r3, #0
 8000f28:	d003      	beq.n	8000f32 <HAL_GPIO_Init+0x246>
        {
          temp |= iocurrent;
 8000f2a:	69ba      	ldr	r2, [r7, #24]
 8000f2c:	693b      	ldr	r3, [r7, #16]
 8000f2e:	4313      	orrs	r3, r2
 8000f30:	61bb      	str	r3, [r7, #24]
        }
        EXTI->RTSR = temp;
 8000f32:	4a2f      	ldr	r2, [pc, #188]	; (8000ff0 <HAL_GPIO_Init+0x304>)
 8000f34:	69bb      	ldr	r3, [r7, #24]
 8000f36:	6093      	str	r3, [r2, #8]

        temp = EXTI->FTSR;
 8000f38:	4b2d      	ldr	r3, [pc, #180]	; (8000ff0 <HAL_GPIO_Init+0x304>)
 8000f3a:	68db      	ldr	r3, [r3, #12]
 8000f3c:	61bb      	str	r3, [r7, #24]
        temp &= ~((uint32_t)iocurrent);
 8000f3e:	693b      	ldr	r3, [r7, #16]
 8000f40:	43db      	mvns	r3, r3
 8000f42:	69ba      	ldr	r2, [r7, #24]
 8000f44:	4013      	ands	r3, r2
 8000f46:	61bb      	str	r3, [r7, #24]
        if((GPIO_Init->Mode & TRIGGER_FALLING) != 0x00U)
 8000f48:	683b      	ldr	r3, [r7, #0]
 8000f4a:	685b      	ldr	r3, [r3, #4]
 8000f4c:	f403 1300 	and.w	r3, r3, #2097152	; 0x200000
 8000f50:	2b00      	cmp	r3, #0
 8000f52:	d003      	beq.n	8000f5c <HAL_GPIO_Init+0x270>
        {
          temp |= iocurrent;
 8000f54:	69ba      	ldr	r2, [r7, #24]
 8000f56:	693b      	ldr	r3, [r7, #16]
 8000f58:	4313      	orrs	r3, r2
 8000f5a:	61bb      	str	r3, [r7, #24]
        }
        EXTI->FTSR = temp;
 8000f5c:	4a24      	ldr	r2, [pc, #144]	; (8000ff0 <HAL_GPIO_Init+0x304>)
 8000f5e:	69bb      	ldr	r3, [r7, #24]
 8000f60:	60d3      	str	r3, [r2, #12]

        temp = EXTI->EMR;
 8000f62:	4b23      	ldr	r3, [pc, #140]	; (8000ff0 <HAL_GPIO_Init+0x304>)
 8000f64:	685b      	ldr	r3, [r3, #4]
 8000f66:	61bb      	str	r3, [r7, #24]
        temp &= ~((uint32_t)iocurrent);
 8000f68:	693b      	ldr	r3, [r7, #16]
 8000f6a:	43db      	mvns	r3, r3
 8000f6c:	69ba      	ldr	r2, [r7, #24]
 8000f6e:	4013      	ands	r3, r2
 8000f70:	61bb      	str	r3, [r7, #24]
        if((GPIO_Init->Mode & EXTI_EVT) != 0x00U)
 8000f72:	683b      	ldr	r3, [r7, #0]
 8000f74:	685b      	ldr	r3, [r3, #4]
 8000f76:	f403 3300 	and.w	r3, r3, #131072	; 0x20000
 8000f7a:	2b00      	cmp	r3, #0
 8000f7c:	d003      	beq.n	8000f86 <HAL_GPIO_Init+0x29a>
        {
          temp |= iocurrent;
 8000f7e:	69ba      	ldr	r2, [r7, #24]
 8000f80:	693b      	ldr	r3, [r7, #16]
 8000f82:	4313      	orrs	r3, r2
 8000f84:	61bb      	str	r3, [r7, #24]
        }
        EXTI->EMR = temp;
 8000f86:	4a1a      	ldr	r2, [pc, #104]	; (8000ff0 <HAL_GPIO_Init+0x304>)
 8000f88:	69bb      	ldr	r3, [r7, #24]
 8000f8a:	6053      	str	r3, [r2, #4]

        /* Clear EXTI line configuration */
        temp = EXTI->IMR;
 8000f8c:	4b18      	ldr	r3, [pc, #96]	; (8000ff0 <HAL_GPIO_Init+0x304>)
 8000f8e:	681b      	ldr	r3, [r3, #0]
 8000f90:	61bb      	str	r3, [r7, #24]
        temp &= ~((uint32_t)iocurrent);
 8000f92:	693b      	ldr	r3, [r7, #16]
 8000f94:	43db      	mvns	r3, r3
 8000f96:	69ba      	ldr	r2, [r7, #24]
 8000f98:	4013      	ands	r3, r2
 8000f9a:	61bb      	str	r3, [r7, #24]
        if((GPIO_Init->Mode & EXTI_IT) != 0x00U)
 8000f9c:	683b      	ldr	r3, [r7, #0]
 8000f9e:	685b      	ldr	r3, [r3, #4]
 8000fa0:	f403 3380 	and.w	r3, r3, #65536	; 0x10000
 8000fa4:	2b00      	cmp	r3, #0
 8000fa6:	d003      	beq.n	8000fb0 <HAL_GPIO_Init+0x2c4>
        {
          temp |= iocurrent;
 8000fa8:	69ba      	ldr	r2, [r7, #24]
 8000faa:	693b      	ldr	r3, [r7, #16]
 8000fac:	4313      	orrs	r3, r2
 8000fae:	61bb      	str	r3, [r7, #24]
        }
        EXTI->IMR = temp;
 8000fb0:	4a0f      	ldr	r2, [pc, #60]	; (8000ff0 <HAL_GPIO_Init+0x304>)
 8000fb2:	69bb      	ldr	r3, [r7, #24]
 8000fb4:	6013      	str	r3, [r2, #0]
  for(position = 0U; position < GPIO_NUMBER; position++)
 8000fb6:	69fb      	ldr	r3, [r7, #28]
 8000fb8:	3301      	adds	r3, #1
 8000fba:	61fb      	str	r3, [r7, #28]
 8000fbc:	69fb      	ldr	r3, [r7, #28]
 8000fbe:	2b0f      	cmp	r3, #15
 8000fc0:	f67f aea2 	bls.w	8000d08 <HAL_GPIO_Init+0x1c>
      }
    }
  }
}
 8000fc4:	bf00      	nop
 8000fc6:	bf00      	nop
 8000fc8:	3724      	adds	r7, #36	; 0x24
 8000fca:	46bd      	mov	sp, r7
 8000fcc:	f85d 7b04 	ldr.w	r7, [sp], #4
 8000fd0:	4770      	bx	lr
 8000fd2:	bf00      	nop
 8000fd4:	40023800 	.word	0x40023800
 8000fd8:	40013800 	.word	0x40013800
 8000fdc:	40020000 	.word	0x40020000
 8000fe0:	40020400 	.word	0x40020400
 8000fe4:	40020800 	.word	0x40020800
 8000fe8:	40020c00 	.word	0x40020c00
 8000fec:	40021000 	.word	0x40021000
 8000ff0:	40013c00 	.word	0x40013c00

08000ff4 <HAL_GPIO_WritePin>:
  *            @arg GPIO_PIN_RESET: to clear the port pin
  *            @arg GPIO_PIN_SET: to set the port pin
  * @retval None
  */
void HAL_GPIO_WritePin(GPIO_TypeDef* GPIOx, uint16_t GPIO_Pin, GPIO_PinState PinState)
{
 8000ff4:	b480      	push	{r7}
 8000ff6:	b083      	sub	sp, #12
 8000ff8:	af00      	add	r7, sp, #0
 8000ffa:	6078      	str	r0, [r7, #4]
 8000ffc:	460b      	mov	r3, r1
 8000ffe:	807b      	strh	r3, [r7, #2]
 8001000:	4613      	mov	r3, r2
 8001002:	707b      	strb	r3, [r7, #1]
  /* Check the parameters */
  assert_param(IS_GPIO_PIN(GPIO_Pin));
  assert_param(IS_GPIO_PIN_ACTION(PinState));

  if(PinState != GPIO_PIN_RESET)
 8001004:	787b      	ldrb	r3, [r7, #1]
 8001006:	2b00      	cmp	r3, #0
 8001008:	d003      	beq.n	8001012 <HAL_GPIO_WritePin+0x1e>
  {
    GPIOx->BSRR = GPIO_Pin;
 800100a:	887a      	ldrh	r2, [r7, #2]
 800100c:	687b      	ldr	r3, [r7, #4]
 800100e:	619a      	str	r2, [r3, #24]
  }
  else
  {
    GPIOx->BSRR = (uint32_t)GPIO_Pin << 16U;
  }
}
 8001010:	e003      	b.n	800101a <HAL_GPIO_WritePin+0x26>
    GPIOx->BSRR = (uint32_t)GPIO_Pin << 16U;
 8001012:	887b      	ldrh	r3, [r7, #2]
 8001014:	041a      	lsls	r2, r3, #16
 8001016:	687b      	ldr	r3, [r7, #4]
 8001018:	619a      	str	r2, [r3, #24]
}
 800101a:	bf00      	nop
 800101c:	370c      	adds	r7, #12
 800101e:	46bd      	mov	sp, r7
 8001020:	f85d 7b04 	ldr.w	r7, [sp], #4
 8001024:	4770      	bx	lr
	...

08001028 <HAL_RCC_OscConfig>:
  *         supported by this API. User should request a transition to HSE Off
  *         first and then HSE On or HSE Bypass.
  * @retval HAL status
  */
__weak HAL_StatusTypeDef HAL_RCC_OscConfig(RCC_OscInitTypeDef  *RCC_OscInitStruct)
{
 8001028:	b580      	push	{r7, lr}
 800102a:	b086      	sub	sp, #24
 800102c:	af00      	add	r7, sp, #0
 800102e:	6078      	str	r0, [r7, #4]
  uint32_t tickstart, pll_config;

  /* Check Null pointer */
  if(RCC_OscInitStruct == NULL)
 8001030:	687b      	ldr	r3, [r7, #4]
 8001032:	2b00      	cmp	r3, #0
 8001034:	d101      	bne.n	800103a <HAL_RCC_OscConfig+0x12>
  {
    return HAL_ERROR;
 8001036:	2301      	movs	r3, #1
 8001038:	e267      	b.n	800150a <HAL_RCC_OscConfig+0x4e2>
  }

  /* Check the parameters */
  assert_param(IS_RCC_OSCILLATORTYPE(RCC_OscInitStruct->OscillatorType));
  /*------------------------------- HSE Configuration ------------------------*/
  if(((RCC_OscInitStruct->OscillatorType) & RCC_OSCILLATORTYPE_HSE) == RCC_OSCILLATORTYPE_HSE)
 800103a:	687b      	ldr	r3, [r7, #4]
 800103c:	681b      	ldr	r3, [r3, #0]
 800103e:	f003 0301 	and.w	r3, r3, #1
 8001042:	2b00      	cmp	r3, #0
 8001044:	d075      	beq.n	8001132 <HAL_RCC_OscConfig+0x10a>
  {
    /* Check the parameters */
    assert_param(IS_RCC_HSE(RCC_OscInitStruct->HSEState));
    /* When the HSE is used as system clock or clock source for PLL in these cases HSE will not disabled */
    if((__HAL_RCC_GET_SYSCLK_SOURCE() == RCC_CFGR_SWS_HSE) ||\
 8001046:	4b88      	ldr	r3, [pc, #544]	; (8001268 <HAL_RCC_OscConfig+0x240>)
 8001048:	689b      	ldr	r3, [r3, #8]
 800104a:	f003 030c 	and.w	r3, r3, #12
 800104e:	2b04      	cmp	r3, #4
 8001050:	d00c      	beq.n	800106c <HAL_RCC_OscConfig+0x44>
      ((__HAL_RCC_GET_SYSCLK_SOURCE() == RCC_CFGR_SWS_PLL) && ((RCC->PLLCFGR & RCC_PLLCFGR_PLLSRC) == RCC_PLLCFGR_PLLSRC_HSE)))
 8001052:	4b85      	ldr	r3, [pc, #532]	; (8001268 <HAL_RCC_OscConfig+0x240>)
 8001054:	689b      	ldr	r3, [r3, #8]
 8001056:	f003 030c 	and.w	r3, r3, #12
    if((__HAL_RCC_GET_SYSCLK_SOURCE() == RCC_CFGR_SWS_HSE) ||\
 800105a:	2b08      	cmp	r3, #8
 800105c:	d112      	bne.n	8001084 <HAL_RCC_OscConfig+0x5c>
      ((__HAL_RCC_GET_SYSCLK_SOURCE() == RCC_CFGR_SWS_PLL) && ((RCC->PLLCFGR & RCC_PLLCFGR_PLLSRC) == RCC_PLLCFGR_PLLSRC_HSE)))
 800105e:	4b82      	ldr	r3, [pc, #520]	; (8001268 <HAL_RCC_OscConfig+0x240>)
 8001060:	685b      	ldr	r3, [r3, #4]
 8001062:	f403 0380 	and.w	r3, r3, #4194304	; 0x400000
 8001066:	f5b3 0f80 	cmp.w	r3, #4194304	; 0x400000
 800106a:	d10b      	bne.n	8001084 <HAL_RCC_OscConfig+0x5c>
    {
      if((__HAL_RCC_GET_FLAG(RCC_FLAG_HSERDY) != RESET) && (RCC_OscInitStruct->HSEState == RCC_HSE_OFF))
 800106c:	4b7e      	ldr	r3, [pc, #504]	; (8001268 <HAL_RCC_OscConfig+0x240>)
 800106e:	681b      	ldr	r3, [r3, #0]
 8001070:	f403 3300 	and.w	r3, r3, #131072	; 0x20000
 8001074:	2b00      	cmp	r3, #0
 8001076:	d05b      	beq.n	8001130 <HAL_RCC_OscConfig+0x108>
 8001078:	687b      	ldr	r3, [r7, #4]
 800107a:	685b      	ldr	r3, [r3, #4]
 800107c:	2b00      	cmp	r3, #0
 800107e:	d157      	bne.n	8001130 <HAL_RCC_OscConfig+0x108>
      {
        return HAL_ERROR;
 8001080:	2301      	movs	r3, #1
 8001082:	e242      	b.n	800150a <HAL_RCC_OscConfig+0x4e2>
      }
    }
    else
    {
      /* Set the new HSE configuration ---------------------------------------*/
      __HAL_RCC_HSE_CONFIG(RCC_OscInitStruct->HSEState);
 8001084:	687b      	ldr	r3, [r7, #4]
 8001086:	685b      	ldr	r3, [r3, #4]
 8001088:	f5b3 3f80 	cmp.w	r3, #65536	; 0x10000
 800108c:	d106      	bne.n	800109c <HAL_RCC_OscConfig+0x74>
 800108e:	4b76      	ldr	r3, [pc, #472]	; (8001268 <HAL_RCC_OscConfig+0x240>)
 8001090:	681b      	ldr	r3, [r3, #0]
 8001092:	4a75      	ldr	r2, [pc, #468]	; (8001268 <HAL_RCC_OscConfig+0x240>)
 8001094:	f443 3380 	orr.w	r3, r3, #65536	; 0x10000
 8001098:	6013      	str	r3, [r2, #0]
 800109a:	e01d      	b.n	80010d8 <HAL_RCC_OscConfig+0xb0>
 800109c:	687b      	ldr	r3, [r7, #4]
 800109e:	685b      	ldr	r3, [r3, #4]
 80010a0:	f5b3 2fa0 	cmp.w	r3, #327680	; 0x50000
 80010a4:	d10c      	bne.n	80010c0 <HAL_RCC_OscConfig+0x98>
 80010a6:	4b70      	ldr	r3, [pc, #448]	; (8001268 <HAL_RCC_OscConfig+0x240>)
 80010a8:	681b      	ldr	r3, [r3, #0]
 80010aa:	4a6f      	ldr	r2, [pc, #444]	; (8001268 <HAL_RCC_OscConfig+0x240>)
 80010ac:	f443 2380 	orr.w	r3, r3, #262144	; 0x40000
 80010b0:	6013      	str	r3, [r2, #0]
 80010b2:	4b6d      	ldr	r3, [pc, #436]	; (8001268 <HAL_RCC_OscConfig+0x240>)
 80010b4:	681b      	ldr	r3, [r3, #0]
 80010b6:	4a6c      	ldr	r2, [pc, #432]	; (8001268 <HAL_RCC_OscConfig+0x240>)
 80010b8:	f443 3380 	orr.w	r3, r3, #65536	; 0x10000
 80010bc:	6013      	str	r3, [r2, #0]
 80010be:	e00b      	b.n	80010d8 <HAL_RCC_OscConfig+0xb0>
 80010c0:	4b69      	ldr	r3, [pc, #420]	; (8001268 <HAL_RCC_OscConfig+0x240>)
 80010c2:	681b      	ldr	r3, [r3, #0]
 80010c4:	4a68      	ldr	r2, [pc, #416]	; (8001268 <HAL_RCC_OscConfig+0x240>)
 80010c6:	f423 3380 	bic.w	r3, r3, #65536	; 0x10000
 80010ca:	6013      	str	r3, [r2, #0]
 80010cc:	4b66      	ldr	r3, [pc, #408]	; (8001268 <HAL_RCC_OscConfig+0x240>)
 80010ce:	681b      	ldr	r3, [r3, #0]
 80010d0:	4a65      	ldr	r2, [pc, #404]	; (8001268 <HAL_RCC_OscConfig+0x240>)
 80010d2:	f423 2380 	bic.w	r3, r3, #262144	; 0x40000
 80010d6:	6013      	str	r3, [r2, #0]

      /* Check the HSE State */
      if((RCC_OscInitStruct->HSEState) != RCC_HSE_OFF)
 80010d8:	687b      	ldr	r3, [r7, #4]
 80010da:	685b      	ldr	r3, [r3, #4]
 80010dc:	2b00      	cmp	r3, #0
 80010de:	d013      	beq.n	8001108 <HAL_RCC_OscConfig+0xe0>
      {
        /* Get Start Tick */
        tickstart = HAL_GetTick();
 80010e0:	f7ff fd12 	bl	8000b08 <HAL_GetTick>
 80010e4:	6138      	str	r0, [r7, #16]

        /* Wait till HSE is ready */
        while(__HAL_RCC_GET_FLAG(RCC_FLAG_HSERDY) == RESET)
 80010e6:	e008      	b.n	80010fa <HAL_RCC_OscConfig+0xd2>
        {
          if((HAL_GetTick() - tickstart ) > HSE_TIMEOUT_VALUE)
 80010e8:	f7ff fd0e 	bl	8000b08 <HAL_GetTick>
 80010ec:	4602      	mov	r2, r0
 80010ee:	693b      	ldr	r3, [r7, #16]
 80010f0:	1ad3      	subs	r3, r2, r3
 80010f2:	2b64      	cmp	r3, #100	; 0x64
 80010f4:	d901      	bls.n	80010fa <HAL_RCC_OscConfig+0xd2>
          {
            return HAL_TIMEOUT;
 80010f6:	2303      	movs	r3, #3
 80010f8:	e207      	b.n	800150a <HAL_RCC_OscConfig+0x4e2>
        while(__HAL_RCC_GET_FLAG(RCC_FLAG_HSERDY) == RESET)
 80010fa:	4b5b      	ldr	r3, [pc, #364]	; (8001268 <HAL_RCC_OscConfig+0x240>)
 80010fc:	681b      	ldr	r3, [r3, #0]
 80010fe:	f403 3300 	and.w	r3, r3, #131072	; 0x20000
 8001102:	2b00      	cmp	r3, #0
 8001104:	d0f0      	beq.n	80010e8 <HAL_RCC_OscConfig+0xc0>
 8001106:	e014      	b.n	8001132 <HAL_RCC_OscConfig+0x10a>
        }
      }
      else
      {
        /* Get Start Tick */
        tickstart = HAL_GetTick();
 8001108:	f7ff fcfe 	bl	8000b08 <HAL_GetTick>
 800110c:	6138      	str	r0, [r7, #16]

        /* Wait till HSE is bypassed or disabled */
        while(__HAL_RCC_GET_FLAG(RCC_FLAG_HSERDY) != RESET)
 800110e:	e008      	b.n	8001122 <HAL_RCC_OscConfig+0xfa>
        {
          if((HAL_GetTick() - tickstart ) > HSE_TIMEOUT_VALUE)
 8001110:	f7ff fcfa 	bl	8000b08 <HAL_GetTick>
 8001114:	4602      	mov	r2, r0
 8001116:	693b      	ldr	r3, [r7, #16]
 8001118:	1ad3      	subs	r3, r2, r3
 800111a:	2b64      	cmp	r3, #100	; 0x64
 800111c:	d901      	bls.n	8001122 <HAL_RCC_OscConfig+0xfa>
          {
            return HAL_TIMEOUT;
 800111e:	2303      	movs	r3, #3
 8001120:	e1f3      	b.n	800150a <HAL_RCC_OscConfig+0x4e2>
        while(__HAL_RCC_GET_FLAG(RCC_FLAG_HSERDY) != RESET)
 8001122:	4b51      	ldr	r3, [pc, #324]	; (8001268 <HAL_RCC_OscConfig+0x240>)
 8001124:	681b      	ldr	r3, [r3, #0]
 8001126:	f403 3300 	and.w	r3, r3, #131072	; 0x20000
 800112a:	2b00      	cmp	r3, #0
 800112c:	d1f0      	bne.n	8001110 <HAL_RCC_OscConfig+0xe8>
 800112e:	e000      	b.n	8001132 <HAL_RCC_OscConfig+0x10a>
      if((__HAL_RCC_GET_FLAG(RCC_FLAG_HSERDY) != RESET) && (RCC_OscInitStruct->HSEState == RCC_HSE_OFF))
 8001130:	bf00      	nop
        }
      }
    }
  }
  /*----------------------------- HSI Configuration --------------------------*/
  if(((RCC_OscInitStruct->OscillatorType) & RCC_OSCILLATORTYPE_HSI) == RCC_OSCILLATORTYPE_HSI)
 8001132:	687b      	ldr	r3, [r7, #4]
 8001134:	681b      	ldr	r3, [r3, #0]
 8001136:	f003 0302 	and.w	r3, r3, #2
 800113a:	2b00      	cmp	r3, #0
 800113c:	d063      	beq.n	8001206 <HAL_RCC_OscConfig+0x1de>
    /* Check the parameters */
    assert_param(IS_RCC_HSI(RCC_OscInitStruct->HSIState));
    assert_param(IS_RCC_CALIBRATION_VALUE(RCC_OscInitStruct->HSICalibrationValue));

    /* Check if HSI is used as system clock or as PLL source when PLL is selected as system clock */
    if((__HAL_RCC_GET_SYSCLK_SOURCE() == RCC_CFGR_SWS_HSI) ||\
 800113e:	4b4a      	ldr	r3, [pc, #296]	; (8001268 <HAL_RCC_OscConfig+0x240>)
 8001140:	689b      	ldr	r3, [r3, #8]
 8001142:	f003 030c 	and.w	r3, r3, #12
 8001146:	2b00      	cmp	r3, #0
 8001148:	d00b      	beq.n	8001162 <HAL_RCC_OscConfig+0x13a>
      ((__HAL_RCC_GET_SYSCLK_SOURCE() == RCC_CFGR_SWS_PLL) && ((RCC->PLLCFGR & RCC_PLLCFGR_PLLSRC) == RCC_PLLCFGR_PLLSRC_HSI)))
 800114a:	4b47      	ldr	r3, [pc, #284]	; (8001268 <HAL_RCC_OscConfig+0x240>)
 800114c:	689b      	ldr	r3, [r3, #8]
 800114e:	f003 030c 	and.w	r3, r3, #12
    if((__HAL_RCC_GET_SYSCLK_SOURCE() == RCC_CFGR_SWS_HSI) ||\
 8001152:	2b08      	cmp	r3, #8
 8001154:	d11c      	bne.n	8001190 <HAL_RCC_OscConfig+0x168>
      ((__HAL_RCC_GET_SYSCLK_SOURCE() == RCC_CFGR_SWS_PLL) && ((RCC->PLLCFGR & RCC_PLLCFGR_PLLSRC) == RCC_PLLCFGR_PLLSRC_HSI)))
 8001156:	4b44      	ldr	r3, [pc, #272]	; (8001268 <HAL_RCC_OscConfig+0x240>)
 8001158:	685b      	ldr	r3, [r3, #4]
 800115a:	f403 0380 	and.w	r3, r3, #4194304	; 0x400000
 800115e:	2b00      	cmp	r3, #0
 8001160:	d116      	bne.n	8001190 <HAL_RCC_OscConfig+0x168>
    {
      /* When HSI is used as system clock it will not disabled */
      if((__HAL_RCC_GET_FLAG(RCC_FLAG_HSIRDY) != RESET) && (RCC_OscInitStruct->HSIState != RCC_HSI_ON))
 8001162:	4b41      	ldr	r3, [pc, #260]	; (8001268 <HAL_RCC_OscConfig+0x240>)
 8001164:	681b      	ldr	r3, [r3, #0]
 8001166:	f003 0302 	and.w	r3, r3, #2
 800116a:	2b00      	cmp	r3, #0
 800116c:	d005      	beq.n	800117a <HAL_RCC_OscConfig+0x152>
 800116e:	687b      	ldr	r3, [r7, #4]
 8001170:	68db      	ldr	r3, [r3, #12]
 8001172:	2b01      	cmp	r3, #1
 8001174:	d001      	beq.n	800117a <HAL_RCC_OscConfig+0x152>
      {
        return HAL_ERROR;
 8001176:	2301      	movs	r3, #1
 8001178:	e1c7      	b.n	800150a <HAL_RCC_OscConfig+0x4e2>
      }
      /* Otherwise, just the calibration is allowed */
      else
      {
        /* Adjusts the Internal High Speed oscillator (HSI) calibration value.*/
        __HAL_RCC_HSI_CALIBRATIONVALUE_ADJUST(RCC_OscInitStruct->HSICalibrationValue);
 800117a:	4b3b      	ldr	r3, [pc, #236]	; (8001268 <HAL_RCC_OscConfig+0x240>)
 800117c:	681b      	ldr	r3, [r3, #0]
 800117e:	f023 02f8 	bic.w	r2, r3, #248	; 0xf8
 8001182:	687b      	ldr	r3, [r7, #4]
 8001184:	691b      	ldr	r3, [r3, #16]
 8001186:	00db      	lsls	r3, r3, #3
 8001188:	4937      	ldr	r1, [pc, #220]	; (8001268 <HAL_RCC_OscConfig+0x240>)
 800118a:	4313      	orrs	r3, r2
 800118c:	600b      	str	r3, [r1, #0]
      if((__HAL_RCC_GET_FLAG(RCC_FLAG_HSIRDY) != RESET) && (RCC_OscInitStruct->HSIState != RCC_HSI_ON))
 800118e:	e03a      	b.n	8001206 <HAL_RCC_OscConfig+0x1de>
      }
    }
    else
    {
      /* Check the HSI State */
      if((RCC_OscInitStruct->HSIState)!= RCC_HSI_OFF)
 8001190:	687b      	ldr	r3, [r7, #4]
 8001192:	68db      	ldr	r3, [r3, #12]
 8001194:	2b00      	cmp	r3, #0
 8001196:	d020      	beq.n	80011da <HAL_RCC_OscConfig+0x1b2>
      {
        /* Enable the Internal High Speed oscillator (HSI). */
        __HAL_RCC_HSI_ENABLE();
 8001198:	4b34      	ldr	r3, [pc, #208]	; (800126c <HAL_RCC_OscConfig+0x244>)
 800119a:	2201      	movs	r2, #1
 800119c:	601a      	str	r2, [r3, #0]

        /* Get Start Tick*/
        tickstart = HAL_GetTick();
 800119e:	f7ff fcb3 	bl	8000b08 <HAL_GetTick>
 80011a2:	6138      	str	r0, [r7, #16]

        /* Wait till HSI is ready */
        while(__HAL_RCC_GET_FLAG(RCC_FLAG_HSIRDY) == RESET)
 80011a4:	e008      	b.n	80011b8 <HAL_RCC_OscConfig+0x190>
        {
          if((HAL_GetTick() - tickstart ) > HSI_TIMEOUT_VALUE)
 80011a6:	f7ff fcaf 	bl	8000b08 <HAL_GetTick>
 80011aa:	4602      	mov	r2, r0
 80011ac:	693b      	ldr	r3, [r7, #16]
 80011ae:	1ad3      	subs	r3, r2, r3
 80011b0:	2b02      	cmp	r3, #2
 80011b2:	d901      	bls.n	80011b8 <HAL_RCC_OscConfig+0x190>
          {
            return HAL_TIMEOUT;
 80011b4:	2303      	movs	r3, #3
 80011b6:	e1a8      	b.n	800150a <HAL_RCC_OscConfig+0x4e2>
        while(__HAL_RCC_GET_FLAG(RCC_FLAG_HSIRDY) == RESET)
 80011b8:	4b2b      	ldr	r3, [pc, #172]	; (8001268 <HAL_RCC_OscConfig+0x240>)
 80011ba:	681b      	ldr	r3, [r3, #0]
 80011bc:	f003 0302 	and.w	r3, r3, #2
 80011c0:	2b00      	cmp	r3, #0
 80011c2:	d0f0      	beq.n	80011a6 <HAL_RCC_OscConfig+0x17e>
          }
        }

        /* Adjusts the Internal High Speed oscillator (HSI) calibration value. */
        __HAL_RCC_HSI_CALIBRATIONVALUE_ADJUST(RCC_OscInitStruct->HSICalibrationValue);
 80011c4:	4b28      	ldr	r3, [pc, #160]	; (8001268 <HAL_RCC_OscConfig+0x240>)
 80011c6:	681b      	ldr	r3, [r3, #0]
 80011c8:	f023 02f8 	bic.w	r2, r3, #248	; 0xf8
 80011cc:	687b      	ldr	r3, [r7, #4]
 80011ce:	691b      	ldr	r3, [r3, #16]
 80011d0:	00db      	lsls	r3, r3, #3
 80011d2:	4925      	ldr	r1, [pc, #148]	; (8001268 <HAL_RCC_OscConfig+0x240>)
 80011d4:	4313      	orrs	r3, r2
 80011d6:	600b      	str	r3, [r1, #0]
 80011d8:	e015      	b.n	8001206 <HAL_RCC_OscConfig+0x1de>
      }
      else
      {
        /* Disable the Internal High Speed oscillator (HSI). */
        __HAL_RCC_HSI_DISABLE();
 80011da:	4b24      	ldr	r3, [pc, #144]	; (800126c <HAL_RCC_OscConfig+0x244>)
 80011dc:	2200      	movs	r2, #0
 80011de:	601a      	str	r2, [r3, #0]

        /* Get Start Tick*/
        tickstart = HAL_GetTick();
 80011e0:	f7ff fc92 	bl	8000b08 <HAL_GetTick>
 80011e4:	6138      	str	r0, [r7, #16]

        /* Wait till HSI is ready */
        while(__HAL_RCC_GET_FLAG(RCC_FLAG_HSIRDY) != RESET)
 80011e6:	e008      	b.n	80011fa <HAL_RCC_OscConfig+0x1d2>
        {
          if((HAL_GetTick() - tickstart ) > HSI_TIMEOUT_VALUE)
 80011e8:	f7ff fc8e 	bl	8000b08 <HAL_GetTick>
 80011ec:	4602      	mov	r2, r0
 80011ee:	693b      	ldr	r3, [r7, #16]
 80011f0:	1ad3      	subs	r3, r2, r3
 80011f2:	2b02      	cmp	r3, #2
 80011f4:	d901      	bls.n	80011fa <HAL_RCC_OscConfig+0x1d2>
          {
            return HAL_TIMEOUT;
 80011f6:	2303      	movs	r3, #3
 80011f8:	e187      	b.n	800150a <HAL_RCC_OscConfig+0x4e2>
        while(__HAL_RCC_GET_FLAG(RCC_FLAG_HSIRDY) != RESET)
 80011fa:	4b1b      	ldr	r3, [pc, #108]	; (8001268 <HAL_RCC_OscConfig+0x240>)
 80011fc:	681b      	ldr	r3, [r3, #0]
 80011fe:	f003 0302 	and.w	r3, r3, #2
 8001202:	2b00      	cmp	r3, #0
 8001204:	d1f0      	bne.n	80011e8 <HAL_RCC_OscConfig+0x1c0>
        }
      }
    }
  }
  /*------------------------------ LSI Configuration -------------------------*/
  if(((RCC_OscInitStruct->OscillatorType) & RCC_OSCILLATORTYPE_LSI) == RCC_OSCILLATORTYPE_LSI)
 8001206:	687b      	ldr	r3, [r7, #4]
 8001208:	681b      	ldr	r3, [r3, #0]
 800120a:	f003 0308 	and.w	r3, r3, #8
 800120e:	2b00      	cmp	r3, #0
 8001210:	d036      	beq.n	8001280 <HAL_RCC_OscConfig+0x258>
  {
    /* Check the parameters */
    assert_param(IS_RCC_LSI(RCC_OscInitStruct->LSIState));

    /* Check the LSI State */
    if((RCC_OscInitStruct->LSIState)!= RCC_LSI_OFF)
 8001212:	687b      	ldr	r3, [r7, #4]
 8001214:	695b      	ldr	r3, [r3, #20]
 8001216:	2b00      	cmp	r3, #0
 8001218:	d016      	beq.n	8001248 <HAL_RCC_OscConfig+0x220>
    {
      /* Enable the Internal Low Speed oscillator (LSI). */
      __HAL_RCC_LSI_ENABLE();
 800121a:	4b15      	ldr	r3, [pc, #84]	; (8001270 <HAL_RCC_OscConfig+0x248>)
 800121c:	2201      	movs	r2, #1
 800121e:	601a      	str	r2, [r3, #0]

      /* Get Start Tick*/
      tickstart = HAL_GetTick();
 8001220:	f7ff fc72 	bl	8000b08 <HAL_GetTick>
 8001224:	6138      	str	r0, [r7, #16]

      /* Wait till LSI is ready */
      while(__HAL_RCC_GET_FLAG(RCC_FLAG_LSIRDY) == RESET)
 8001226:	e008      	b.n	800123a <HAL_RCC_OscConfig+0x212>
      {
        if((HAL_GetTick() - tickstart ) > LSI_TIMEOUT_VALUE)
 8001228:	f7ff fc6e 	bl	8000b08 <HAL_GetTick>
 800122c:	4602      	mov	r2, r0
 800122e:	693b      	ldr	r3, [r7, #16]
 8001230:	1ad3      	subs	r3, r2, r3
 8001232:	2b02      	cmp	r3, #2
 8001234:	d901      	bls.n	800123a <HAL_RCC_OscConfig+0x212>
        {
          return HAL_TIMEOUT;
 8001236:	2303      	movs	r3, #3
 8001238:	e167      	b.n	800150a <HAL_RCC_OscConfig+0x4e2>
      while(__HAL_RCC_GET_FLAG(RCC_FLAG_LSIRDY) == RESET)
 800123a:	4b0b      	ldr	r3, [pc, #44]	; (8001268 <HAL_RCC_OscConfig+0x240>)
 800123c:	6f5b      	ldr	r3, [r3, #116]	; 0x74
 800123e:	f003 0302 	and.w	r3, r3, #2
 8001242:	2b00      	cmp	r3, #0
 8001244:	d0f0      	beq.n	8001228 <HAL_RCC_OscConfig+0x200>
 8001246:	e01b      	b.n	8001280 <HAL_RCC_OscConfig+0x258>
      }
    }
    else
    {
      /* Disable the Internal Low Speed oscillator (LSI). */
      __HAL_RCC_LSI_DISABLE();
 8001248:	4b09      	ldr	r3, [pc, #36]	; (8001270 <HAL_RCC_OscConfig+0x248>)
 800124a:	2200      	movs	r2, #0
 800124c:	601a      	str	r2, [r3, #0]

      /* Get Start Tick */
      tickstart = HAL_GetTick();
 800124e:	f7ff fc5b 	bl	8000b08 <HAL_GetTick>
 8001252:	6138      	str	r0, [r7, #16]

      /* Wait till LSI is ready */
      while(__HAL_RCC_GET_FLAG(RCC_FLAG_LSIRDY) != RESET)
 8001254:	e00e      	b.n	8001274 <HAL_RCC_OscConfig+0x24c>
      {
        if((HAL_GetTick() - tickstart ) > LSI_TIMEOUT_VALUE)
 8001256:	f7ff fc57 	bl	8000b08 <HAL_GetTick>
 800125a:	4602      	mov	r2, r0
 800125c:	693b      	ldr	r3, [r7, #16]
 800125e:	1ad3      	subs	r3, r2, r3
 8001260:	2b02      	cmp	r3, #2
 8001262:	d907      	bls.n	8001274 <HAL_RCC_OscConfig+0x24c>
        {
          return HAL_TIMEOUT;
 8001264:	2303      	movs	r3, #3
 8001266:	e150      	b.n	800150a <HAL_RCC_OscConfig+0x4e2>
 8001268:	40023800 	.word	0x40023800
 800126c:	42470000 	.word	0x42470000
 8001270:	42470e80 	.word	0x42470e80
      while(__HAL_RCC_GET_FLAG(RCC_FLAG_LSIRDY) != RESET)
 8001274:	4b88      	ldr	r3, [pc, #544]	; (8001498 <HAL_RCC_OscConfig+0x470>)
 8001276:	6f5b      	ldr	r3, [r3, #116]	; 0x74
 8001278:	f003 0302 	and.w	r3, r3, #2
 800127c:	2b00      	cmp	r3, #0
 800127e:	d1ea      	bne.n	8001256 <HAL_RCC_OscConfig+0x22e>
        }
      }
    }
  }
  /*------------------------------ LSE Configuration -------------------------*/
  if(((RCC_OscInitStruct->OscillatorType) & RCC_OSCILLATORTYPE_LSE) == RCC_OSCILLATORTYPE_LSE)
 8001280:	687b      	ldr	r3, [r7, #4]
 8001282:	681b      	ldr	r3, [r3, #0]
 8001284:	f003 0304 	and.w	r3, r3, #4
 8001288:	2b00      	cmp	r3, #0
 800128a:	f000 8097 	beq.w	80013bc <HAL_RCC_OscConfig+0x394>
  {
    FlagStatus       pwrclkchanged = RESET;
 800128e:	2300      	movs	r3, #0
 8001290:	75fb      	strb	r3, [r7, #23]
    /* Check the parameters */
    assert_param(IS_RCC_LSE(RCC_OscInitStruct->LSEState));

    /* Update LSE configuration in Backup Domain control register    */
    /* Requires to enable write access to Backup Domain of necessary */
    if(__HAL_RCC_PWR_IS_CLK_DISABLED())
 8001292:	4b81      	ldr	r3, [pc, #516]	; (8001498 <HAL_RCC_OscConfig+0x470>)
 8001294:	6c1b      	ldr	r3, [r3, #64]	; 0x40
 8001296:	f003 5380 	and.w	r3, r3, #268435456	; 0x10000000
 800129a:	2b00      	cmp	r3, #0
 800129c:	d10f      	bne.n	80012be <HAL_RCC_OscConfig+0x296>
    {
      __HAL_RCC_PWR_CLK_ENABLE();
 800129e:	2300      	movs	r3, #0
 80012a0:	60bb      	str	r3, [r7, #8]
 80012a2:	4b7d      	ldr	r3, [pc, #500]	; (8001498 <HAL_RCC_OscConfig+0x470>)
 80012a4:	6c1b      	ldr	r3, [r3, #64]	; 0x40
 80012a6:	4a7c      	ldr	r2, [pc, #496]	; (8001498 <HAL_RCC_OscConfig+0x470>)
 80012a8:	f043 5380 	orr.w	r3, r3, #268435456	; 0x10000000
 80012ac:	6413      	str	r3, [r2, #64]	; 0x40
 80012ae:	4b7a      	ldr	r3, [pc, #488]	; (8001498 <HAL_RCC_OscConfig+0x470>)
 80012b0:	6c1b      	ldr	r3, [r3, #64]	; 0x40
 80012b2:	f003 5380 	and.w	r3, r3, #268435456	; 0x10000000
 80012b6:	60bb      	str	r3, [r7, #8]
 80012b8:	68bb      	ldr	r3, [r7, #8]
      pwrclkchanged = SET;
 80012ba:	2301      	movs	r3, #1
 80012bc:	75fb      	strb	r3, [r7, #23]
    }

    if(HAL_IS_BIT_CLR(PWR->CR, PWR_CR_DBP))
 80012be:	4b77      	ldr	r3, [pc, #476]	; (800149c <HAL_RCC_OscConfig+0x474>)
 80012c0:	681b      	ldr	r3, [r3, #0]
 80012c2:	f403 7380 	and.w	r3, r3, #256	; 0x100
 80012c6:	2b00      	cmp	r3, #0
 80012c8:	d118      	bne.n	80012fc <HAL_RCC_OscConfig+0x2d4>
    {
      /* Enable write access to Backup domain */
      SET_BIT(PWR->CR, PWR_CR_DBP);
 80012ca:	4b74      	ldr	r3, [pc, #464]	; (800149c <HAL_RCC_OscConfig+0x474>)
 80012cc:	681b      	ldr	r3, [r3, #0]
 80012ce:	4a73      	ldr	r2, [pc, #460]	; (800149c <HAL_RCC_OscConfig+0x474>)
 80012d0:	f443 7380 	orr.w	r3, r3, #256	; 0x100
 80012d4:	6013      	str	r3, [r2, #0]

      /* Wait for Backup domain Write protection disable */
      tickstart = HAL_GetTick();
 80012d6:	f7ff fc17 	bl	8000b08 <HAL_GetTick>
 80012da:	6138      	str	r0, [r7, #16]

      while(HAL_IS_BIT_CLR(PWR->CR, PWR_CR_DBP))
 80012dc:	e008      	b.n	80012f0 <HAL_RCC_OscConfig+0x2c8>
      {
        if((HAL_GetTick() - tickstart) > RCC_DBP_TIMEOUT_VALUE)
 80012de:	f7ff fc13 	bl	8000b08 <HAL_GetTick>
 80012e2:	4602      	mov	r2, r0
 80012e4:	693b      	ldr	r3, [r7, #16]
 80012e6:	1ad3      	subs	r3, r2, r3
 80012e8:	2b02      	cmp	r3, #2
 80012ea:	d901      	bls.n	80012f0 <HAL_RCC_OscConfig+0x2c8>
        {
          return HAL_TIMEOUT;
 80012ec:	2303      	movs	r3, #3
 80012ee:	e10c      	b.n	800150a <HAL_RCC_OscConfig+0x4e2>
      while(HAL_IS_BIT_CLR(PWR->CR, PWR_CR_DBP))
 80012f0:	4b6a      	ldr	r3, [pc, #424]	; (800149c <HAL_RCC_OscConfig+0x474>)
 80012f2:	681b      	ldr	r3, [r3, #0]
 80012f4:	f403 7380 	and.w	r3, r3, #256	; 0x100
 80012f8:	2b00      	cmp	r3, #0
 80012fa:	d0f0      	beq.n	80012de <HAL_RCC_OscConfig+0x2b6>
        }
      }
    }

    /* Set the new LSE configuration -----------------------------------------*/
    __HAL_RCC_LSE_CONFIG(RCC_OscInitStruct->LSEState);
 80012fc:	687b      	ldr	r3, [r7, #4]
 80012fe:	689b      	ldr	r3, [r3, #8]
 8001300:	2b01      	cmp	r3, #1
 8001302:	d106      	bne.n	8001312 <HAL_RCC_OscConfig+0x2ea>
 8001304:	4b64      	ldr	r3, [pc, #400]	; (8001498 <HAL_RCC_OscConfig+0x470>)
 8001306:	6f1b      	ldr	r3, [r3, #112]	; 0x70
 8001308:	4a63      	ldr	r2, [pc, #396]	; (8001498 <HAL_RCC_OscConfig+0x470>)
 800130a:	f043 0301 	orr.w	r3, r3, #1
 800130e:	6713      	str	r3, [r2, #112]	; 0x70
 8001310:	e01c      	b.n	800134c <HAL_RCC_OscConfig+0x324>
 8001312:	687b      	ldr	r3, [r7, #4]
 8001314:	689b      	ldr	r3, [r3, #8]
 8001316:	2b05      	cmp	r3, #5
 8001318:	d10c      	bne.n	8001334 <HAL_RCC_OscConfig+0x30c>
 800131a:	4b5f      	ldr	r3, [pc, #380]	; (8001498 <HAL_RCC_OscConfig+0x470>)
 800131c:	6f1b      	ldr	r3, [r3, #112]	; 0x70
 800131e:	4a5e      	ldr	r2, [pc, #376]	; (8001498 <HAL_RCC_OscConfig+0x470>)
 8001320:	f043 0304 	orr.w	r3, r3, #4
 8001324:	6713      	str	r3, [r2, #112]	; 0x70
 8001326:	4b5c      	ldr	r3, [pc, #368]	; (8001498 <HAL_RCC_OscConfig+0x470>)
 8001328:	6f1b      	ldr	r3, [r3, #112]	; 0x70
 800132a:	4a5b      	ldr	r2, [pc, #364]	; (8001498 <HAL_RCC_OscConfig+0x470>)
 800132c:	f043 0301 	orr.w	r3, r3, #1
 8001330:	6713      	str	r3, [r2, #112]	; 0x70
 8001332:	e00b      	b.n	800134c <HAL_RCC_OscConfig+0x324>
 8001334:	4b58      	ldr	r3, [pc, #352]	; (8001498 <HAL_RCC_OscConfig+0x470>)
 8001336:	6f1b      	ldr	r3, [r3, #112]	; 0x70
 8001338:	4a57      	ldr	r2, [pc, #348]	; (8001498 <HAL_RCC_OscConfig+0x470>)
 800133a:	f023 0301 	bic.w	r3, r3, #1
 800133e:	6713      	str	r3, [r2, #112]	; 0x70
 8001340:	4b55      	ldr	r3, [pc, #340]	; (8001498 <HAL_RCC_OscConfig+0x470>)
 8001342:	6f1b      	ldr	r3, [r3, #112]	; 0x70
 8001344:	4a54      	ldr	r2, [pc, #336]	; (8001498 <HAL_RCC_OscConfig+0x470>)
 8001346:	f023 0304 	bic.w	r3, r3, #4
 800134a:	6713      	str	r3, [r2, #112]	; 0x70
    /* Check the LSE State */
    if((RCC_OscInitStruct->LSEState) != RCC_LSE_OFF)
 800134c:	687b      	ldr	r3, [r7, #4]
 800134e:	689b      	ldr	r3, [r3, #8]
 8001350:	2b00      	cmp	r3, #0
 8001352:	d015      	beq.n	8001380 <HAL_RCC_OscConfig+0x358>
    {
      /* Get Start Tick*/
      tickstart = HAL_GetTick();
 8001354:	f7ff fbd8 	bl	8000b08 <HAL_GetTick>
 8001358:	6138      	str	r0, [r7, #16]

      /* Wait till LSE is ready */
      while(__HAL_RCC_GET_FLAG(RCC_FLAG_LSERDY) == RESET)
 800135a:	e00a      	b.n	8001372 <HAL_RCC_OscConfig+0x34a>
      {
        if((HAL_GetTick() - tickstart ) > RCC_LSE_TIMEOUT_VALUE)
 800135c:	f7ff fbd4 	bl	8000b08 <HAL_GetTick>
 8001360:	4602      	mov	r2, r0
 8001362:	693b      	ldr	r3, [r7, #16]
 8001364:	1ad3      	subs	r3, r2, r3
 8001366:	f241 3288 	movw	r2, #5000	; 0x1388
 800136a:	4293      	cmp	r3, r2
 800136c:	d901      	bls.n	8001372 <HAL_RCC_OscConfig+0x34a>
        {
          return HAL_TIMEOUT;
 800136e:	2303      	movs	r3, #3
 8001370:	e0cb      	b.n	800150a <HAL_RCC_OscConfig+0x4e2>
      while(__HAL_RCC_GET_FLAG(RCC_FLAG_LSERDY) == RESET)
 8001372:	4b49      	ldr	r3, [pc, #292]	; (8001498 <HAL_RCC_OscConfig+0x470>)
 8001374:	6f1b      	ldr	r3, [r3, #112]	; 0x70
 8001376:	f003 0302 	and.w	r3, r3, #2
 800137a:	2b00      	cmp	r3, #0
 800137c:	d0ee      	beq.n	800135c <HAL_RCC_OscConfig+0x334>
 800137e:	e014      	b.n	80013aa <HAL_RCC_OscConfig+0x382>
      }
    }
    else
    {
      /* Get Start Tick */
      tickstart = HAL_GetTick();
 8001380:	f7ff fbc2 	bl	8000b08 <HAL_GetTick>
 8001384:	6138      	str	r0, [r7, #16]

      /* Wait till LSE is ready */
      while(__HAL_RCC_GET_FLAG(RCC_FLAG_LSERDY) != RESET)
 8001386:	e00a      	b.n	800139e <HAL_RCC_OscConfig+0x376>
      {
        if((HAL_GetTick() - tickstart ) > RCC_LSE_TIMEOUT_VALUE)
 8001388:	f7ff fbbe 	bl	8000b08 <HAL_GetTick>
 800138c:	4602      	mov	r2, r0
 800138e:	693b      	ldr	r3, [r7, #16]
 8001390:	1ad3      	subs	r3, r2, r3
 8001392:	f241 3288 	movw	r2, #5000	; 0x1388
 8001396:	4293      	cmp	r3, r2
 8001398:	d901      	bls.n	800139e <HAL_RCC_OscConfig+0x376>
        {
          return HAL_TIMEOUT;
 800139a:	2303      	movs	r3, #3
 800139c:	e0b5      	b.n	800150a <HAL_RCC_OscConfig+0x4e2>
      while(__HAL_RCC_GET_FLAG(RCC_FLAG_LSERDY) != RESET)
 800139e:	4b3e      	ldr	r3, [pc, #248]	; (8001498 <HAL_RCC_OscConfig+0x470>)
 80013a0:	6f1b      	ldr	r3, [r3, #112]	; 0x70
 80013a2:	f003 0302 	and.w	r3, r3, #2
 80013a6:	2b00      	cmp	r3, #0
 80013a8:	d1ee      	bne.n	8001388 <HAL_RCC_OscConfig+0x360>
        }
      }
    }

    /* Restore clock configuration if changed */
    if(pwrclkchanged == SET)
 80013aa:	7dfb      	ldrb	r3, [r7, #23]
 80013ac:	2b01      	cmp	r3, #1
 80013ae:	d105      	bne.n	80013bc <HAL_RCC_OscConfig+0x394>
    {
      __HAL_RCC_PWR_CLK_DISABLE();
 80013b0:	4b39      	ldr	r3, [pc, #228]	; (8001498 <HAL_RCC_OscConfig+0x470>)
 80013b2:	6c1b      	ldr	r3, [r3, #64]	; 0x40
 80013b4:	4a38      	ldr	r2, [pc, #224]	; (8001498 <HAL_RCC_OscConfig+0x470>)
 80013b6:	f023 5380 	bic.w	r3, r3, #268435456	; 0x10000000
 80013ba:	6413      	str	r3, [r2, #64]	; 0x40
    }
  }
  /*-------------------------------- PLL Configuration -----------------------*/
  /* Check the parameters */
  assert_param(IS_RCC_PLL(RCC_OscInitStruct->PLL.PLLState));
  if ((RCC_OscInitStruct->PLL.PLLState) != RCC_PLL_NONE)
 80013bc:	687b      	ldr	r3, [r7, #4]
 80013be:	699b      	ldr	r3, [r3, #24]
 80013c0:	2b00      	cmp	r3, #0
 80013c2:	f000 80a1 	beq.w	8001508 <HAL_RCC_OscConfig+0x4e0>
  {
    /* Check if the PLL is used as system clock or not */
    if(__HAL_RCC_GET_SYSCLK_SOURCE() != RCC_CFGR_SWS_PLL)
 80013c6:	4b34      	ldr	r3, [pc, #208]	; (8001498 <HAL_RCC_OscConfig+0x470>)
 80013c8:	689b      	ldr	r3, [r3, #8]
 80013ca:	f003 030c 	and.w	r3, r3, #12
 80013ce:	2b08      	cmp	r3, #8
 80013d0:	d05c      	beq.n	800148c <HAL_RCC_OscConfig+0x464>
    {
      if((RCC_OscInitStruct->PLL.PLLState) == RCC_PLL_ON)
 80013d2:	687b      	ldr	r3, [r7, #4]
 80013d4:	699b      	ldr	r3, [r3, #24]
 80013d6:	2b02      	cmp	r3, #2
 80013d8:	d141      	bne.n	800145e <HAL_RCC_OscConfig+0x436>
        assert_param(IS_RCC_PLLN_VALUE(RCC_OscInitStruct->PLL.PLLN));
        assert_param(IS_RCC_PLLP_VALUE(RCC_OscInitStruct->PLL.PLLP));
        assert_param(IS_RCC_PLLQ_VALUE(RCC_OscInitStruct->PLL.PLLQ));

        /* Disable the main PLL. */
        __HAL_RCC_PLL_DISABLE();
 80013da:	4b31      	ldr	r3, [pc, #196]	; (80014a0 <HAL_RCC_OscConfig+0x478>)
 80013dc:	2200      	movs	r2, #0
 80013de:	601a      	str	r2, [r3, #0]

        /* Get Start Tick */
        tickstart = HAL_GetTick();
 80013e0:	f7ff fb92 	bl	8000b08 <HAL_GetTick>
 80013e4:	6138      	str	r0, [r7, #16]

        /* Wait till PLL is ready */
        while(__HAL_RCC_GET_FLAG(RCC_FLAG_PLLRDY) != RESET)
 80013e6:	e008      	b.n	80013fa <HAL_RCC_OscConfig+0x3d2>
        {
          if((HAL_GetTick() - tickstart ) > PLL_TIMEOUT_VALUE)
 80013e8:	f7ff fb8e 	bl	8000b08 <HAL_GetTick>
 80013ec:	4602      	mov	r2, r0
 80013ee:	693b      	ldr	r3, [r7, #16]
 80013f0:	1ad3      	subs	r3, r2, r3
 80013f2:	2b02      	cmp	r3, #2
 80013f4:	d901      	bls.n	80013fa <HAL_RCC_OscConfig+0x3d2>
          {
            return HAL_TIMEOUT;
 80013f6:	2303      	movs	r3, #3
 80013f8:	e087      	b.n	800150a <HAL_RCC_OscConfig+0x4e2>
        while(__HAL_RCC_GET_FLAG(RCC_FLAG_PLLRDY) != RESET)
 80013fa:	4b27      	ldr	r3, [pc, #156]	; (8001498 <HAL_RCC_OscConfig+0x470>)
 80013fc:	681b      	ldr	r3, [r3, #0]
 80013fe:	f003 7300 	and.w	r3, r3, #33554432	; 0x2000000
 8001402:	2b00      	cmp	r3, #0
 8001404:	d1f0      	bne.n	80013e8 <HAL_RCC_OscConfig+0x3c0>
          }
        }

        /* Configure the main PLL clock source, multiplication and division factors. */
        WRITE_REG(RCC->PLLCFGR, (RCC_OscInitStruct->PLL.PLLSource                                            | \
 8001406:	687b      	ldr	r3, [r7, #4]
 8001408:	69da      	ldr	r2, [r3, #28]
 800140a:	687b      	ldr	r3, [r7, #4]
 800140c:	6a1b      	ldr	r3, [r3, #32]
 800140e:	431a      	orrs	r2, r3
 8001410:	687b      	ldr	r3, [r7, #4]
 8001412:	6a5b      	ldr	r3, [r3, #36]	; 0x24
 8001414:	019b      	lsls	r3, r3, #6
 8001416:	431a      	orrs	r2, r3
 8001418:	687b      	ldr	r3, [r7, #4]
 800141a:	6a9b      	ldr	r3, [r3, #40]	; 0x28
 800141c:	085b      	lsrs	r3, r3, #1
 800141e:	3b01      	subs	r3, #1
 8001420:	041b      	lsls	r3, r3, #16
 8001422:	431a      	orrs	r2, r3
 8001424:	687b      	ldr	r3, [r7, #4]
 8001426:	6adb      	ldr	r3, [r3, #44]	; 0x2c
 8001428:	061b      	lsls	r3, r3, #24
 800142a:	491b      	ldr	r1, [pc, #108]	; (8001498 <HAL_RCC_OscConfig+0x470>)
 800142c:	4313      	orrs	r3, r2
 800142e:	604b      	str	r3, [r1, #4]
                                 RCC_OscInitStruct->PLL.PLLM                                                 | \
                                 (RCC_OscInitStruct->PLL.PLLN << RCC_PLLCFGR_PLLN_Pos)             | \
                                 (((RCC_OscInitStruct->PLL.PLLP >> 1U) - 1U) << RCC_PLLCFGR_PLLP_Pos) | \
                                 (RCC_OscInitStruct->PLL.PLLQ << RCC_PLLCFGR_PLLQ_Pos)));
        /* Enable the main PLL. */
        __HAL_RCC_PLL_ENABLE();
 8001430:	4b1b      	ldr	r3, [pc, #108]	; (80014a0 <HAL_RCC_OscConfig+0x478>)
 8001432:	2201      	movs	r2, #1
 8001434:	601a      	str	r2, [r3, #0]

        /* Get Start Tick */
        tickstart = HAL_GetTick();
 8001436:	f7ff fb67 	bl	8000b08 <HAL_GetTick>
 800143a:	6138      	str	r0, [r7, #16]

        /* Wait till PLL is ready */
        while(__HAL_RCC_GET_FLAG(RCC_FLAG_PLLRDY) == RESET)
 800143c:	e008      	b.n	8001450 <HAL_RCC_OscConfig+0x428>
        {
          if((HAL_GetTick() - tickstart ) > PLL_TIMEOUT_VALUE)
 800143e:	f7ff fb63 	bl	8000b08 <HAL_GetTick>
 8001442:	4602      	mov	r2, r0
 8001444:	693b      	ldr	r3, [r7, #16]
 8001446:	1ad3      	subs	r3, r2, r3
 8001448:	2b02      	cmp	r3, #2
 800144a:	d901      	bls.n	8001450 <HAL_RCC_OscConfig+0x428>
          {
            return HAL_TIMEOUT;
 800144c:	2303      	movs	r3, #3
 800144e:	e05c      	b.n	800150a <HAL_RCC_OscConfig+0x4e2>
        while(__HAL_RCC_GET_FLAG(RCC_FLAG_PLLRDY) == RESET)
 8001450:	4b11      	ldr	r3, [pc, #68]	; (8001498 <HAL_RCC_OscConfig+0x470>)
 8001452:	681b      	ldr	r3, [r3, #0]
 8001454:	f003 7300 	and.w	r3, r3, #33554432	; 0x2000000
 8001458:	2b00      	cmp	r3, #0
 800145a:	d0f0      	beq.n	800143e <HAL_RCC_OscConfig+0x416>
 800145c:	e054      	b.n	8001508 <HAL_RCC_OscConfig+0x4e0>
        }
      }
      else
      {
        /* Disable the main PLL. */
        __HAL_RCC_PLL_DISABLE();
 800145e:	4b10      	ldr	r3, [pc, #64]	; (80014a0 <HAL_RCC_OscConfig+0x478>)
 8001460:	2200      	movs	r2, #0
 8001462:	601a      	str	r2, [r3, #0]

        /* Get Start Tick */
        tickstart = HAL_GetTick();
 8001464:	f7ff fb50 	bl	8000b08 <HAL_GetTick>
 8001468:	6138      	str	r0, [r7, #16]

        /* Wait till PLL is ready */
        while(__HAL_RCC_GET_FLAG(RCC_FLAG_PLLRDY) != RESET)
 800146a:	e008      	b.n	800147e <HAL_RCC_OscConfig+0x456>
        {
          if((HAL_GetTick() - tickstart ) > PLL_TIMEOUT_VALUE)
 800146c:	f7ff fb4c 	bl	8000b08 <HAL_GetTick>
 8001470:	4602      	mov	r2, r0
 8001472:	693b      	ldr	r3, [r7, #16]
 8001474:	1ad3      	subs	r3, r2, r3
 8001476:	2b02      	cmp	r3, #2
 8001478:	d901      	bls.n	800147e <HAL_RCC_OscConfig+0x456>
          {
            return HAL_TIMEOUT;
 800147a:	2303      	movs	r3, #3
 800147c:	e045      	b.n	800150a <HAL_RCC_OscConfig+0x4e2>
        while(__HAL_RCC_GET_FLAG(RCC_FLAG_PLLRDY) != RESET)
 800147e:	4b06      	ldr	r3, [pc, #24]	; (8001498 <HAL_RCC_OscConfig+0x470>)
 8001480:	681b      	ldr	r3, [r3, #0]
 8001482:	f003 7300 	and.w	r3, r3, #33554432	; 0x2000000
 8001486:	2b00      	cmp	r3, #0
 8001488:	d1f0      	bne.n	800146c <HAL_RCC_OscConfig+0x444>
 800148a:	e03d      	b.n	8001508 <HAL_RCC_OscConfig+0x4e0>
      }
    }
    else
    {
      /* Check if there is a request to disable the PLL used as System clock source */
      if((RCC_OscInitStruct->PLL.PLLState) == RCC_PLL_OFF)
 800148c:	687b      	ldr	r3, [r7, #4]
 800148e:	699b      	ldr	r3, [r3, #24]
 8001490:	2b01      	cmp	r3, #1
 8001492:	d107      	bne.n	80014a4 <HAL_RCC_OscConfig+0x47c>
      {
        return HAL_ERROR;
 8001494:	2301      	movs	r3, #1
 8001496:	e038      	b.n	800150a <HAL_RCC_OscConfig+0x4e2>
 8001498:	40023800 	.word	0x40023800
 800149c:	40007000 	.word	0x40007000
 80014a0:	42470060 	.word	0x42470060
      }
      else
      {
        /* Do not return HAL_ERROR if request repeats the current configuration */
        pll_config = RCC->PLLCFGR;
 80014a4:	4b1b      	ldr	r3, [pc, #108]	; (8001514 <HAL_RCC_OscConfig+0x4ec>)
 80014a6:	685b      	ldr	r3, [r3, #4]
 80014a8:	60fb      	str	r3, [r7, #12]
            (READ_BIT(pll_config, RCC_PLLCFGR_PLLN) != (RCC_OscInitStruct->PLL.PLLN) << RCC_PLLCFGR_PLLN_Pos) ||
            (READ_BIT(pll_config, RCC_PLLCFGR_PLLP) != (((RCC_OscInitStruct->PLL.PLLP >> 1U) - 1U)) << RCC_PLLCFGR_PLLP_Pos) ||
            (READ_BIT(pll_config, RCC_PLLCFGR_PLLQ) != (RCC_OscInitStruct->PLL.PLLQ << RCC_PLLCFGR_PLLQ_Pos)) ||
            (READ_BIT(pll_config, RCC_PLLCFGR_PLLR) != (RCC_OscInitStruct->PLL.PLLR << RCC_PLLCFGR_PLLR_Pos)))
#else
        if (((RCC_OscInitStruct->PLL.PLLState) == RCC_PLL_OFF) ||
 80014aa:	687b      	ldr	r3, [r7, #4]
 80014ac:	699b      	ldr	r3, [r3, #24]
 80014ae:	2b01      	cmp	r3, #1
 80014b0:	d028      	beq.n	8001504 <HAL_RCC_OscConfig+0x4dc>
            (READ_BIT(pll_config, RCC_PLLCFGR_PLLSRC) != RCC_OscInitStruct->PLL.PLLSource) ||
 80014b2:	68fb      	ldr	r3, [r7, #12]
 80014b4:	f403 0280 	and.w	r2, r3, #4194304	; 0x400000
 80014b8:	687b      	ldr	r3, [r7, #4]
 80014ba:	69db      	ldr	r3, [r3, #28]
        if (((RCC_OscInitStruct->PLL.PLLState) == RCC_PLL_OFF) ||
 80014bc:	429a      	cmp	r2, r3
 80014be:	d121      	bne.n	8001504 <HAL_RCC_OscConfig+0x4dc>
            (READ_BIT(pll_config, RCC_PLLCFGR_PLLM) != (RCC_OscInitStruct->PLL.PLLM) << RCC_PLLCFGR_PLLM_Pos) ||
 80014c0:	68fb      	ldr	r3, [r7, #12]
 80014c2:	f003 023f 	and.w	r2, r3, #63	; 0x3f
 80014c6:	687b      	ldr	r3, [r7, #4]
 80014c8:	6a1b      	ldr	r3, [r3, #32]
            (READ_BIT(pll_config, RCC_PLLCFGR_PLLSRC) != RCC_OscInitStruct->PLL.PLLSource) ||
 80014ca:	429a      	cmp	r2, r3
 80014cc:	d11a      	bne.n	8001504 <HAL_RCC_OscConfig+0x4dc>
            (READ_BIT(pll_config, RCC_PLLCFGR_PLLN) != (RCC_OscInitStruct->PLL.PLLN) << RCC_PLLCFGR_PLLN_Pos) ||
 80014ce:	68fa      	ldr	r2, [r7, #12]
 80014d0:	f647 73c0 	movw	r3, #32704	; 0x7fc0
 80014d4:	4013      	ands	r3, r2
 80014d6:	687a      	ldr	r2, [r7, #4]
 80014d8:	6a52      	ldr	r2, [r2, #36]	; 0x24
 80014da:	0192      	lsls	r2, r2, #6
            (READ_BIT(pll_config, RCC_PLLCFGR_PLLM) != (RCC_OscInitStruct->PLL.PLLM) << RCC_PLLCFGR_PLLM_Pos) ||
 80014dc:	4293      	cmp	r3, r2
 80014de:	d111      	bne.n	8001504 <HAL_RCC_OscConfig+0x4dc>
            (READ_BIT(pll_config, RCC_PLLCFGR_PLLP) != (((RCC_OscInitStruct->PLL.PLLP >> 1U) - 1U)) << RCC_PLLCFGR_PLLP_Pos) ||
 80014e0:	68fb      	ldr	r3, [r7, #12]
 80014e2:	f403 3240 	and.w	r2, r3, #196608	; 0x30000
 80014e6:	687b      	ldr	r3, [r7, #4]
 80014e8:	6a9b      	ldr	r3, [r3, #40]	; 0x28
 80014ea:	085b      	lsrs	r3, r3, #1
 80014ec:	3b01      	subs	r3, #1
 80014ee:	041b      	lsls	r3, r3, #16
            (READ_BIT(pll_config, RCC_PLLCFGR_PLLN) != (RCC_OscInitStruct->PLL.PLLN) << RCC_PLLCFGR_PLLN_Pos) ||
 80014f0:	429a      	cmp	r2, r3
 80014f2:	d107      	bne.n	8001504 <HAL_RCC_OscConfig+0x4dc>
            (READ_BIT(pll_config, RCC_PLLCFGR_PLLQ) != (RCC_OscInitStruct->PLL.PLLQ << RCC_PLLCFGR_PLLQ_Pos)))
 80014f4:	68fb      	ldr	r3, [r7, #12]
 80014f6:	f003 6270 	and.w	r2, r3, #251658240	; 0xf000000
 80014fa:	687b      	ldr	r3, [r7, #4]
 80014fc:	6adb      	ldr	r3, [r3, #44]	; 0x2c
 80014fe:	061b      	lsls	r3, r3, #24
            (READ_BIT(pll_config, RCC_PLLCFGR_PLLP) != (((RCC_OscInitStruct->PLL.PLLP >> 1U) - 1U)) << RCC_PLLCFGR_PLLP_Pos) ||
 8001500:	429a      	cmp	r2, r3
 8001502:	d001      	beq.n	8001508 <HAL_RCC_OscConfig+0x4e0>
#endif
        {
          return HAL_ERROR;
 8001504:	2301      	movs	r3, #1
 8001506:	e000      	b.n	800150a <HAL_RCC_OscConfig+0x4e2>
        }
      }
    }
  }
  return HAL_OK;
 8001508:	2300      	movs	r3, #0
}
 800150a:	4618      	mov	r0, r3
 800150c:	3718      	adds	r7, #24
 800150e:	46bd      	mov	sp, r7
 8001510:	bd80      	pop	{r7, pc}
 8001512:	bf00      	nop
 8001514:	40023800 	.word	0x40023800

08001518 <HAL_RCC_ClockConfig>:
  *         HPRE[3:0] bits to ensure that HCLK not exceed the maximum allowed frequency
  *         (for more details refer to section above "Initialization/de-initialization functions")
  * @retval None
  */
HAL_StatusTypeDef HAL_RCC_ClockConfig(RCC_ClkInitTypeDef  *RCC_ClkInitStruct, uint32_t FLatency)
{
 8001518:	b580      	push	{r7, lr}
 800151a:	b084      	sub	sp, #16
 800151c:	af00      	add	r7, sp, #0
 800151e:	6078      	str	r0, [r7, #4]
 8001520:	6039      	str	r1, [r7, #0]
  uint32_t tickstart;

  /* Check Null pointer */
  if(RCC_ClkInitStruct == NULL)
 8001522:	687b      	ldr	r3, [r7, #4]
 8001524:	2b00      	cmp	r3, #0
 8001526:	d101      	bne.n	800152c <HAL_RCC_ClockConfig+0x14>
  {
    return HAL_ERROR;
 8001528:	2301      	movs	r3, #1
 800152a:	e0cc      	b.n	80016c6 <HAL_RCC_ClockConfig+0x1ae>
  /* To correctly read data from FLASH memory, the number of wait states (LATENCY)
    must be correctly programmed according to the frequency of the CPU clock
    (HCLK) and the supply voltage of the device. */

  /* Increasing the number of wait states because of higher CPU frequency */
  if(FLatency > __HAL_FLASH_GET_LATENCY())
 800152c:	4b68      	ldr	r3, [pc, #416]	; (80016d0 <HAL_RCC_ClockConfig+0x1b8>)
 800152e:	681b      	ldr	r3, [r3, #0]
 8001530:	f003 0307 	and.w	r3, r3, #7
 8001534:	683a      	ldr	r2, [r7, #0]
 8001536:	429a      	cmp	r2, r3
 8001538:	d90c      	bls.n	8001554 <HAL_RCC_ClockConfig+0x3c>
  {
    /* Program the new number of wait states to the LATENCY bits in the FLASH_ACR register */
    __HAL_FLASH_SET_LATENCY(FLatency);
 800153a:	4b65      	ldr	r3, [pc, #404]	; (80016d0 <HAL_RCC_ClockConfig+0x1b8>)
 800153c:	683a      	ldr	r2, [r7, #0]
 800153e:	b2d2      	uxtb	r2, r2
 8001540:	701a      	strb	r2, [r3, #0]

    /* Check that the new number of wait states is taken into account to access the Flash
    memory by reading the FLASH_ACR register */
    if(__HAL_FLASH_GET_LATENCY() != FLatency)
 8001542:	4b63      	ldr	r3, [pc, #396]	; (80016d0 <HAL_RCC_ClockConfig+0x1b8>)
 8001544:	681b      	ldr	r3, [r3, #0]
 8001546:	f003 0307 	and.w	r3, r3, #7
 800154a:	683a      	ldr	r2, [r7, #0]
 800154c:	429a      	cmp	r2, r3
 800154e:	d001      	beq.n	8001554 <HAL_RCC_ClockConfig+0x3c>
    {
      return HAL_ERROR;
 8001550:	2301      	movs	r3, #1
 8001552:	e0b8      	b.n	80016c6 <HAL_RCC_ClockConfig+0x1ae>
    }
  }

  /*-------------------------- HCLK Configuration --------------------------*/
  if(((RCC_ClkInitStruct->ClockType) & RCC_CLOCKTYPE_HCLK) == RCC_CLOCKTYPE_HCLK)
 8001554:	687b      	ldr	r3, [r7, #4]
 8001556:	681b      	ldr	r3, [r3, #0]
 8001558:	f003 0302 	and.w	r3, r3, #2
 800155c:	2b00      	cmp	r3, #0
 800155e:	d020      	beq.n	80015a2 <HAL_RCC_ClockConfig+0x8a>
  {
    /* Set the highest APBx dividers in order to ensure that we do not go through
       a non-spec phase whatever we decrease or increase HCLK. */
    if(((RCC_ClkInitStruct->ClockType) & RCC_CLOCKTYPE_PCLK1) == RCC_CLOCKTYPE_PCLK1)
 8001560:	687b      	ldr	r3, [r7, #4]
 8001562:	681b      	ldr	r3, [r3, #0]
 8001564:	f003 0304 	and.w	r3, r3, #4
 8001568:	2b00      	cmp	r3, #0
 800156a:	d005      	beq.n	8001578 <HAL_RCC_ClockConfig+0x60>
    {
      MODIFY_REG(RCC->CFGR, RCC_CFGR_PPRE1, RCC_HCLK_DIV16);
 800156c:	4b59      	ldr	r3, [pc, #356]	; (80016d4 <HAL_RCC_ClockConfig+0x1bc>)
 800156e:	689b      	ldr	r3, [r3, #8]
 8001570:	4a58      	ldr	r2, [pc, #352]	; (80016d4 <HAL_RCC_ClockConfig+0x1bc>)
 8001572:	f443 53e0 	orr.w	r3, r3, #7168	; 0x1c00
 8001576:	6093      	str	r3, [r2, #8]
    }

    if(((RCC_ClkInitStruct->ClockType) & RCC_CLOCKTYPE_PCLK2) == RCC_CLOCKTYPE_PCLK2)
 8001578:	687b      	ldr	r3, [r7, #4]
 800157a:	681b      	ldr	r3, [r3, #0]
 800157c:	f003 0308 	and.w	r3, r3, #8
 8001580:	2b00      	cmp	r3, #0
 8001582:	d005      	beq.n	8001590 <HAL_RCC_ClockConfig+0x78>
    {
      MODIFY_REG(RCC->CFGR, RCC_CFGR_PPRE2, (RCC_HCLK_DIV16 << 3));
 8001584:	4b53      	ldr	r3, [pc, #332]	; (80016d4 <HAL_RCC_ClockConfig+0x1bc>)
 8001586:	689b      	ldr	r3, [r3, #8]
 8001588:	4a52      	ldr	r2, [pc, #328]	; (80016d4 <HAL_RCC_ClockConfig+0x1bc>)
 800158a:	f443 4360 	orr.w	r3, r3, #57344	; 0xe000
 800158e:	6093      	str	r3, [r2, #8]
    }

    assert_param(IS_RCC_HCLK(RCC_ClkInitStruct->AHBCLKDivider));
    MODIFY_REG(RCC->CFGR, RCC_CFGR_HPRE, RCC_ClkInitStruct->AHBCLKDivider);
 8001590:	4b50      	ldr	r3, [pc, #320]	; (80016d4 <HAL_RCC_ClockConfig+0x1bc>)
 8001592:	689b      	ldr	r3, [r3, #8]
 8001594:	f023 02f0 	bic.w	r2, r3, #240	; 0xf0
 8001598:	687b      	ldr	r3, [r7, #4]
 800159a:	689b      	ldr	r3, [r3, #8]
 800159c:	494d      	ldr	r1, [pc, #308]	; (80016d4 <HAL_RCC_ClockConfig+0x1bc>)
 800159e:	4313      	orrs	r3, r2
 80015a0:	608b      	str	r3, [r1, #8]
  }

  /*------------------------- SYSCLK Configuration ---------------------------*/
  if(((RCC_ClkInitStruct->ClockType) & RCC_CLOCKTYPE_SYSCLK) == RCC_CLOCKTYPE_SYSCLK)
 80015a2:	687b      	ldr	r3, [r7, #4]
 80015a4:	681b      	ldr	r3, [r3, #0]
 80015a6:	f003 0301 	and.w	r3, r3, #1
 80015aa:	2b00      	cmp	r3, #0
 80015ac:	d044      	beq.n	8001638 <HAL_RCC_ClockConfig+0x120>
  {
    assert_param(IS_RCC_SYSCLKSOURCE(RCC_ClkInitStruct->SYSCLKSource));

    /* HSE is selected as System Clock Source */
    if(RCC_ClkInitStruct->SYSCLKSource == RCC_SYSCLKSOURCE_HSE)
 80015ae:	687b      	ldr	r3, [r7, #4]
 80015b0:	685b      	ldr	r3, [r3, #4]
 80015b2:	2b01      	cmp	r3, #1
 80015b4:	d107      	bne.n	80015c6 <HAL_RCC_ClockConfig+0xae>
    {
      /* Check the HSE ready flag */
      if(__HAL_RCC_GET_FLAG(RCC_FLAG_HSERDY) == RESET)
 80015b6:	4b47      	ldr	r3, [pc, #284]	; (80016d4 <HAL_RCC_ClockConfig+0x1bc>)
 80015b8:	681b      	ldr	r3, [r3, #0]
 80015ba:	f403 3300 	and.w	r3, r3, #131072	; 0x20000
 80015be:	2b00      	cmp	r3, #0
 80015c0:	d119      	bne.n	80015f6 <HAL_RCC_ClockConfig+0xde>
      {
        return HAL_ERROR;
 80015c2:	2301      	movs	r3, #1
 80015c4:	e07f      	b.n	80016c6 <HAL_RCC_ClockConfig+0x1ae>
      }
    }
    /* PLL is selected as System Clock Source */
    else if((RCC_ClkInitStruct->SYSCLKSource == RCC_SYSCLKSOURCE_PLLCLK)   ||
 80015c6:	687b      	ldr	r3, [r7, #4]
 80015c8:	685b      	ldr	r3, [r3, #4]
 80015ca:	2b02      	cmp	r3, #2
 80015cc:	d003      	beq.n	80015d6 <HAL_RCC_ClockConfig+0xbe>
            (RCC_ClkInitStruct->SYSCLKSource == RCC_SYSCLKSOURCE_PLLRCLK))
 80015ce:	687b      	ldr	r3, [r7, #4]
 80015d0:	685b      	ldr	r3, [r3, #4]
    else if((RCC_ClkInitStruct->SYSCLKSource == RCC_SYSCLKSOURCE_PLLCLK)   ||
 80015d2:	2b03      	cmp	r3, #3
 80015d4:	d107      	bne.n	80015e6 <HAL_RCC_ClockConfig+0xce>
    {
      /* Check the PLL ready flag */
      if(__HAL_RCC_GET_FLAG(RCC_FLAG_PLLRDY) == RESET)
 80015d6:	4b3f      	ldr	r3, [pc, #252]	; (80016d4 <HAL_RCC_ClockConfig+0x1bc>)
 80015d8:	681b      	ldr	r3, [r3, #0]
 80015da:	f003 7300 	and.w	r3, r3, #33554432	; 0x2000000
 80015de:	2b00      	cmp	r3, #0
 80015e0:	d109      	bne.n	80015f6 <HAL_RCC_ClockConfig+0xde>
      {
        return HAL_ERROR;
 80015e2:	2301      	movs	r3, #1
 80015e4:	e06f      	b.n	80016c6 <HAL_RCC_ClockConfig+0x1ae>
    }
    /* HSI is selected as System Clock Source */
    else
    {
      /* Check the HSI ready flag */
      if(__HAL_RCC_GET_FLAG(RCC_FLAG_HSIRDY) == RESET)
 80015e6:	4b3b      	ldr	r3, [pc, #236]	; (80016d4 <HAL_RCC_ClockConfig+0x1bc>)
 80015e8:	681b      	ldr	r3, [r3, #0]
 80015ea:	f003 0302 	and.w	r3, r3, #2
 80015ee:	2b00      	cmp	r3, #0
 80015f0:	d101      	bne.n	80015f6 <HAL_RCC_ClockConfig+0xde>
      {
        return HAL_ERROR;
 80015f2:	2301      	movs	r3, #1
 80015f4:	e067      	b.n	80016c6 <HAL_RCC_ClockConfig+0x1ae>
      }
    }

    __HAL_RCC_SYSCLK_CONFIG(RCC_ClkInitStruct->SYSCLKSource);
 80015f6:	4b37      	ldr	r3, [pc, #220]	; (80016d4 <HAL_RCC_ClockConfig+0x1bc>)
 80015f8:	689b      	ldr	r3, [r3, #8]
 80015fa:	f023 0203 	bic.w	r2, r3, #3
 80015fe:	687b      	ldr	r3, [r7, #4]
 8001600:	685b      	ldr	r3, [r3, #4]
 8001602:	4934      	ldr	r1, [pc, #208]	; (80016d4 <HAL_RCC_ClockConfig+0x1bc>)
 8001604:	4313      	orrs	r3, r2
 8001606:	608b      	str	r3, [r1, #8]

    /* Get Start Tick */
    tickstart = HAL_GetTick();
 8001608:	f7ff fa7e 	bl	8000b08 <HAL_GetTick>
 800160c:	60f8      	str	r0, [r7, #12]

    while (__HAL_RCC_GET_SYSCLK_SOURCE() != (RCC_ClkInitStruct->SYSCLKSource << RCC_CFGR_SWS_Pos))
 800160e:	e00a      	b.n	8001626 <HAL_RCC_ClockConfig+0x10e>
    {
      if ((HAL_GetTick() - tickstart) > CLOCKSWITCH_TIMEOUT_VALUE)
 8001610:	f7ff fa7a 	bl	8000b08 <HAL_GetTick>
 8001614:	4602      	mov	r2, r0
 8001616:	68fb      	ldr	r3, [r7, #12]
 8001618:	1ad3      	subs	r3, r2, r3
 800161a:	f241 3288 	movw	r2, #5000	; 0x1388
 800161e:	4293      	cmp	r3, r2
 8001620:	d901      	bls.n	8001626 <HAL_RCC_ClockConfig+0x10e>
      {
        return HAL_TIMEOUT;
 8001622:	2303      	movs	r3, #3
 8001624:	e04f      	b.n	80016c6 <HAL_RCC_ClockConfig+0x1ae>
    while (__HAL_RCC_GET_SYSCLK_SOURCE() != (RCC_ClkInitStruct->SYSCLKSource << RCC_CFGR_SWS_Pos))
 8001626:	4b2b      	ldr	r3, [pc, #172]	; (80016d4 <HAL_RCC_ClockConfig+0x1bc>)
 8001628:	689b      	ldr	r3, [r3, #8]
 800162a:	f003 020c 	and.w	r2, r3, #12
 800162e:	687b      	ldr	r3, [r7, #4]
 8001630:	685b      	ldr	r3, [r3, #4]
 8001632:	009b      	lsls	r3, r3, #2
 8001634:	429a      	cmp	r2, r3
 8001636:	d1eb      	bne.n	8001610 <HAL_RCC_ClockConfig+0xf8>
      }
    }
  }

  /* Decreasing the number of wait states because of lower CPU frequency */
  if(FLatency < __HAL_FLASH_GET_LATENCY())
 8001638:	4b25      	ldr	r3, [pc, #148]	; (80016d0 <HAL_RCC_ClockConfig+0x1b8>)
 800163a:	681b      	ldr	r3, [r3, #0]
 800163c:	f003 0307 	and.w	r3, r3, #7
 8001640:	683a      	ldr	r2, [r7, #0]
 8001642:	429a      	cmp	r2, r3
 8001644:	d20c      	bcs.n	8001660 <HAL_RCC_ClockConfig+0x148>
  {
     /* Program the new number of wait states to the LATENCY bits in the FLASH_ACR register */
    __HAL_FLASH_SET_LATENCY(FLatency);
 8001646:	4b22      	ldr	r3, [pc, #136]	; (80016d0 <HAL_RCC_ClockConfig+0x1b8>)
 8001648:	683a      	ldr	r2, [r7, #0]
 800164a:	b2d2      	uxtb	r2, r2
 800164c:	701a      	strb	r2, [r3, #0]

    /* Check that the new number of wait states is taken into account to access the Flash
    memory by reading the FLASH_ACR register */
    if(__HAL_FLASH_GET_LATENCY() != FLatency)
 800164e:	4b20      	ldr	r3, [pc, #128]	; (80016d0 <HAL_RCC_ClockConfig+0x1b8>)
 8001650:	681b      	ldr	r3, [r3, #0]
 8001652:	f003 0307 	and.w	r3, r3, #7
 8001656:	683a      	ldr	r2, [r7, #0]
 8001658:	429a      	cmp	r2, r3
 800165a:	d001      	beq.n	8001660 <HAL_RCC_ClockConfig+0x148>
    {
      return HAL_ERROR;
 800165c:	2301      	movs	r3, #1
 800165e:	e032      	b.n	80016c6 <HAL_RCC_ClockConfig+0x1ae>
    }
  }

  /*-------------------------- PCLK1 Configuration ---------------------------*/
  if(((RCC_ClkInitStruct->ClockType) & RCC_CLOCKTYPE_PCLK1) == RCC_CLOCKTYPE_PCLK1)
 8001660:	687b      	ldr	r3, [r7, #4]
 8001662:	681b      	ldr	r3, [r3, #0]
 8001664:	f003 0304 	and.w	r3, r3, #4
 8001668:	2b00      	cmp	r3, #0
 800166a:	d008      	beq.n	800167e <HAL_RCC_ClockConfig+0x166>
  {
    assert_param(IS_RCC_PCLK(RCC_ClkInitStruct->APB1CLKDivider));
    MODIFY_REG(RCC->CFGR, RCC_CFGR_PPRE1, RCC_ClkInitStruct->APB1CLKDivider);
 800166c:	4b19      	ldr	r3, [pc, #100]	; (80016d4 <HAL_RCC_ClockConfig+0x1bc>)
 800166e:	689b      	ldr	r3, [r3, #8]
 8001670:	f423 52e0 	bic.w	r2, r3, #7168	; 0x1c00
 8001674:	687b      	ldr	r3, [r7, #4]
 8001676:	68db      	ldr	r3, [r3, #12]
 8001678:	4916      	ldr	r1, [pc, #88]	; (80016d4 <HAL_RCC_ClockConfig+0x1bc>)
 800167a:	4313      	orrs	r3, r2
 800167c:	608b      	str	r3, [r1, #8]
  }

  /*-------------------------- PCLK2 Configuration ---------------------------*/
  if(((RCC_ClkInitStruct->ClockType) & RCC_CLOCKTYPE_PCLK2) == RCC_CLOCKTYPE_PCLK2)
 800167e:	687b      	ldr	r3, [r7, #4]
 8001680:	681b      	ldr	r3, [r3, #0]
 8001682:	f003 0308 	and.w	r3, r3, #8
 8001686:	2b00      	cmp	r3, #0
 8001688:	d009      	beq.n	800169e <HAL_RCC_ClockConfig+0x186>
  {
    assert_param(IS_RCC_PCLK(RCC_ClkInitStruct->APB2CLKDivider));
    MODIFY_REG(RCC->CFGR, RCC_CFGR_PPRE2, ((RCC_ClkInitStruct->APB2CLKDivider) << 3U));
 800168a:	4b12      	ldr	r3, [pc, #72]	; (80016d4 <HAL_RCC_ClockConfig+0x1bc>)
 800168c:	689b      	ldr	r3, [r3, #8]
 800168e:	f423 4260 	bic.w	r2, r3, #57344	; 0xe000
 8001692:	687b      	ldr	r3, [r7, #4]
 8001694:	691b      	ldr	r3, [r3, #16]
 8001696:	00db      	lsls	r3, r3, #3
 8001698:	490e      	ldr	r1, [pc, #56]	; (80016d4 <HAL_RCC_ClockConfig+0x1bc>)
 800169a:	4313      	orrs	r3, r2
 800169c:	608b      	str	r3, [r1, #8]
  }

  /* Update the SystemCoreClock global variable */
  SystemCoreClock = HAL_RCC_GetSysClockFreq() >> AHBPrescTable[(RCC->CFGR & RCC_CFGR_HPRE)>> RCC_CFGR_HPRE_Pos];
 800169e:	f000 f821 	bl	80016e4 <HAL_RCC_GetSysClockFreq>
 80016a2:	4602      	mov	r2, r0
 80016a4:	4b0b      	ldr	r3, [pc, #44]	; (80016d4 <HAL_RCC_ClockConfig+0x1bc>)
 80016a6:	689b      	ldr	r3, [r3, #8]
 80016a8:	091b      	lsrs	r3, r3, #4
 80016aa:	f003 030f 	and.w	r3, r3, #15
 80016ae:	490a      	ldr	r1, [pc, #40]	; (80016d8 <HAL_RCC_ClockConfig+0x1c0>)
 80016b0:	5ccb      	ldrb	r3, [r1, r3]
 80016b2:	fa22 f303 	lsr.w	r3, r2, r3
 80016b6:	4a09      	ldr	r2, [pc, #36]	; (80016dc <HAL_RCC_ClockConfig+0x1c4>)
 80016b8:	6013      	str	r3, [r2, #0]

  /* Configure the source of time base considering new system clocks settings */
  HAL_InitTick (uwTickPrio);
 80016ba:	4b09      	ldr	r3, [pc, #36]	; (80016e0 <HAL_RCC_ClockConfig+0x1c8>)
 80016bc:	681b      	ldr	r3, [r3, #0]
 80016be:	4618      	mov	r0, r3
 80016c0:	f7ff f9de 	bl	8000a80 <HAL_InitTick>

  return HAL_OK;
 80016c4:	2300      	movs	r3, #0
}
 80016c6:	4618      	mov	r0, r3
 80016c8:	3710      	adds	r7, #16
 80016ca:	46bd      	mov	sp, r7
 80016cc:	bd80      	pop	{r7, pc}
 80016ce:	bf00      	nop
 80016d0:	40023c00 	.word	0x40023c00
 80016d4:	40023800 	.word	0x40023800
 80016d8:	0800216c 	.word	0x0800216c
 80016dc:	20000000 	.word	0x20000000
 80016e0:	20000004 	.word	0x20000004

080016e4 <HAL_RCC_GetSysClockFreq>:
  *
  *
  * @retval SYSCLK frequency
  */
__weak uint32_t HAL_RCC_GetSysClockFreq(void)
{
 80016e4:	e92d 4fb0 	stmdb	sp!, {r4, r5, r7, r8, r9, sl, fp, lr}
 80016e8:	b094      	sub	sp, #80	; 0x50
 80016ea:	af00      	add	r7, sp, #0
  uint32_t pllm = 0U, pllvco = 0U, pllp = 0U;
 80016ec:	2300      	movs	r3, #0
 80016ee:	647b      	str	r3, [r7, #68]	; 0x44
 80016f0:	2300      	movs	r3, #0
 80016f2:	64fb      	str	r3, [r7, #76]	; 0x4c
 80016f4:	2300      	movs	r3, #0
 80016f6:	643b      	str	r3, [r7, #64]	; 0x40
  uint32_t sysclockfreq = 0U;
 80016f8:	2300      	movs	r3, #0
 80016fa:	64bb      	str	r3, [r7, #72]	; 0x48

  /* Get SYSCLK source -------------------------------------------------------*/
  switch (RCC->CFGR & RCC_CFGR_SWS)
 80016fc:	4b79      	ldr	r3, [pc, #484]	; (80018e4 <HAL_RCC_GetSysClockFreq+0x200>)
 80016fe:	689b      	ldr	r3, [r3, #8]
 8001700:	f003 030c 	and.w	r3, r3, #12
 8001704:	2b08      	cmp	r3, #8
 8001706:	d00d      	beq.n	8001724 <HAL_RCC_GetSysClockFreq+0x40>
 8001708:	2b08      	cmp	r3, #8
 800170a:	f200 80e1 	bhi.w	80018d0 <HAL_RCC_GetSysClockFreq+0x1ec>
 800170e:	2b00      	cmp	r3, #0
 8001710:	d002      	beq.n	8001718 <HAL_RCC_GetSysClockFreq+0x34>
 8001712:	2b04      	cmp	r3, #4
 8001714:	d003      	beq.n	800171e <HAL_RCC_GetSysClockFreq+0x3a>
 8001716:	e0db      	b.n	80018d0 <HAL_RCC_GetSysClockFreq+0x1ec>
  {
    case RCC_CFGR_SWS_HSI:  /* HSI used as system clock source */
    {
      sysclockfreq = HSI_VALUE;
 8001718:	4b73      	ldr	r3, [pc, #460]	; (80018e8 <HAL_RCC_GetSysClockFreq+0x204>)
 800171a:	64bb      	str	r3, [r7, #72]	; 0x48
       break;
 800171c:	e0db      	b.n	80018d6 <HAL_RCC_GetSysClockFreq+0x1f2>
    }
    case RCC_CFGR_SWS_HSE:  /* HSE used as system clock  source */
    {
      sysclockfreq = HSE_VALUE;
 800171e:	4b73      	ldr	r3, [pc, #460]	; (80018ec <HAL_RCC_GetSysClockFreq+0x208>)
 8001720:	64bb      	str	r3, [r7, #72]	; 0x48
      break;
 8001722:	e0d8      	b.n	80018d6 <HAL_RCC_GetSysClockFreq+0x1f2>
    }
    case RCC_CFGR_SWS_PLL:  /* PLL used as system clock  source */
    {
      /* PLL_VCO = (HSE_VALUE or HSI_VALUE / PLLM) * PLLN
      SYSCLK = PLL_VCO / PLLP */
      pllm = RCC->PLLCFGR & RCC_PLLCFGR_PLLM;
 8001724:	4b6f      	ldr	r3, [pc, #444]	; (80018e4 <HAL_RCC_GetSysClockFreq+0x200>)
 8001726:	685b      	ldr	r3, [r3, #4]
 8001728:	f003 033f 	and.w	r3, r3, #63	; 0x3f
 800172c:	647b      	str	r3, [r7, #68]	; 0x44
      if(__HAL_RCC_GET_PLL_OSCSOURCE() != RCC_PLLSOURCE_HSI)
 800172e:	4b6d      	ldr	r3, [pc, #436]	; (80018e4 <HAL_RCC_GetSysClockFreq+0x200>)
 8001730:	685b      	ldr	r3, [r3, #4]
 8001732:	f403 0380 	and.w	r3, r3, #4194304	; 0x400000
 8001736:	2b00      	cmp	r3, #0
 8001738:	d063      	beq.n	8001802 <HAL_RCC_GetSysClockFreq+0x11e>
      {
        /* HSE used as PLL clock source */
        pllvco = (uint32_t) ((((uint64_t) HSE_VALUE * ((uint64_t) ((RCC->PLLCFGR & RCC_PLLCFGR_PLLN) >> RCC_PLLCFGR_PLLN_Pos)))) / (uint64_t)pllm);
 800173a:	4b6a      	ldr	r3, [pc, #424]	; (80018e4 <HAL_RCC_GetSysClockFreq+0x200>)
 800173c:	685b      	ldr	r3, [r3, #4]
 800173e:	099b      	lsrs	r3, r3, #6
 8001740:	2200      	movs	r2, #0
 8001742:	63bb      	str	r3, [r7, #56]	; 0x38
 8001744:	63fa      	str	r2, [r7, #60]	; 0x3c
 8001746:	6bbb      	ldr	r3, [r7, #56]	; 0x38
 8001748:	f3c3 0308 	ubfx	r3, r3, #0, #9
 800174c:	633b      	str	r3, [r7, #48]	; 0x30
 800174e:	2300      	movs	r3, #0
 8001750:	637b      	str	r3, [r7, #52]	; 0x34
 8001752:	e9d7 450c 	ldrd	r4, r5, [r7, #48]	; 0x30
 8001756:	4622      	mov	r2, r4
 8001758:	462b      	mov	r3, r5
 800175a:	f04f 0000 	mov.w	r0, #0
 800175e:	f04f 0100 	mov.w	r1, #0
 8001762:	0159      	lsls	r1, r3, #5
 8001764:	ea41 61d2 	orr.w	r1, r1, r2, lsr #27
 8001768:	0150      	lsls	r0, r2, #5
 800176a:	4602      	mov	r2, r0
 800176c:	460b      	mov	r3, r1
 800176e:	4621      	mov	r1, r4
 8001770:	1a51      	subs	r1, r2, r1
 8001772:	6139      	str	r1, [r7, #16]
 8001774:	4629      	mov	r1, r5
 8001776:	eb63 0301 	sbc.w	r3, r3, r1
 800177a:	617b      	str	r3, [r7, #20]
 800177c:	f04f 0200 	mov.w	r2, #0
 8001780:	f04f 0300 	mov.w	r3, #0
 8001784:	e9d7 ab04 	ldrd	sl, fp, [r7, #16]
 8001788:	4659      	mov	r1, fp
 800178a:	018b      	lsls	r3, r1, #6
 800178c:	4651      	mov	r1, sl
 800178e:	ea43 6391 	orr.w	r3, r3, r1, lsr #26
 8001792:	4651      	mov	r1, sl
 8001794:	018a      	lsls	r2, r1, #6
 8001796:	4651      	mov	r1, sl
 8001798:	ebb2 0801 	subs.w	r8, r2, r1
 800179c:	4659      	mov	r1, fp
 800179e:	eb63 0901 	sbc.w	r9, r3, r1
 80017a2:	f04f 0200 	mov.w	r2, #0
 80017a6:	f04f 0300 	mov.w	r3, #0
 80017aa:	ea4f 03c9 	mov.w	r3, r9, lsl #3
 80017ae:	ea43 7358 	orr.w	r3, r3, r8, lsr #29
 80017b2:	ea4f 02c8 	mov.w	r2, r8, lsl #3
 80017b6:	4690      	mov	r8, r2
 80017b8:	4699      	mov	r9, r3
 80017ba:	4623      	mov	r3, r4
 80017bc:	eb18 0303 	adds.w	r3, r8, r3
 80017c0:	60bb      	str	r3, [r7, #8]
 80017c2:	462b      	mov	r3, r5
 80017c4:	eb49 0303 	adc.w	r3, r9, r3
 80017c8:	60fb      	str	r3, [r7, #12]
 80017ca:	f04f 0200 	mov.w	r2, #0
 80017ce:	f04f 0300 	mov.w	r3, #0
 80017d2:	e9d7 4502 	ldrd	r4, r5, [r7, #8]
 80017d6:	4629      	mov	r1, r5
 80017d8:	024b      	lsls	r3, r1, #9
 80017da:	4621      	mov	r1, r4
 80017dc:	ea43 53d1 	orr.w	r3, r3, r1, lsr #23
 80017e0:	4621      	mov	r1, r4
 80017e2:	024a      	lsls	r2, r1, #9
 80017e4:	4610      	mov	r0, r2
 80017e6:	4619      	mov	r1, r3
 80017e8:	6c7b      	ldr	r3, [r7, #68]	; 0x44
 80017ea:	2200      	movs	r2, #0
 80017ec:	62bb      	str	r3, [r7, #40]	; 0x28
 80017ee:	62fa      	str	r2, [r7, #44]	; 0x2c
 80017f0:	e9d7 230a 	ldrd	r2, r3, [r7, #40]	; 0x28
 80017f4:	f7fe fcee 	bl	80001d4 <__aeabi_uldivmod>
 80017f8:	4602      	mov	r2, r0
 80017fa:	460b      	mov	r3, r1
 80017fc:	4613      	mov	r3, r2
 80017fe:	64fb      	str	r3, [r7, #76]	; 0x4c
 8001800:	e058      	b.n	80018b4 <HAL_RCC_GetSysClockFreq+0x1d0>
      }
      else
      {
        /* HSI used as PLL clock source */
        pllvco = (uint32_t) ((((uint64_t) HSI_VALUE * ((uint64_t) ((RCC->PLLCFGR & RCC_PLLCFGR_PLLN) >> RCC_PLLCFGR_PLLN_Pos)))) / (uint64_t)pllm);
 8001802:	4b38      	ldr	r3, [pc, #224]	; (80018e4 <HAL_RCC_GetSysClockFreq+0x200>)
 8001804:	685b      	ldr	r3, [r3, #4]
 8001806:	099b      	lsrs	r3, r3, #6
 8001808:	2200      	movs	r2, #0
 800180a:	4618      	mov	r0, r3
 800180c:	4611      	mov	r1, r2
 800180e:	f3c0 0308 	ubfx	r3, r0, #0, #9
 8001812:	623b      	str	r3, [r7, #32]
 8001814:	2300      	movs	r3, #0
 8001816:	627b      	str	r3, [r7, #36]	; 0x24
 8001818:	e9d7 8908 	ldrd	r8, r9, [r7, #32]
 800181c:	4642      	mov	r2, r8
 800181e:	464b      	mov	r3, r9
 8001820:	f04f 0000 	mov.w	r0, #0
 8001824:	f04f 0100 	mov.w	r1, #0
 8001828:	0159      	lsls	r1, r3, #5
 800182a:	ea41 61d2 	orr.w	r1, r1, r2, lsr #27
 800182e:	0150      	lsls	r0, r2, #5
 8001830:	4602      	mov	r2, r0
 8001832:	460b      	mov	r3, r1
 8001834:	4641      	mov	r1, r8
 8001836:	ebb2 0a01 	subs.w	sl, r2, r1
 800183a:	4649      	mov	r1, r9
 800183c:	eb63 0b01 	sbc.w	fp, r3, r1
 8001840:	f04f 0200 	mov.w	r2, #0
 8001844:	f04f 0300 	mov.w	r3, #0
 8001848:	ea4f 138b 	mov.w	r3, fp, lsl #6
 800184c:	ea43 639a 	orr.w	r3, r3, sl, lsr #26
 8001850:	ea4f 128a 	mov.w	r2, sl, lsl #6
 8001854:	ebb2 040a 	subs.w	r4, r2, sl
 8001858:	eb63 050b 	sbc.w	r5, r3, fp
 800185c:	f04f 0200 	mov.w	r2, #0
 8001860:	f04f 0300 	mov.w	r3, #0
 8001864:	00eb      	lsls	r3, r5, #3
 8001866:	ea43 7354 	orr.w	r3, r3, r4, lsr #29
 800186a:	00e2      	lsls	r2, r4, #3
 800186c:	4614      	mov	r4, r2
 800186e:	461d      	mov	r5, r3
 8001870:	4643      	mov	r3, r8
 8001872:	18e3      	adds	r3, r4, r3
 8001874:	603b      	str	r3, [r7, #0]
 8001876:	464b      	mov	r3, r9
 8001878:	eb45 0303 	adc.w	r3, r5, r3
 800187c:	607b      	str	r3, [r7, #4]
 800187e:	f04f 0200 	mov.w	r2, #0
 8001882:	f04f 0300 	mov.w	r3, #0
 8001886:	e9d7 4500 	ldrd	r4, r5, [r7]
 800188a:	4629      	mov	r1, r5
 800188c:	028b      	lsls	r3, r1, #10
 800188e:	4621      	mov	r1, r4
 8001890:	ea43 5391 	orr.w	r3, r3, r1, lsr #22
 8001894:	4621      	mov	r1, r4
 8001896:	028a      	lsls	r2, r1, #10
 8001898:	4610      	mov	r0, r2
 800189a:	4619      	mov	r1, r3
 800189c:	6c7b      	ldr	r3, [r7, #68]	; 0x44
 800189e:	2200      	movs	r2, #0
 80018a0:	61bb      	str	r3, [r7, #24]
 80018a2:	61fa      	str	r2, [r7, #28]
 80018a4:	e9d7 2306 	ldrd	r2, r3, [r7, #24]
 80018a8:	f7fe fc94 	bl	80001d4 <__aeabi_uldivmod>
 80018ac:	4602      	mov	r2, r0
 80018ae:	460b      	mov	r3, r1
 80018b0:	4613      	mov	r3, r2
 80018b2:	64fb      	str	r3, [r7, #76]	; 0x4c
      }
      pllp = ((((RCC->PLLCFGR & RCC_PLLCFGR_PLLP) >> RCC_PLLCFGR_PLLP_Pos) + 1U) *2U);
 80018b4:	4b0b      	ldr	r3, [pc, #44]	; (80018e4 <HAL_RCC_GetSysClockFreq+0x200>)
 80018b6:	685b      	ldr	r3, [r3, #4]
 80018b8:	0c1b      	lsrs	r3, r3, #16
 80018ba:	f003 0303 	and.w	r3, r3, #3
 80018be:	3301      	adds	r3, #1
 80018c0:	005b      	lsls	r3, r3, #1
 80018c2:	643b      	str	r3, [r7, #64]	; 0x40

      sysclockfreq = pllvco/pllp;
 80018c4:	6cfa      	ldr	r2, [r7, #76]	; 0x4c
 80018c6:	6c3b      	ldr	r3, [r7, #64]	; 0x40
 80018c8:	fbb2 f3f3 	udiv	r3, r2, r3
 80018cc:	64bb      	str	r3, [r7, #72]	; 0x48
      break;
 80018ce:	e002      	b.n	80018d6 <HAL_RCC_GetSysClockFreq+0x1f2>
    }
    default:
    {
      sysclockfreq = HSI_VALUE;
 80018d0:	4b05      	ldr	r3, [pc, #20]	; (80018e8 <HAL_RCC_GetSysClockFreq+0x204>)
 80018d2:	64bb      	str	r3, [r7, #72]	; 0x48
      break;
 80018d4:	bf00      	nop
    }
  }
  return sysclockfreq;
 80018d6:	6cbb      	ldr	r3, [r7, #72]	; 0x48
}
 80018d8:	4618      	mov	r0, r3
 80018da:	3750      	adds	r7, #80	; 0x50
 80018dc:	46bd      	mov	sp, r7
 80018de:	e8bd 8fb0 	ldmia.w	sp!, {r4, r5, r7, r8, r9, sl, fp, pc}
 80018e2:	bf00      	nop
 80018e4:	40023800 	.word	0x40023800
 80018e8:	00f42400 	.word	0x00f42400
 80018ec:	007a1200 	.word	0x007a1200

080018f0 <HAL_RCCEx_PeriphCLKConfig>:
  *        domain (RTC and RCC_BDCR register expect BKPSRAM) will be reset
  *
  * @retval HAL status
  */
HAL_StatusTypeDef HAL_RCCEx_PeriphCLKConfig(RCC_PeriphCLKInitTypeDef  *PeriphClkInit)
{
 80018f0:	b580      	push	{r7, lr}
 80018f2:	b086      	sub	sp, #24
 80018f4:	af00      	add	r7, sp, #0
 80018f6:	6078      	str	r0, [r7, #4]
  uint32_t tickstart = 0U;
 80018f8:	2300      	movs	r3, #0
 80018fa:	617b      	str	r3, [r7, #20]
  uint32_t tmpreg1 = 0U;
 80018fc:	2300      	movs	r3, #0
 80018fe:	613b      	str	r3, [r7, #16]

  /* Check the parameters */
  assert_param(IS_RCC_PERIPHCLOCK(PeriphClkInit->PeriphClockSelection));

  /*---------------------------- I2S configuration ---------------------------*/
  if((((PeriphClkInit->PeriphClockSelection) & RCC_PERIPHCLK_I2S) == RCC_PERIPHCLK_I2S) ||
 8001900:	687b      	ldr	r3, [r7, #4]
 8001902:	681b      	ldr	r3, [r3, #0]
 8001904:	f003 0301 	and.w	r3, r3, #1
 8001908:	2b00      	cmp	r3, #0
 800190a:	d105      	bne.n	8001918 <HAL_RCCEx_PeriphCLKConfig+0x28>
     (((PeriphClkInit->PeriphClockSelection) & RCC_PERIPHCLK_PLLI2S) == RCC_PERIPHCLK_PLLI2S))
 800190c:	687b      	ldr	r3, [r7, #4]
 800190e:	681b      	ldr	r3, [r3, #0]
 8001910:	f003 0304 	and.w	r3, r3, #4
  if((((PeriphClkInit->PeriphClockSelection) & RCC_PERIPHCLK_I2S) == RCC_PERIPHCLK_I2S) ||
 8001914:	2b00      	cmp	r3, #0
 8001916:	d035      	beq.n	8001984 <HAL_RCCEx_PeriphCLKConfig+0x94>
    assert_param(IS_RCC_PLLI2SN_VALUE(PeriphClkInit->PLLI2S.PLLI2SN));
#if defined(STM32F411xE)
    assert_param(IS_RCC_PLLI2SM_VALUE(PeriphClkInit->PLLI2S.PLLI2SM));
#endif /* STM32F411xE */
    /* Disable the PLLI2S */
    __HAL_RCC_PLLI2S_DISABLE();
 8001918:	4b67      	ldr	r3, [pc, #412]	; (8001ab8 <HAL_RCCEx_PeriphCLKConfig+0x1c8>)
 800191a:	2200      	movs	r2, #0
 800191c:	601a      	str	r2, [r3, #0]
    /* Get tick */
    tickstart = HAL_GetTick();
 800191e:	f7ff f8f3 	bl	8000b08 <HAL_GetTick>
 8001922:	6178      	str	r0, [r7, #20]
    /* Wait till PLLI2S is disabled */
    while(__HAL_RCC_GET_FLAG(RCC_FLAG_PLLI2SRDY)  != RESET)
 8001924:	e008      	b.n	8001938 <HAL_RCCEx_PeriphCLKConfig+0x48>
    {
      if((HAL_GetTick() - tickstart ) > PLLI2S_TIMEOUT_VALUE)
 8001926:	f7ff f8ef 	bl	8000b08 <HAL_GetTick>
 800192a:	4602      	mov	r2, r0
 800192c:	697b      	ldr	r3, [r7, #20]
 800192e:	1ad3      	subs	r3, r2, r3
 8001930:	2b02      	cmp	r3, #2
 8001932:	d901      	bls.n	8001938 <HAL_RCCEx_PeriphCLKConfig+0x48>
      {
        /* return in case of Timeout detected */
        return HAL_TIMEOUT;
 8001934:	2303      	movs	r3, #3
 8001936:	e0ba      	b.n	8001aae <HAL_RCCEx_PeriphCLKConfig+0x1be>
    while(__HAL_RCC_GET_FLAG(RCC_FLAG_PLLI2SRDY)  != RESET)
 8001938:	4b60      	ldr	r3, [pc, #384]	; (8001abc <HAL_RCCEx_PeriphCLKConfig+0x1cc>)
 800193a:	681b      	ldr	r3, [r3, #0]
 800193c:	f003 6300 	and.w	r3, r3, #134217728	; 0x8000000
 8001940:	2b00      	cmp	r3, #0
 8001942:	d1f0      	bne.n	8001926 <HAL_RCCEx_PeriphCLKConfig+0x36>
    __HAL_RCC_PLLI2S_I2SCLK_CONFIG(PeriphClkInit->PLLI2S.PLLI2SM, PeriphClkInit->PLLI2S.PLLI2SN, PeriphClkInit->PLLI2S.PLLI2SR);
#else
    /* Configure the PLLI2S division factors */
    /* PLLI2S_VCO = f(VCO clock) = f(PLLI2S clock input) * (PLLI2SN/PLLM) */
    /* I2SCLK = f(PLLI2S clock output) = f(VCO clock) / PLLI2SR */
    __HAL_RCC_PLLI2S_CONFIG(PeriphClkInit->PLLI2S.PLLI2SN , PeriphClkInit->PLLI2S.PLLI2SR);
 8001944:	687b      	ldr	r3, [r7, #4]
 8001946:	685b      	ldr	r3, [r3, #4]
 8001948:	019a      	lsls	r2, r3, #6
 800194a:	687b      	ldr	r3, [r7, #4]
 800194c:	689b      	ldr	r3, [r3, #8]
 800194e:	071b      	lsls	r3, r3, #28
 8001950:	495a      	ldr	r1, [pc, #360]	; (8001abc <HAL_RCCEx_PeriphCLKConfig+0x1cc>)
 8001952:	4313      	orrs	r3, r2
 8001954:	f8c1 3084 	str.w	r3, [r1, #132]	; 0x84
#endif /* STM32F411xE */

    /* Enable the PLLI2S */
    __HAL_RCC_PLLI2S_ENABLE();
 8001958:	4b57      	ldr	r3, [pc, #348]	; (8001ab8 <HAL_RCCEx_PeriphCLKConfig+0x1c8>)
 800195a:	2201      	movs	r2, #1
 800195c:	601a      	str	r2, [r3, #0]
    /* Get tick */
    tickstart = HAL_GetTick();
 800195e:	f7ff f8d3 	bl	8000b08 <HAL_GetTick>
 8001962:	6178      	str	r0, [r7, #20]
    /* Wait till PLLI2S is ready */
    while(__HAL_RCC_GET_FLAG(RCC_FLAG_PLLI2SRDY)  == RESET)
 8001964:	e008      	b.n	8001978 <HAL_RCCEx_PeriphCLKConfig+0x88>
    {
      if((HAL_GetTick() - tickstart ) > PLLI2S_TIMEOUT_VALUE)
 8001966:	f7ff f8cf 	bl	8000b08 <HAL_GetTick>
 800196a:	4602      	mov	r2, r0
 800196c:	697b      	ldr	r3, [r7, #20]
 800196e:	1ad3      	subs	r3, r2, r3
 8001970:	2b02      	cmp	r3, #2
 8001972:	d901      	bls.n	8001978 <HAL_RCCEx_PeriphCLKConfig+0x88>
      {
        /* return in case of Timeout detected */
        return HAL_TIMEOUT;
 8001974:	2303      	movs	r3, #3
 8001976:	e09a      	b.n	8001aae <HAL_RCCEx_PeriphCLKConfig+0x1be>
    while(__HAL_RCC_GET_FLAG(RCC_FLAG_PLLI2SRDY)  == RESET)
 8001978:	4b50      	ldr	r3, [pc, #320]	; (8001abc <HAL_RCCEx_PeriphCLKConfig+0x1cc>)
 800197a:	681b      	ldr	r3, [r3, #0]
 800197c:	f003 6300 	and.w	r3, r3, #134217728	; 0x8000000
 8001980:	2b00      	cmp	r3, #0
 8001982:	d0f0      	beq.n	8001966 <HAL_RCCEx_PeriphCLKConfig+0x76>
      }
    }
  }

  /*---------------------------- RTC configuration ---------------------------*/
  if(((PeriphClkInit->PeriphClockSelection) & RCC_PERIPHCLK_RTC) == (RCC_PERIPHCLK_RTC))
 8001984:	687b      	ldr	r3, [r7, #4]
 8001986:	681b      	ldr	r3, [r3, #0]
 8001988:	f003 0302 	and.w	r3, r3, #2
 800198c:	2b00      	cmp	r3, #0
 800198e:	f000 8083 	beq.w	8001a98 <HAL_RCCEx_PeriphCLKConfig+0x1a8>
  {
    /* Check for RTC Parameters used to output RTCCLK */
    assert_param(IS_RCC_RTCCLKSOURCE(PeriphClkInit->RTCClockSelection));

    /* Enable Power Clock*/
    __HAL_RCC_PWR_CLK_ENABLE();
 8001992:	2300      	movs	r3, #0
 8001994:	60fb      	str	r3, [r7, #12]
 8001996:	4b49      	ldr	r3, [pc, #292]	; (8001abc <HAL_RCCEx_PeriphCLKConfig+0x1cc>)
 8001998:	6c1b      	ldr	r3, [r3, #64]	; 0x40
 800199a:	4a48      	ldr	r2, [pc, #288]	; (8001abc <HAL_RCCEx_PeriphCLKConfig+0x1cc>)
 800199c:	f043 5380 	orr.w	r3, r3, #268435456	; 0x10000000
 80019a0:	6413      	str	r3, [r2, #64]	; 0x40
 80019a2:	4b46      	ldr	r3, [pc, #280]	; (8001abc <HAL_RCCEx_PeriphCLKConfig+0x1cc>)
 80019a4:	6c1b      	ldr	r3, [r3, #64]	; 0x40
 80019a6:	f003 5380 	and.w	r3, r3, #268435456	; 0x10000000
 80019aa:	60fb      	str	r3, [r7, #12]
 80019ac:	68fb      	ldr	r3, [r7, #12]

    /* Enable write access to Backup domain */
    PWR->CR |= PWR_CR_DBP;
 80019ae:	4b44      	ldr	r3, [pc, #272]	; (8001ac0 <HAL_RCCEx_PeriphCLKConfig+0x1d0>)
 80019b0:	681b      	ldr	r3, [r3, #0]
 80019b2:	4a43      	ldr	r2, [pc, #268]	; (8001ac0 <HAL_RCCEx_PeriphCLKConfig+0x1d0>)
 80019b4:	f443 7380 	orr.w	r3, r3, #256	; 0x100
 80019b8:	6013      	str	r3, [r2, #0]

    /* Get tick */
    tickstart = HAL_GetTick();
 80019ba:	f7ff f8a5 	bl	8000b08 <HAL_GetTick>
 80019be:	6178      	str	r0, [r7, #20]

    while((PWR->CR & PWR_CR_DBP) == RESET)
 80019c0:	e008      	b.n	80019d4 <HAL_RCCEx_PeriphCLKConfig+0xe4>
    {
      if((HAL_GetTick() - tickstart ) > RCC_DBP_TIMEOUT_VALUE)
 80019c2:	f7ff f8a1 	bl	8000b08 <HAL_GetTick>
 80019c6:	4602      	mov	r2, r0
 80019c8:	697b      	ldr	r3, [r7, #20]
 80019ca:	1ad3      	subs	r3, r2, r3
 80019cc:	2b02      	cmp	r3, #2
 80019ce:	d901      	bls.n	80019d4 <HAL_RCCEx_PeriphCLKConfig+0xe4>
      {
        return HAL_TIMEOUT;
 80019d0:	2303      	movs	r3, #3
 80019d2:	e06c      	b.n	8001aae <HAL_RCCEx_PeriphCLKConfig+0x1be>
    while((PWR->CR & PWR_CR_DBP) == RESET)
 80019d4:	4b3a      	ldr	r3, [pc, #232]	; (8001ac0 <HAL_RCCEx_PeriphCLKConfig+0x1d0>)
 80019d6:	681b      	ldr	r3, [r3, #0]
 80019d8:	f403 7380 	and.w	r3, r3, #256	; 0x100
 80019dc:	2b00      	cmp	r3, #0
 80019de:	d0f0      	beq.n	80019c2 <HAL_RCCEx_PeriphCLKConfig+0xd2>
      }
    }
    /* Reset the Backup domain only if the RTC Clock source selection is modified from reset value */
    tmpreg1 = (RCC->BDCR & RCC_BDCR_RTCSEL);
 80019e0:	4b36      	ldr	r3, [pc, #216]	; (8001abc <HAL_RCCEx_PeriphCLKConfig+0x1cc>)
 80019e2:	6f1b      	ldr	r3, [r3, #112]	; 0x70
 80019e4:	f403 7340 	and.w	r3, r3, #768	; 0x300
 80019e8:	613b      	str	r3, [r7, #16]
    if((tmpreg1 != 0x00000000U) && ((tmpreg1) != (PeriphClkInit->RTCClockSelection & RCC_BDCR_RTCSEL)))
 80019ea:	693b      	ldr	r3, [r7, #16]
 80019ec:	2b00      	cmp	r3, #0
 80019ee:	d02f      	beq.n	8001a50 <HAL_RCCEx_PeriphCLKConfig+0x160>
 80019f0:	687b      	ldr	r3, [r7, #4]
 80019f2:	68db      	ldr	r3, [r3, #12]
 80019f4:	f403 7340 	and.w	r3, r3, #768	; 0x300
 80019f8:	693a      	ldr	r2, [r7, #16]
 80019fa:	429a      	cmp	r2, r3
 80019fc:	d028      	beq.n	8001a50 <HAL_RCCEx_PeriphCLKConfig+0x160>
    {
      /* Store the content of BDCR register before the reset of Backup Domain */
      tmpreg1 = (RCC->BDCR & ~(RCC_BDCR_RTCSEL));
 80019fe:	4b2f      	ldr	r3, [pc, #188]	; (8001abc <HAL_RCCEx_PeriphCLKConfig+0x1cc>)
 8001a00:	6f1b      	ldr	r3, [r3, #112]	; 0x70
 8001a02:	f423 7340 	bic.w	r3, r3, #768	; 0x300
 8001a06:	613b      	str	r3, [r7, #16]
      /* RTC Clock selection can be changed only if the Backup Domain is reset */
      __HAL_RCC_BACKUPRESET_FORCE();
 8001a08:	4b2e      	ldr	r3, [pc, #184]	; (8001ac4 <HAL_RCCEx_PeriphCLKConfig+0x1d4>)
 8001a0a:	2201      	movs	r2, #1
 8001a0c:	601a      	str	r2, [r3, #0]
      __HAL_RCC_BACKUPRESET_RELEASE();
 8001a0e:	4b2d      	ldr	r3, [pc, #180]	; (8001ac4 <HAL_RCCEx_PeriphCLKConfig+0x1d4>)
 8001a10:	2200      	movs	r2, #0
 8001a12:	601a      	str	r2, [r3, #0]
      /* Restore the Content of BDCR register */
      RCC->BDCR = tmpreg1;
 8001a14:	4a29      	ldr	r2, [pc, #164]	; (8001abc <HAL_RCCEx_PeriphCLKConfig+0x1cc>)
 8001a16:	693b      	ldr	r3, [r7, #16]
 8001a18:	6713      	str	r3, [r2, #112]	; 0x70

      /* Wait for LSE reactivation if LSE was enable prior to Backup Domain reset */
      if(HAL_IS_BIT_SET(RCC->BDCR, RCC_BDCR_LSEON))
 8001a1a:	4b28      	ldr	r3, [pc, #160]	; (8001abc <HAL_RCCEx_PeriphCLKConfig+0x1cc>)
 8001a1c:	6f1b      	ldr	r3, [r3, #112]	; 0x70
 8001a1e:	f003 0301 	and.w	r3, r3, #1
 8001a22:	2b01      	cmp	r3, #1
 8001a24:	d114      	bne.n	8001a50 <HAL_RCCEx_PeriphCLKConfig+0x160>
      {
        /* Get tick */
        tickstart = HAL_GetTick();
 8001a26:	f7ff f86f 	bl	8000b08 <HAL_GetTick>
 8001a2a:	6178      	str	r0, [r7, #20]

        /* Wait till LSE is ready */
        while(__HAL_RCC_GET_FLAG(RCC_FLAG_LSERDY) == RESET)
 8001a2c:	e00a      	b.n	8001a44 <HAL_RCCEx_PeriphCLKConfig+0x154>
        {
          if((HAL_GetTick() - tickstart ) > RCC_LSE_TIMEOUT_VALUE)
 8001a2e:	f7ff f86b 	bl	8000b08 <HAL_GetTick>
 8001a32:	4602      	mov	r2, r0
 8001a34:	697b      	ldr	r3, [r7, #20]
 8001a36:	1ad3      	subs	r3, r2, r3
 8001a38:	f241 3288 	movw	r2, #5000	; 0x1388
 8001a3c:	4293      	cmp	r3, r2
 8001a3e:	d901      	bls.n	8001a44 <HAL_RCCEx_PeriphCLKConfig+0x154>
          {
            return HAL_TIMEOUT;
 8001a40:	2303      	movs	r3, #3
 8001a42:	e034      	b.n	8001aae <HAL_RCCEx_PeriphCLKConfig+0x1be>
        while(__HAL_RCC_GET_FLAG(RCC_FLAG_LSERDY) == RESET)
 8001a44:	4b1d      	ldr	r3, [pc, #116]	; (8001abc <HAL_RCCEx_PeriphCLKConfig+0x1cc>)
 8001a46:	6f1b      	ldr	r3, [r3, #112]	; 0x70
 8001a48:	f003 0302 	and.w	r3, r3, #2
 8001a4c:	2b00      	cmp	r3, #0
 8001a4e:	d0ee      	beq.n	8001a2e <HAL_RCCEx_PeriphCLKConfig+0x13e>
          }
        }
      }
    }
    __HAL_RCC_RTC_CONFIG(PeriphClkInit->RTCClockSelection);
 8001a50:	687b      	ldr	r3, [r7, #4]
 8001a52:	68db      	ldr	r3, [r3, #12]
 8001a54:	f403 7340 	and.w	r3, r3, #768	; 0x300
 8001a58:	f5b3 7f40 	cmp.w	r3, #768	; 0x300
 8001a5c:	d10d      	bne.n	8001a7a <HAL_RCCEx_PeriphCLKConfig+0x18a>
 8001a5e:	4b17      	ldr	r3, [pc, #92]	; (8001abc <HAL_RCCEx_PeriphCLKConfig+0x1cc>)
 8001a60:	689b      	ldr	r3, [r3, #8]
 8001a62:	f423 12f8 	bic.w	r2, r3, #2031616	; 0x1f0000
 8001a66:	687b      	ldr	r3, [r7, #4]
 8001a68:	68db      	ldr	r3, [r3, #12]
 8001a6a:	f023 4370 	bic.w	r3, r3, #4026531840	; 0xf0000000
 8001a6e:	f423 7340 	bic.w	r3, r3, #768	; 0x300
 8001a72:	4912      	ldr	r1, [pc, #72]	; (8001abc <HAL_RCCEx_PeriphCLKConfig+0x1cc>)
 8001a74:	4313      	orrs	r3, r2
 8001a76:	608b      	str	r3, [r1, #8]
 8001a78:	e005      	b.n	8001a86 <HAL_RCCEx_PeriphCLKConfig+0x196>
 8001a7a:	4b10      	ldr	r3, [pc, #64]	; (8001abc <HAL_RCCEx_PeriphCLKConfig+0x1cc>)
 8001a7c:	689b      	ldr	r3, [r3, #8]
 8001a7e:	4a0f      	ldr	r2, [pc, #60]	; (8001abc <HAL_RCCEx_PeriphCLKConfig+0x1cc>)
 8001a80:	f423 13f8 	bic.w	r3, r3, #2031616	; 0x1f0000
 8001a84:	6093      	str	r3, [r2, #8]
 8001a86:	4b0d      	ldr	r3, [pc, #52]	; (8001abc <HAL_RCCEx_PeriphCLKConfig+0x1cc>)
 8001a88:	6f1a      	ldr	r2, [r3, #112]	; 0x70
 8001a8a:	687b      	ldr	r3, [r7, #4]
 8001a8c:	68db      	ldr	r3, [r3, #12]
 8001a8e:	f3c3 030b 	ubfx	r3, r3, #0, #12
 8001a92:	490a      	ldr	r1, [pc, #40]	; (8001abc <HAL_RCCEx_PeriphCLKConfig+0x1cc>)
 8001a94:	4313      	orrs	r3, r2
 8001a96:	670b      	str	r3, [r1, #112]	; 0x70
  }
#if defined(STM32F401xC) || defined(STM32F401xE) || defined(STM32F411xE)
  /*---------------------------- TIM configuration ---------------------------*/
  if(((PeriphClkInit->PeriphClockSelection) & RCC_PERIPHCLK_TIM) == (RCC_PERIPHCLK_TIM))
 8001a98:	687b      	ldr	r3, [r7, #4]
 8001a9a:	681b      	ldr	r3, [r3, #0]
 8001a9c:	f003 0308 	and.w	r3, r3, #8
 8001aa0:	2b00      	cmp	r3, #0
 8001aa2:	d003      	beq.n	8001aac <HAL_RCCEx_PeriphCLKConfig+0x1bc>
  {
    __HAL_RCC_TIMCLKPRESCALER(PeriphClkInit->TIMPresSelection);
 8001aa4:	687b      	ldr	r3, [r7, #4]
 8001aa6:	7c1a      	ldrb	r2, [r3, #16]
 8001aa8:	4b07      	ldr	r3, [pc, #28]	; (8001ac8 <HAL_RCCEx_PeriphCLKConfig+0x1d8>)
 8001aaa:	601a      	str	r2, [r3, #0]
  }
#endif /* STM32F401xC || STM32F401xE || STM32F411xE */
  return HAL_OK;
 8001aac:	2300      	movs	r3, #0
}
 8001aae:	4618      	mov	r0, r3
 8001ab0:	3718      	adds	r7, #24
 8001ab2:	46bd      	mov	sp, r7
 8001ab4:	bd80      	pop	{r7, pc}
 8001ab6:	bf00      	nop
 8001ab8:	42470068 	.word	0x42470068
 8001abc:	40023800 	.word	0x40023800
 8001ac0:	40007000 	.word	0x40007000
 8001ac4:	42470e40 	.word	0x42470e40
 8001ac8:	424711e0 	.word	0x424711e0

08001acc <HAL_RTC_Init>:
  * @param  hrtc pointer to a RTC_HandleTypeDef structure that contains
  *                the configuration information for RTC.
  * @retval HAL status
  */
HAL_StatusTypeDef HAL_RTC_Init(RTC_HandleTypeDef *hrtc)
{
 8001acc:	b580      	push	{r7, lr}
 8001ace:	b084      	sub	sp, #16
 8001ad0:	af00      	add	r7, sp, #0
 8001ad2:	6078      	str	r0, [r7, #4]
  HAL_StatusTypeDef status = HAL_ERROR;
 8001ad4:	2301      	movs	r3, #1
 8001ad6:	73fb      	strb	r3, [r7, #15]

  /* Check RTC handler validity */
  if (hrtc == NULL)
 8001ad8:	687b      	ldr	r3, [r7, #4]
 8001ada:	2b00      	cmp	r3, #0
 8001adc:	d101      	bne.n	8001ae2 <HAL_RTC_Init+0x16>
  {
    return HAL_ERROR;
 8001ade:	2301      	movs	r3, #1
 8001ae0:	e066      	b.n	8001bb0 <HAL_RTC_Init+0xe4>
    {
      hrtc->MspDeInitCallback = HAL_RTC_MspDeInit;
    }
  }
#else /* USE_HAL_RTC_REGISTER_CALLBACKS */
  if (hrtc->State == HAL_RTC_STATE_RESET)
 8001ae2:	687b      	ldr	r3, [r7, #4]
 8001ae4:	7f5b      	ldrb	r3, [r3, #29]
 8001ae6:	b2db      	uxtb	r3, r3
 8001ae8:	2b00      	cmp	r3, #0
 8001aea:	d105      	bne.n	8001af8 <HAL_RTC_Init+0x2c>
  {
    /* Allocate lock resource and initialize it */
    hrtc->Lock = HAL_UNLOCKED;
 8001aec:	687b      	ldr	r3, [r7, #4]
 8001aee:	2200      	movs	r2, #0
 8001af0:	771a      	strb	r2, [r3, #28]

    /* Initialize RTC MSP */
    HAL_RTC_MspInit(hrtc);
 8001af2:	6878      	ldr	r0, [r7, #4]
 8001af4:	f7fe ff10 	bl	8000918 <HAL_RTC_MspInit>
  }
#endif /* USE_HAL_RTC_REGISTER_CALLBACKS */

  /* Set RTC state */
  hrtc->State = HAL_RTC_STATE_BUSY;
 8001af8:	687b      	ldr	r3, [r7, #4]
 8001afa:	2202      	movs	r2, #2
 8001afc:	775a      	strb	r2, [r3, #29]

  /* Disable the write protection for RTC registers */
  __HAL_RTC_WRITEPROTECTION_DISABLE(hrtc);
 8001afe:	687b      	ldr	r3, [r7, #4]
 8001b00:	681b      	ldr	r3, [r3, #0]
 8001b02:	22ca      	movs	r2, #202	; 0xca
 8001b04:	625a      	str	r2, [r3, #36]	; 0x24
 8001b06:	687b      	ldr	r3, [r7, #4]
 8001b08:	681b      	ldr	r3, [r3, #0]
 8001b0a:	2253      	movs	r2, #83	; 0x53
 8001b0c:	625a      	str	r2, [r3, #36]	; 0x24

  /* Enter Initialization mode */
  status = RTC_EnterInitMode(hrtc);
 8001b0e:	6878      	ldr	r0, [r7, #4]
 8001b10:	f000 fa45 	bl	8001f9e <RTC_EnterInitMode>
 8001b14:	4603      	mov	r3, r0
 8001b16:	73fb      	strb	r3, [r7, #15]

  if (status == HAL_OK)
 8001b18:	7bfb      	ldrb	r3, [r7, #15]
 8001b1a:	2b00      	cmp	r3, #0
 8001b1c:	d12c      	bne.n	8001b78 <HAL_RTC_Init+0xac>
  {
    /* Clear RTC_CR FMT, OSEL and POL Bits */
    hrtc->Instance->CR &= ((uint32_t)~(RTC_CR_FMT | RTC_CR_OSEL | RTC_CR_POL));
 8001b1e:	687b      	ldr	r3, [r7, #4]
 8001b20:	681b      	ldr	r3, [r3, #0]
 8001b22:	689b      	ldr	r3, [r3, #8]
 8001b24:	687a      	ldr	r2, [r7, #4]
 8001b26:	6812      	ldr	r2, [r2, #0]
 8001b28:	f423 03e0 	bic.w	r3, r3, #7340032	; 0x700000
 8001b2c:	f023 0340 	bic.w	r3, r3, #64	; 0x40
 8001b30:	6093      	str	r3, [r2, #8]
    /* Set RTC_CR register */
    hrtc->Instance->CR |= (uint32_t)(hrtc->Init.HourFormat | hrtc->Init.OutPut | hrtc->Init.OutPutPolarity);
 8001b32:	687b      	ldr	r3, [r7, #4]
 8001b34:	681b      	ldr	r3, [r3, #0]
 8001b36:	6899      	ldr	r1, [r3, #8]
 8001b38:	687b      	ldr	r3, [r7, #4]
 8001b3a:	685a      	ldr	r2, [r3, #4]
 8001b3c:	687b      	ldr	r3, [r7, #4]
 8001b3e:	691b      	ldr	r3, [r3, #16]
 8001b40:	431a      	orrs	r2, r3
 8001b42:	687b      	ldr	r3, [r7, #4]
 8001b44:	695b      	ldr	r3, [r3, #20]
 8001b46:	431a      	orrs	r2, r3
 8001b48:	687b      	ldr	r3, [r7, #4]
 8001b4a:	681b      	ldr	r3, [r3, #0]
 8001b4c:	430a      	orrs	r2, r1
 8001b4e:	609a      	str	r2, [r3, #8]

    /* Configure the RTC PRER */
    hrtc->Instance->PRER = (uint32_t)(hrtc->Init.SynchPrediv);
 8001b50:	687b      	ldr	r3, [r7, #4]
 8001b52:	681b      	ldr	r3, [r3, #0]
 8001b54:	687a      	ldr	r2, [r7, #4]
 8001b56:	68d2      	ldr	r2, [r2, #12]
 8001b58:	611a      	str	r2, [r3, #16]
    hrtc->Instance->PRER |= (uint32_t)(hrtc->Init.AsynchPrediv << RTC_PRER_PREDIV_A_Pos);
 8001b5a:	687b      	ldr	r3, [r7, #4]
 8001b5c:	681b      	ldr	r3, [r3, #0]
 8001b5e:	6919      	ldr	r1, [r3, #16]
 8001b60:	687b      	ldr	r3, [r7, #4]
 8001b62:	689b      	ldr	r3, [r3, #8]
 8001b64:	041a      	lsls	r2, r3, #16
 8001b66:	687b      	ldr	r3, [r7, #4]
 8001b68:	681b      	ldr	r3, [r3, #0]
 8001b6a:	430a      	orrs	r2, r1
 8001b6c:	611a      	str	r2, [r3, #16]

    /* Exit Initialization mode */
    status = RTC_ExitInitMode(hrtc);
 8001b6e:	6878      	ldr	r0, [r7, #4]
 8001b70:	f000 fa4c 	bl	800200c <RTC_ExitInitMode>
 8001b74:	4603      	mov	r3, r0
 8001b76:	73fb      	strb	r3, [r7, #15]
  }

  if (status == HAL_OK)
 8001b78:	7bfb      	ldrb	r3, [r7, #15]
 8001b7a:	2b00      	cmp	r3, #0
 8001b7c:	d113      	bne.n	8001ba6 <HAL_RTC_Init+0xda>
  {
    hrtc->Instance->TAFCR &= (uint32_t)~RTC_OUTPUT_TYPE_PUSHPULL;
 8001b7e:	687b      	ldr	r3, [r7, #4]
 8001b80:	681b      	ldr	r3, [r3, #0]
 8001b82:	6c1a      	ldr	r2, [r3, #64]	; 0x40
 8001b84:	687b      	ldr	r3, [r7, #4]
 8001b86:	681b      	ldr	r3, [r3, #0]
 8001b88:	f422 2280 	bic.w	r2, r2, #262144	; 0x40000
 8001b8c:	641a      	str	r2, [r3, #64]	; 0x40
    hrtc->Instance->TAFCR |= (uint32_t)(hrtc->Init.OutPutType);
 8001b8e:	687b      	ldr	r3, [r7, #4]
 8001b90:	681b      	ldr	r3, [r3, #0]
 8001b92:	6c19      	ldr	r1, [r3, #64]	; 0x40
 8001b94:	687b      	ldr	r3, [r7, #4]
 8001b96:	699a      	ldr	r2, [r3, #24]
 8001b98:	687b      	ldr	r3, [r7, #4]
 8001b9a:	681b      	ldr	r3, [r3, #0]
 8001b9c:	430a      	orrs	r2, r1
 8001b9e:	641a      	str	r2, [r3, #64]	; 0x40

    hrtc->State = HAL_RTC_STATE_READY;
 8001ba0:	687b      	ldr	r3, [r7, #4]
 8001ba2:	2201      	movs	r2, #1
 8001ba4:	775a      	strb	r2, [r3, #29]
  }

  /* Enable the write protection for RTC registers */
  __HAL_RTC_WRITEPROTECTION_ENABLE(hrtc);
 8001ba6:	687b      	ldr	r3, [r7, #4]
 8001ba8:	681b      	ldr	r3, [r3, #0]
 8001baa:	22ff      	movs	r2, #255	; 0xff
 8001bac:	625a      	str	r2, [r3, #36]	; 0x24

  return status;
 8001bae:	7bfb      	ldrb	r3, [r7, #15]
}
 8001bb0:	4618      	mov	r0, r3
 8001bb2:	3710      	adds	r7, #16
 8001bb4:	46bd      	mov	sp, r7
 8001bb6:	bd80      	pop	{r7, pc}

08001bb8 <HAL_RTC_SetTime>:
  *            @arg RTC_FORMAT_BIN: Binary data format
  *            @arg RTC_FORMAT_BCD: BCD data format
  * @retval HAL status
  */
HAL_StatusTypeDef HAL_RTC_SetTime(RTC_HandleTypeDef *hrtc, RTC_TimeTypeDef *sTime, uint32_t Format)
{
 8001bb8:	b590      	push	{r4, r7, lr}
 8001bba:	b087      	sub	sp, #28
 8001bbc:	af00      	add	r7, sp, #0
 8001bbe:	60f8      	str	r0, [r7, #12]
 8001bc0:	60b9      	str	r1, [r7, #8]
 8001bc2:	607a      	str	r2, [r7, #4]
  uint32_t tmpreg = 0U;
 8001bc4:	2300      	movs	r3, #0
 8001bc6:	617b      	str	r3, [r7, #20]
  assert_param(IS_RTC_FORMAT(Format));
  assert_param(IS_RTC_DAYLIGHT_SAVING(sTime->DayLightSaving));
  assert_param(IS_RTC_STORE_OPERATION(sTime->StoreOperation));

  /* Process Locked */
  __HAL_LOCK(hrtc);
 8001bc8:	68fb      	ldr	r3, [r7, #12]
 8001bca:	7f1b      	ldrb	r3, [r3, #28]
 8001bcc:	2b01      	cmp	r3, #1
 8001bce:	d101      	bne.n	8001bd4 <HAL_RTC_SetTime+0x1c>
 8001bd0:	2302      	movs	r3, #2
 8001bd2:	e087      	b.n	8001ce4 <HAL_RTC_SetTime+0x12c>
 8001bd4:	68fb      	ldr	r3, [r7, #12]
 8001bd6:	2201      	movs	r2, #1
 8001bd8:	771a      	strb	r2, [r3, #28]

  hrtc->State = HAL_RTC_STATE_BUSY;
 8001bda:	68fb      	ldr	r3, [r7, #12]
 8001bdc:	2202      	movs	r2, #2
 8001bde:	775a      	strb	r2, [r3, #29]

  if (Format == RTC_FORMAT_BIN)
 8001be0:	687b      	ldr	r3, [r7, #4]
 8001be2:	2b00      	cmp	r3, #0
 8001be4:	d126      	bne.n	8001c34 <HAL_RTC_SetTime+0x7c>
  {
    if ((hrtc->Instance->CR & RTC_CR_FMT) != 0U)
 8001be6:	68fb      	ldr	r3, [r7, #12]
 8001be8:	681b      	ldr	r3, [r3, #0]
 8001bea:	689b      	ldr	r3, [r3, #8]
 8001bec:	f003 0340 	and.w	r3, r3, #64	; 0x40
 8001bf0:	2b00      	cmp	r3, #0
 8001bf2:	d102      	bne.n	8001bfa <HAL_RTC_SetTime+0x42>
      assert_param(IS_RTC_HOUR12(sTime->Hours));
      assert_param(IS_RTC_HOURFORMAT12(sTime->TimeFormat));
    }
    else
    {
      sTime->TimeFormat = 0x00U;
 8001bf4:	68bb      	ldr	r3, [r7, #8]
 8001bf6:	2200      	movs	r2, #0
 8001bf8:	70da      	strb	r2, [r3, #3]
      assert_param(IS_RTC_HOUR24(sTime->Hours));
    }
    assert_param(IS_RTC_MINUTES(sTime->Minutes));
    assert_param(IS_RTC_SECONDS(sTime->Seconds));

    tmpreg = (uint32_t)(( (uint32_t)RTC_ByteToBcd2(sTime->Hours)   << RTC_TR_HU_Pos)  | \
 8001bfa:	68bb      	ldr	r3, [r7, #8]
 8001bfc:	781b      	ldrb	r3, [r3, #0]
 8001bfe:	4618      	mov	r0, r3
 8001c00:	f000 fa29 	bl	8002056 <RTC_ByteToBcd2>
 8001c04:	4603      	mov	r3, r0
 8001c06:	041c      	lsls	r4, r3, #16
                        ( (uint32_t)RTC_ByteToBcd2(sTime->Minutes) << RTC_TR_MNU_Pos) | \
 8001c08:	68bb      	ldr	r3, [r7, #8]
 8001c0a:	785b      	ldrb	r3, [r3, #1]
 8001c0c:	4618      	mov	r0, r3
 8001c0e:	f000 fa22 	bl	8002056 <RTC_ByteToBcd2>
 8001c12:	4603      	mov	r3, r0
 8001c14:	021b      	lsls	r3, r3, #8
    tmpreg = (uint32_t)(( (uint32_t)RTC_ByteToBcd2(sTime->Hours)   << RTC_TR_HU_Pos)  | \
 8001c16:	431c      	orrs	r4, r3
                        ( (uint32_t)RTC_ByteToBcd2(sTime->Seconds))                   | \
 8001c18:	68bb      	ldr	r3, [r7, #8]
 8001c1a:	789b      	ldrb	r3, [r3, #2]
 8001c1c:	4618      	mov	r0, r3
 8001c1e:	f000 fa1a 	bl	8002056 <RTC_ByteToBcd2>
 8001c22:	4603      	mov	r3, r0
                        ( (uint32_t)RTC_ByteToBcd2(sTime->Minutes) << RTC_TR_MNU_Pos) | \
 8001c24:	ea44 0203 	orr.w	r2, r4, r3
                        (((uint32_t)sTime->TimeFormat)             << RTC_TR_PM_Pos));
 8001c28:	68bb      	ldr	r3, [r7, #8]
 8001c2a:	78db      	ldrb	r3, [r3, #3]
 8001c2c:	059b      	lsls	r3, r3, #22
    tmpreg = (uint32_t)(( (uint32_t)RTC_ByteToBcd2(sTime->Hours)   << RTC_TR_HU_Pos)  | \
 8001c2e:	4313      	orrs	r3, r2
 8001c30:	617b      	str	r3, [r7, #20]
 8001c32:	e018      	b.n	8001c66 <HAL_RTC_SetTime+0xae>
  }
  else
  {
    if ((hrtc->Instance->CR & RTC_CR_FMT) != 0U)
 8001c34:	68fb      	ldr	r3, [r7, #12]
 8001c36:	681b      	ldr	r3, [r3, #0]
 8001c38:	689b      	ldr	r3, [r3, #8]
 8001c3a:	f003 0340 	and.w	r3, r3, #64	; 0x40
 8001c3e:	2b00      	cmp	r3, #0
 8001c40:	d102      	bne.n	8001c48 <HAL_RTC_SetTime+0x90>
      assert_param(IS_RTC_HOUR12(RTC_Bcd2ToByte(sTime->Hours)));
      assert_param(IS_RTC_HOURFORMAT12(sTime->TimeFormat));
    }
    else
    {
      sTime->TimeFormat = 0x00U;
 8001c42:	68bb      	ldr	r3, [r7, #8]
 8001c44:	2200      	movs	r2, #0
 8001c46:	70da      	strb	r2, [r3, #3]
      assert_param(IS_RTC_HOUR24(RTC_Bcd2ToByte(sTime->Hours)));
    }
    assert_param(IS_RTC_MINUTES(RTC_Bcd2ToByte(sTime->Minutes)));
    assert_param(IS_RTC_SECONDS(RTC_Bcd2ToByte(sTime->Seconds)));
    tmpreg = (((uint32_t)(sTime->Hours)      << RTC_TR_HU_Pos)  | \
 8001c48:	68bb      	ldr	r3, [r7, #8]
 8001c4a:	781b      	ldrb	r3, [r3, #0]
 8001c4c:	041a      	lsls	r2, r3, #16
              ((uint32_t)(sTime->Minutes)    << RTC_TR_MNU_Pos) | \
 8001c4e:	68bb      	ldr	r3, [r7, #8]
 8001c50:	785b      	ldrb	r3, [r3, #1]
 8001c52:	021b      	lsls	r3, r3, #8
    tmpreg = (((uint32_t)(sTime->Hours)      << RTC_TR_HU_Pos)  | \
 8001c54:	4313      	orrs	r3, r2
              ((uint32_t) sTime->Seconds)                       | \
 8001c56:	68ba      	ldr	r2, [r7, #8]
 8001c58:	7892      	ldrb	r2, [r2, #2]
              ((uint32_t)(sTime->Minutes)    << RTC_TR_MNU_Pos) | \
 8001c5a:	431a      	orrs	r2, r3
              ((uint32_t)(sTime->TimeFormat) << RTC_TR_PM_Pos));
 8001c5c:	68bb      	ldr	r3, [r7, #8]
 8001c5e:	78db      	ldrb	r3, [r3, #3]
 8001c60:	059b      	lsls	r3, r3, #22
    tmpreg = (((uint32_t)(sTime->Hours)      << RTC_TR_HU_Pos)  | \
 8001c62:	4313      	orrs	r3, r2
 8001c64:	617b      	str	r3, [r7, #20]
  }

  /* Disable the write protection for RTC registers */
  __HAL_RTC_WRITEPROTECTION_DISABLE(hrtc);
 8001c66:	68fb      	ldr	r3, [r7, #12]
 8001c68:	681b      	ldr	r3, [r3, #0]
 8001c6a:	22ca      	movs	r2, #202	; 0xca
 8001c6c:	625a      	str	r2, [r3, #36]	; 0x24
 8001c6e:	68fb      	ldr	r3, [r7, #12]
 8001c70:	681b      	ldr	r3, [r3, #0]
 8001c72:	2253      	movs	r2, #83	; 0x53
 8001c74:	625a      	str	r2, [r3, #36]	; 0x24

  /* Enter Initialization mode */
  status = RTC_EnterInitMode(hrtc);
 8001c76:	68f8      	ldr	r0, [r7, #12]
 8001c78:	f000 f991 	bl	8001f9e <RTC_EnterInitMode>
 8001c7c:	4603      	mov	r3, r0
 8001c7e:	74fb      	strb	r3, [r7, #19]

  if (status == HAL_OK)
 8001c80:	7cfb      	ldrb	r3, [r7, #19]
 8001c82:	2b00      	cmp	r3, #0
 8001c84:	d120      	bne.n	8001cc8 <HAL_RTC_SetTime+0x110>
  {
    /* Set the RTC_TR register */
    hrtc->Instance->TR = (uint32_t)(tmpreg & RTC_TR_RESERVED_MASK);
 8001c86:	68fb      	ldr	r3, [r7, #12]
 8001c88:	681a      	ldr	r2, [r3, #0]
 8001c8a:	697b      	ldr	r3, [r7, #20]
 8001c8c:	f003 337f 	and.w	r3, r3, #2139062143	; 0x7f7f7f7f
 8001c90:	f023 43fe 	bic.w	r3, r3, #2130706432	; 0x7f000000
 8001c94:	6013      	str	r3, [r2, #0]

    /* Clear the bits to be configured (Deprecated. Use HAL_RTC_DST_xxx functions instead) */
    hrtc->Instance->CR &= (uint32_t)~RTC_CR_BKP;
 8001c96:	68fb      	ldr	r3, [r7, #12]
 8001c98:	681b      	ldr	r3, [r3, #0]
 8001c9a:	689a      	ldr	r2, [r3, #8]
 8001c9c:	68fb      	ldr	r3, [r7, #12]
 8001c9e:	681b      	ldr	r3, [r3, #0]
 8001ca0:	f422 2280 	bic.w	r2, r2, #262144	; 0x40000
 8001ca4:	609a      	str	r2, [r3, #8]

    /* Configure the RTC_CR register (Deprecated. Use HAL_RTC_DST_xxx functions instead) */
    hrtc->Instance->CR |= (uint32_t)(sTime->DayLightSaving | sTime->StoreOperation);
 8001ca6:	68fb      	ldr	r3, [r7, #12]
 8001ca8:	681b      	ldr	r3, [r3, #0]
 8001caa:	6899      	ldr	r1, [r3, #8]
 8001cac:	68bb      	ldr	r3, [r7, #8]
 8001cae:	68da      	ldr	r2, [r3, #12]
 8001cb0:	68bb      	ldr	r3, [r7, #8]
 8001cb2:	691b      	ldr	r3, [r3, #16]
 8001cb4:	431a      	orrs	r2, r3
 8001cb6:	68fb      	ldr	r3, [r7, #12]
 8001cb8:	681b      	ldr	r3, [r3, #0]
 8001cba:	430a      	orrs	r2, r1
 8001cbc:	609a      	str	r2, [r3, #8]

    /* Exit Initialization mode */
    status = RTC_ExitInitMode(hrtc);
 8001cbe:	68f8      	ldr	r0, [r7, #12]
 8001cc0:	f000 f9a4 	bl	800200c <RTC_ExitInitMode>
 8001cc4:	4603      	mov	r3, r0
 8001cc6:	74fb      	strb	r3, [r7, #19]
  }

  if (status == HAL_OK)
 8001cc8:	7cfb      	ldrb	r3, [r7, #19]
 8001cca:	2b00      	cmp	r3, #0
 8001ccc:	d102      	bne.n	8001cd4 <HAL_RTC_SetTime+0x11c>
  {
    hrtc->State = HAL_RTC_STATE_READY;
 8001cce:	68fb      	ldr	r3, [r7, #12]
 8001cd0:	2201      	movs	r2, #1
 8001cd2:	775a      	strb	r2, [r3, #29]
  }

  /* Enable the write protection for RTC registers */
  __HAL_RTC_WRITEPROTECTION_ENABLE(hrtc);
 8001cd4:	68fb      	ldr	r3, [r7, #12]
 8001cd6:	681b      	ldr	r3, [r3, #0]
 8001cd8:	22ff      	movs	r2, #255	; 0xff
 8001cda:	625a      	str	r2, [r3, #36]	; 0x24

  /* Process Unlocked */
  __HAL_UNLOCK(hrtc);
 8001cdc:	68fb      	ldr	r3, [r7, #12]
 8001cde:	2200      	movs	r2, #0
 8001ce0:	771a      	strb	r2, [r3, #28]

  return status;
 8001ce2:	7cfb      	ldrb	r3, [r7, #19]
}
 8001ce4:	4618      	mov	r0, r3
 8001ce6:	371c      	adds	r7, #28
 8001ce8:	46bd      	mov	sp, r7
 8001cea:	bd90      	pop	{r4, r7, pc}

08001cec <HAL_RTC_GetTime>:
  *        until current date is read to ensure consistency between the time and
  *        date values.
  * @retval HAL status
  */
HAL_StatusTypeDef HAL_RTC_GetTime(RTC_HandleTypeDef *hrtc, RTC_TimeTypeDef *sTime, uint32_t Format)
{
 8001cec:	b580      	push	{r7, lr}
 8001cee:	b086      	sub	sp, #24
 8001cf0:	af00      	add	r7, sp, #0
 8001cf2:	60f8      	str	r0, [r7, #12]
 8001cf4:	60b9      	str	r1, [r7, #8]
 8001cf6:	607a      	str	r2, [r7, #4]
  uint32_t tmpreg = 0U;
 8001cf8:	2300      	movs	r3, #0
 8001cfa:	617b      	str	r3, [r7, #20]

  /* Check the parameters */
  assert_param(IS_RTC_FORMAT(Format));

  /* Get subseconds value from the corresponding register */
  sTime->SubSeconds = (uint32_t)(hrtc->Instance->SSR);
 8001cfc:	68fb      	ldr	r3, [r7, #12]
 8001cfe:	681b      	ldr	r3, [r3, #0]
 8001d00:	6a9a      	ldr	r2, [r3, #40]	; 0x28
 8001d02:	68bb      	ldr	r3, [r7, #8]
 8001d04:	605a      	str	r2, [r3, #4]

  /* Get SecondFraction structure field from the corresponding register field*/
  sTime->SecondFraction = (uint32_t)(hrtc->Instance->PRER & RTC_PRER_PREDIV_S);
 8001d06:	68fb      	ldr	r3, [r7, #12]
 8001d08:	681b      	ldr	r3, [r3, #0]
 8001d0a:	691b      	ldr	r3, [r3, #16]
 8001d0c:	f3c3 020e 	ubfx	r2, r3, #0, #15
 8001d10:	68bb      	ldr	r3, [r7, #8]
 8001d12:	609a      	str	r2, [r3, #8]

  /* Get the TR register */
  tmpreg = (uint32_t)(hrtc->Instance->TR & RTC_TR_RESERVED_MASK);
 8001d14:	68fb      	ldr	r3, [r7, #12]
 8001d16:	681b      	ldr	r3, [r3, #0]
 8001d18:	681b      	ldr	r3, [r3, #0]
 8001d1a:	f003 337f 	and.w	r3, r3, #2139062143	; 0x7f7f7f7f
 8001d1e:	f023 43fe 	bic.w	r3, r3, #2130706432	; 0x7f000000
 8001d22:	617b      	str	r3, [r7, #20]

  /* Fill the structure fields with the read parameters */
  sTime->Hours      = (uint8_t)((tmpreg & (RTC_TR_HT  | RTC_TR_HU))  >> RTC_TR_HU_Pos);
 8001d24:	697b      	ldr	r3, [r7, #20]
 8001d26:	0c1b      	lsrs	r3, r3, #16
 8001d28:	b2db      	uxtb	r3, r3
 8001d2a:	f003 033f 	and.w	r3, r3, #63	; 0x3f
 8001d2e:	b2da      	uxtb	r2, r3
 8001d30:	68bb      	ldr	r3, [r7, #8]
 8001d32:	701a      	strb	r2, [r3, #0]
  sTime->Minutes    = (uint8_t)((tmpreg & (RTC_TR_MNT | RTC_TR_MNU)) >> RTC_TR_MNU_Pos);
 8001d34:	697b      	ldr	r3, [r7, #20]
 8001d36:	0a1b      	lsrs	r3, r3, #8
 8001d38:	b2db      	uxtb	r3, r3
 8001d3a:	f003 037f 	and.w	r3, r3, #127	; 0x7f
 8001d3e:	b2da      	uxtb	r2, r3
 8001d40:	68bb      	ldr	r3, [r7, #8]
 8001d42:	705a      	strb	r2, [r3, #1]
  sTime->Seconds    = (uint8_t)( tmpreg & (RTC_TR_ST  | RTC_TR_SU));
 8001d44:	697b      	ldr	r3, [r7, #20]
 8001d46:	b2db      	uxtb	r3, r3
 8001d48:	f003 037f 	and.w	r3, r3, #127	; 0x7f
 8001d4c:	b2da      	uxtb	r2, r3
 8001d4e:	68bb      	ldr	r3, [r7, #8]
 8001d50:	709a      	strb	r2, [r3, #2]
  sTime->TimeFormat = (uint8_t)((tmpreg & (RTC_TR_PM))               >> RTC_TR_PM_Pos);
 8001d52:	697b      	ldr	r3, [r7, #20]
 8001d54:	0d9b      	lsrs	r3, r3, #22
 8001d56:	b2db      	uxtb	r3, r3
 8001d58:	f003 0301 	and.w	r3, r3, #1
 8001d5c:	b2da      	uxtb	r2, r3
 8001d5e:	68bb      	ldr	r3, [r7, #8]
 8001d60:	70da      	strb	r2, [r3, #3]

  /* Check the input parameters format */
  if (Format == RTC_FORMAT_BIN)
 8001d62:	687b      	ldr	r3, [r7, #4]
 8001d64:	2b00      	cmp	r3, #0
 8001d66:	d11a      	bne.n	8001d9e <HAL_RTC_GetTime+0xb2>
  {
    /* Convert the time structure parameters to Binary format */
    sTime->Hours = (uint8_t)RTC_Bcd2ToByte(sTime->Hours);
 8001d68:	68bb      	ldr	r3, [r7, #8]
 8001d6a:	781b      	ldrb	r3, [r3, #0]
 8001d6c:	4618      	mov	r0, r3
 8001d6e:	f000 f98f 	bl	8002090 <RTC_Bcd2ToByte>
 8001d72:	4603      	mov	r3, r0
 8001d74:	461a      	mov	r2, r3
 8001d76:	68bb      	ldr	r3, [r7, #8]
 8001d78:	701a      	strb	r2, [r3, #0]
    sTime->Minutes = (uint8_t)RTC_Bcd2ToByte(sTime->Minutes);
 8001d7a:	68bb      	ldr	r3, [r7, #8]
 8001d7c:	785b      	ldrb	r3, [r3, #1]
 8001d7e:	4618      	mov	r0, r3
 8001d80:	f000 f986 	bl	8002090 <RTC_Bcd2ToByte>
 8001d84:	4603      	mov	r3, r0
 8001d86:	461a      	mov	r2, r3
 8001d88:	68bb      	ldr	r3, [r7, #8]
 8001d8a:	705a      	strb	r2, [r3, #1]
    sTime->Seconds = (uint8_t)RTC_Bcd2ToByte(sTime->Seconds);
 8001d8c:	68bb      	ldr	r3, [r7, #8]
 8001d8e:	789b      	ldrb	r3, [r3, #2]
 8001d90:	4618      	mov	r0, r3
 8001d92:	f000 f97d 	bl	8002090 <RTC_Bcd2ToByte>
 8001d96:	4603      	mov	r3, r0
 8001d98:	461a      	mov	r2, r3
 8001d9a:	68bb      	ldr	r3, [r7, #8]
 8001d9c:	709a      	strb	r2, [r3, #2]
  }

  return HAL_OK;
 8001d9e:	2300      	movs	r3, #0
}
 8001da0:	4618      	mov	r0, r3
 8001da2:	3718      	adds	r7, #24
 8001da4:	46bd      	mov	sp, r7
 8001da6:	bd80      	pop	{r7, pc}

08001da8 <HAL_RTC_SetDate>:
  *            @arg RTC_FORMAT_BIN: Binary data format
  *            @arg RTC_FORMAT_BCD: BCD data format
  * @retval HAL status
  */
HAL_StatusTypeDef HAL_RTC_SetDate(RTC_HandleTypeDef *hrtc, RTC_DateTypeDef *sDate, uint32_t Format)
{
 8001da8:	b590      	push	{r4, r7, lr}
 8001daa:	b087      	sub	sp, #28
 8001dac:	af00      	add	r7, sp, #0
 8001dae:	60f8      	str	r0, [r7, #12]
 8001db0:	60b9      	str	r1, [r7, #8]
 8001db2:	607a      	str	r2, [r7, #4]
  uint32_t datetmpreg = 0U;
 8001db4:	2300      	movs	r3, #0
 8001db6:	617b      	str	r3, [r7, #20]

  /* Check the parameters */
  assert_param(IS_RTC_FORMAT(Format));

  /* Process Locked */
  __HAL_LOCK(hrtc);
 8001db8:	68fb      	ldr	r3, [r7, #12]
 8001dba:	7f1b      	ldrb	r3, [r3, #28]
 8001dbc:	2b01      	cmp	r3, #1
 8001dbe:	d101      	bne.n	8001dc4 <HAL_RTC_SetDate+0x1c>
 8001dc0:	2302      	movs	r3, #2
 8001dc2:	e071      	b.n	8001ea8 <HAL_RTC_SetDate+0x100>
 8001dc4:	68fb      	ldr	r3, [r7, #12]
 8001dc6:	2201      	movs	r2, #1
 8001dc8:	771a      	strb	r2, [r3, #28]

  hrtc->State = HAL_RTC_STATE_BUSY;
 8001dca:	68fb      	ldr	r3, [r7, #12]
 8001dcc:	2202      	movs	r2, #2
 8001dce:	775a      	strb	r2, [r3, #29]

  if ((Format == RTC_FORMAT_BIN) && ((sDate->Month & 0x10U) == 0x10U))
 8001dd0:	687b      	ldr	r3, [r7, #4]
 8001dd2:	2b00      	cmp	r3, #0
 8001dd4:	d10e      	bne.n	8001df4 <HAL_RTC_SetDate+0x4c>
 8001dd6:	68bb      	ldr	r3, [r7, #8]
 8001dd8:	785b      	ldrb	r3, [r3, #1]
 8001dda:	f003 0310 	and.w	r3, r3, #16
 8001dde:	2b00      	cmp	r3, #0
 8001de0:	d008      	beq.n	8001df4 <HAL_RTC_SetDate+0x4c>
  {
    sDate->Month = (uint8_t)((sDate->Month & (uint8_t)~(0x10U)) + (uint8_t)0x0AU);
 8001de2:	68bb      	ldr	r3, [r7, #8]
 8001de4:	785b      	ldrb	r3, [r3, #1]
 8001de6:	f023 0310 	bic.w	r3, r3, #16
 8001dea:	b2db      	uxtb	r3, r3
 8001dec:	330a      	adds	r3, #10
 8001dee:	b2da      	uxtb	r2, r3
 8001df0:	68bb      	ldr	r3, [r7, #8]
 8001df2:	705a      	strb	r2, [r3, #1]
  }

  assert_param(IS_RTC_WEEKDAY(sDate->WeekDay));

  if (Format == RTC_FORMAT_BIN)
 8001df4:	687b      	ldr	r3, [r7, #4]
 8001df6:	2b00      	cmp	r3, #0
 8001df8:	d11c      	bne.n	8001e34 <HAL_RTC_SetDate+0x8c>
  {
    assert_param(IS_RTC_YEAR(sDate->Year));
    assert_param(IS_RTC_MONTH(sDate->Month));
    assert_param(IS_RTC_DATE(sDate->Date));

    datetmpreg = (((uint32_t)RTC_ByteToBcd2(sDate->Year)  << RTC_DR_YU_Pos) | \
 8001dfa:	68bb      	ldr	r3, [r7, #8]
 8001dfc:	78db      	ldrb	r3, [r3, #3]
 8001dfe:	4618      	mov	r0, r3
 8001e00:	f000 f929 	bl	8002056 <RTC_ByteToBcd2>
 8001e04:	4603      	mov	r3, r0
 8001e06:	041c      	lsls	r4, r3, #16
                  ((uint32_t)RTC_ByteToBcd2(sDate->Month) << RTC_DR_MU_Pos) | \
 8001e08:	68bb      	ldr	r3, [r7, #8]
 8001e0a:	785b      	ldrb	r3, [r3, #1]
 8001e0c:	4618      	mov	r0, r3
 8001e0e:	f000 f922 	bl	8002056 <RTC_ByteToBcd2>
 8001e12:	4603      	mov	r3, r0
 8001e14:	021b      	lsls	r3, r3, #8
    datetmpreg = (((uint32_t)RTC_ByteToBcd2(sDate->Year)  << RTC_DR_YU_Pos) | \
 8001e16:	431c      	orrs	r4, r3
                  ((uint32_t)RTC_ByteToBcd2(sDate->Date))                   | \
 8001e18:	68bb      	ldr	r3, [r7, #8]
 8001e1a:	789b      	ldrb	r3, [r3, #2]
 8001e1c:	4618      	mov	r0, r3
 8001e1e:	f000 f91a 	bl	8002056 <RTC_ByteToBcd2>
 8001e22:	4603      	mov	r3, r0
                  ((uint32_t)RTC_ByteToBcd2(sDate->Month) << RTC_DR_MU_Pos) | \
 8001e24:	ea44 0203 	orr.w	r2, r4, r3
                  ((uint32_t)sDate->WeekDay               << RTC_DR_WDU_Pos));
 8001e28:	68bb      	ldr	r3, [r7, #8]
 8001e2a:	781b      	ldrb	r3, [r3, #0]
 8001e2c:	035b      	lsls	r3, r3, #13
    datetmpreg = (((uint32_t)RTC_ByteToBcd2(sDate->Year)  << RTC_DR_YU_Pos) | \
 8001e2e:	4313      	orrs	r3, r2
 8001e30:	617b      	str	r3, [r7, #20]
 8001e32:	e00e      	b.n	8001e52 <HAL_RTC_SetDate+0xaa>
  {
    assert_param(IS_RTC_YEAR(RTC_Bcd2ToByte(sDate->Year)));
    assert_param(IS_RTC_MONTH(RTC_Bcd2ToByte(sDate->Month)));
    assert_param(IS_RTC_DATE(RTC_Bcd2ToByte(sDate->Date)));

    datetmpreg = ((((uint32_t)sDate->Year)    << RTC_DR_YU_Pos) | \
 8001e34:	68bb      	ldr	r3, [r7, #8]
 8001e36:	78db      	ldrb	r3, [r3, #3]
 8001e38:	041a      	lsls	r2, r3, #16
                  (((uint32_t)sDate->Month)   << RTC_DR_MU_Pos) | \
 8001e3a:	68bb      	ldr	r3, [r7, #8]
 8001e3c:	785b      	ldrb	r3, [r3, #1]
 8001e3e:	021b      	lsls	r3, r3, #8
    datetmpreg = ((((uint32_t)sDate->Year)    << RTC_DR_YU_Pos) | \
 8001e40:	4313      	orrs	r3, r2
                  ((uint32_t) sDate->Date)                      | \
 8001e42:	68ba      	ldr	r2, [r7, #8]
 8001e44:	7892      	ldrb	r2, [r2, #2]
                  (((uint32_t)sDate->Month)   << RTC_DR_MU_Pos) | \
 8001e46:	431a      	orrs	r2, r3
                  (((uint32_t)sDate->WeekDay) << RTC_DR_WDU_Pos));
 8001e48:	68bb      	ldr	r3, [r7, #8]
 8001e4a:	781b      	ldrb	r3, [r3, #0]
 8001e4c:	035b      	lsls	r3, r3, #13
    datetmpreg = ((((uint32_t)sDate->Year)    << RTC_DR_YU_Pos) | \
 8001e4e:	4313      	orrs	r3, r2
 8001e50:	617b      	str	r3, [r7, #20]
  }

  /* Disable the write protection for RTC registers */
  __HAL_RTC_WRITEPROTECTION_DISABLE(hrtc);
 8001e52:	68fb      	ldr	r3, [r7, #12]
 8001e54:	681b      	ldr	r3, [r3, #0]
 8001e56:	22ca      	movs	r2, #202	; 0xca
 8001e58:	625a      	str	r2, [r3, #36]	; 0x24
 8001e5a:	68fb      	ldr	r3, [r7, #12]
 8001e5c:	681b      	ldr	r3, [r3, #0]
 8001e5e:	2253      	movs	r2, #83	; 0x53
 8001e60:	625a      	str	r2, [r3, #36]	; 0x24

  /* Enter Initialization mode */
  status = RTC_EnterInitMode(hrtc);
 8001e62:	68f8      	ldr	r0, [r7, #12]
 8001e64:	f000 f89b 	bl	8001f9e <RTC_EnterInitMode>
 8001e68:	4603      	mov	r3, r0
 8001e6a:	74fb      	strb	r3, [r7, #19]

  if (status == HAL_OK)
 8001e6c:	7cfb      	ldrb	r3, [r7, #19]
 8001e6e:	2b00      	cmp	r3, #0
 8001e70:	d10c      	bne.n	8001e8c <HAL_RTC_SetDate+0xe4>
  {
    /* Set the RTC_DR register */
    hrtc->Instance->DR = (uint32_t)(datetmpreg & RTC_DR_RESERVED_MASK);
 8001e72:	68fb      	ldr	r3, [r7, #12]
 8001e74:	681a      	ldr	r2, [r3, #0]
 8001e76:	697b      	ldr	r3, [r7, #20]
 8001e78:	f023 437f 	bic.w	r3, r3, #4278190080	; 0xff000000
 8001e7c:	f023 03c0 	bic.w	r3, r3, #192	; 0xc0
 8001e80:	6053      	str	r3, [r2, #4]

    /* Exit Initialization mode */
    status = RTC_ExitInitMode(hrtc);
 8001e82:	68f8      	ldr	r0, [r7, #12]
 8001e84:	f000 f8c2 	bl	800200c <RTC_ExitInitMode>
 8001e88:	4603      	mov	r3, r0
 8001e8a:	74fb      	strb	r3, [r7, #19]
  }

  if (status == HAL_OK)
 8001e8c:	7cfb      	ldrb	r3, [r7, #19]
 8001e8e:	2b00      	cmp	r3, #0
 8001e90:	d102      	bne.n	8001e98 <HAL_RTC_SetDate+0xf0>
  {
    hrtc->State = HAL_RTC_STATE_READY;
 8001e92:	68fb      	ldr	r3, [r7, #12]
 8001e94:	2201      	movs	r2, #1
 8001e96:	775a      	strb	r2, [r3, #29]
  }

  /* Enable the write protection for RTC registers */
  __HAL_RTC_WRITEPROTECTION_ENABLE(hrtc);
 8001e98:	68fb      	ldr	r3, [r7, #12]
 8001e9a:	681b      	ldr	r3, [r3, #0]
 8001e9c:	22ff      	movs	r2, #255	; 0xff
 8001e9e:	625a      	str	r2, [r3, #36]	; 0x24

  /* Process Unlocked */
  __HAL_UNLOCK(hrtc);
 8001ea0:	68fb      	ldr	r3, [r7, #12]
 8001ea2:	2200      	movs	r2, #0
 8001ea4:	771a      	strb	r2, [r3, #28]

  return status;
 8001ea6:	7cfb      	ldrb	r3, [r7, #19]
}
 8001ea8:	4618      	mov	r0, r3
 8001eaa:	371c      	adds	r7, #28
 8001eac:	46bd      	mov	sp, r7
 8001eae:	bd90      	pop	{r4, r7, pc}

08001eb0 <HAL_RTC_GetDate>:
  *        until current date is read to ensure consistency between the time and
  *        date values.
  * @retval HAL status
  */
HAL_StatusTypeDef HAL_RTC_GetDate(RTC_HandleTypeDef *hrtc, RTC_DateTypeDef *sDate, uint32_t Format)
{
 8001eb0:	b580      	push	{r7, lr}
 8001eb2:	b086      	sub	sp, #24
 8001eb4:	af00      	add	r7, sp, #0
 8001eb6:	60f8      	str	r0, [r7, #12]
 8001eb8:	60b9      	str	r1, [r7, #8]
 8001eba:	607a      	str	r2, [r7, #4]
  uint32_t datetmpreg = 0U;
 8001ebc:	2300      	movs	r3, #0
 8001ebe:	617b      	str	r3, [r7, #20]

  /* Check the parameters */
  assert_param(IS_RTC_FORMAT(Format));

  /* Get the DR register */
  datetmpreg = (uint32_t)(hrtc->Instance->DR & RTC_DR_RESERVED_MASK);
 8001ec0:	68fb      	ldr	r3, [r7, #12]
 8001ec2:	681b      	ldr	r3, [r3, #0]
 8001ec4:	685b      	ldr	r3, [r3, #4]
 8001ec6:	f023 437f 	bic.w	r3, r3, #4278190080	; 0xff000000
 8001eca:	f023 03c0 	bic.w	r3, r3, #192	; 0xc0
 8001ece:	617b      	str	r3, [r7, #20]

  /* Fill the structure fields with the read parameters */
  sDate->Year    = (uint8_t)((datetmpreg & (RTC_DR_YT | RTC_DR_YU)) >> RTC_DR_YU_Pos);
 8001ed0:	697b      	ldr	r3, [r7, #20]
 8001ed2:	0c1b      	lsrs	r3, r3, #16
 8001ed4:	b2da      	uxtb	r2, r3
 8001ed6:	68bb      	ldr	r3, [r7, #8]
 8001ed8:	70da      	strb	r2, [r3, #3]
  sDate->Month   = (uint8_t)((datetmpreg & (RTC_DR_MT | RTC_DR_MU)) >> RTC_DR_MU_Pos);
 8001eda:	697b      	ldr	r3, [r7, #20]
 8001edc:	0a1b      	lsrs	r3, r3, #8
 8001ede:	b2db      	uxtb	r3, r3
 8001ee0:	f003 031f 	and.w	r3, r3, #31
 8001ee4:	b2da      	uxtb	r2, r3
 8001ee6:	68bb      	ldr	r3, [r7, #8]
 8001ee8:	705a      	strb	r2, [r3, #1]
  sDate->Date    = (uint8_t) (datetmpreg & (RTC_DR_DT | RTC_DR_DU));
 8001eea:	697b      	ldr	r3, [r7, #20]
 8001eec:	b2db      	uxtb	r3, r3
 8001eee:	f003 033f 	and.w	r3, r3, #63	; 0x3f
 8001ef2:	b2da      	uxtb	r2, r3
 8001ef4:	68bb      	ldr	r3, [r7, #8]
 8001ef6:	709a      	strb	r2, [r3, #2]
  sDate->WeekDay = (uint8_t)((datetmpreg & (RTC_DR_WDU))            >> RTC_DR_WDU_Pos);
 8001ef8:	697b      	ldr	r3, [r7, #20]
 8001efa:	0b5b      	lsrs	r3, r3, #13
 8001efc:	b2db      	uxtb	r3, r3
 8001efe:	f003 0307 	and.w	r3, r3, #7
 8001f02:	b2da      	uxtb	r2, r3
 8001f04:	68bb      	ldr	r3, [r7, #8]
 8001f06:	701a      	strb	r2, [r3, #0]

  /* Check the input parameters format */
  if (Format == RTC_FORMAT_BIN)
 8001f08:	687b      	ldr	r3, [r7, #4]
 8001f0a:	2b00      	cmp	r3, #0
 8001f0c:	d11a      	bne.n	8001f44 <HAL_RTC_GetDate+0x94>
  {
    /* Convert the date structure parameters to Binary format */
    sDate->Year  = (uint8_t)RTC_Bcd2ToByte(sDate->Year);
 8001f0e:	68bb      	ldr	r3, [r7, #8]
 8001f10:	78db      	ldrb	r3, [r3, #3]
 8001f12:	4618      	mov	r0, r3
 8001f14:	f000 f8bc 	bl	8002090 <RTC_Bcd2ToByte>
 8001f18:	4603      	mov	r3, r0
 8001f1a:	461a      	mov	r2, r3
 8001f1c:	68bb      	ldr	r3, [r7, #8]
 8001f1e:	70da      	strb	r2, [r3, #3]
    sDate->Month = (uint8_t)RTC_Bcd2ToByte(sDate->Month);
 8001f20:	68bb      	ldr	r3, [r7, #8]
 8001f22:	785b      	ldrb	r3, [r3, #1]
 8001f24:	4618      	mov	r0, r3
 8001f26:	f000 f8b3 	bl	8002090 <RTC_Bcd2ToByte>
 8001f2a:	4603      	mov	r3, r0
 8001f2c:	461a      	mov	r2, r3
 8001f2e:	68bb      	ldr	r3, [r7, #8]
 8001f30:	705a      	strb	r2, [r3, #1]
    sDate->Date  = (uint8_t)RTC_Bcd2ToByte(sDate->Date);
 8001f32:	68bb      	ldr	r3, [r7, #8]
 8001f34:	789b      	ldrb	r3, [r3, #2]
 8001f36:	4618      	mov	r0, r3
 8001f38:	f000 f8aa 	bl	8002090 <RTC_Bcd2ToByte>
 8001f3c:	4603      	mov	r3, r0
 8001f3e:	461a      	mov	r2, r3
 8001f40:	68bb      	ldr	r3, [r7, #8]
 8001f42:	709a      	strb	r2, [r3, #2]
  }
  return HAL_OK;
 8001f44:	2300      	movs	r3, #0
}
 8001f46:	4618      	mov	r0, r3
 8001f48:	3718      	adds	r7, #24
 8001f4a:	46bd      	mov	sp, r7
 8001f4c:	bd80      	pop	{r7, pc}

08001f4e <HAL_RTC_WaitForSynchro>:
  * @param  hrtc pointer to a RTC_HandleTypeDef structure that contains
  *                the configuration information for RTC.
  * @retval HAL status
  */
HAL_StatusTypeDef HAL_RTC_WaitForSynchro(RTC_HandleTypeDef *hrtc)
{
 8001f4e:	b580      	push	{r7, lr}
 8001f50:	b084      	sub	sp, #16
 8001f52:	af00      	add	r7, sp, #0
 8001f54:	6078      	str	r0, [r7, #4]
  uint32_t tickstart = 0U;
 8001f56:	2300      	movs	r3, #0
 8001f58:	60fb      	str	r3, [r7, #12]

  /* Clear RSF flag */
  hrtc->Instance->ISR &= (uint32_t)RTC_RSF_MASK;
 8001f5a:	687b      	ldr	r3, [r7, #4]
 8001f5c:	681b      	ldr	r3, [r3, #0]
 8001f5e:	68da      	ldr	r2, [r3, #12]
 8001f60:	687b      	ldr	r3, [r7, #4]
 8001f62:	681b      	ldr	r3, [r3, #0]
 8001f64:	f022 02a0 	bic.w	r2, r2, #160	; 0xa0
 8001f68:	60da      	str	r2, [r3, #12]

  /* Get tick */
  tickstart = HAL_GetTick();
 8001f6a:	f7fe fdcd 	bl	8000b08 <HAL_GetTick>
 8001f6e:	60f8      	str	r0, [r7, #12]

  /* Wait the registers to be synchronised */
  while ((hrtc->Instance->ISR & RTC_ISR_RSF) == 0U)
 8001f70:	e009      	b.n	8001f86 <HAL_RTC_WaitForSynchro+0x38>
  {
    if ((HAL_GetTick() - tickstart) > RTC_TIMEOUT_VALUE)
 8001f72:	f7fe fdc9 	bl	8000b08 <HAL_GetTick>
 8001f76:	4602      	mov	r2, r0
 8001f78:	68fb      	ldr	r3, [r7, #12]
 8001f7a:	1ad3      	subs	r3, r2, r3
 8001f7c:	f5b3 7f7a 	cmp.w	r3, #1000	; 0x3e8
 8001f80:	d901      	bls.n	8001f86 <HAL_RTC_WaitForSynchro+0x38>
    {
